:020000040000FA
:060000000A128A110E280D
:10000800FE00030EF5000408F6000A08F7000A12BD
:100018008A15F62B0A128A1111280A128A11FC274E
:100028000A128A11F8008317D2308400DA300A12D3
:100038008A11F4270A128A118313CD308400EA301A
:100048000A128A11F4270A128A11EE01F001F1014D
:10005800F201F30183010A128A113228FF300A12D1
:100068008A158F200A128A11FF3A03193C283D2865
:100078007228FD300A128A158F200A128A118316F7
:100088000313C900CA01FC300A128A158F200A120C
:100098008A1183160313CB00CC014B08CC00CB018B
:1000A80049084B04DA004A084C04DB00FE300A1207
:1000B8008A158F200A128A1183160313C90049086A
:1000C80083120313EE00FF300A128A158F200A12DA
:1000D8008A1183160313C9004908F80001308316F2
:1000E80003138500073089008601880111308312C7
:1000F800031390003C308F00B0308E0041309F00D9
:100108008E30831603139F00C0308B008030870029
:100118002630980090308312031398001930831604
:1001280003139900831203130C13831603130C177C
:100138008C160C10F001F10183160317D401D501B8
:10014800710883120313B5007008B4000A128A11EB
:1001580085270A128A1183120313091CB428B528AB
:10016800BF280918B828B928B5280A128A15B2264E
:100178000A128A11AF28891CC228C328CD288918D9
:10018800C628C728C3280A128A1545220A128A11C6
:10019800AF28091DD028D1283F290919D428D528E6
:1001A800D12870087104031DDA28DB28AF288316CC
:1001B8000317D701D70A9C3083120313B400013008
:1001C800B5004E30B6008330B700780883160313A5
:1001D800C900CA01490883120313B8008316031320
:1001E8004A0883120313B9006E0883160313CB0061
:1001F800CC014B0883120313BA00831603134C086F
:1002080083120313BB00831603135B0883120313C3
:10021800BD00831603135A0883120313BC000A1285
:100228008A1153240A128A119C3083120313A000E6
:100238000130A1000A128A15CD210A128A118316EB
:100248000317D001823083160313CA00DD30C900BA
:10025800C90B2C29CA0B2C29013083160313C9009A
:10026800490883160317D0070A305002031C3D299A
:100278003E292629AF288316031752085304031969
:10028800462947296529D201D3010A128A157C25F6
:100298000A128A1183160317D1015108E03E84001F
:1002A80083138001013083160313C900490883169C
:1002B8000317D1070A305102031C63296429512905
:1002C800AF285808590403196A296B29312AFF30C5
:1002D80083120313A6000330A700831603175908D7
:1002E80083120313A10083160317580883120313FC
:1002F800A0003230A2000030A3000A128A15CE20D6
:100308000A128A11831203132108A9002008A800E1
:100318000A128A15C1220A128A11031083120313C2
:10032800260D83160317D80083120313270D83168F
:100338000317D900003059024B300319580203182B
:10034800A629A729AC290A128A1582220A128A111B
:100358008316031756080319B229B329312A0A301C
:1003680083120313A6000030A70083160317590849
:1003780083120313A9008316031758088312031363
:10038800A8000A128A15C1220A128A1183120313BD
:10039800270883160317CD00831203132608831634
:1003A8000317CC000A3083120313AE000030AF00ED
:1003B80083160317590883120313B1008316031712
:1003C800580883120313B0000A128A1509220A1268
:1003D8008A11831203132F0883160317CF00831281
:1003E80003132E0883160317CE00BC3083120313A1
:1003F800B4000130B5003430B6008430B70083163D
:1004080003174D0883120313B900831603174C080A
:1004180083120313B800831603174F0883120313BC
:10042800BB00831603174E0883120313BA000A127F
:100438008A1153240A128A11BC3083120313A000B4
:100448000130A1000A128A15CD210A128A118316D9
:100458000317D801D901D601AF28AF280A128A118B
:100468000E28831203134B08803AFF0080307F0266
:10047800031D402A01304A02031C432A442AF32A56
:10048800FF3083120313CA070318CB0AFF30CB07C8
:1004980003104A0DCA004B0DCB004A08013E0A1250
:1004A8008A158F200A128A1183120313CC00CD01FA
:1004B8004A080A128A158F200A128A118312031316
:1004C800CE00CF014E08CF00CE014C084E04EA0002
:1004D8004D084F04EB006B08803AFF0083307F0221
:1004E800031D782AE8306A0203187B2A7C2A822AAC
:1004F80083120313EB1F812A822A9D2A503083120C
:100508000313B4000030B5006730B6008330B7007D
:100518000A128A1153240A128A11503083120313C3
:10052800A0000030A1000A128A15CD210A128A11F2
:10053800FE2A5030B4000030B500AE30B60083302B
:10054800B7000230A0000030A1004B08A3004A0801
:10055800A2000A128A15E0250A128A1183120313CF
:100568002008013EB80021080318013E003EB900EA
:100578000A30A0000030A1006B08A3006A08A2009E
:100588000A128A15E0250A128A1183120313210818
:10059800BB002008BA000A30A0000030A1006B0898
:1005A800A3006A08A2000A128A159B230A128A115C
:1005B800831203132108BD002008BC000A128A1107
:1005C80053240A128A11503083120313A0000030FA
:1005D800A1000A128A15CD210A128A11FE2A983022
:1005E80083120313A0008330A1000A128A15CD21BB
:0605F8000A128A1108003E
:10060000FF1B0A2B83137F1883170008840A031922
:10061000FF0A08007F087F398A000408840A03194A
:10062000FF0A8200013400340A3400346434003498
:10063000E834033410342734003410342034303498
:100640004034503460347034803490344F346334E8
:1006500075347234723469346F34203475346E34C6
:1006600020346534723472346F347234203465341B
:100670006E3420346C346134203469346E34743414
:100680006534723470347234653474346134633474
:1006900069346F346E342E340A3400340A344334EF
:1006A000693465347234723465342C3420344C34FB
:1006B0003A34253464342C344E343A34253464349A
:1006C0002C3454343A34253464340A3400340A3433
:1006D000503472346F3464347534633474346F342A
:1006E00020346E346F34203465346E3463346F34A8
:1006F0006E3474347234613464346F340A340034C8
:100700000A344334693465347234723465342C34B9
:100710004C343A34253464342C344E343A34253451
:1007200064342C3454343A34253464340A34003478
:100730004E346F342034653478346934733474340F
:1007400065342034703472346F34643475346334F7
:1007500074346F34203430343034003454345034F2
:100760003A34203425346434203450343A3420343C
:10077000253464342C3425346434203445347534C1
:1007800072346F34733400340A344534733474343F
:10079000613464346F343A34203445346E34203458
:1007A0006534733470346534723461340A3400341F
:1007B000503472346F3464347534633474346F3449
:1007C000203469346E346734723465347334613480
:1007D00064346F340A3400344E346F342034683457
:1007E000613479342034703472346F346434753445
:1007F000633474346F342034303430340034503443
:1008000072346F3464347534633474346F34203428
:10081000633461346E34633465346C34613464340D
:100820006F3400340A3445347334743461346434BE
:100830006F343A3420344134633474346934763458
:100840006F340A3400340A344C343A342534643476
:100850002C344E343A34253464342C3454343A3401
:10086000253464340A34003456343D342534643439
:100870002E342534643456340A3400340A34503467
:10088000253464343D34253464340A340034283447
:100890006E3475346C346C342934003445343A3455
:1008A000253473340034383083120313BE003E08FD
:1008B000C400872D2530490603195F2C602C702C4D
:1008C0004908BE00340884008317351C83133E0892
:1008D00080000130B4070318B50A0030B507872D32
:1008E000C201B62C4408840083130008C500840AA2
:1008F00000088403C6000230BE003E08C407450855
:100900004604031D842C852CA72C4730C500843059
:10091000C600A72C4608FF00450884000A128A1169
:1009200000230A128A11BE00340884008317351C84
:1009300083133E0880000130C5070318C60A003043
:10094000C6070130B4070318B50A0030B5074608DA
:10095000FF00450884000A128A1100230A128A1136
:10096000003A031DB42CB52C8A2C872D3708BF0004
:100970003608BE00B60A0319B70A3F08FF003E0852
:1009800084000A128A1100230A128A11C900C000C9
:10099000C1014108003A0319CE2C872D4008003AC6
:1009A00003199F2D643A0319DC2C0D3A0319DC2C32
:1009B0001A3A0319722C872D440884008313000807
:1009C000C700840A0008C8000230BE003E08C40701
:1009D000C81FEB2CEC2CF52C0330BE003E08C204E3
:1009E000C709C809C70A0319C80AC901C90A4908B9
:1009F000BE003E07123E840083300318013EFF0014
:100A00000A128A1100230A128A11BF000A128A11DF
:100A100000230A128A11C00040084802031D122D4B
:100A20003F0847020318152D162D172D212D0130D3
:100A3000BE003E08C90705304906031D202D212DA3
:100A4000F72C420803390319262D272D362D2D307A
:100A5000BE00340884008317351C83133E088000D1
:100A60000130B4070318B50A0030B5074908BE00C5
:100A70003E08C3007E2D0A30AE000030AF004308B0
:100A8000BE003E07123E840083300318013EFF0083
:100A90000A128A1100230A128A11A6000A128A1168
:100AA00000230A128A11A7004808A9004708A800D5
:100AB0000A128A15C1220A128A1183120313270807
:100AC000B1002608B0000A128A1509220A128A11FA
:100AD000831203132E08303EBF003F08C9004908A7
:100AE000BE00340884008317351C83133E08800041
:100AF0000130B4070318B50A0030B507FF30BE0057
:100B00003E08C307430A031D862D872D3B2D37085A
:100B1000BF003608BE00B60A0319B70A3F08FF0037
:100B20003E0884000A128A1100230A128A11C000AA
:100B30004008C9004908031D9E2D9F2D5A2C3408DA
:100B400084008317351C831380010800831203136C
:100B5000C501C601C201C301831203134208E03E6E
:100B6000840083130008D03EBF00FF30031800301C
:100B7000C0003F08C5070318C60A4008C607013071
:100B8000C2070318C30A0030C3074308803AFF00B6
:100B900080307F02031DCE2D08304202031CD12D70
:100BA000D22DAC2D0A3083120313A0000030A10017
:100BB0004608A3004508A2000A128A159B230A12C0
:100BC0008A11831603136808D03E83120313BF00F3
:100BD000FF3003180030C00021084006031DF22D2D
:100BE00020083F06031DF52DF62D892E0A30BF0083
:100BF0003F08A0008316031360080A128A157820A4
:100C00000A128A11831603136107F03E831203133D
:100C1000C0004008C40044080A128A1549260A1276
:100C20008A11831203133708C6003608C5007008FE
:100C30004507BF0071080318710A4607C00003305A
:100C40004002E83003193F020318272E282E892E70
:100C5000450A031D302E460A03192F2E302E892EE9
:100C600072080319342E352E3E2ED830A000833062
:100C7000A1000A128A15CD210A128A1101308312AD
:100C80000313C4024408BF00C0013F08AE0040087F
:100C9000AF000A128A15B6240A128A1183120313AE
:100CA0004408BF00C0013F0883160313DE0083120F
:100CB0000313400883160313DF007108831603171C
:100CC000D5007008D400831203134508F0070318F9
:100CD000F10A4608F1077108B5007008B4000A125D
:100CE0008A1185270A128A1183120313851506308B
:100CF00083120313C1001330C000AD30BF00BF0B1F
:100D00007F2EC00B7F2EC10B7F2E83120313851104
:100D10009B2E8516063083120313C1001330C000CA
:100D2000AD30BF00BF0B922EC00B922EC10B922E86
:100D300083120313851208000D3083160313610616
:100D40000319A32EA42EAA2E0A306106031DA92E74
:100D5000AA2EC82E700871040319AF2EB02EBC2E17
:100D6000123083120313A0008430A1000A128A15E6
:100D7000CD210A128A11842FC43083120313A000DC
:100D80008330A1000A128A15CD210A128A11842FFC
:100D90004C306106031DCD2ECE2E132FA4308312AE
:100DA0000313B4000030B5002330B6008430B70020
:100DB000780883160313A000A101200883120313EF
:100DC000B80083160313210883120313B9006E08B9
:100DD00083160313A200A301220883120313BA008F
:100DE00083160313230883120313BB008316031314
:100DF0005B0883120313BD00831603135A08831282
:100E00000313BC000A128A1153240A128A11A43057
:100E100083120313A0000030A1000A128A15CD210D
:100E20000A128A11842F56306106031D182F192FBC
:100E3000212F831203131F1583160317D601D60A19
:100E4000842F3A3061020318262F272F792F303054
:100E50006102031C2C2F2D2F792F3A3062020318C8
:100E6000322F332F792F30306202031C382F392F65
:100E7000792F6108A000A101200883120313A000AC
:100E800083160313210883120313A1000A30A20062
:100E90000030A3000A128A15CE200A128A11831686
:100EA0000313620883120313200783160313A2009F
:100EB0000030031801308312031321078316031334
:100EC000A3002208F03EC40023080318013EFD3EA3
:100ED000C500450883120313CB008316031344088F
:100EE00083120313CA000A128A1135220A128A11C8
:100EF000842F263083120313A0008330A1000A122E
:100F00008A15CD210A128A11080064308312031356
:100F1000A6000030A7003508A9003408A8000A126E
:100F20008A15C1220A128A118312031326081C3E55
:100F3000840083300318013EFF000A128A11002347
:100F40000A128A1186000A30A6000030A700350870
:100F5000B1003408B0006430AE000030AF000A12B7
:100F60008A1509220A128A11831203132F08A90075
:100F70002E08A8000A128A15C1220A128A118312A9
:100F800003132608060486003508B1003408B000B3
:100F90006430AE000030AF000A128A1509220A122E
:100FA0008A11831203132F08B7002E08B6000A30E7
:100FB000AE000030AF003708B1003608B0000A12AA
:100FC0008A1509220A128A11831203132E081C3E65
:100FD000840083300318013EFF000A128A110023A7
:100FE0000A128A118800080064008001840A04063D
:0A0FF000031900340406F52F013444
:1010C4004430831603136106031D69286A286C28BB
:1010D400F2017728263083120313A0008330A10085
:1010E4000A128A15CD210A128A15080083120313E5
:1010F400A300A201231C7F28802884282008A100A3
:101104002108A2070310A00D0310A30C2308031D3C
:101114008C288D287C282208080083120313A10040
:101124006400831603178C1898289B2883120313D2
:101134009228831203132108831203178D003F3072
:1011440083120313A0002008831603178C050C14C4
:10115400831203170C0808003F308316031360063C
:10116400031DB528B628BC280A128A119C260A1227
:101174008A15CD282B306006031DC128C228C82833
:101184000A128A1527210A128A15CD280A128A15ED
:1011940062200A128A15080083120313A401A50110
:1011A400201CD528D628DC282208A4070318A50A61
:1011B4002308A50701300310A20DA30DFF3E031D54
:1011C400DD2801300310A10CA00CFF3E031DE42810
:1011D40020082104031DEF28F028D2282508A100A7
:1011E4002408A000080083120313A201A20AA1018B
:1011F40003290130A0002008A2070130A000200824
:10120400A1072208E03E84003A3083130002031849
:101214000C290D2916292208E03E840030300002F2
:101224000318152916291F292208E03E84003D30A1
:101234000006031D1E291F29252907302202031C2D
:1012440024292529FB28210808004C308316031380
:101254006106031D2E292F2935290A128A15072311
:101264000A128A155B290A128A15F5200A128A15B0
:10127400063A031D3E293F2945290A128A152E27BD
:101284000A128A155B294430831603136106031D71
:101294004C294D295029F201F20A5B292630831288
:1012A4000313A0008330A1000A128A15CD210A126B
:1012B4008A15080083120313A200831603178C18DF
:1012C400642965295F2983120313220883120317F3
:1012D4008D00831203132008831203178C003F3000
:1012E40083120313A1002108831603178C058312AC
:1012F400031303108B1F7F298029812903148B1367
:10130400831603170C1555308D00AA308D008C14EC
:101314000C1183120313031C9029912992298B1712
:10132400080083120313AC01AD01AA01AB01BE296D
:101334002A082B04031D9F29A029A5290130AC00EC
:101344000030AD00B8292D08A1002C08A000270802
:10135400A3002608A2000A128A15CE200A128A15B2
:10136400831203132108AD002008AC000130AA0742
:101374000318AB0A0030AB072B082902031DC4294C
:101384002A0828020318C729C8299A292D08A70062
:101394002C08A600080083120313A501A601A701C7
:1013A400A70AFD2925082007A3002108A200031885
:1013B400A20AA51FDE29A203831203132208A40094
:1013C4002408FF00230884000A128A1100230A1249
:1013D4008A1599001908031DF029F129F329A70199
:1013E400F9290130A5070318A60A0030A6070C1E28
:1013F400FC29FD29F9292708031D012A022AD429D9
:101404000D3099000C1E072A082A042A08008312AA
:1014140003132E082F040319102A112A402AB3019A
:10142400B30A1F2A01300310AE0DAF0DFF3E031D9A
:10143400152A0130B2003208B307AF1F222A232A2B
:10144400142A2F083102031D292A2E083002031CF6
:101454002C2A2D2A332A2E08B0022F08031CB1038C
:10146400B10201300310AF0CAE0CFF3E031D342A51
:101474000130B302031D3F2A402A232A3108AF005A
:101484003008AE0008008316031755087106031DC3
:101494004D2A540870060319502A512A712A5508F6
:1014A400F1005408F000831603135F08831203133A
:1014B400AF00831603135E0883120313AE000A12EF
:1014C4008A1554240A128A15710883120313B5006D
:1014D4007008B4000A128A1185270A128A15720844
:1014E4000319752A762A812AFF3083120313A00078
:1014F4008330A1000A128A15CD210A128A15080028
:10150400831603135A0883120313A3002308A400A9
:10151400831603135B0883120313A3002308A50097
:101524002508A3002308A000FC300A128A155C21B8
:101534000A128A15831203132408A3002308A000A7
:10154400FD300A128A155C210A128A1583120313CC
:101554006E08A3002308A000FE300A128A155C213D
:101564000A128A15780883120313A3002308A00023
:10157400FF300A128A155C210A128A1508008312A8
:101584000313AC01AD01260827040319CA2ACB2A88
:10159400022BAB01AB0AD92A01300310A60DA70D0B
:1015A400FF3E031DCF2A0130AA002A08AB07A71F5C
:1015B400DC2ADD2ACE2A01300310AC0DAD0DFF3E2E
:1015C400031DDE2A27082902031DEA2A2608280209
:1015D400031CED2AEE2AF52A2608A8022708031C74
:1015E400A903A9022C1401300310A70CA60CFF3E7A
:1015F400031DF62A0130AB02031D012B022BDD2A49
:101604002D08A7002C08A600080083160317570806
:10161400031D0D2B0E2B432B4E3083120313B400EA
:101624000030B5008030B6008330B7007808CA00B7
:10163400CB014A08B8004B08B9006E08CC00CD01B4
:101644004C08BA004D08BB00831603135B088312D1
:101654000313BD00831603135A0883120313BC003B
:101664000A128A1153240A128A154E308312031364
:10167400A0000030A1000A128A15CD210A128A1591
:10168400442BD701013083120313CA004A08F80718
:10169400EE0183160313DA01DB010800831203133E
:1016A400A301A4018515023083120313A2000430A0
:1016B400A100B930A000A00B5D2BA10B5D2BA20BE8
:1016C4005D2B642B831203138516023083120313DC
:1016D400A2000430A100B930A000A00B6F2BA10B15
:1016E4006F2BA20B6F2B762B831203138511023001
:1016F40083120313A2000430A100B930A000A00B90
:10170400812BA10B812BA20B812B882B831203131A
:1017140085120130A3070318A40A0030A40700307F
:101724002402033003192302031C992B9A2B542BF4
:10173400080083120313A601A31FA12BA22BA92B1C
:10174400A209A309A20A0319A30AA601A60AA11FB2
:10175400AC2BAD2BB22BA009A109A00A0319A10A35
:10176400200821040319B72BB82BE72BA501A50AE0
:10177400C62B01300310A00DA10DFF3E031DBC2B91
:101784000130A4002408A507A11FC92BCA2BBB2B19
:1017940021082302031DD02B20082202031CD32B73
:1017A400D42BDA2B2008A2022108031CA303A302D2
:1017B40001300310A10CA00CFF3E031DDB2B0130F4
:1017C400A502031DE62BE72BCA2B26080319EB2BD6
:1017D400EC2BF12BA209A309A20A0319A30A2308DB
:1017E400A1002208A0000800831203130C1CFB2B89
:1017F400FC2B022C1F153C308F00B0308E000C10D7
:10180400181D052C062C072C1A08981C0A2C0B2CC6
:101814000D2C181218168C1E102C112C3A2C1A0888
:10182400F4007308E03E84007408831380000D30D4
:10183400000603191E2C1F2C332C7308E03E840071
:101844000A3000060319272C282C332C0930730284
:1018540003182D2C2E2C332C0130F4007408F307BC
:101864003A2CF301013083160317D2000030D30061
:10187400831203130C1F3F2C402C4B2C0C131E08FB
:1018840083160317D900831603131E088316031740
:10189400D80077088A0076088400750E8300FE0E4F
:1018A4007E0E09000C3083120313B3000030B40021
:1018B4003408B1003308B0000310B00DB10D0310AB
:1018C400B00DB10D0310B00DB10D2F08803AB20068
:1018D4003108803A3202031D712C30082E02031C99
:1018E400742C752CA92C831203133408B10033080B
:1018F400B0000310B00DB10D0310B00DB10D031005
:10190400B00DB10D30082E02AE003108031C310AAF
:101914002F02AF003308CD3E84000230A600003011
:10192400A7002F08A9002E08A8000A128A159321DF
:101934000A128A1583120313260883130006B000C3
:101944003308CD3E840030088000B301B401FF3079
:1019540083120313B3070318B40AFF30B407B41F88
:10196400B42CB52C5A2C08000C3083120313B3008A
:101974000030B4003408B1003308B0000310B00DD7
:10198400B10D0310B00DB10D0310B00DB10D2F0842
:10199400803AB2003108803A3202031DD32C300859
:1019A4002E02031CD62CD72C0B2D831203133408C0
:1019B400B1003308B0000310B00DB10D0310B00D29
:1019C400B10D0310B00DB10D30082E02AE00310878
:1019D400031C310A2F02AF003308CD3E84000230CD
:1019E400A6000030A7002F08A9002E08A8000A129C
:1019F4008A1593210A128A15831203132608831366
:101A04000004B0003308CD3E840030088000B301E8
:101A1400B401FF3083120313B3070318B40AFF3071
:101A2400B407B41F162D172DBC2C08008312031302
:101A3400B3010C30B4000030B5003508B1003408EF
:101A4400B0000310B00DB10D0310B00DB10D0310B3
:101A5400B00DB10D2F08803AB2003108803A32023D
:101A6400031D362D30082E02031C392D3A2D6E2D00
:101A7400831203133508B1003408B0000310B00D0D
:101A8400B10D0310B00DB10D0310B00DB10D300840
:101A94002E02AE003108031C310A2F02AF003408B5
:101AA400CD3E84000230A6000030A7002F08A90014
:101AB4002E08A8000A128A1593210A128A15831285
:101AC40003132608831300050319692D6A2D6C2D51
:101AD400B301B30AB401B501FF3083120313B40791
:101AE4000318B50AFF30B507B51F792D7A2D1F2DC0
:101AF400330808003F308316031360060319832D4F
:101B0400842D902D2B3060060319892D8A2D902D5C
:101B14002D306006031D8F2D902D962D0A128A15E7
:101B2400AE200A128A15DF2D3A30600203189B2D6D
:101B34009C2DCB2D30306002031CA12DA22DCB2D6A
:101B440072080319A62DA72DC52D903083120313F7
:101B5400B4000130B5004E30B6008430B700E03038
:101B6400B8000030B9000A128A1153240A128A15E7
:101B7400903083120313A0000130A1000A128A15C9
:101B8400CD210A128A150A128A11A6250A128A156B
:101B9400DF2D831203138516063083160313C80042
:101BA4001330C700AD30C600C60BD62DC70BD62DDB
:101BB400C80BD62D83120313851208008312031356
:101BC400A601A11FE62DE72DEE2DA009A109A00A6B
:101BD4000319A10AA601A60AA31FF12DF22DFB2DBC
:101BE400A209A309A20A0319A30A0130A400240824
:101BF400A606A701A801200821040319022E032E1A
:101C04003A2EA501A50A112E01300310A00DA10D35
:101C1400FF3E031D072E0130A4002408A507A11FC1
:101C2400142E152E062E01300310A70DA80DFF3E0D
:101C3400031D162E21082302031D222E2008220232
:101C4400031C252E262E2D2E2008A2022108031C5B
:101C5400A303A302271401300310A10CA00CFF3E20
:101C6400031D2E2E0130A502031D392E3A2E152EEA
:101C7400260803193E2E3F2E442EA709A809A70AB9
:101C84000319A80A2808A1002708A0000800831245
:101C94000313BE000130BE023E08B8003807B90085
:101CA4003908BE003E08013E0A128A158F200A1226
:101CB4008A1583120313B800B9013E080A128A1563
:101CC4008F200A128A1583120313BA00BB013A0843
:101CD400BB00BA0138083A04BC0039083B04BD0013
:101CE400BD1B752E762EA52E3D08803AFF0083304D
:101CF4007F02031D7F2EE8303C020318822E832EC0
:101D0400A52E023083120313A0000030A1003E0868
:101D1400B800B9013808A2003908A3000A128A15CC
:101D2400E0250A128A15831203132108AF00200844
:101D3400AE000A128A1518250A128A15003A0319E8
:101D4400A42EA52EAB2EFF3083120313BC00FF304C
:101D5400BD00831203133D08B7003C08B600080019
:101D6400013083120313CA004A08EE077008831671
:101D74000313DA070318DB0A7108DB07F001F1012A
:101D840083160317D401D50183160313C001C101BF
:101D9400831603134008CD3E840083138001013071
:101DA400C0070318C10A0030C1074108803AFF0088
:101DB40080307F02031DE02E0D304002031CE32E11
:101DC400E42ECA2E72080319E82EE92E1D2FA03026
:101DD40083120313B4000030B5002330B6008430FE
:101DE400B7007808CA00CB014A08B8004B08B9000C
:101DF4006E08CC00CD014C08BA004D08BB00831618
:101E040003135B0883120313BD00831603135A08DC
:101E140083120313BC000A128A1153240A128A156E
:101E2400A03083120313A0000030A1000A128A1507
:101E3400CD210A128A15710883120313B5007008A4
:101E4400B4000A128A1185270A128A150A128A1501
:101E540050230A128A1508000A3083120313CA0099
:101E64004A08A0008316031361080A128A15782011
:101E74000A128A15831603136207F03E83120313B2
:101E8400CB004B08E20062080319492F4A2FF62FB2
:101E94000130E2026208CA004A07CB004B08E200A4
:101EA40083160313640883120313CA00CB014A0880
:101EB400A0004B08A1006430A2000030A3000A1265
:101EC4008A15CE200A128A15831203132008CC0027
:101ED4002108CD0083160313650883120313CE0073
:101EE400CF014E08A0004F08A1000A30A200003024
:101EF400A3000A128A15CE200A128A15831203132C
:101F040020084C07D00021080318210A4D07D100EE
:101F1400831603136608831203135007D20000309C
:101F2400031801305107D3005208303EE000530833
:101F34000318013EEB3EE1006008CA004A08DE00D7
:101F44006108CA004A08DF005F08CA004A08A00006
:101F540062080A128A155C210A128A158312031375
:101F64005E08CA004A08A0006208013E0A128A15E7
:101F74005C210A128A15543083120313B400003012
:101F8400B5003E30B6008430B7000230A000003007
:101F9400A1006208CA00CB014A08A2004B08A300B2
:101FA4000A128A15E0250A128A15831203132008DF
:101FB400013EB80021080318013E003EB900610843
:101FC400BB006008BA000A128A1153240A128A1547
:101FD400543083120313A0000030A1000A128A15A2
:101FE400CD210A128A15FF2FEC30A0008330A10006
:0C1FF4000A128A15CD210A128A15080075
:02400E00793FF8
:00000001FF
