:020000040000FA
:060000000A128A110E280D
:10000800FE00030EF1000408F2000A08F3000A16C5
:100018008A15112E0A128A111128F701F801F9011F
:1000280083160313EC01ED01831790308400A3308D
:100038000A168A1162200A128A1183010A168A1581
:10004800AD2F8312031342088039C7004708CC003C
:100058004208C7004707C8004808D200C11F352812
:10006800362837285214520803193B283C284B28B5
:10007800520A031D4028412849280030C200003098
:10008800C1000030C0000030BF00C1175328003045
:10009800C2000030C1000030C0000030BF00460878
:1000A8008039C7004708CC064608C7004707C8007C
:1000B8004808CD00C51F6128622863284D144D08E3
:1000C80003196728682877284D0A031D6C286D28AE
:1000D80075280030C6000030C5000030C40000306C
:1000E800C300C5177F280030C6000030C5000030A7
:1000F800C4000030C3004D080319832884288928C8
:100108005208031D8828892892280030C200003030
:10011800C1000030C0000030BF00852B3F08C70079
:100128004708F40045080A168A15E8250A128A11B4
:10013800750883120313D8007408D7005708C7003E
:10014800C801C901CA014A08D1004908D0004808B5
:10015800CF004708CE005808C700C801C901CA0126
:100168004A08D6004908D5004808D4004708D300F3
:100178004008C7004708F40044080A168A15E8250D
:100188000A128A11750883120313D8007408D7005D
:100198005708C700C801C901CA014708CE0748085F
:1001A80003110318013E0319DA28CF074908031180
:1001B8000318013E0319E128D0074A080311031860
:1001C800013E0319E828D1075808C700C801C9012A
:1001D800CA014708D307480803110318013E031949
:1001E800F628D407490803110318013E0319FD280E
:1001F800D5074A0803110318013E03190429D60735
:100208004108C7004708F40043080A168A15E8257C
:100218000A128A11750883120313D8007408D700CC
:100228005708C700C801C901CA014708CE074808CE
:1002380003110318013E03192229CF0749080311A6
:100248000318013E03192929D0074A080311031886
:10025800013E03193029D1075808C700C801C90150
:10026800CA014708D307480803110318013E0319B8
:100278003E29D407490803110318013E03194529EB
:10028800D5074A0803110318013E03194C29D6075C
:100298000830C7000310CE0DCF0DD00DD10DC70B00
:1002A8004E294008C7004708F40043080A168A1573
:1002B800E8250A128A11750883120313D8007408F6
:1002C800D7005708C7005808C800C901CA0147081D
:1002D800CE07480803110318013E03197429CF07F4
:1002E800490803110318013E03197B29D0074A085E
:1002F80003110318013E03198229D1073F08C700DB
:100308004708F40044080A168A15E8250A128A11D3
:10031800750883120313D8007408D7005708C7005C
:100328005808C800C901CA014708CE074808031180
:100338000318013E0319A129CF074908031103181F
:10034800013E0319A829D0074A0803110318013EE2
:100358000319AF29D1070830C7000310CE0DCF0D00
:10036800D00DD10DC70BB1293F08C7004708F400CD
:1003780043080A168A15E8250A128A117508831295
:100388000313D8007408D7005708C7005808C800D6
:10039800C901CA014708CE07480803110318013EDE
:1003A8000319D729CF07490803110318013E031978
:1003B800DE29D0074A0803110318013E0319E5296D
:1003C800D1074008C7004708F40045080A168A15EF
:1003D800E8250A128A11750883120313D8007408D5
:1003E800D7005708C7005808C800C901CA014708FC
:1003F800D307480803110318013E0319042AD40738
:10040800490803110318013E03190B2AD5074A08A6
:1004180003110318013E0319122AD6074108C70021
:100428004708F40044080A168A15E8250A128A11B2
:10043800750883120313D8007408D7005708C7003B
:100448005808C800C901CA014708D307480803115A
:100458000318013E0319312AD40749080311031868
:10046800013E0319382AD5074A0803110318013E2B
:1004780003193F2AD6074108C7004708F400450872
:100488000A168A15E8250A128A11750883120313B9
:10049800D8007408D7005708C7005808C800C90111
:1004A800CA0108300310C70DC80DC90DCA0DFF3E9B
:1004B800031D562A4708D307480803110318013EAD
:1004C8000319672AD407490803110318013E0319C1
:1004D8006E2AD5074A0803110318013E0319752A25
:1004E800D6074E08C7004F08C8005008C900510871
:1004F800CA0018300310CA0CC90CC80CC70CFF3E40
:10050800031D7E2A4708D307480803110318013E34
:1005180003198F2AD407490803110318013E031948
:10052800962AD5074A0803110318013E03199D2A84
:10053800D6070830C7000310CE0DCF0DD00DD10D52
:10054800C70B9F2A52084D07C700C801C80D4708A6
:10055800823ED70048080318013EFF3ED800D12A42
:100568000130C7000310D30DD40DD50DD60DC70B20
:10057800B62AD11FC02AC12AC22A53140130C70083
:100588000310CE0DCF0DD00DD10DC70BC42AFF30EF
:10059800D7070318D80AFF30D807D51FD42AD52A79
:1005A800B42ACD01D11FD92ADA2AF62AFF304E05FE
:1005B800C700FF304F05C800FF305005C9007F3025
:1005C8005105CA004A084904480447040319ED2A9A
:1005D800EE2AF12ACD01CD0AF62A531CF42AF52A6F
:1005E800F62AEE2A4D080319FA2AFB2A2C2B013089
:1005F800D307003003180130D40700300318013046
:10060800D507003003180130D607561C0C2B0D2BCC
:100618002C2B5308C7005408C8005508C9005608B1
:10062800CA000130CB004A0DCA0CC90CC80CC70C53
:10063800CB0B172B4A08D6004908D5004808D40028
:100648004708D3000130D7070318D80A0030D80765
:100658005808803AFF0080307F02031D352BFF3099
:100668005702031C382B392B442B7F30831203137A
:10067800D6008030D5000030D4000030D300792B6C
:10068800831203135808803AFF0080307F02031D4D
:100698004F2B013057020318522B532B5F2B00307E
:1006A80083120313D6000030D5000030D400003088
:1006B800D300CC01792B831203135708C7004708CE
:1006C800D200FF30D305FF30D4057F30D505003088
:1006D800D605521C702B712B722BD5175208C700E8
:1006E8000310470CC8004808D6004C08C700470844
:1006F800D6045608C2005508C1005408C000530863
:10070800BF000800831203135C088039E100610808
:10071800E9005C08E1006107E2006208EB00DB1F0A
:10072800962B972B982B6B146B0803199C2B9D2BDE
:10073800AD2B6B0A031DA12BA22BAA2B0030DC00CA
:100748000030DB000030DA000030D900DB17DC01B4
:10075800B52B0030DC000030DB000030DA00003060
:10076800D90060088039E1006108EA006A08690672
:100778000319BF2BC02BC12B69176008E100610763
:10078800E2006208EA00DF1FCA2BCB2BCC2B6A14CD
:100798006A080319D02BD12BE12B6A0A031DD52B2C
:1007A800D62BDE2B0030E0000030DF000030DE000A
:1007B8000030DD00DF17E001E92B0030E0000030F9
:1007C800DF000030DE000030DD006B086A0203182D
:1007D800EE2BEF2B332C691FF22BF32BF72B8030EA
:1007E800E1006108E9066B08E1006108EC006A08AD
:1007F800E1006108EB006C08E1006108EA005908B3
:10080800E1006108EC005D08E1006108D9006C08AE
:10081800E1006108DD005A08E1006108EC005E08AB
:10082800E1006108DA006C08E1006108DE005B089D
:10083800E1006108EC005F08E1006108DB006C087A
:10084800E1006108DF005C08E1006108EC00600875
:10085800E1006108DC006C08E1006108E000EC01DF
:100868006A08E100E2016208E4006B086102E30043
:10087800031CE4036408803AFF0080307F02031DF4
:10088800472C1A306302031C4A2C4B2C882C8312E9
:1008980003135C085B045A045904031D542C562C9A
:1008A8000130572C0030E1006108EC000030DC001A
:1008B8000030DB000030DA000030D9006A08E100BF
:1008C8006108EB00902C6C1C6A2C6B2C742C6C0847
:1008D800E1000310610C0138E2006208EC00762C9C
:1008E8000310EC0C591C792C7A2C7B2CEC1701305A
:1008F800E1005C0DDC0CDB0CDA0CD90CE10B7D2C77
:100908000130E1006108EB07831203136A086B02E8
:10091800031C8F2C902C672C691B932C942CDF2C98
:100928006B08031D982C992CA22C0030DC00003099
:10093800DB000030DA000030D9000D2E5D08D90741
:100948005E0803110318013E0319AB2CDA075F0890
:1009580003110318013E0319B22CDB0760080311C9
:100968000318013E0319B92CDC075C1CBC2CBD2CF8
:10097800932D6C1CC02CC12CCA2C6C08E1000310F0
:10098800610C0138E2006208EC00CC2C0310EC0C7E
:10099800591CCF2CD02CD12CEC170130E1005C0D68
:1009A800DC0CDB0CDA0CD90CE10BD32C0130E100A8
:1009B8006108EB07932D5C08803AFF006008803AD5
:1009C8007F02031DF12C5F085B02031DF12C5E08FA
:1009D8005A02031DF12C5D0859020318F42CF52C5A
:1009E8004D2DFF30E100FF30E200FF30E300FF3023
:1009F800E4005D08E5005E08E6005F08E7006008BF
:100A0800E8005908E5025A08031C5A0F0C2D0D2D51
:100A1800E6025B08031C5B0F122D132DE7025C082E
:100A2800031C5C0F182D192DE8026508E1076608FC
:100A38000318660F202D212DE20767080318670F9A
:100A4800262D272DE30768080318680AE4076408B9
:100A5800DC006308DB006208DA006108D900803036
:100A6800E1006108E906EC09EC0A6C08031D3D2D5C
:100A78003E2D5B2D0130D907003003180130DA070D
:100A8800003003180130DB07003003180130DC07A1
:100A98005B2D5D08D9025E08031C5E0FDA025F0851
:100AA800031C5F0FDB026008031C600FDC025C089C
:100AB8005B045A045904031D622D632D8F2D6C08A5
:100AC800031D672D682D8F2D0030DC000030DB0002
:100AD8000030DA000030D9000D2E0130E10003109B
:100AE800D90DDA0DDB0DDC0DE10B732DEC1F7D2D1F
:100AF8007E2D7F2D59146C1C822D832D862D031479
:100B0800EC0D882D0310EC0D6B0803198C2D8D2D21
:100B18008F2D0130EB02DB1F922D932D712DEA01F1
:100B2800EC1F972D982DA62D6C087F3903199D2D44
:100B38009E2DA12DEA01EA0AA62D591CA42DA52D4A
:100B4800A62D9E2D6A080319AA2DAB2DDF2D013085
:100B5800D907003003180130DA07003003180130D4
:100B6800DB07003003180130DC075C1CBC2DBD2DF1
:100B7800DF2D5908E1005A08E2005B08E3005C0831
:100B8800E4000130E500640DE40CE30CE20CE10C38
:100B9800E50BC72D6408DC006308DB006208DA0097
:100BA8006108D9006B0A0319DA2DDB2DDF2D01301E
:100BB800E1006108EB076B0A0319E32DE42DE92D29
:100BC8006B08031DE82DE92DF72D0030DC000030FF
:100BD800DB000030DA000030D9006B08031DF52D6A
:100BE800F62DF72DE9016B1CFA2DFB2DFD2DDB17DA
:100BF800012E7F30E1006108DB056B08E10003107E
:100C0800610CE2006208DC00E91F0B2E0C2E0D2E91
:100C1800DC1708008312031327088039A800280866
:100C2800B1002708A8002807A9002908B800A61FAE
:100C38001E2E1F2E202E381438080319242E252E78
:100C4800352E380A031D292E2A2E322E0030A700F1
:100C58000030A6000030A5000030A400A617A701A8
:100C68003D2E0030A7000030A6000030A50000305F
:100C7800A40023088039A8002808B1062308A80082
:100C88002807A9002908B900A21F4B2E4C2E4D2E6B
:100C9800391439080319512E522E622E390A031DB0
:100CA800562E572E5F2E0030A3000030A2000030D1
:100CB800A1000030A000A217A3016A2E0030A300F3
:100CC8000030A2000030A1000030A0002308220458
:100CD80021042004031D712E722E8B2E0030A700D4
:100CE8000030A6000030A5000030A4008030A60423
:100CF8007F30A7043108A8002808A7042708A30004
:100D08002608A2002508A1002408A000EA2F380818
:100D1800031D8F2E902E992E0030A3000030A200C4
:100D28000030A1000030A000EA2F3808A800A9016F
:100D38002908AB0039082802AA00031CAB032A08BB
:100D48007F3EB2002B080318013E003EB30027087F
:100D5800B0002608AF002508AE002408AD0000301A
:100D6800A7000030A6000030A5000030A400003025
:100D7800B7000030B6000030B5000030B400B9014B
:100D88000F2F39080319C92ECA2EEA2E0130A800E0
:100D98000310AD0DAE0DAF0DB00DA80BCC2E01306C
:100DA800A8000310A40DA50DA60DA70DA80BD52E00
:100DB800B71FDF2EE02EE12E24140130A800031007
:100DC800B40DB50DB60DB70DA80BE32E23083002F0
:100DD800031DF82E22082F02031DF82E21082E02CB
:100DE800031DF82E20082D02031CFB2EFC2E0B2FB2
:100DF80037172008AD022108031C210FAE02220874
:100E0800031C220FAF022308031C230FB00201307A
:100E1800A8002808B9071A303902031C142F152F07
:100E2800C52E30082F042E042D0403191C2F1D2F46
:100E38003C2F34143C2F0130A8000310A40DA50D3D
:100E4800A60DA70DA80B212FB71F2B2F2C2F2D2F49
:100E580024140130A8000310B40DB50DB60DB70D5C
:100E6800A80B2F2FFF30B2070318B30AFF30B307C0
:100E7800A61F3F2F402F1F2FB901B71F442F452F03
:100E8800612FFF303405A800FF303505A900FF3079
:100E98003605AA007F303705AB002B082A04290441
:100EA80028040319582F592F5C2FB901B90A612F4B
:100EB800241C5F2F602F612F592F39080319652FC4
:100EC800662F972F0130A407003003180130A507BB
:100ED800003003180130A607003003180130A707B7
:100EE800271C772F782F972F2408A8002508A900FA
:100EF8002608AA002708AB000130AC002B0DAB0C6C
:100F0800AA0CA90CA80CAC0B822F2B08A7002A0846
:100F1800A6002908A5002808A4000130B207031874
:100F2800B30A0030B3073308803AFF0080307F02ED
:100F3800031DA02FFF303202031CA32FA42FB22FB2
:100F4800FF3083120313B2000030B3000030A70053
:100F58000030A6000030A5000030A400831203135F
:100F68003308803AFF0080307F02031DBD2F013017
:100F780032020318C02FC12FCE2F83120313B201E0
:100F8800B3010030A7000030A6000030A5000030F3
:100F9800A400B101831203133208A8002808B8007E
:100FA800381CD72FD82FDA2FA617DE2F7F30A800AE
:100FB8002808A6053808A8000310280CA900290845
:100FC800A7003108A8002808A704822E080080304E
:100FD800831603138700263098009030831203137A
:0C0FE800980019308316031399000800CC
:10100A0083120313230822042104200403190E283F
:10101A000F2811288030A30608008316031323081B
:10102A0083120313BD0083160313220883120313CA
:10103A00BC0083160313210883120313BB00831613
:10104A000313200883120313BA00A830F6007608A7
:10105A00BE000A168A11C5200A128A1583160313BE
:10106A00A91F382839287628230883120313A300D6
:10107A0083160313220883120313A2008316031391
:10108A00210883120313A100831603132008831275
:10109A000313A0000030A7000030A6000030A5000E
:1010AA000030A4000A168A1197220A128A15031818
:1010BA005F2860286B28BF3083160313A300803093
:1010CA00A2000030A1000030A0004429003083169D
:1010DA000313A3000030A2000030A1000030A000DA
:1010EA004429003029021D3003192802031C7E28D6
:1010FA007F2880284429230883120313B10083160A
:10110A000313220883120313B00083160313210862
:10111A0083120313AF0083160313200883120313E9
:10112A00AE000A168A1188210A128A15831203133D
:10113A003108A3003008A2002F08A1002E08A00041
:10114A0001300A168A113B230A128A1583120313E5
:10115A00230883160313A700831203132208831696
:10116A000313A60083120313210883160313A50091
:10117A0083120313200883160313A400230883127F
:10118A000313A30083160313220883120313A20076
:10119A0083160313210883120313A1008316031372
:1011AA00200883120313A00083160313270883124F
:1011BA000313A70083160313260883120313A6003A
:1011CA0083160313250883120313A500831603133A
:1011DA00240883120313A4000A168A1197220A12FA
:1011EA008A150318F928FA283A29BF3083120313FB
:1011FA00DC008030DB000030DA000030D9008316D2
:10120A000313270883120313E00083160313260827
:10121A0083120313DF0083160313250883120313B3
:10122A00DE0083160313240883120313DD000A1257
:10123A008A1186230A128A15831203135C088316FD
:10124A000313A300831203135B0883160313A2007C
:10125A00831203135A0883160313A100831203137C
:10126A00590883160313A000442983160313270879
:10127A00A3002608A2002508A1002408A00008004F
:10128A0083160313E601E701EA01EB01EC01ED0124
:10129A00FF30DC00FF30DD009F2983160313E601CF
:1012AA00E701E801E901831603136808903E840008
:1012BA006A080A168A1591250A128A1583170006E2
:1012CA00031D682969297229013083160313E60769
:1012DA000318E70A0030E707762983160313E601A5
:1012EA00E7010130EA070318EB0A0030EB07013087
:1012FA00E8070318E90A0030E9076908803AFF009D
:10130A0080307F02031D8B2902306802031C8E295C
:10131A008F295829831603136A08033EEA006B08CB
:10132A000318013E003EEB000130EC070318ED0AFA
:10133A000030ED076708803AFF0080307F02031D06
:10134A00A829023066020318AB29AC29BB298316E7
:10135A0003136B08803AFF0080307F02031DB72910
:10136A0041306A02031CBA29BB295229FF3083166D
:10137A000313EC070318ED0AFF30ED070230660687
:10138A006704031DC929CA293A2B6C08831203135F
:10139A00A000831603136D0883120313A100003003
:1013AA00A11BFF30A200A30001300A168A113B23B9
:1013BA000A128A1583120313230883160313E10002
:1013CA0083120313220883160313E0008312031304
:1013DA00210883160313DF008312031320088316E0
:1013EA000313DE006108C8006008C7005F08C60072
:1013FA005E08C5004030C4000030C3000030C2009F
:10140A000030C1000A128A1540230A128A1583166F
:10141A0003134408E5004308E4004208E3004108D6
:10142A00E200650883120313B100831603136408EC
:10143A0083120313B0008316031363088312031382
:10144A00AF0083160313620883120313AE000A1651
:10145A008A1188210A128A15831603171B08831218
:10146A0003132E0583160313D900831603171C08CA
:10147A00831203132F0583160313DA0059085A043B
:10148A00031D482A492A3A2B0530D9005908F40085
:10149A006C080A168A157A250A128A15023E0A1655
:1014AA008A1591250A128A15D03E83120313A200C7
:1014BA00FF3003180030A3006430A4000030A500F8
:1014CA000A168A15C1250A128A15831203132308DC
:1014DA0083160313DD0083120313220883160313F2
:1014EA00DC000530D9005908F4006C080A168A1580
:1014FA007A250A128A15033E0A168A1591250A12B6
:10150A008A15D03E83120313A200FF30031800305D
:10151A00A3000A30A4000030A5000A168A15C125C6
:10152A000A128A1583120313220883160313DC078F
:10153A000318DD0A83120313230883160313DD0736
:10154A000530D9005908F4006C080A168A157A255C
:10155A000A128A15043E0A168A1591250A128A1554
:10156A00D03E83160313DA00FF3003180030DB0085
:10157A005A08DC070318DD0A5B08DD076C088312CA
:10158A000313A000831603136D0883120313A1002B
:10159A000030A11BFF30A200A30001300A168A11F5
:1015AA003B230A128A158312031323088316031393
:1015BA00E10083120313220883160313E000831247
:1015CA000313210883160313DF0083120313200871
:1015DA0083160313DE006108C8006008C7005F08AD
:1015EA00C6005E08C5004030C4000030C3000030A9
:1015FA00C2000030C1000A128A1540230A128A1555
:10160A00831603134408E5004308E4004208E30094
:10161A004108E200650883120313B100831603131D
:10162A00640883120313B00083160313630883123A
:10163A000313AF0083160313620883120313AE0069
:10164A000A168A1188210A128A15831603171B089B
:10165A00831203132E04831603179B001C0883129C
:10166A0003132F04831603179C0003135D08D80085
:10167A005C08D700080083160313D20144088312BA
:10168A000313B10083160313430883120313B00034
:10169A0083160313420883120313AF00831603133E
:1016AA00410883120313AE000030B5000030B400C5
:1016BA000030B3000030B2000A168A155D270A12FC
:1016CA008A15031C692B6A2BA62B0030831203137D
:1016DA00A3000030A2000030A1000030A000831651
:1016EA000313480883120313A7008316031347083A
:1016FA0083120313A60083160313460883120313E7
:10170A00A50083160313450883120313A4000A16BF
:10171A008A1197220A128A15031C942B952B9B2B4C
:10172A00213083160317990000309A00003083167F
:10173A000313C4000030C3000030C2000030C100EF
:10174A007E2D83160313480883120313B1008316F0
:10175A000313470883120313B000831603134608C2
:10176A0083120313AF00831603134508831203136E
:10177A00AE000030B5000030B4000030B3000030D5
:10178A00B2000A168A155D270A128A15031CCE2B87
:10179A00CF2BDA2B3F3083160313C4008030C300EB
:1017AA000030C2000030C1007E2D831603134408A6
:1017BA0083120313A300831603134308831203132C
:1017CA00A20083160313420883120313A10083168F
:1017DA000313410883120313A0000030A70000304E
:1017EA00A6000030A5000030A4000A168A1197222C
:1017FA000A128A150318022C032CCA2C8316031307
:10180A00480883120313B10083160313470883128F
:10181A000313B00083160313460883120313AF00A1
:10182A0083160313450883120313AE000A168A119E
:10183A0088210A128A1583120313310883160313A7
:10184A00D60083120313300883160313D5008312BC
:10185A0003132F0883160313D400831203132E08CD
:10186A0083160313D300560883120313A3008316A7
:10187A000313550883120313A20083160313540893
:10188A0083120313A100831603135308831203134D
:10189A00A00000300A168A113B230A128A15831205
:1018AA0003132308B1002208B0002108AF00200862
:1018BA00AE0083160313480883120313B500831678
:1018CA000313470883120313B4008316031346084D
:1018DA0083120313B30083160313450883120313F9
:1018EA00B2000A168A155D270A128A1503187E2C79
:1018FA007F2C902C213083160317990000309A0010
:10190A00003083160313C4000030C3000030C20045
:10191A000030C1007E2D8316031353080139C90014
:10192A004908D200440883120313A3008316031341
:10193A00430883120313A200831603134208831277
:10194A000313A10083160313410883120313A00093
:10195A000A128A1505200A128A158312031323080C
:10196A0083160313C4008312031322088316031376
:10197A00C30083120313210883160313C2008312C0
:10198A000313200883160313C100831603134408A4
:10199A00B3004308B2004208B1004108B0000A1679
:1019AA008A1196260A128A15831603133308CD0064
:1019BA003208CC003108CB003008CA00480883122C
:1019CA000313C20083160313470883120313C100CB
:1019DA0083160313460883120313C00083160313E6
:1019EA00450883120313BF00831603134D0883129D
:1019FA000313C600831603134C0883120313C5008E
:101A0A00831603134B0883120313C40083160313AC
:101A1A004A0883120313C3000A128A1125200A12E4
:101A2A008A1583120313420883160313D100831203
:101A3A000313410883160313D000831203134008CB
:101A4A0083160313CF00831203133F08831603136D
:101A5A00CE005108B9005008B8004F08B7004E0828
:101A6A00B6000A128A157F250A128A1583160313ED
:101A7A003908C4003808C3003708C2003608C10054
:101A8A0052080319492D4A2D7E2D44088312031347
:101A9A00A30083160313430883120313A2008316B9
:101AAA000313420883120313A10083160313410888
:101ABA0083120313A0000A128A1505200A128A1536
:101ACA0083120313230883160313C4008312031318
:101ADA00220883160313C3008312031321088316F3
:101AEA000313C20083120313200883160313C100D1
:101AFA007E2D080083160313390883120313B100DD
:101B0A0083160313380883120313B00083160313D2
:101B1A00370883120313AF008316031336088312A0
:101B2A000313AE000030B5000030B4000030B3003B
:101B3A000030B2000A168A155D270A128A15031C9C
:101B4A00A72DA82DB32D3F3083160313B90080307B
:101B5A00B8000030B7000030B600FF2F44308312BF
:101B6A000313A3003130A2007230A1001830A00084
:101B7A0083160313390883120313A700831603136A
:101B8A00380883120313A600831603133708831237
:101B9A000313A50083160313360883120313A40044
:101BAA000A168A1197220A128A150318DD2DDE2DCC
:101BBA00EF2D223083160317990000309A007F30E8
:101BCA0083160313B9007F30B800FF30B700FF3027
:101BDA00B600FF2F83160313390883120313A300D9
:101BEA0083160313380883120313A2008316031300
:101BFA00370883120313A1008316031336088312CE
:101C0A000313A000C430A7003A30A6004830A5004C
:101C1A008730A4000A168A1197220A128A15031815
:101C2A00172E182E292E22308316031799000030FA
:101C3A009A00003083160313B9000030B800003050
:101C4A00B7000030B600FF2F83160313390883123A
:101C5A000313A30083160313380883120313A20085
:101C6A0083160313370883120313A1008316031381
:101C7A00360883120313A0000030A7000030A60024
:101C8A000030A5000030A4000A168A1197220A1211
:101C9A008A15031C512E532E0130542E0030831204
:101CAA000313EF006F0883160313C00040080319DB
:101CBA005F2E602E932E390883120313A300831616
:101CCA000313380883120313A20083160313370879
:101CDA0083120313A1008316031336088312031316
:101CEA00A0000A128A1505200A128A158312031304
:101CFA00230883160313B9008312031322088316D9
:101D0A000313B80083120313210883160313B700C1
:101D1A0083120313200883160313B6003F3083127D
:101D2A000313C200B830C100AA30C0003B30BF0064
:101D3A0083160313390883120313C6008316031389
:101D4A00380883120313C500831603133708831256
:101D5A000313C40083160313360883120313C30044
:101D6A000A128A1125200A128A15831203134208BD
:101D7A0083160313B900831203134108831603134E
:101D8A00B80083120313400883160313B7008312A3
:101D9A0003133F0883160313B6003908A300380853
:101DAA00A2003708A1003608A0000A128A151220DC
:101DBA000A128A15831603132308BD002208BC00E1
:101DCA002108BB002008BA003D0883120313B100A2
:101DDA00831603133C0883120313B00083160313FC
:101DEA003B0883120313AF00831603133A088312C6
:101DFA000313AE000A168A1188210A128A15831261
:101E0A0003132F0883160313BF00831203132E082C
:101E1A0083160313BE003E0883120313A000831621
:101E2A0003133F0883120313A1000030A11BFF30E4
:101E3A00A200A30001300A168A113B230A128A154E
:101E4A0083120313230883160313A30083120313B5
:101E5A00220883160313A200831203132108831690
:101E6A000313A10083120313200883160313A0008F
:101E7A003908A7003808A6003708A5003608A400C4
:101E8A000A168A150D270A128A15831603132308C0
:101E9A00B9002208B8002108B7002008B60039089E
:101EAA00A3003808A2003708A1003608A0000B30AA
:101EBA0083120313EF006F0883160313A40009307B
:101ECA00A5000030A6000A168A11CA240A128A1529
:101EDA00831603132308B3002208B2002108B100B5
:101EEA002008B0003F08B5003E08B4000A168A115F
:101EFA00A4250A128A15831603133308B900320877
:101F0A00B8003108B7003008B600400803198E2F10
:101F1A008F2FFF2F390883120313B100831603137F
:101F2A00380883120313B000831603133708831289
:101F3A000313AF0083160313360883120313AE008C
:101F4A007F30B5007F30B400FF30B300FF30B200FD
:101F5A000A168A155D270A128A15031CB52FB62F91
:101F6A00C12F003083160313B9000030B8000030C7
:101F7A00B7000030B600FF2F831603133908831207
:101F8A000313A30083160313380883120313A20052
:101F9A0083160313370883120313A100831603134E
:101FAA00360883120313A0003F30A7008030A60032
:101FBA000030A5000030A4000A128A110E260A1267
:101FCA008A1583120313230883160313B900831295
:101FDA000313220883160313B8008312031321087C
:101FEA0083160313B70083120313200883160313FF
:101FFA00B600FF2F080010308A000408840A8207FE
:10200A0000340034103420343034403450346034D6
:10201A007034803490340034003480343F341834BF
:10202A00723431343F34F034FD3475343E3447343D
:10203A00583463343D34583495341D343C34823436
:10204A00C434AE343A34A834783421343934EF34D1
:10205A00933480343734A0349234A7343534463438
:10206A005634153434340034003400340034C43463
:10207A00FF347F343F348034EF34FF34BE3490343D
:10208A00E134A9343E34EC3482347634BE348234BA
:10209A00AD342B343E340E343C34C334BD3487342F
:0E20AA00D13413343D3441347834D334BB3454
:1020C40064008001840A04060319003404066328AA
:1020D400F60183120313A31F702871287828A2091C
:1020E400A309A20A0319A30AF601F60AA11F7B2871
:1020F4007C288128A009A109A00A0319A10A2008A3
:102104002104031986288728B628F501F50A95289D
:1021140001300310A00DA10DFF3E031D8B280130DB
:10212400F4007408F507A11F982899288A28210823
:102134002302031D9F2820082202031CA228A3288F
:10214400A9282008A2022108031CA303A30201302A
:102154000310A10CA00CFF3E031DAA280130F502B8
:10216400031DB528B628992876080319BA28BB2870
:10217400C028A209A309A20A0319A30A2308A100DB
:102184002208A0000800831203133D08B1003C0894
:10219400B0003B08AF003A08AE000030B500003094
:1021A400B4000030B3000030B2000A168A155D276F
:1021B4000A168A11031CDF28E028F128831203136E
:1021C4003E08840083138001840A80010030BD002E
:1021D4000030BC000030BB000030BA00202983125C
:1021E40003133D087F39F400F5010310F40DF50DD8
:1021F4003E088400740883138000840A75088000F4
:102204003C0D3C0D0139F400F5013E0884007408CE
:102214008004840A750880043E08840082308007A4
:10222400840F00080318000AFF00FF307F078000B6
:1022340084033D0880393F38BD00BC130800643076
:1022440083120313A4000030A5002C08A7002B0858
:10225400A6000A168A15C7260A168A1183120313C2
:102264002408013E84000A168A1100200A168A11E5
:1022740086000A30A4000030A5002C08A3002B0817
:10228400A2006430A0000030A1000A168A15462678
:102294000A168A11831203132108A7002008A60036
:1022A4000A168A15C7260A168A11831203132408EC
:1022B400060486002C08A3002B08A2006430A000AA
:1022C4000030A1000A168A1546260A168A118312BE
:1022D40003132108AE002008AD000A30A00000302E
:1022E400A1002E08A3002D08A2000A168A1546266E
:1022F4000A168A11831203132008013E84000A1669
:102304008A1100200A168A1188000800031083121B
:102314000313300D310DB2003208F5007508031DAA
:10232400942995299E290030B1000030B000003076
:10233400AF000030AE00032A2E08B2002F08B3000D
:102344003008B4003108B5001F300310B50CB40CCC
:10235400B30CB20CFF3E031DA7293208B6003608A1
:10236400F400B017FF30AE05FF30AF05FF30B00505
:102374000030B1059630F502F51FC129C229DC29C8
:102384007508803A973E0318C829C929CA2995298E
:1023940001300310B10CB00CAF0CAE0CFF3E031DAA
:1023A400CB290130B2003208F507031DDA29DB29F5
:1023B400CA29F32920307502031CE129E229EE29F8
:1023C40095290130B2000310AE0DAF0DB00DB10D63
:1023D400B20BE5290130F5027508031DF229F32932
:1023E400E32974080319F729F829032AAE09AF0968
:1023F400B009B109AE0A0319AF0A0319B00A0319E7
:10240400B10A08008316031722087806031D0C2A54
:102414002108770603190F2A102A962A2208F800A1
:102424002108F7001D0883120313A0008316031765
:102434001E0883120313A1000030A11BFF30A20069
:10244400A30001300A168A113B230A168A1183124B
:102454000313230883160313DA00831203132208D9
:1024640083160313D900831203132108831603135D
:10247400D80083120313200883160313D7005A08C5
:10248400C8005908C7005808C6005708C50040309E
:10249400C4000030C3000030C2000030C1000A1282
:1024A4008A1540230A168A11831603134408DE0092
:1024B4004308DD004208DC004108DB005E088312AB
:1024C4000313B100831603135D0883120313B000D2
:1024D400831603135C0883120313AF0083160313DC
:1024E4005B0883120313AE000A168A1188210A16A8
:1024F4008A11831603171B08831203132E068316EF
:1025040003179B001C08831203132F06831603175B
:102514009C00780883120313AC007708AB000A16FA
:102524008A1121210A168A1108000030831203132C
:102534002005A80000302105A90080302205AA004A
:102544007F302305AB002B082A0429042804031D2B
:10255400AC2AAD2AB52A0030A3000030A200003016
:10256400A1000030A00000302405A800003025059B
:10257400A90080302605AA007F302705AB002B0870
:102584002A0429042804031DC82AC92AD12A003090
:10259400A7000030A6000030A5000030A400A31F4F
:1025A400D42AD52AF92A0030A8000030A900003026
:1025B400AA008030AB002008A8022108031C210FC8
:1025C400E42AE52AA9022208031C220FEA2AEB2A9C
:1025D400AA022308031C230FF02AF12AAB022B08BA
:1025E400A3002A08A2002908A1002808A000A71F08
:1025F400FC2AFD2A212B0030A8000030A90000305D
:10260400AA008030AB002408A8022508031C250F6B
:102614000C2B0D2BA9022608031C260F122B132B9F
:10262400AA022708031C270F182B192BAB022B080F
:10263400A7002A08A6002908A5002808A4008030BD
:10264400A3068030A70627082302031D332B260880
:102654002202031D332B25082102031D332B2408DA
:1026640020020318362B372B392B03103A2B031473
:10267400080083120313A80028080319422B432BD4
:10268400572BA31F462B472B572B2009AA002109A0
:10269400AB002209AC002309AD00AA0A0319AB0A56
:1026A4000319AC0A0319AD0A5F2B2308AD002208F5
:1026B400AC002108AB002008AA002308220421044E
:1026C4002004031D662B672B702B0030A300003001
:1026D400A2000030A1000030A000F62B9630A40028
:1026E4002408A900822B0130A4002408A907013082
:1026F4000310AD0CAC0CAB0CAA0CFF3E031D7A2BE3
:10270400FE302D05031D872B882B752BA42B013040
:10271400A4002408A9070130AA07003003180130D7
:10272400AB07003003180130AC0700300318013048
:10273400AD0701300310AD0CAC0CAB0CAA0CFF3E82
:10274400031D9C2BFF302D05031DA92BAA2B892BC0
:10275400B62B0130A9020130A4000310AA0DAB0D61
:10276400AC0DAD0DA40BAF2BAC1BB92BBA2BC02BEE
:10277400023029020318BF2BC02BAB2B2918C32B03
:10278400C42BCC2BFF30AA05FF30AB057F30AC0542
:10279400FF30AD050310A90C2908A400A501A6016A
:1027A400A70118300310A40DA50DA60DA70DFF3E1B
:1027B400031DD42B2408AA042508AB042608AC0462
:1027C4002708AD0428080319E82BE92BEE2BA31FD7
:1027D400EC2BED2BEE2BAD172D08A3002C08A2003B
:1027E4002B08A1002A08A000080083160317A801DB
:1027F400A901A601A701831603172608903E8400A9
:1028040083170008D03EA300FF3003180030A40053
:102814002308A8070318A90A2408A9070130A60752
:102824000318A70A0030A7072708803AFF00803062
:102834007F02031D1F2C08302602031C222C232C8C
:10284400FD2B0A3083120313A0000030A10083166D
:102854000317290883120313A300831603172808F8
:1028640083120313A2000A168A116A200A168A1117
:10287400831603171808D03EA300FF300318003056
:10288400A400831203132108831603172406031DCF
:10289400512C831203132008831603172306031DE8
:1028A400542C552CB52C0A128A1545210A168A1166
:1028B40083160313580883160317A90083160313FA
:1028C400570883160317A80077082807A300780879
:1028D4000318780A2907A40003302402E8300319F6
:1028E40023020318762C772CB52C280A031D7F2C81
:1028F400290A03197E2C7F2CB52C831603136D082B
:10290400831603179E00831603136C08831603179C
:102914009D007808A2007708A1002808F70703188B
:10292400F80A2908F807780883120313AC0077081B
:10293400AB000A168A1121210A168A118312031385
:102944008515063083160317A5001330A400AD3097
:10295400A300A30BAB2CA40BAB2CA50BAB2C8312A9
:1029640003138511C92C83120313851606308316AD
:102974000317A5001330A400AD30A300A30BC02C93
:10298400A40BC02CA50BC02C8312031385120800C2
:10299400831603132508A70001300310A70DFF3E7B
:1029A400031DCF2C0310270D240784000A168A1157
:1029B40000200A168A11A8000A168A1100200A1695
:1029C4008A11A9000A168A1100200A168A11AA007F
:1029D4000A168A1100200A168A11AB002B08AF00D0
:1029E4002A08AE002908AD002808AC00952DFF3058
:1029F400A5070318A60AFF30A6072508A70001307B
:102A04000310A70DFF3E031D022D0310270D2407FD
:102A140084000A168A1100200A168A11A8000A16D0
:102A24008A1100200A168A11A9000A168A110020A8
:102A34000A168A11AA000A168A1100200A168A1197
:102A4400AB002B0883120313DC00831603132A083C
:102A540083120313DB008316031329088312031361
:102A6400DA0083160313280883120313D90083168C
:102A740003132F0883120313C200831603132E08B3
:102A840083120313C100831603132D088312031347
:102A9400C000831603132C0883120313BF0083168C
:102AA4000313230883120313C60083160313220897
:102AB40083120313C500831603132108831203131F
:102AC400C40083160313200883120313C3000A12DD
:102AD4008A1125200A168A11831203134208E00082
:102AE4004108DF004008DE003F08DD000A128A11B9
:102AF40086230A168A11831203135C0883160313B0
:102B0400AF00831203135B0883160313AE00831212
:102B140003135A0883160313AD00831203135908D1
:102B240083160313AC0025082604031D9A2D9B2D40
:102B3400F92C2F08A3002E08A2002D08A1002C08B0
:102B4400A000080083160313330883120313B10093
:102B540083160313320883120313B000831603137E
:102B6400310883120313AF00831603133008831252
:102B74000313AE000030B5000030B4000030B300E1
:102B84000030B2000A168A155D270A168A11031C42
:102B9400CC2DCD2DD82D003083160313B300003077
:102BA400B2000030B1000030B000952E831603133C
:102BB40033087F3983120313ED00EE010310ED0D8A
:102BC400EE0D6D0883160313B4070318B50A8312B8
:102BD40003136E0883160313B507320D320D013942
:102BE40083120313ED00EE016D0883160313B4077B
:102BF4000318B50A831203136E0883160313B5076B
:102C0400B51F052E062E172E2230831603179900A2
:102C140000309A00003083160313B3000030B20072
:102C24000030B1000030B000952E3508803AFF0026
:102C340081307F02031D202E00303402031C232E1A
:102C4400242E692E223083160317990000309A002F
:102C540083160313330883120313A3008316031389
:102C6400320883120313A20083160313310883125C
:102C74000313A10083160313300883120313A00067
:102C84000030A7000030A6000030A5000030A400EA
:102C94000A168A1197220A168A110318522E532EE5
:102CA4005E2EFF3083160313B3007F30B200FF3073
:102CB400B100FF30B000952E7F3083160313B300AC
:102CC4007F30B200FF30B100FF30B000952E831684
:102CD4000313350883120313EE0083160313340819
:102CE40083120313ED006E0DEE0CED0C831603132B
:102CF4003308831203136D0680396D06831603139C
:102D0400B3003408013983120313ED00ED0CED0C0C
:102D1400831603133208831203136D067F396D067D
:102D240083160313B20008008316031333088312B7
:102D34000313A30083160313320883120313A200A0
:102D440083160313310883120313A100831603139C
:102D5400300883120313A0000030A7000030A6003F
:102D64000030A5000030A4000A168A1197220A1622
:102D74008A110318BE2EBF2ED02E213083160317BE
:102D8400990000309A00003083160313B30000301A
:102D9400B2000030B1000030B000FF2F83160313DF
:102DA400330883120313B10083160313320883120A
:102DB4000313B00083160313310883120313AF0007
:102DC40083160313300883120313AE000030B500DA
:102DD4000030B4000030B3000030B2000A168A1587
:102DE4005D270A168A11031CF82EF92E0A2F2230A9
:102DF40083160317990000309A00003083160313DA
:102E0400B3000030B2000030B1000030B000FF2F3A
:102E1400BF3083120313DC008030DB000030DA00A3
:102E24000030D9004030C2000030C1000030C00082
:102E34000030BF006D30F6007608BE008316031321
:102E4400330883120313BD0083160313320883125D
:102E54000313BC0083160313310883120313BB004E
:102E640083160313300883120313BA000A168A1157
:102E7400C5200A168A11831203133D08C6003C08B4
:102E8400C5003B08C4003A08C3000A128A11252071
:102E94000A168A11831203134208E0004108DF0076
:102EA4004008DE003F08DD000A128A1186230A1654
:102EB4008A11831203135C0883160313B30083126D
:102EC40003135B0883160313B200831203135A0817
:102ED40083160313B10083120313590883160313D3
:102EE400B000FF3083120313ED070318EE0AFF301E
:102EF400EE07831603133308A3003208A200310837
:102F0400A1003008A0003330F6007608A400083091
:102F1400A5000030A6000A168A11CA240A168A11CE
:102F2400831603132308B3002208B2002108B1005A
:102F34002008B000330883120313DC008316031344
:102F4400320883120313DB00831603133108831240
:102F54000313DA0083160313300883120313D90012
:102F64003F30C2003130C1007230C0001830BF00A1
:102F74006D08A0006E08A1000030A11BFF30A20064
:102F8400A30001300A168A113B230A168A11831200
:102F940003132308C6002208C5002108C400200822
:102FA400C3000A128A1125200A168A1183120313F8
:102FB4004208E0004108DF004008DE003F08DD0071
:102FC4000A128A1186230A168A11831203135C08D3
:102FD40083160313B300831203135B0883160313CE
:102FE400B200831203135A0883160313B100831229
:0C2FF4000313590883160313B0000800F3
:103AF40083120313A100A001211C812D822D862D88
:103B04007408F5007508A0070310F40D0310A10C48
:103B14002108031D8E2D8F2D7E2D20080800F50011
:103B24006400831603178C18982D992D922D75080F
:103B3400831203178D003F30F400740883160317B3
:103B44008C050C14831203170C080800F701F80104
:103B540083160317A101A2019B019C01780883121B
:103B64000313AC007708AB000A168A1121210A1648
:103B74008A150A168A1582260A168A1508008312DF
:103B84000313A601A701221CC82DC92DCF2D24087B
:103B9400A6070318A70A2508A70701300310A40DD8
:103BA400A50DFF3E031DD02D01300310A30CA20C64
:103BB400FF3E031DD72D22082304031DE22DE32D10
:103BC400C52D2708A3002608A200080083120313AA
:103BD400A600A201A3017408A000A1012008A4006A
:103BE4002108A500261CF72DF82DFE2D2408A20778
:103BF4000318A30A2508A30701300310A40DA50D7B
:103C0400FF3E031DFF2D0310A60C2608031D0B2EDB
:103C14000C2EF42D2308F5002208F400080083126A
:103C240003138C1E162E172E3D2E0D301A06031963
:103C34001C2E1D2E362E0A301A060319222E232E70
:103C4400362E093079020318282E292E362E1A080A
:103C5400F0007908903E84007008831780000130DA
:103C6400F0007008F9073D2EF9010130831603179F
:103C74009F000030A00073088A0072088400710E4F
:103C84008300FE0E7E0E0900831203132008210414
:103C940003194D2E4E2E7D2EF501F50A5C2E0130B2
:103CA4000310A00DA10DFF3E031D522E0130F400A0
:103CB4007408F507A11F5F2E602E512E21082302E0
:103CC400031D662E20082202031C692E6A2E702E04
:103CD4002008A2022108031CA303A302013003103D
:103CE400A10CA00CFF3E031D712E0130F502031D33
:103CF4007C2E7D2E602E2308A1002208A00008003F
:103D040083120313A001A10185150230F6000430CB
:103D1400F500BA30F400F40B8D2EF50B8D2EF60B56
:103D24008D2E00008312031385160230F600043032
:103D3400F500BA30F400F40B9D2EF50B9D2EF60B16
:103D44009D2E00008312031385110230F600043007
:103D5400F500BA30F400F40BAD2EF50BAD2EF60BD6
:103D6400AD2E00008312031385120130A00703183F
:103D7400A10A0030A10700302102033003192002F8
:103D8400031CC52EC62E862E080083120313A90118
:103D9400AA01240825040319D02ED12E082FA80126
:103DA400A80ADF2E01300310A40DA50DFF3E031D4C
:103DB400D52E0130F6007608A807A51FE22EE32EC3
:103DC400D42E01300310A90DAA0DFF3E031DE42ECD
:103DD40025082702031DF02E24082602031CF32EB7
:103DE400F42EFB2E2408A6022508031CA703A70211
:103DF400291401300310A50CA40CFF3E031DFC2E56
:103E04000130A802031D072F082FE32E2A08A5005E
:103E14002908A4000800803083160313A30627088A
:103E240083120313DC00831603132608831203137F
:103E3400DB0083160313250883120313DA008316A9
:103E44000313240883120313D900831603132308CE
:103E540083120313E000831603132208831203134F
:103E6400DF0083160313210883120313DE00831675
:103E74000313200883120313DD000A128A11862318
:103E84000A168A15831203135C0883160313A3000E
:103E9400831203135B0883160313A2008312031314
:103EA4005A0883160313A1008312031359088316B7
:103EB4000313A00008000030831203132E05B6007C
:103EC40000302F05B70080303005B8007F30310551
:103ED400B9003908380437043604031D722F732FD0
:103EE4007B2F0030B1000030B0000030AF00003054
:103EF400AE0000303205B60000303305B700803024
:103F04003405B8007F303505B90039083804370462
:103F14003604031D8E2F8F2F972F0030B5000030ED
:103F2400B4000030B3000030B20035083106031D80
:103F3400A52F34083006031DA52F33082F06031DB3
:103F4400A52F32082E060319A82FA92FAB2F031073
:103F5400AC2F031408000730831603139F000630A8
:103F6400850086018801C0308B008C160A128A11E4
:103F7400EB270A168A15F701F80183160317A10126
:103F8400A201780883120313AC007708AB000A1669
:103F94008A1121210A168A1583120313851CD32F33
:103FA400D42FDE2F8518D72FD82FD42F0A168A1591
:103FB400A8250A168A15CE2F051DE12FE22FEC2F16
:103FC4000519E52FE62FE22F0A168A1104220A1694
:103FD4008A15CE2F831603171F0820040319F32F05
:103FE400F42FFC2F9F01A0010A168A11F7230A1649
:0C3FF4008A15CE2FCE2F0A128A110E283B
:02400E00793FF8
:00000001FF
