:020000040000FA
:060000000A128A110E280D
:10000800FE00030EF1000408F2000A08F3000A12C9
:100018008A15082E0A128A1111280A128A11FE2737
:100028000A128A11EF008317903084009D300A125B
:100038008A15A0230A128A118313D7308400E73067
:100048000A128A15A0230A128A11673084006F30B9
:100058000A128A15A0230A128A11F601F701F8017B
:10006800F90183010A128A11392801308316031312
:100078008500073089008601880141308312031307
:100088009F000E30831603139F00C0308B00803012
:100098008700263098009030831203139800193097
:1000A800831603139900831203130C138316031387
:1000B8000C178C16D901DA0183120313EB01EC013A
:1000C800831603135A0883120313AD008316031310
:1000D800590883120313AC000A128A11E8260A127F
:1000E8008A1183120313091C7A287B28852809188A
:1000F8007E287F287B280A128A1592260A128A11DE
:100108007528891C88288928932889188C288D287F
:1001180089280A128A1550250A128A117528091D7C
:10012800962897289E2809199A289B289728ED0130
:10013800ED0A752883160313570858040319A528D0
:10014800A628C028D701D8010A128A15C7250A127D
:100158008A1183160313D6015608DB3E84008313E5
:1001680080010130C2004208D6070A305602031C3B
:10017800BE28BF28B0287528650866040319C52855
:10018800C6283929660883120313A10083160313AE
:10019800650883120313A0008830A2001330A3005F
:1001A8000A128A15F6230A128A11831203132008E9
:1001B80083160313C2008312031321088316031343
:1001C800C3000A300310C30CC20CFF3E031DE6280F
:1001D8004208E5004308E600E83083120313A7004D
:1001E8000330A80083160313660883120313AA00BA
:1001F80083160313650883120313A9000A128A15CC
:100208008B250A128A1183120313280883160313F5
:10021800D50083120313270883160313D400A830CC
:10022800C200420883120313AC0083160313550857
:1002380083120313AE0083160313540883120313A7
:10024800AD00C4300A128A1135220A128A11C4304C
:10025800F4000030F5000A128A15AA240A128A113D
:1002680083160313E501E601752875280A128A1119
:100278000E2883120313C301C401C001C1018312F4
:1002880003134008DB3E840083130008D03EBD0002
:10029800FF3003180030BE003D08C3070318C40A26
:1002A8003E08C4070130C0070318C10A0030C1075F
:1002B8004108803AFF0080307F02031D652908301D
:1002C8004002031C6829692943290A308312031351
:1002D800A0000030A1004408A3004308A2000A12AD
:1002E8008A15E1260A128A11831603136308D03E81
:1002F80083120313BD00FF3003180030BE0021082D
:100308003E06031D892920083D06031D8C298D29D9
:10031800222A0A30BD003D08F400831603135B0847
:100328000A128A15BF230A128A11831603135C075F
:10033800F03E83120313BE003E08C20042080A12B0
:100348008A1116260A128A11831203133508C4006B
:100358003408C30083160313590883120313430791
:10036800BD00831603135A0803185A0A831203138D
:100378004407BE0003303E02E83003193D0203186B
:10038800C629C729222A430A031DCF29440A03196B
:10039800CE29CF29222A0130C2024208BD00BE015F
:1003A8003D08AC003E08AD000A128A159E270A12C5
:1003B8008A11831203134208BD00BE013D08E900FB
:1003C8003E08EA00831603135A0883120313EC004D
:1003D80083160313590883120313EB00430883168B
:1003E8000313D9070318DA0A831203134408831680
:1003F8000313DA075A0883120313AD008316031395
:10040800590883120313AC000A128A11E8260A124B
:100418008A11831203138515063083120313BF0054
:100428001330BE00AD30BD00BD0B182ABE0B182A14
:10043800BF0B182A831203138511342A8516063038
:1004480083120313BF001330BE00AD30BD00BD0BD7
:100458002B2ABE0B2B2ABF0B2B2A831203138512C0
:10046800080083120313BB002D30B3003308B60015
:10047800082B25303C060319422A432A4F2A3C08F8
:10048800B3003B0884003308831380000130B300B5
:100498003308BB07082BB7010130AC07FF302C0726
:1004A80084000A128A110A240A128A11BC00B300B5
:1004B800B4013408003A0319622A082B3308003AB9
:1004C80003191A2B643A03196D2A0D3A03196D2A78
:1004D800082B3608840083130008B900840A000832
:1004E800BA000230B3003308B607BA1F7C2A7D2A47
:1004F800862A0330B3003308B704B909BA09B90A20
:100508000319BA0ABC01BC0A3C08B3003307013E10
:1005180084000A128A110A240A128A11B4000A12E3
:100528008A110A240A128A11B50035083A02031DF5
:100538009F2A340839020318A22AA32AA42AAE2A19
:100548000130B3003308BC0705303C06031DAD2A53
:10055800AE2A882A370803390319B32AB42ABF2ACE
:100568002D30B3003B08840033088313800001302A
:10057800B3003308BB073C08B3003308B800FF2AB0
:100588000A30A7000030A8003808B3003307013E3E
:1005980084000A128A110A240A128A11A0000A1277
:1005A8008A110A240A128A11A1003A08A3003908FC
:1005B800A2000A128A154C260A128A118312031302
:1005C8002108AA002008A9000A128A158B250A12F8
:1005D8008A11831203132708303EB4003408BC0084
:1005E8003C08B3003B0884003308831380000130C3
:1005F800B3003308BB07FF30B3003308B807380A25
:10060800031D072B082BC42A0130AC07FF302C0729
:1006180084000A128A110A240A128A11B3003308C4
:10062800BC003C08031D192B1A2B3D2A3B088400EB
:100638008313800108000A3083120313BD003D08AC
:10064800F400831603135C080A128A15BF230A12E2
:100658008A11831603135D07F03E83120313BE004D
:100668003E08D5000130D5025508BD003D07BE0043
:100678003E08D50055080A128A15A8230A128A11BD
:10068800831203135508013E0A128A15A8230A1279
:100698008A11831603135F0883120313BD00BE017A
:1006A8003D08A0003E08A1006430A2000030A3006D
:1006B8000A128A15F6230A128A11831203132008D4
:1006C800BF002108C00083160313600883120313B8
:1006D800C100C2014108A0004208A1000A30A200DE
:1006E8000030A3000A128A15F6230A128A1183120F
:1006F800031320083F07C30021080318210A4007F5
:10070800C400831603136108831203134307C5004B
:100718000030031801304407C6004508303ED300B6
:1007280046080318013EEB3ED4005308BD003D08BF
:10073800D1005408BD003D08D2005208BD003D0854
:10074800F40055080A128A1547240A128A118312DE
:1007580003135108BD003D08F4005508013E0A1274
:100768008A1547240A128A119F3083120313BD0089
:100778003D08AC000230A0000030A1005508BE00C2
:10078800BF013E08A2003F08A3000A128A117F2673
:100798000A128A11831203132008013EAD002108B2
:1007A8000318013E003EAE005408B0005308AF00E5
:1007B80047300A128A1135220A128A114730F4008A
:1007C8000030F5000A128A15AA240A128A110800B4
:1007D8004430831603135C06031DF32BF42BF62B0E
:1007E800F801FF2B1530F4008030F5000A128A1545
:1007F800AA240A128A110800FF1B0A2C83137F18E7
:1008080083170008840A0319FF0A080004308A00C5
:100818000408840A82070034013400340A3400349E
:1008280064340034E834033410342734003410348A
:100838002034303440345034603470348034903450
:100848004F34633475347234723469346F342034FD
:1008580075346E3420346534723472346F347234C3
:10086800203465346E3420346C3461342034693477
:100878006E3474346534723470347234653474345C
:100888006134633469346F346E342E340A3400347E
:100898000A34503472346F346434753463347434C5
:1008A8006F3420346E346F34203465346E346334DE
:1008B8006F346E3474347234613464346F340A348F
:1008C80000340A34453473347434613464346F3416
:1008D8003A34203445346E342034653473347034FB
:1008E8006534723461340A3400340A345434503470
:1008F8003A34203425346434203450343A342034A3
:100908003F34253464342C34253464340A340034B8
:100918000A344C343A34253464342C344E343A3462
:10092800253464342C3454343A34253464340A3449
:1009380000340A34453473347434613464346F34A5
:100948003A342034413463347434693476346F343F
:100958000A3400340A345034253464343D342534A0
:1009680064340A34003456343D34253464340A344B
:1009780000340D30831603135C060319C42CC52CF0
:10098800CB2C0A305C06031DCA2CCB2CE52C59084D
:100998005A040319D02CD12CDB2C8E30F400803073
:1009A800F5000A128A15AA240A128A11702D5630E7
:1009B800F4008030F5000A128A15AA240A128A1156
:1009C800702D4C305C06031DEA2CEB2C132D7D306A
:1009D80083120313DF005F08AC006F08E000E10139
:1009E8006008AD006108AE006E08E200E30162082D
:1009F800AF006308B0006808B2006708B100A03013
:100A08000A128A1135220A128A11A030F400003025
:100A1800F5000A128A15AA240A128A11702D563076
:100A28005C06031D182D192D1D2D831203131F1588
:100A3800702D3A305C020318222D232D702D303092
:100A48005C02031C282D292D702D3A305D020318F5
:100A58002E2D2F2D702D30305D02031C342D352D99
:100A6800702D5C0883120313DF00E0015F08A0000B
:100A78006008A1000A30A2000030A3000A128A15FB
:100A8800F6230A128A11831603135D0883120313CF
:100A98002007E1000030031801302107E200610857
:100AA800F03E83160313C000831203136208031871
:100AB800013EFD3E83160313C10041088312031350
:100AC800BE0083160313400883120313BD000A12E5
:100AD8008A1171250A128A110800FF308312031344
:100AE800BD070318BE0AFF30BE0703103D0DBD0049
:100AF8003E0DBE003D08013E0A128A15A8230A12BF
:100B08008A1183120313BF00C0013D080A128A1517
:100B1800A8230A128A1183120313C100C2014108D3
:100B2800C200C1013F084104DD0040084204DE0064
:100B38005E08803AFF0083307F02031DA52DE83050
:100B48005D020318A82DA92DAF2D83120313DE1FF4
:100B5800AE2DAF2DC52D3D3083120313BF003F08C6
:100B6800AC0043300A128A1135220A128A11433026
:100B7800F4000030F5000A128A15AA240A128A1114
:100B8800152E6A30BF003F08AC000230A0000030CC
:100B9800A1003E08A3003D08A2000A128A117F2680
:100BA8000A128A11831203132008013EAD0021089E
:100BB8000318013E003EAE000A30A0000030A1003C
:100BC8005E08A3005D08A2000A128A117F260A1295
:100BD8008A11831203132108B0002008AF000A30DD
:100BE800A0000030A1005E08A3005D08A2000A1260
:100BF8008A15E1260A128A11831203132108B2000A
:100C08002008B10043300A128A1135220A128A11CB
:100C18004330F4000030F5000A128A15AA240A129B
:100C28008A11080083120313BC000130BC023C087F
:100C3800B6003607B7003708BC003C08013E0A1268
:100C48008A15A8230A128A1183120313B600B70162
:100C58003C080A128A15A8230A128A118312031360
:100C6800B800B9013808B900B80136083804BA0024
:100C780037083904BB00BB1B422E432E722E3B089B
:100C8800803AFF0083307F02031D4C2EE8303A0281
:100C980003184F2E502E722E023083120313A00019
:100CA8000030A1003C08B600B7013608A20037089A
:100CB800A3000A128A117F260A128A1183120313CB
:100CC8002108AD002008AC000A128A114F270A1229
:100CD8008A11003A0319712E722E782EFF30831272
:100CE8000313BA00FF30BB00831203133B08B5009F
:100CF8003A08B400080083120313A501A11F852E2A
:100D0800862E8D2EA009A109A00A0319A10AA50102
:100D1800A50AA31F902E912E9A2EA209A309A20A12
:100D28000319A30A0130F4007408A506A601A70157
:100D3800200821040319A12EA22ED92EA401A40A49
:100D4800B02E01300310A00DA10DFF3E031DA62EED
:100D58000130F4007408A407A11FB32EB42EA52EE9
:100D680001300310A60DA70DFF3E031DB52E210867
:100D78002302031DC12E20082202031CC42EC52EE7
:100D8800CC2E2008A2022108031CA303A3022614C8
:100D980001300310A10CA00CFF3E031DCD2E013025
:100DA800A402031DD82ED92EB42E25080319DD2E32
:100DB800DE2EE32EA609A709A60A0319A70A270803
:100DC800A1002608A0000800643083120313A000C5
:100DD8000030A1002D08A3002C08A2000A128A15D1
:100DE8004C260A128A118312031320080B3E840032
:100DF8000A128A110A240A128A1186000A30A000EF
:100E08000030A1002D08AA002C08A9006430A70012
:100E18000030A8000A128A158B250A128A1183123B
:100E280003132808A3002708A2000A128A154C26D3
:100E38000A128A11831203132008060486002D085B
:100E4800AA002C08A9006430A7000030A8000A12E4
:100E58008A158B250A128A11831203132808AF00FA
:100E68002708AE000A30A7000030A8002F08AA0003
:100E78002E08A9000A128A158B250A128A118312D4
:100E8800031327080B3E84000A128A110A240A1247
:100E98008A118800080083120313B1010C30B200D4
:100EA8000030B3003308AF003208AE000310AE0DB7
:100EB800AF0D0310AE0DAF0D0310AE0DAF0D2D0825
:100EC800803AB0002F08803A3002031D6D2F2E089B
:100ED8002C02031C702F712FA52F831203133308C4
:100EE800AF003208AE000310AE0DAF0D0310AE0D0B
:100EF800AF0D0310AE0DAF0D2E082C02AC002F085D
:100F0800031C2F0A2D02AD003208903E84000230E7
:100F1800A4000030A5002D08A7002C08A6000A127E
:100F28008A1516250A128A118312031324088317B7
:100F380000050319A02FA12FA32FB101B10AB201F7
:100F4800B301FF3083120313B2070318B30AFF304B
:100F5800B307B31FB02FB12F562F31080800F40183
:100F6800F501831203138515023083120313A200BF
:100F78000430A100B930A000A00BC02FA10BC02FD6
:100F8800A20BC02FC72F83120313851602308312BA
:100F98000313A2000430A100B930A000A00BD22F87
:100FA800A10BD22FA20BD22FD92F83120313851195
:100FB800023083120313A2000430A100B930A0004C
:100FC800A00BE42FA10BE42FA20BE42FEB2F83122D
:100FD800031385120130F4070318F50A0030F507EA
:100FE80000307502033003197402031CFC2FFD2F17
:060FF800B52F08000134D2
:1017400064008001840A0406031900340406A12BF6
:10175000F5006400831603178C18AF2BB02BA92B50
:101760007508831203178D003F30F4007408831648
:1017700003178C050C14831203170C08080083123E
:101780000313A100A001211CC62BC72BCB2B74086F
:10179000F5007508A0070310F40D0310A10C210833
:1017A000031DD32BD42BC32B200808003F308316F6
:1017B00003135B06031DDD2BDE2BE42B0A128A11BB
:1017C000BD240A128A15F52B2B305B06031DE92B6D
:1017D000EA2BF02B0A128A151D240A128A15F52B02
:1017E0000A128A11EC230A128A150800F401F50185
:1017F00083120313201CFD2BFE2B042C2208F4075C
:101800000318F50A2308F50701300310A20DA30DF4
:10181000FF3E031D052C01300310A10CA00CFF3E60
:10182000031D0C2C20082104031D172C182CF82B49
:101830007508A1007408A00008004C30831603133B
:101840005C06031D242C252C2B2C0A128A15E0245F
:101850000A128A15462C0A128A1578240A128A1549
:10186000063A031D342C352C3B2C0A128A111F23F7
:101870000A128A15462C4430831603135C06031D96
:10188000422C432C462CF801F80A462C08008312FF
:101890000313A000831603178C184F2C502C4A2CCE
:1018A000831203132008831203178D0074088C0021
:1018B0003F30F5007508831603178C058312031358
:1018C00003108B1F642C652C662C03148B1383165A
:1018D00003170C1555308D00AA308D008C140C1197
:1018E00083120313031C752C762C772C8B1708009E
:1018F00083120313A101A10AA001862C0130F40078
:101900007408A1070130F4007408A0072108DB3E29
:1019100084003A308313000203188F2C902C992CEA
:101920002108DB3E8400303000020318982C992CEB
:10193000A22C2108DB3E84003D300006031DA12CB3
:10194000A22CA82C07302102031CA72CA82C7E2C2B
:101950002008080083120313A301A401A501A50A0E
:10196000DA2C23087407A1007508A0000318A00A48
:10197000A31FBB2CA003831203132008A20022087C
:10198000FF00210884000A128A1100240A128A1515
:1019900099001908031DCD2CCE2CD02CA501D62CD6
:1019A0000130A3070318A40A0030A4070C1ED92C89
:1019B000DA2CD62C2508031DDE2CDF2CB12C0800D8
:1019C000831203136D08031DE62CE72C0C2D7D30CC
:1019D000BD003D08AC006F08BE00BF013E08AD0071
:1019E0003F08AE006E08C000C1014008AF004108CA
:1019F000B0006808B2006708B10042300A128A11CC
:101A000035220A128A154230F4000030F5000A121D
:101A10008A15AA240A128A15013083120313BD0005
:101A20003D08EF07EE01E701E80108008312031308
:101A3000AA01AB01A801A901412D28082904031D11
:101A4000222D232D282D0130AA000030AB003B2D84
:101A50002B08A1002A08A0002508A3002408A20042
:101A60000A128A15F6230A128A1583120313210813
:101A7000AB002008AA000130A8070318A90A00300B
:101A8000A90729082702031D472D28082602031845
:101A90004A2D4B2D1D2D2B08A5002A08A400080057
:101AA000831203136C08831603135A06031D5E2D5D
:101AB000831203136B088316031359060319612D50
:101AC000622D8A2D831203136C0883160313DA0028
:101AD000831203136B0883160313D90083120313B5
:101AE0006A08AD006908AC000A128A153C270A1280
:101AF0008A15831603135A0883120313AD00831645
:101B00000313590883120313AC000A128A11E82642
:101B10000A128A15080083120313270828040319E0
:101B2000922D932DC22DAB01AB0AA12D01300310D4
:101B3000A70DA80DFF3E031D972D0130F500750878
:101B4000AB07A81FA42DA52D962D28082A02031D3A
:101B5000AB2D27082902031CAE2DAF2DB52D27086C
:101B6000A9022808031CAA03AA0201300310A80C2A
:101B7000A70CFF3E031DB62D0130AB02031DC12D86
:101B8000C22DA52D2A08A8002908A70008003F306B
:101B9000831603135B060319CE2DCF2DDB2D2B30BF
:101BA0005B060319D42DD52DDB2D2D305B06031DCF
:101BB000DA2DDB2DE12D0A128A15D6230A128A1599
:101BC000072E3A305B020318E62DE72DF32D303057
:101BD0005B02031CEC2DED2DF32D0A128A113D2121
:101BE0000A128A15072E83120313851606308312F4
:101BF0000313E6001330E500AD30E400E40BFE2DE6
:101C0000E50BFE2DE60BFE2D831203138512080053
:101C1000831203138C1E0D2E0E2E382E1A08F00080
:101C20007908DB3E84007008831380000D300006C5
:101C300003191B2E1C2E302E7908DB3E84000A303F
:101C400000060319242E252E302E093079020318A0
:101C50002A2E2B2E302E0130F0007008F907432E6B
:101C6000F901013083160313D7000030D800432E4A
:101C70000C1F3B2E3C2E432E0C131E088316031301
:101C8000E6001E08E50073088A0072088400710EE1
:101C90008300FE0E7E0E090083120313A501A60128
:101CA000200821040319552E562E8D2EA401A40AB6
:101CB000642E01300310A00DA10DFF3E031D5A2E0E
:101CC0000130F4007408A407A11F672E682E592E56
:101CD00001300310A50DA60DFF3E031D692E21083E
:101CE0002302031D752E20082202031C782E792E54
:101CF000802E2008A2022108031CA303A30225149E
:101D000001300310A10CA00CFF3E031D812E0130F9
:101D1000A402031D8C2E8D2E682E2608A1002508F6
:101D2000A0000800013083120313B0003008EE0752
:101D300083160313590883120313E7070318E80AED
:101D4000831603135A0883120313E8078316031339
:101D5000D901DA0183120313EB01EC01B101B201E5
:101D6000831203133108903E8400831780010130F1
:101D7000B1070318B20A0030B2073208803AFF00F8
:101D800080307F02031DC62E0D303102031CC92E88
:101D9000CA2EB02E831603135A0883120313AD0004
:101DA00083160313590883120313AC000A128A1115
:101DB000E8260A128A150A128A11B3270A128A150E
:101DC000080083120313A501A31FE72EE82EEF2EB0
:101DD000A209A309A20A0319A30AA501A50AA11F22
:101DE000F22EF32EF82EA009A109A00A0319A10AC8
:101DF000200821040319FD2EFE2E2D2FA401A40A74
:101E00000C2F01300310A00DA10DFF3E031D022F6A
:101E10000130F4007408A407A11F0F2F102F012F09
:101E200021082302031D162F20082202031C192F4C
:101E30001A2F202F2008A2022108031CA303A302AB
:101E400001300310A10CA00CFF3E031D212F013017
:101E5000A402031D2C2F2D2F102F25080319312F1D
:101E6000322F372FA209A309A20A0319A30A2308B4
:101E7000A1002208A00008000C3083120313B10057
:101E80000030B2003208AF003108AE000310AE0DD2
:101E9000AF0D0310AE0DAF0D0310AE0DAF0D2D083D
:101EA000803AB0002F08803A3002031D592F2E08C7
:101EB0002C02031C5C2F5D2F912F83120313320819
:101EC000AF003108AE000310AE0DAF0D0310AE0D24
:101ED000AF0D0310AE0DAF0D2E082C02AC002F0875
:101EE000031C2F0A2D02AD003108903E8400023001
:101EF000A4000030A5002D08A7002C08A6000A1297
:101F00008A1516250A128A158312031324088317CB
:101F10000006AE003108903E84002E088000B1011A
:101F2000B201FF3083120313B1070318B20AFF3066
:101F3000B207B21F9C2F9D2F422F08000C30831236
:101F40000313B1000030B2003208AF003108AE0018
:101F50000310AE0DAF0D0310AE0DAF0D0310AE0D9F
:101F6000AF0D2D08803AB0002F08803A3002031DD3
:101F7000BB2F2E082C02031CBE2FBF2FF32F831262
:101F800003133208AF003108AE000310AE0DAF0DE1
:101F90000310AE0DAF0D0310AE0DAF0D2E082C02C9
:101FA000AC002F08031C2F0A2D02AD003108903E13
:101FB00084000230A4000030A5002D08A7002C08E2
:101FC000A6000A128A1516250A128A15831203130F
:101FD000240883170004AE003108903E84002E08C8
:101FE0008000B101B201FF3083120313B10703185F
:101FF000B20AFF30B207B21FFE2FFF2FA42F080036
:02400E00793FF8
:00000001FF
