:020000040000FA
:060000000A128A110E280D
:10000800FE00030EF2000408F3000A08F4000A16C2
:100018008A153A2E0A128A1111280A128A11FD2706
:100028000A128A11F900831790308400A3300A1647
:100038008A115D200A128A11F501F601F701F8010B
:1000480083010A168A15AD2F8312031344088039D9
:10005800C9004908CE004408C9004907CA004A082F
:10006800D400C31F382839283A28541454080319CF
:100078003E283F284E28540A031D432844284C286C
:100088000030C4000030C3000030C2000030C1009E
:10009800C31756280030C4000030C3000030C20027
:1000A8000030C10048088039C9004908CE06480810
:1000B800C9004907CA004A08CF00C71F6428652835
:1000C80066284F144F0803196A286B287A284F0AA4
:1000D800031D6F28702878280030C8000030C7003A
:1000E8000030C6000030C500C71782280030C8009D
:1000F8000030C7000030C6000030C5004F080319A3
:10010800862887288C285408031D8B288C28952836
:100118000030C4000030C3000030C2000030C1000D
:10012800882B4108C9004908A00047080A168A1503
:10013800D5250A128A11831203132108DA00200830
:10014800D9005908C900CA01CB01CC014C08D30019
:100158004B08D2004A08D1004908D0005A08C90003
:10016800CA01CB01CC014C08D8004B08D7004A087B
:10017800D6004908D5004208C9004908A000460829
:100188000A168A15D5250A128A1183120313210823
:10019800DA002008D9005908C900CA01CB01CC01EE
:1001A8004908D0074A0803110318013E0319DD283E
:1001B800D1074B0803110318013E0319E428D2079D
:1001C8004C0803110318013E0319EB28D3075A08FA
:1001D800C900CA01CB01CC014908D5074A08031157
:1001E8000318013E0319F928D6074B080311031811
:1001F800013E03190029D7074C0803110318013ED3
:1002080003190729D8074308C9004908A000450869
:100218000A168A15D5250A128A1183120313210892
:10022800DA002008D9005908C900CA01CB01CC015D
:100238004908D0074A0803110318013E0319252964
:10024800D1074B0803110318013E03192C29D207C3
:100258004C0803110318013E03193329D3075A0820
:10026800C900CA01CB01CC014908D5074A080311C6
:100278000318013E03194129D6074B080311031837
:10028800013E03194829D7074C0803110318013EFA
:1002980003194F29D8070830C9000310D00DD10D14
:1002A800D20DD30DC90B51294208C9004908A00035
:1002B80045080A168A15D5250A128A1183120313CE
:1002C8002108DA002008D9005908C9005A08CA00CC
:1002D800CB01CC014908D0074A0803110318013E95
:1002E80003197729D1074B0803110318013E031995
:1002F8007E29D2074C0803110318013E03198529EA
:10030800D3074108C9004908A00046080A168A15FB
:10031800D5250A128A11831203132108DA0020084E
:10032800D9005908C9005A08CA00CB01CC014908AC
:10033800D0074A0803110318013E0319A429D1075D
:100348004B0803110318013E0319AB29D2074C08C7
:1003580003110318013E0319B229D3070830C90055
:100368000310D00DD10DD20DD30DC90BB4294108FE
:10037800C9004908A00045080A168A15D5250A1299
:100388008A11831203132108DA002008D9005908BA
:10039800C9005A08CA00CB01CC014908D0074A084D
:1003A80003110318013E0319DA29D1074B08031179
:1003B8000318013E0319E129D2074C080311031859
:1003C800013E0319E829D3074208C9004908A000DB
:1003D80047080A168A15D5250A128A1183120313AB
:1003E8002108DA002008D9005908C9005A08CA00AB
:1003F800CB01CC014908D5074A0803110318013E6F
:100408000319072AD6074B0803110318013E0319DD
:100418000E2AD7074C0803110318013E0319152AA1
:10042800D8074308C9004908A00046080A168A15D3
:10043800D5250A128A11831203132108DA0020082D
:10044800D9005908C9005A08CA00CB01CC0149088B
:10045800D5074A0803110318013E0319342AD607A1
:100468004B0803110318013E03193B2AD7074C0810
:1004780003110318013E0319422AD8074308C9008B
:100488004908A00047080A168A15D5250A128A11B4
:10049800831203132108DA002008D9005908C9007B
:1004A8005A08CA00CB01CC0108300310C90DCA0D87
:1004B800CB0DCC0DFF3E031D592A4908D5074A0824
:1004C80003110318013E03196A2AD6074B080311C2
:1004D8000318013E0319712AD7074C0803110318A2
:1004E800013E0319782AD8075008C9005108CA00E4
:1004F8005208CB005308CC0018300310CC0CCB0C9E
:10050800CA0CC90CFF3E031D812A4908D5074A08B1
:1005180003110318013E0319922AD6074B08031149
:100528000318013E0319992AD7074C080311031829
:10053800013E0319A02AD8070830C9000310D00DBE
:10054800D10DD20DD30DC90BA22A54084F07C900EB
:10055800CA01CA0D4908823ED9004A080318013E5B
:10056800FF3EDA00D42A0130C9000310D50DD60D9C
:10057800D70DD80DC90BB92AD31FC32AC42AC52A37
:1005880055140130C9000310D00DD10DD20DD30D73
:10059800C90BC72AFF30D9070318DA0AFF30DA0770
:1005A800D71FD72AD82AB72ACF01D31FDC2ADD2A9A
:1005B800F92AFF305005C900FF305105CA00FF3045
:1005C8005205CB007F305305CC004C084B044A043D
:1005D80049040319F02AF12AF42ACF01CF0AF92A8B
:1005E800551CF72AF82AF92AF12A4F080319FD2A77
:1005F800FE2A2F2B0130D507003003180130D6070B
:10060800003003180130D707003003180130D8072D
:10061800581C0F2B102B2F2B5508C9005608CA0041
:100628005708CB005808CC000130CD004C0DCC0C3D
:10063800CB0CCA0CC90CCD0B1A2B4C08D8004B0894
:10064800D7004A08D6004908D5000130D907031851
:10065800DA0A0030DA075A08803AFF0080307F0251
:10066800031D382BFF305902031C3B2B3C2B472B17
:100678007F3083120313D8008030D7000030D600B3
:100688000030D5007C2B831203135A08803AFF00F0
:1006980080307F02031D522B013059020318552B5D
:1006A800562B622B003083120313D8000030D7007A
:1006B8000030D6000030D500CE017C2B8312031306
:1006C8005908C9004908D400FF30D505FF30D605C0
:1006D8007F30D7050030D805541C732B742B752B2D
:1006E800D7175408C9000310490CCA004A08D80093
:1006F8004E08C9004908D8045808C4005708C30060
:100708005608C2005508C1000800831203135E088A
:100718008039E3006308EB005E08E3006307E40048
:100728006408ED00DD1F992B9A2B9B2B6D146D0827
:1007380003199F2BA02BB02B6D0A031DA42BA52BEF
:10074800AD2B0030DE000030DD000030DC00003072
:10075800DB00DD17DE01B82B0030DE000030DD00E5
:100768000030DC000030DB0062088039E3006308F9
:10077800EC006C086B060319C22BC32BC42B6B1738
:100788006208E3006307E4006408EC00E11FCD2B76
:10079800CE2BCF2B6C146C080319D32BD42BE42B42
:1007A8006C0A031DD82BD92BE12B0030E200003056
:1007B800E1000030E0000030DF00E117E201EC2B3F
:1007C8000030E2000030E1000030E0000030DF00DF
:1007D8006D086C020318F12BF22B362C6B1FF52BCE
:1007E800F62BFA2B8030E3006308EB066D08E30074
:1007F8006308EE006C08E3006308ED006E08E30090
:100808006308EC005B08E3006308EE005F08E300A0
:100818006308DB006E08E3006308DF005C08E300A0
:100828006308EE006008E3006308DC006E08E3007C
:100838006308E0005D08E3006308EE006108E30078
:100848006308DD006E08E3006308E1005E08E3006A
:100858006308EE006208E3006308DE006E08E30048
:100868006308E200EE016C08E300E4016408E600B6
:100878006D086302E500031CE6036608803AFF0082
:1008880080307F02031D4A2C1A306502031C4D2C50
:100898004E2C8B2C831203135E085D045C045B04EE
:1008A800031D572C592C01305A2C0030E3006308E3
:1008B800EE000030DE000030DD000030DC000030EB
:1008C800DB006C08E3006308ED00932C6E1C6D2CB4
:1008D8006E2C772C6E08E3000310630C0138E400DB
:1008E8006408EE00792C0310EE0C5B1C7C2C7D2C2C
:1008F8007E2CEE170130E3005E0DDE0CDD0CDC0C07
:10090800DB0CE30B802C0130E3006308ED07831256
:1009180003136C086D02031C922C932C6A2C6B1B1E
:10092800962C972CE22C6D08031D9B2C9C2CA52C37
:100938000030DE000030DD000030DC000030DB007D
:10094800102E5F08DB07600803110318013E031926
:10095800AE2CDC07610803110318013E0319B52CFE
:10096800DD07620803110318013E0319BC2CDE07DA
:100978005E1CBF2CC02C962D6E1CC32CC42CCD2CF9
:100988006E08E3000310630C0138E4006408EE000D
:10099800CF2C0310EE0C5B1CD22CD32CD42CEE17CE
:1009A8000130E3005E0DDE0CDD0CDC0CDB0CE30B30
:1009B800D62C0130E3006308ED07962D5E08803AD7
:1009C800FF006208803A7F02031DF42C61085D0273
:1009D800031DF42C60085C02031DF42C5F085B0205
:1009E8000318F72CF82C502DFF30E300FF30E400FB
:1009F800FF30E500FF30E6005F08E7006008E80028
:100A08006108E9006208EA005B08E7025C08031C69
:100A18005C0F0F2D102DE8025D08031C5D0F152DCE
:100A2800162DE9025E08031C5E0F1B2D1C2DEA0221
:100A38006708E30768080318680F232D242DE407C7
:100A480069080318690F292D2A2DE5076A08031874
:100A58006A0AE6076608DE006508DD006408DC004F
:100A68006308DB008030E3006308EB06EE09EE0A5A
:100A78006E08031D402D412D5E2D0130DB0700302F
:100A880003180130DC07003003180130DD0700309F
:100A980003180130DE075E2D5F08DB026008031CC7
:100AA800600FDC026108031C610FDD026208031C91
:100AB800620FDE025E085D045C045B04031D652DA5
:100AC800662D922D6E08031D6A2D6B2D922D003018
:100AD800DE000030DD000030DC000030DB00102ECE
:100AE8000130E3000310DB0DDC0DDD0DDE0DE30B43
:100AF800762DEE1F802D812D822D5B146E1C852D89
:100B0800862D892D0314EE0D8B2D0310EE0D6D0827
:100B180003198F2D902D922D0130ED02DD1F952D9B
:100B2800962D742DEC01EE1F9A2D9B2DA92D6E0884
:100B38007F390319A02DA12DA42DEC01EC0AA92DB4
:100B48005B1CA72DA82DA92DA12D6C080319AD2D6F
:100B5800AE2DE22D0130DB07003003180130DC0731
:100B6800003003180130DD07003003180130DE07BC
:100B78005E1CBF2DC02DE22D5B08E3005C08E4007D
:100B88005D08E5005E08E6000130E700660DE60C4A
:100B9800E50CE40CE30CE70BCA2D6608DE006508DB
:100BA800DD006408DC006308DB006D0A0319DD2D35
:100BB800DE2DE22D0130E3006308ED076D0A03190D
:100BC800E62DE72DEC2D6D08031DEB2DEC2DFA2DF0
:100BD8000030DE000030DD000030DC000030DB00DB
:100BE8006D08031DF82DF92DFA2DEB016D1CFD2D57
:100BF800FE2D002EDD17042E7F30E3006308DD058F
:100C08006D08E3000310630CE4006408DE00EB1FCA
:100C18000E2E0F2E102EDE1708008312031327083E
:100C28008039A8002808B1002708A8002807A900CB
:100C38002908B800A61F212E222E232E3814380882
:100C48000319272E282E382E380A031D2C2E2D2E58
:100C5800352E0030A7000030A6000030A500003077
:100C6800A400A617A701402E0030A7000030A60058
:100C78000030A5000030A40023088039A800280807
:100C8800B1062308A8002807A9002908B900A21F4F
:100C98004E2E4F2E502E391439080319542E552E26
:100CA800652E390A031D592E5A2E622E0030A300D4
:100CB8000030A2000030A1000030A000A217A3015C
:100CC8006D2E0030A3000030A2000030A1000030DB
:100CD800A0002308220421042004031D742E752E6D
:100CE8008E2E0030A7000030A6000030A50000308E
:100CF800A4008030A6047F30A7043108A800280883
:100D0800A7042708A3002608A2002508A100240894
:100D1800A000ED2F3808031D922E932E9C2E003034
:100D2800A3000030A2000030A1000030A000ED2F89
:100D38003808A800A9012908AB0039082802AA0028
:100D4800031CAB032A087F3EB2002B080318013EA0
:100D5800003EB3002708B0002608AF002508AE0003
:100D68002408AD000030A7000030A6000030A50020
:100D78000030A4000030B7000030B6000030B500E5
:100D88000030B400B901122F39080319CC2ECD2E2A
:100D9800ED2E0130A8000310AD0DAE0DAF0DB00D56
:100DA800A80BCF2E0130A8000310A40DA50DA60D89
:100DB800A70DA80BD82EB71FE22EE32EE42E24147D
:100DC8000130A8000310B40DB50DB60DB70DA80B72
:100DD800E62E23083002031DFB2E22082F02031DD6
:100DE800FB2E21082E02031DFB2E20082D02031CBA
:100DF800FE2EFF2E0E2F37172008AD022108031CE8
:100E0800210FAE022208031C220FAF022308031C85
:100E1800230FB0020130A8002808B9071A30390298
:100E2800031C172F182FC82E30082F042E042D044A
:100E380003191F2F202F3F2F34143F2F0130A800F4
:100E48000310A40DA50DA60DA70DA80B242FB71FE1
:100E58002E2F2F2F302F24140130A8000310B40D8B
:100E6800B50DB60DB70DA80B322FFF30B20703181A
:100E7800B30AFF30B307A61F422F432F222FB90111
:100E8800B71F472F482F642FFF303405A800FF30C5
:100E98003505A900FF303605AA007F303705AB00BD
:100EA8002B082A042904280403195B2F5C2F5F2FC1
:100EB800B901B90A642F241C622F632F642F5C2F99
:100EC80039080319682F692F9A2F0130A4070030B9
:100ED80003180130A507003003180130A6070030B9
:100EE80003180130A707271C7A2F7B2F9A2F240875
:100EF800A8002508A9002608AA002708AB00013089
:100F0800AC002B0DAB0CAA0CA90CA80CAC0B852FB4
:100F18002B08A7002A08A6002908A5002808A4006D
:100F28000130B2070318B30A0030B3073308803A18
:100F3800FF0080307F02031DA32FFF303202031C05
:100F4800A62FA72FB52FFF3083120313B20000304E
:100F5800B3000030A7000030A6000030A500003024
:100F6800A400831203133308803AFF0080307F0205
:100F7800031DC02F013032020318C32FC42FD12FF5
:100F880083120313B201B3010030A7000030A6009A
:100F98000030A5000030A400B10183120313320809
:100FA800A8002808B800381CDA2FDB2FDD2FA61779
:100FB800E12F7F30A8002808A6053808A8000310EC
:100FC800280CA9002908A7003108A8002808A704A8
:100FD800852E08008030831603138700263098007A
:100FE8009030831203139800193083160313990065
:040FF8000800303489
:10100200F701F80183160317A101A2019B019C01BC
:10101200780883120313A9007708A8000A168A1118
:1010220098210A128A150A168A15C2260A128A15E8
:10103200080083160313230883120313BD008316CB
:101042000313220883120313BC008316031321081F
:1010520083120313BB0083160313200883120313A6
:10106200BA00A830EF006F08BE000A168A11C0202D
:101072000A128A1583160313A91F402841287E28C5
:10108200230883120313A300831603132208831277
:101092000313A20083160313210883120313A10072
:1010A20083160313200883120313A0000030A70045
:1010B2000030A6000030A5000030A4000A168A11F4
:1010C200BB220A128A150318672868287328BF30C2
:1010D20083160313A3008030A2000030A100003069
:1010E200A0004C29003083160313A3000030A20095
:1010F2000030A1000030A0004C29003029021D3030
:1011020003192802031C8628872888284C292308CB
:1011120083120313B10083160313220883120313ED
:10112200B00083160313210883120313AF00831642
:101132000313200883120313AE000A168A111C211E
:101142000A128A15831203133108A3003008A20081
:101152002F08A1002E08A00001300A168A115F2371
:101162000A128A1583120313230883160313A70096
:1011720083120313220883160313A6008312031398
:10118200210883160313A500831203132008831674
:101192000313A400230883120313A300831603136B
:1011A200220883120313A200831603132108831259
:1011B2000313A10083160313200883120313A00054
:1011C20083160313270883120313A700831603133E
:1011D200260883120313A60083160313250883121D
:1011E2000313A50083160313240883120313A40018
:1011F2000A168A11BB220A128A150318012902292A
:101202004229BF3083120313DE008030DD0000303C
:10121200DC000030DB00831603132708831203135C
:10122200E20083160313260883120313E1008316D8
:101232000313250883120313E00083160313240803
:1012420083120313DF000A128A1189230A128A15F4
:10125200831203135E0883160313A300831203137E
:101262005D0883160313A200831203135C0883161E
:101272000313A100831203135B0883160313A00058
:101282004C29831603132708A3002608A200250869
:10129200A1002408A000080083160313E901EA0153
:1012A200ED01EE01F501F601FF30DF00FF30E00055
:1012B200A72983160313E901EA01EB01EC01831666
:1012C20003136B08903E84006D080A168A158F2559
:1012D2000A128A1583170006031D702971297A29BB
:1012E200013083160313E9070318EA0A0030EA07FC
:1012F2007E2983160313E901EA010130ED07031881
:10130200EE0A0030EE070130EB070318EC0A00305A
:10131200EC076C08803AFF0080307F02031D93299E
:1013220002306B02031C9629972960298316031346
:101332006D08033EED006E080318013E003EEE000C
:101342000130F5070318F60A0030F6076A08803AFA
:10135200FF0080307F02031DB029023069020318AA
:10136200B329B429C329831603136E08803AFF00F8
:1013720080307F02031DBF2941306D02031CC22948
:10138200C3295A29FF30F5070318F60AFF30F6077A
:1013920002308316031369066A04031DD129D22978
:1013A200402B750883120313A0007608A1000030B9
:1013B200A11BFF30A200A30001300A168A115F238D
:1013C2000A128A1583120313230883160313E400F7
:1013D20083120313220883160313E30083120313F9
:1013E200210883160313E2008312031320088316D5
:1013F2000313E1006408CB006308CA006208C90055
:101402006108C8004030C7000030C6000030C50087
:101412000030C4000A128A1546230A128A1583165E
:1014220003134708E8004608E7004508E6004408B9
:10143200E500680883120313B100831603136708DB
:1014420083120313B0008316031366088312031377
:10145200AF0083160313650883120313AE000A1646
:101462008A111C210A128A15831603171B0883127C
:1014720003132E0583160313DC00831603171C08BF
:10148200831203132F0583160313DD005C085D042A
:10149200031D4C2A4D2A402B0530DC005C088312C8
:1014A2000313A00075080A168A1578250A128A15F0
:1014B200023E0A168A158F250A128A15D03E831219
:1014C2000313A400FF3003180030A5006430A60007
:1014D2000030A7000A168A15AE250A128A15831251
:1014E2000313250883160313E00083120313240851
:1014F20083160313DF000530DC005C08831203133C
:10150200A00075080A168A1578250A128A15033E64
:101512000A168A158F250A128A15D03E83120313E2
:10152200A400FF3003180030A5000A30A6000030E6
:10153200A7000A168A15AE250A128A15831203130A
:10154200240883160313DF070318E00A8312031328
:10155200250883160313E0070530DC005C088312BC
:101562000313A00075080A168A1578250A128A152F
:10157200043E0A168A158F250A128A15D03E831652
:101582000313DD00FF3003180030DE005D08DF07C3
:101592000318E00A5E08E007750883120313A0002F
:1015A2007608A1000030A11BFF30A200A300013089
:1015B2000A168A115F230A128A158312031323085B
:1015C20083160313E4008312031322088316031302
:1015D200E30083120313210883160313E20083122C
:1015E2000313200883160313E1006408CB00630889
:1015F200CA006208C9006108C8004030C700003054
:10160200C6000030C5000030C4000A128A15462305
:101612000A128A15831603134708E8004608E700F2
:101622004508E6004408E500680883120313B10088
:1016320083160313670883120313B0008316031380
:10164200660883120313AF0083160313650883121F
:101652000313AE000A168A111C210A128A15831678
:1016620003171B08831203132E04831603179B0010
:101672001C08831203132F04831603179C00031301
:101682006008DB005F08DA00080083160313D50147
:10169200470883120313B10083160313460883120B
:1016A2000313B00083160313450883120313AF001C
:1016B20083160313440883120313AE000030B500EF
:1016C2000030B4000030B3000030B2000A168A15B0
:1016D2005D270A128A15031C6F2B702BAC2B00306E
:1016E20083120313A3000030A2000030A1000030D7
:1016F200A000831603134B0883120313A70083165B
:1017020003134A0883120313A6008316031349081E
:1017120083120313A50083160313480883120313CD
:10172200A4000A168A11BB220A128A15031C9A2BDC
:101732009B2BA12B213083160317990000309A00AE
:10174200003083160313C7000030C6000030C50006
:101752000030C400842D831603134B088312031335
:10176200B100831603134A0883120313B0008316D1
:101772000313490883120313AF00831603134808A7
:1017820083120313AE000030B5000030B400003005
:10179200B3000030B2000A168A155D270A128A15B4
:1017A200031CD42BD52BE02B3F3083160313C70029
:1017B2008030C6000030C5000030C400842D83167E
:1017C2000313470883120313A30083160313460867
:1017D20083120313A2008316031345088312031313
:1017E200A10083160313440883120313A0000030E0
:1017F200A7000030A6000030A5000030A4000A16A1
:101802008A11BB220A128A150318082C092CD02C23
:10181200831603134B0883120313B10083160313B9
:101822004A0883120313B000831603134908831274
:101832000313AF0083160313480883120313AE0089
:101842000A168A111C210A128A15831203133108FF
:1018520083160313D900831203133008831603136C
:10186200D800831203132F0883160313D7008312A1
:1018720003132E0883160313D60059088312031389
:10188200A30083160313580883120313A2008316BE
:101892000313570883120313A10083160313560878
:1018A20083120313A00000300A168A115F230A1262
:1018B2008A15831203132308B1002208B0002108FD
:1018C200AF002008AE00831603134B0883120313E4
:1018D200B500831603134A0883120313B400831658
:1018E2000313490883120313B30083160313480832
:1018F20083120313B2000A168A155D270A128A158B
:101902000318842C852C962C2130831603179900FA
:1019120000309A00003083160313C7000030C6005F
:101922000030C5000030C400842D8316031356080E
:101932000139CC004C08D500470883120313A300D9
:1019420083160313460883120313A200831603139C
:10195200450883120313A10083160313440883125C
:101962000313A0000A168A156B250A128A15831220
:101972000313230883160313C700831203132208D9
:1019820083160313C600831203132108831603135D
:10199200C50083120313200883160313C4008316A1
:1019A20003134708B3004608B2004508B1004408D3
:1019B200B0000A168A118E260A128A15831603139C
:1019C2003308D0003208CF003108CE003008CD00F5
:1019D2004B0883120313C400831603134A088312AD
:1019E2000313C30083160313490883120313C200AF
:1019F20083160313480883120313C10083160313CB
:101A0200500883120313C800831603134F0883126E
:101A12000313C700831603134E0883120313C60071
:101A2200831603134D0883120313C5000A128A1189
:101A320028200A128A1583120313440883160313FB
:101A4200D40083120313430883160313D3008312B3
:101A52000313420883160313D200831203134108AF
:101A620083160313D1005408BB005308BA0052086E
:101A7200B9005108B8000A128A1585250A128A157A
:101A8200831603133B08C7003A08C6003908C5008D
:101A92003808C400550803194F2D502D842D4708CE
:101AA20083120313A300831603134608831203133E
:101AB200A20083160313450883120313A1008316A1
:101AC2000313440883120313A0000A168A156B2518
:101AD2000A128A1583120313230883160313C700FD
:101AE20083120313220883160313C60083120313FF
:101AF200210883160313C5008312031320088316DB
:101B02000313C400842D0800831603133B088312B9
:101B12000313B100831603133A0883120313B000B0
:101B220083160313390883120313AF0083160313BA
:101B3200380883120313AE000030B5000030B40041
:101B42000030B3000030B2000A168A155D270A126F
:101B52008A15031CAD2DAE2DB92D3F30831603130C
:101B6200BB008030BA000030B9000030B800FF2F4F
:101B7200443083120313A3003130A2007230A1005B
:101B82001830A000831603133B0883120313A70027
:101B9200831603133A0883120313A6008316031352
:101BA200390883120313A50083160313380883121E
:101BB2000313A4000A168A11BB220A128A150318FB
:101BC200E32DE42DF52D2230831603179900003002
:101BD2009A007F3083160313BB007F30BA00FF30B8
:101BE200B900FF30B800FF2F831603133B0883129E
:101BF2000313A300831603133A0883120313A200EC
:101C020083160313390883120313A10083160313E7
:101C1200380883120313A000C430A7003A30A6008C
:101C22004830A5008730A4000A168A11BB220A1286
:101C32008A1503181D2E1E2E2F2E223083160317EF
:101C4200990000309A00003083160313BB00003065
:101C5200BA000030B9000030B800FF2F831603131A
:101C62003B0883120313A300831603133A0883125B
:101C72000313A20083160313390883120313A1006E
:101C820083160313380883120313A0000030A70041
:101C92000030A6000030A5000030A4000A168A1108
:101CA200BB220A128A15031C572E592E01305A2EB6
:101CB200003083160313BC003C08C3004308031919
:101CC200632E642E972E3B0883120313A300831600
:101CD20003133A0883120313A2008316031339086D
:101CE20083120313A100831603133808831203130C
:101CF200A0000A168A156B250A128A15831203138D
:101D0200230883160313BB008312031322088316CE
:101D12000313BA0083120313210883160313B900B5
:101D220083120313200883160313B8003F30831273
:101D32000313C400B830C300AA30C2003B30C10054
:101D4200831603133B0883120313C800831603137D
:101D52003A0883120313C700831603133908831248
:101D62000313C60083160313380883120313C50036
:101D72000A128A1128200A128A15831203134408B0
:101D820083160313BB008312031343088316031342
:101D9200BA0083120313420883160313B900831295
:101DA2000313410883160313B8003B08A3003A0843
:101DB200A2003908A1003808A0000A128A151A20C8
:101DC2000A128A15831603132308C0002208BF00D3
:101DD2002108BE002008BD00400883120313B10091
:101DE200831603133F0883120313B00083160313F1
:101DF2003E0883120313AF00831603133D088312B8
:101E02000313AE000A168A111C210A128A158312C4
:101E120003132F0883160313C200831203132E0821
:101E220083160313C100410883120313A000831613
:101E32000313420883120313A1000030A11BFF30D9
:101E4200A200A30001300A168A115F230A128A1522
:101E520083120313230883160313A30083120313AD
:101E6200220883160313A200831203132108831688
:101E72000313A10083120313200883160313A00087
:101E82003B08A7003A08A6003908A5003808A400B4
:101E92000A168A150D270A128A15831603132308B8
:101EA200BB002208BA002108B9002008B8003B088C
:101EB200A3003A08A2003908A1003808A0000B309C
:101EC200BC003C08A4000930A5000030A6000A1698
:101ED2008A11B4250A128A15831603132308B30044
:101EE2002208B2002108B1002008B0004208B50063
:101EF2004108B4000A168A11E6240A128A158316CA
:101F020003133308BB003208BA003108B9003008A5
:101F1200B800430803198E2F8F2FFF2F3B0883121F
:101F22000313B100831603133A0883120313B0009C
:101F320083160313390883120313AF0083160313A6
:101F4200380883120313AE007F30B5007F30B4002F
:101F5200FF30B300FF30B2000A168A155D270A125D
:101F62008A15031CB52FB62FC12F00308316031319
:101F7200BB000030BA000030B9000030B800FF2FBB
:101F8200831603133B0883120313A3008316031360
:101F92003A0883120313A20083160313390883122B
:101FA2000313A10083160313380883120313A0003E
:101FB2003F30A7008030A6000030A5000030A4000A
:101FC2000A128A1111260A128A1583120313230890
:101FD20083160313BB008312031322088316031311
:101FE200BA0083120313210883160313B900831264
:101FF2000313200883160313B800FF2F08001030C4
:102002008A000408840A820700343F3406345B34B1
:102012004F3466346D347D3407347F346F3400348A
:10202200003480343F341834723431343F34F03465
:10203200FD3475343E344734583463343D345834B7
:1020420095341D343C348234C434AE343A34A8342A
:10205200783421343934EF34933480343734A03433
:102062009234A7343534463456341534343400347B
:10207200003400340034C434FF347F343F348034BD
:10208200EF34FF34BE349034E134A9343E34EC34BE
:1020920082347634BE348234AD342B343E340E3442
:1020A2003C34C334BD348734D13413343D344134E9
:0620B2007834D334BB3486
:1020BA0064008001840A04060319003404065E28B9
:1020CA0083120313A601A31F6B286C287328A20985
:1020DA00A309A20A0319A30AA601A60AA11F762820
:1020EA0077287C28A009A109A00A0319A10A2008B7
:1020FA002104031981288228B128A501A50A90285C
:10210A0001300310A00DA10DFF3E031D86280130EA
:10211A00A4002408A507A11F93289428852821082C
:10212A002302031D9A2820082202031C9D289E28A8
:10213A00A4282008A2022108031CA303A302013039
:10214A000310A10CA00CFF3E031DA5280130A50217
:10215A00031DB028B128942826080319B528B628E3
:10216A00BB28A209A309A20A0319A30A2308A100EA
:10217A002208A0000800831203133D08B1003C089E
:10218A00B0003B08AF003A08AE000030B50000309E
:10219A00B4000030B3000030B2000A168A155D2779
:1021AA000A168A11031CDA28DB28EC288312031387
:1021BA003E08840083138001840A80010030BD0038
:1021CA000030BC000030BB000030BA001B2983126B
:1021DA0003133D087F39BF00C0010310BF0DC00DB6
:1021EA003E0884003F0883138000840A4008800068
:1021FA003C0D3C0D0139BF00C0013E0884003F0878
:10220A008004840A400880043E08840082308007E3
:10221A00840F00080318000AFF00FF307F078000C0
:10222A0084033D0880393F38BD00BC130800031001
:10223A0083120313300D310DB2003208B80038088A
:10224A00031D2829292932290030B1000030B000A5
:10225A000030AF000030AE0097292E08B2002F08D8
:10226A00B3003008B4003108B5001F300310B50CB4
:10227A00B40CB30CB20CFF3E031D3B293208B60066
:10228A003608B700B017FF30AE05FF30AF05FF3094
:10229A00B0050030B1059630B802B81F5529562945
:1022AA0070293808803A973E03185C295D295E290F
:1022BA00292901300310B10CB00CAF0CAE0CFF3E53
:1022CA00031D5F290130B2003208B807031D6E29C9
:1022DA006F295E29872920303802031C752976293F
:1022EA00822929290130B2000310AE0DAF0DB00DBD
:1022FA00B10DB20B79290130B8023808031D8629BD
:10230A0087297729370803198B298C299729AE0938
:10231A00AF09B009B109AE0A0319AF0A0319B00A25
:10232A000319B10A08000A3083120313A00000300F
:10233A00A1002908A3002808A2000A168A157C26EB
:10234A000A168A110030831203132102633003191B
:10235A0020020318B129B229E4290A30A00000306A
:10236A00A1002908A3002808A2000A168A157C26BB
:10237A000A168A11831203132108A9002008A8004B
:10238A000A30A0000030A1002908A3002808A200F2
:10239A000A168A15FE250A168A11003083120313BB
:1023AA002102053003192002031CDC29DD29F72943
:1023BA000130A8070318A90A0030A907F7290A302B
:1023CA00A0000030A1002908A3002808A2000A16CC
:1023DA008A157C260A168A11831203132108A9007A
:1023EA002008A8000A30A0000030A1002908A30094
:1023FA002808A2000A168A157C260A168A11831250
:10240A0003132008013E84000A168A1100200A16C6
:10241A008A1186000A30A0000030A1002908A30012
:10242A002808A2000A168A15FE250A168A1183129E
:10243A0003132008013E84000A168A1100200A1696
:10244A008A11880008008316031722087806031DDC
:10245A00302A210877060319332A342ABA2A22088D
:10246A00F8002108F7001D0883120313A000831641
:10247A0003171E0883120313A1000030A11BFF30AB
:10248A00A200A30001300A168A115F230A168A11D4
:10249A0083120313230883160313DD008312031325
:1024AA00220883160313DC00831203132108831600
:1024BA000313DB0083120313200883160313DA00C5
:1024CA005D08CB005C08CA005B08C9005A08C8004E
:1024DA004030C7000030C6000030C5000030C400DC
:1024EA000A128A1546230A168A1183160313470805
:1024FA00E1004608E0004508DF004408DE00610804
:10250A0083120313B10083160313600883120313A3
:10251A00B000831603135F0883120313AF008316F8
:10252A0003135E0883120313AE000A168A111C21D4
:10253A000A168A11831603171B08831203132E0621
:10254A00831603179B001C08831203132F06831696
:10255A0003179C00780883120313A9007708A800C0
:10256A000A168A1198210A168A1108000030831265
:10257A0003132005A80000302105A9008030220598
:10258A00AA007F302305AB002B082A04290428045B
:10259A00031DD02AD12AD92A0030A3000030A20074
:1025AA000030A1000030A00000302405A80000304F
:1025BA002505A90080302605AA007F302705AB0033
:1025CA002B082A0429042804031DEC2AED2AF52ADB
:1025DA000030A7000030A6000030A5000030A4009B
:1025EA00A31FF82AF92A1D2B0030A8000030A900E1
:1025FA000030AA008030AB002008A8022108031C82
:10260A00210F082B092BA9022208031C220F0E2BCB
:10261A000F2BAA022308031C230F142B152BAB0222
:10262A002B08A3002A08A2002908A1002808A00054
:10263A00A71F202B212B452B0030A8000030A90012
:10264A000030AA008030AB002408A8022508031C29
:10265A00250F302B312BA9022608031C260F362BF7
:10266A00372BAA022708031C270F3C2B3D2BAB0252
:10267A002B08A7002A08A6002908A5002808A400F4
:10268A008030A3068030A70627082302031D572B94
:10269A0026082202031D572B25082102031D572B4A
:1026AA002408200203185A2B5B2B5D2B03105E2B88
:1026BA000314080083120313A80028080319662BC1
:1026CA00672B7B2BA31F6A2B6B2B7B2B2009AA0062
:1026DA002109AB002209AC002309AD00AA0A03199B
:1026EA00AB0A0319AC0A0319AD0A832B2308AD0000
:1026FA002208AC002108AB002008AA002308220403
:10270A0021042004031D8A2B8B2B942B0030A30059
:10271A000030A2000030A1000030A0001A2C963030
:10272A00A4002408A900A62B0130A4002408A907A4
:10273A0001300310AD0CAC0CAB0CAA0CFF3E031D10
:10274A009E2BFE302D05031DAB2BAC2B992BC82BD2
:10275A000130A4002408A9070130AA070030031891
:10276A000130AB07003003180130AC070030031802
:10277A000130AD0701300310AD0CAC0CAB0CAA0C48
:10278A00FF3E031DC02BFF302D05031DCD2BCE2B85
:10279A00AD2BDA2B0130A9020130A4000310AA0DD7
:1027AA00AB0DAC0DAD0DA40BD32BAC1BDD2BDE2B6F
:1027BA00E42B023029020318E32BE42BCF2B291830
:1027CA00E72BE82BF02BFF30AA05FF30AB057F3053
:1027DA00AC05FF30AD050310A90C2908A400A5011A
:1027EA00A601A70118300310A40DA50DA60DA70D6B
:1027FA00FF3E031DF82B2408AA042508AB0426086B
:10280A00AC042708AD04280803190C2C0D2C122C33
:10281A00A31F102C112C122CAD172D08A3002C0865
:10282A00A2002B08A1002A08A0000800831603179B
:10283A00A801A901A601A701831603172608903E3D
:10284A00840083170008D03EA300FF30031800302D
:10285A00A4002308A8070318A90A2408A907013015
:10286A00A6070318A70A0030A7072708803AFF001F
:10287A0080307F02031D432C08302602031C462C9D
:10288A00472C212C0A3083120313A0000030A10028
:10289A0083160317290883120313A3008316031749
:1028AA00280883120313A2000A168A1165200A1641
:1028BA008A11831603171808D03EA300FF300318A5
:1028CA000030A40083120313210883160317240679
:1028DA00031D752C8312031320088316031723067E
:1028EA00031D782C792CD12C0A128A154D210A162F
:1028FA008A11831603135B0883160317A90083162C
:10290A0003135A0883160317A80077082807A30099
:10291A0078080318780A2907A40003302402E8304B
:10292A000319230203189A2C9B2CD12C280A031D65
:10293A00A32C290A0319A22CA32CD12C76089E00B9
:10294A0075089D007808A2007708A1002808F707F3
:10295A000318F80A2908F807780883120313A9004C
:10296A007708A8000A168A1198210A168A11831272
:10297A0003138515063083160317A5001330A40028
:10298A00AD30A300A30BC72CA40BC72CA50BC72CD7
:10299A00831203138511E52C83120313851606305F
:1029AA0083160317A5001330A400AD30A300A30BB0
:1029BA00DC2CA40BDC2CA50BDC2C83120313851254
:1029CA00080083160313330883120313B100831616
:1029DA000313320883120313B0008316031331085A
:1029EA0083120313AF0083160313300883120313F1
:1029FA00AE000030B5000030B4000030B300003043
:102A0A00B2000A168A155D270A168A11031C0E2DB2
:102A1A000F2D1A2D003083160313B3000030B200B5
:102A2A000030B1000030B000B32D83160313330811
:102A3A007F39B600B7010310B60DB70D3608B407D3
:102A4A000318B50A3708B507320D320D0139B60039
:102A5A00B7013608B4070318B50A3708B507B51F12
:102A6A00372D382D492D223083160317990000304F
:102A7A009A00003083160313B3000030B20000300E
:102A8A00B1000030B000B32D3508803AFF00813024
:102A9A007F02031D522D00303402031C552D562D82
:102AAA009B2D223083160317990000309A00831653
:102ABA000313330883120313A30083160313320884
:102ACA0083120313A200831603133108831203131C
:102ADA00A10083160313300883120313A0000030E9
:102AEA00A7000030A6000030A5000030A4000A1696
:102AFA008A11BB220A168A110318842D852D902D5E
:102B0A00FF3083160313B3007F30B200FF30B100E9
:102B1A00FF30B000B32D7F3083160313B3007F302C
:102B2A00B200FF30B100FF30B000B32D831603139B
:102B3A003508B7003408B600370DB70CB60C3308A1
:102B4A00360680393606B30034080139B600B60CA9
:102B5A00B60C320836067F393606B20008008316EC
:102B6A0003132508A70001300310A70DFF3E031D1C
:102B7A00B92D0310270D240784000A168A11002094
:102B8A000A168A11A8000A168A1100200A168A1142
:102B9A00A9000A168A1100200A168A11AA000A1622
:102BAA008A1100200A168A11AB002B08AF002A08E6
:102BBA00AE002908AD002808AC007F2EFF30A5071B
:102BCA000318A60AFF30A6072508A700013003103C
:102BDA00A70DFF3E031DEC2D0310270D24078400CB
:102BEA000A168A1100200A168A11A8000A168A11E2
:102BFA0000200A168A11A9000A168A1100200A164C
:102C0A008A11AA000A168A1100200A168A11AB0034
:102C1A002B0883120313DE00831603132A08831278
:102C2A000313DD0083160313290883120313DC0040
:102C3A0083160313280883120313DB008316031376
:102C4A002F0883120313C400831603132E0883125A
:102C5A000313C300831603132D0883120313C20040
:102C6A00831603132C0883120313C100831603135C
:102C7A00230883120313C80083160313220883123E
:102C8A000313C70083160313210883120313C60014
:102C9A0083160313200883120313C5000A128A112C
:102CAA0028200A168A11831203134408E2004308F3
:102CBA00E1004208E0004108DF000A128A11892374
:102CCA000A168A11831203135E0883160313AF00D0
:102CDA00831203135D0883160313AE0083120313D2
:102CEA005C0883160313AD00831203135B08831673
:102CFA000313AC0025082604031D842E852EE32D1C
:102D0A002F08A3002E08A2002D08A1002C08A0005D
:102D1A00080083160313330883120313A3008316D0
:102D2A000313320883120313A20083160313310814
:102D3A0083120313A10083160313300883120313AB
:102D4A00A0000030A7000030A6000030A500003027
:102D5A00A4000A168A11BB220A168A110318B62E73
:102D6A00B72EC82E213083160317990000309A0017
:102D7A00003083160313B3000030B2000030B100F4
:102D8A000030B000FF2F8316031333088312031396
:102D9A00B10083160313320883120313B00083169B
:102DAA000313310883120313AF0083160313300889
:102DBA0083120313AE000030B5000030B4000030B7
:102DCA00B3000030B2000A168A155D270A168A1166
:102DDA00031CF02EF12E022F2230831603179900BE
:102DEA0000309A00003083160313B3000030B2009B
:102DFA000030B1000030B000FF2FBF308312031340
:102E0A00DE008030DD000030DC000030DB004030C6
:102E1A00C4000030C3000030C2000030C100B4302A
:102E2A00EF006F08BE0083160313330883120313DF
:102E3A00BD0083160313320883120313BC008316E2
:102E4A000313310883120313BB00831603133008DC
:102E5A0083120313BA000A168A11C0200A168A11AD
:102E6A00831203133D08C8003C08C7003B08C6008C
:102E7A003A08C5000A128A1128200A168A118312F2
:102E8A0003134408E2004308E1004208E000410855
:102E9A00DF000A128A1189230A168A118312031380
:102EAA005E0883160313B300831203135D088316A7
:102EBA000313B200831203135C0883160313B100D1
:102ECA00831203135B0883160313B000FF30B407A1
:102EDA000318B50AFF30B5073308A3003208A20069
:102EEA003108A1003008A000333083120313EF0029
:102EFA006F0883160313A4000830A5000030A6004B
:102F0A000A168A11B4250A168A118316031323088E
:102F1A00B3002208B2002108B1002008B00033082B
:102F2A0083120313DE00831603133208831203137A
:102F3A00DD0083160313310883120313DC008316A2
:102F4A000313300883120313DB003F30C40031300F
:102F5A00C3007230C2001830C1008316031334084C
:102F6A0083120313A0008316031335088312031375
:102F7A00A1000030A11BFF30A200A30001300A16F5
:102F8A008A115F230A168A11831203132308C800C1
:102F9A002208C7002108C6002008C5000A128A11A3
:102FAA0028200A168A11831203134408E2004308F0
:102FBA00E1004208E0004108DF000A128A11892371
:102FCA000A168A11831203135E0883160313B300C9
:102FDA00831203135D0883160313B20083120313CB
:102FEA005C0883160313B100831203135B0883166C
:062FFA000313B000080003
:103AD6008312031323082204210420040319742DDE
:103AE600752D772D8030A306080083120313A300DB
:103AF600A201231C7F2D802D842D2008A1002108E2
:103B0600A2070310A00D0310A30C2308031D8C2D80
:103B16008D2D7C2D2208080083120313A10064005A
:103B2600831603178C18982D9B2D83120313922D41
:103B3600831203132108831203178D003F3083126B
:103B46000313A0002008831603178C050C14831298
:103B560003170C08080083120313A801A901241CEB
:103B6600B52DB62DBC2D2608A8070318A90A2708C7
:103B7600A90701300310A60DA70DFF3E031DBD2D9D
:103B860001300310A50CA40CFF3E031DC42D240810
:103B96002504031DCF2DD02DB22D2908A5002808F8
:103BA600A400080083120313A800A401A50120089D
:103BB600A200A3012208A6002308A700281CE42DC2
:103BC600E52DEB2D2608A4070318A50A2708A50747
:103BD60001300310A60DA70DFF3E031DEC2D0310AB
:103BE600A80C2808031DF82DF92DE12D2508A100A4
:103BF6002408A000080083120313200821040319D7
:103C0600052E062E352EA501A50A142E0130031009
:103C1600A00DA10DFF3E031D0A2E0130A4002408AD
:103C2600A507A11F172E182E092E21082302031DF2
:103C36001E2E20082202031C212E222E282E2008AA
:103C4600A2022108031CA303A30201300310A10C46
:103C5600A00CFF3E031D292E0130A502031D342EA4
:103C6600352E182E2308A1002208A0000800831272
:103C760003138C1E3F2E402E732E0D301A06031989
:103C8600452E462E692E0A301A0603194B2E4C2E47
:103C9600692E7908D03EF000FF3003180030F1009D
:103CA6000030710209300319700203185B2E5C2E76
:103CB600692E1A08F0007908603E840070088317A0
:103CC60080000130F0007008F907732E3030F000E4
:103CD6007008F9000130831603179F000030A0001A
:103CE60074088A0073088400720E8300FE0E7E0E2E
:103CF600090083120313A601A70120082104031952
:103D0600852E862EBD2EA501A50A942E0130031000
:103D1600A00DA10DFF3E031D8A2E0130A40024082C
:103D2600A507A11F972E982E892E01300310A60DE8
:103D3600A70DFF3E031D992E21082302031DA52E64
:103D460020082202031CA82EA92EB02E2008A202AB
:103D56002108031CA303A302261401300310A10C9F
:103D6600A00CFF3E031DB12E0130A502031DBC2E83
:103D7600BD2E982E2708A1002608A0000800831251
:103D86000313A301A4018515023083120313A200B5
:103D96000430A100B930A000A00BCF2EA10BCF2E6E
:103DA600A20BCF2ED62E8312031385160230831252
:103DB6000313A2000430A100B930A000A00BE12E2D
:103DC600A10BE12EA20BE12EE82E8312031385111F
:103DD600023083120313A2000430A100B930A00000
:103DE600A00BF32EA10BF32EA20BF32EFA2E8312A9
:103DF600031385120130A3070318A40A0030A40791
:103E060000302402033003192302031C0B2F0C2F4E
:103E1600C62E0800803083160313A30627088312D4
:103E26000313DE0083160313260883120313DD0033
:103E360083160313250883120313DC00831603136A
:103E4600240883120313DB0083160313230883124B
:103E56000313E20083160313220883120313E100FF
:103E660083160313210883120313E000831603133A
:103E7600200883120313DF000A128A1189230A1607
:103E86008A15831203135E0883160313A300831295
:103E960003135D0883160313A200831203135C0841
:103EA60083160313A100831203135B0883160313FF
:103EB600A00008000030831203132E05B600003060
:103EC6002F05B70080303005B8007F303105B900C6
:103ED6003908380437043604031D722F732F7B2FDD
:103EE6000030B1000030B0000030AF000030AE004E
:103EF60000303205B60000303305B7008030340597
:103F0600B8007F303505B90039083804370436045F
:103F1600031D8E2F8F2F972F0030B5000030B40071
:103F26000030B3000030B20035083106031DA52F5E
:103F360034083006031DA52F33082F06031DA52FB1
:103F460032082E060319A82FA92FAB2F0310AC2F6A
:103F5600031408000730831603139F0006308500FC
:103F660086018801C0308B008C160A128A11EE2752
:103F76000A168A15F701F80183160317A101A20193
:103F8600780883120313A9007708A8000A168A1175
:103F960098210A168A1583120313851CD32FD42F52
:103FA600DE2F8518D72FD82FD42F0A128A15012075
:103FB6000A168A15CE2F051DE12FE22FEC2F0519C3
:103FC600E52FE62FE22F0A168A1128220A168A15ED
:103FD600CE2F831603171F0820040319F32FF42F7F
:103FE600FC2F9F01A0010A168A111B240A168A15A6
:0A3FF600CE2FCE2F0A128A110E28DA
:02400E00793FF8
:00000001FF
