:020000040000FA
:060000000A128A110E280D
:10000800FE00030EF5000408F6000A08F7000A12BD
:100018008A15342B0A128A1111280A128A11FC2710
:100028000A128A11F8008317D2308400DA300A12D3
:100038008A150C200A128A118313CD308400EA3005
:100048000A128A150C200A128A11EE01F001F10138
:10005800F201F30183010A128A113228FF300A12D1
:100068008A152B200A128A11FF3A03193C283D28C9
:100078007228FD300A128A152B200A128A1183165B
:100088000313C900CA01FC300A128A152B200A1270
:100098008A1183160313CB00CC014B08CC00CB018B
:1000A80049084B04DA004A084C04DB00FE300A1207
:1000B8008A152B200A128A1183160313C9004908CE
:1000C80083120313EE00FF300A128A152B200A123E
:1000D8008A1183160313C9004908F80001308316F2
:1000E80003138500073089008601880111308312C7
:1000F800031390003C308F00B0308E0041309F00D9
:100108008E30831603139F00C0308B008030870029
:100118002630980090308312031398001930831604
:1001280003139900831203130C13831603130C177C
:100138008C160C14F001F10183160317D401D501B4
:10014800710883120313B5007008B4000A128A15E7
:10015800F5250A128A118312031307108312031359
:10016800091CB728B828C2280918BB28BC28B828F1
:100178000A128A1143270A128A11B228891CC52833
:10018800C628D0288918C928CA28C6280A128A1158
:10019800BF270A128A11B228091DD328D428552945
:1001A8000919D728D828D42870087104031DDD2818
:1001B800DE28422983160317D701D70A9C308312F9
:1001C8000313B4000130B5004E30B6008430B700D8
:1001D800780883160313C900CA0149088312031358
:1001E800B800831603134A0883120313B9006E0874
:1001F80083160313CB00CC014B0883120313BA00F8
:10020800831603134C0883120313BB0083160313CE
:100218005B0883120313BD00831603135A08831265
:100228000313BC000A128A114B220A128A119C304D
:1002380083120313A0000130A1000A128A1590212D
:100248000A128A1183160317D0018230831603130A
:10025800CA00DD30C900C90B2F29CA0B2F2901306C
:1002680083160313C900490883160317D0071430EF
:100278005002031C402941292929B2288516063035
:1002880083160313CB001330CA00AD30C900C90B65
:100298004B29CA0B4B29CB0B4B298312031385120D
:1002A800B228831603175208530403195C295D29E1
:1002B8007B29D201D3010A128A15BA240A128A119B
:1002C80083160317D1015108E03E8400831380018F
:1002D800013083160313C900490883160317D10791
:1002E8000A305102031C79297A296729B22858084B
:1002F8005904031980298129472AFF3083120313DF
:10030800A6000330A70083160317590883120313A6
:10031800A10083160317580883120313A000323074
:10032800A2000030A3000A128A158B200A128A1133
:10033800831203132108A9002008A8000A128A15AD
:100348004A220A128A11031083120313260D8316F8
:100358000317D80083120313270D83160317D90038
:10036800003059024B30031958020318BC29BD2923
:10037800C2290A128A1508220A128A11831603173B
:1003880056080319C829C929442A0A3083120313B5
:10039800A6000030A7008316031759088312031319
:1003A800A90083160317580883120313A8000A121A
:1003B8008A154A220A128A11831203132708831600
:1003C8000317CD0083120313260883160317CC00E6
:1003D8000A3083120313AE000030AF0083160317F0
:1003E800590883120313B1008316031758088312A0
:1003F8000313B0000A128A15CC210A128A1183123B
:1004080003132F0883160317CF00831203132E0834
:1004180083160317CE00BC3083120313B4000130D7
:10042800B5002F30B6008530B700831603174D0886
:1004380083120313B900831603174C08831203139E
:10044800B800831603174F0883120313BB008316E3
:1004580003174E0883120313BA000A128A114B229B
:100468000A128A11BC3083120313A0000130A100C4
:100478000A128A1590210A128A1183160317D601C7
:10048800D801D901B228B2280A128A110E283830A8
:1004980083120313BE003E08C600952B253049067B
:1004A8000319572A582A682A4908BE0034088400C4
:1004B8008317351C83133E0880000130B4070318E6
:1004C800B50A0030B507952BC301B02A4608840049
:1004D80083130008C400840A00088403C50002309E
:1004E800BE003E08C60744084504031D7C2A7D2A31
:1004F8009F2A3930C4008530C5009F2A4508FF006F
:10050800440884000A128A1100240A128A11BE00C3
:10051800340884008317351C83133E08800001309B
:10052800C4070318C50A0030C5070130B40703180B
:10053800B50A0030B5074508FF00440884000A12D0
:100548008A1100240A128A11003A031DAC2AAD2A26
:10055800822A952B4317D92A3708BF003608BE00D0
:10056800B60A0319B70A3F08FF003E0884000A12BA
:100578008A1100240A128A11C900C000C101410869
:10058800003A0319C82A952B4008003A0319AD2BE5
:10059800643A0319D92A0D3A0319D92A1A3A0319C0
:1005A8006A2A063A0319AE2A952B431BDC2ADD2A50
:1005B800F72A4608840083130008C700840A000845
:1005C800C8000230BE003E08C607C81FEC2AED2A44
:1005D800032B0330BE003E08C304C709C809C70A75
:1005E8000319C80A032B4608840083130008C700B0
:1005F800840A0008C8000230BE003E08C607C901C8
:10060800C90A4908BE003E07123E84008430031818
:10061800013EFF000A128A1100240A128A11BF0043
:100628000A128A1100240A128A11C00040084802DE
:10063800031D202B3F0847020318232B242B252BAF
:100648002F2B0130BE003E08C90705304906031D9F
:100658002E2B2F2B052B430803390319342B352B4D
:10066800442B2D30BE00340884008317351C8313B7
:100678003E0880000130B4070318B50A0030B507FA
:100688004908BE003E08C2008C2B0A30AE0000307C
:10069800AF004208BE003E07123E840084300318B3
:1006A800013EFF000A128A1100240A128A11A600CC
:1006B8000A128A1100240A128A11A7004808A90000
:1006C8004708A8000A128A154A220A128A118312B8
:1006D80003132708B1002608B0000A128A15CC2196
:1006E8000A128A11831203132E08303EBF003F08F6
:1006F800C9004908BE00340884008317351C8313D9
:100708003E0880000130B4070318B50A0030B50769
:10071800FF30BE003E08C207420A031D942B952BEA
:10072800492B3708BF003608BE00B60A0319B70AB6
:100738003F08FF003E0884000A128A1100240A12AA
:100748008A11C0004008C9004908031DAC2BAD2B15
:10075800522A340884008317351C8313800108004B
:1007680083120313A301A401851502308312031316
:10077800A2000430A100B930A000A00BC12BA10B2E
:10078800C12BA20BC12BC82B831203138516023071
:1007980083120313A2000430A100B930A000A00BFB
:1007A800D32BA10BD32BA20BD32BDA2B831203133E
:1007B8008511023083120313A2000430A100B9305E
:1007C800A000A00BE52BA10BE52BA20BE52BEC2B36
:1007D8008312031385120130A3070318A40A0030FB
:1007E800A40700302402033003192302031CFD2B45
:0607F800FE2BB82B0800E7
:10080000FF1B0A2C83137F1883170008840A03191F
:10081000FF0A08007F087F398A000408840A031948
:10082000FF0A8200013400340A3400346434003496
:10083000E834033410342734003410342034303496
:100840004034503460347034803490344F346334E6
:1008500075347234723469346F34203475346E34C4
:1008600020346534723472346F3472342034653419
:100870006E3420346C346134203469346E34743412
:100880006534723470347234653474346134633472
:1008900069346F346E342E340A340034433469348E
:1008A00065347234723465342C3420344C343A3428
:1008B000253475342C344E343A34253475342C3484
:1008C00054343A34253475340034503472346F342F
:1008D00064347534633474346F3420346E346F345C
:1008E000203465346E3463346F346E34743472344F
:1008F000613464346F3400344D346F3464346F3495
:1009000020344434653462347534673420346434BC
:1009100065347334613463347434693476346134E7
:1009200064346F3400344E346F342034653478349A
:1009300069347334743465342034703472346F34F1
:1009400064347534633474346F3420343034303468
:100950000034543450343A34203425346434203450
:1009600050343A342034253464342C3425346434FF
:1009700020344534753472346F3473340034433466
:10098000693465347234723465342C344C343A34FE
:10099000253475342C344E343A34253475342C34A3
:1009A00054343A342534753400344E346F342034A2
:1009B0006834613479342034703472346F34643480
:1009C0007534633474346F3420343034303400344C
:1009D000503472346F3464347534633474346F3427
:1009E000203469346E34673472346534733461345E
:1009F00064346F340034503472346F34643475347A
:100A0000633474346F342034633461346E3463344B
:100A100065346C34613464346F3400344534733479
:100A20007434613464346F343A34203445346E3471
:100A30002034653473347034653472346134003476
:100A4000453473347434613464346F343A3420344C
:100A5000413463347434693476346F34003456343A
:100A60003D34253464342E342534643456340A3409
:100A7000003428346E3475346C346C3429340034CA
:100A80005034253464343D342534643400344534E2
:100A90003A3425347334003483120313C401C5017E
:100AA000C201C601C701831203134608E03E840059
:100AB000303083130002031C5E2D5F2D792D460814
:100AC000E03E84003A3000020318672D682D792D2E
:100AD0004608E03E84000008D03EBF00FF30031807
:100AE0000030C0003F08C4070318C50A4008C50706
:100AF0007B2DC201C20A0130C6070318C70A0030A5
:100B0000C7074708803AFF0080307F02031D8A2D07
:100B100008304602031C8D2D8E2D532D0A30831272
:100B20000313A0000030A1004508A3004408A20060
:100B30000A128A15D9220A128A1183160313680829
:100B4000D03E83120313BF00FF3003180030C000F3
:100B500021084006031DAE2D20083F06031DB12DC0
:100B6000B22D4A2E4208031DB62DB72D4A2E0A304B
:100B7000BF003F08A0008316031360080A128A15FD
:100B800014200A128A11831603136107F03E8312A0
:100B90000313C0004008C30043080A128A158725C2
:100BA0000A128A11831203133708C5003608C400DD
:100BB00070084407BF0071080318710A4507C00098
:100BC00003304002E83003193F020318E82DE92DF5
:100BD0004A2E440A031DF12D450A0319F02DF12D6B
:100BE0004A2E72080319F52DF62DFF2DE830A000CE
:100BF0008430A1000A128A1590210A128A1101304C
:100C000083120313C3024308BF00C0013F08AE00B4
:100C10004008AF000A128A15F4230A128A118312BF
:100C200003134308BF00C0013F0883160313DE000F
:100C300083120313400883160313DF007108831621
:100C40000317D5007008D400831203134408F0077B
:100C50000318F10A4508F1077108B5007008B400DF
:100C60000A128A15F5250A128A11831203138515B3
:100C7000063083120313C1001330C000AD30BF0033
:100C8000BF0B402EC00B402EC10B402E831203130E
:100C900085115C2E8516063083120313C1001330B4
:100CA000C000AD30BF00BF0B532EC00B532EC10B85
:100CB000532E83120313851208000D30831603137D
:100CC00061060319642E652E6B2E0A306106031D22
:100CD0006A2E6B2E892E700871040319702E712EE6
:100CE0007D2E203083120313A0008530A1000A124C
:100CF0008A1590210A128A11422F0E308312031393
:100D0000A0008530A1000A128A1590210A128A11CA
:100D1000422F4C306106031D8E2E8F2ED42EA43010
:100D200083120313B4000030B5005630B60084308F
:100D3000B700780883160313A000A10120088312CE
:100D40000313B80083160313210883120313B90099
:100D50006E0883160313A200A30122088312031353
:100D6000BA0083160313230883120313BB008316F0
:100D700003135B0883120313BD00831603135A0881
:100D800083120313BC000A128A114B220A128A1121
:100D9000A43083120313A0000030A1000A128A15A8
:100DA00090210A128A11422F56306106031DD92E56
:100DB000DA2EDF2E83160317D601D60A422F3A30D9
:100DC00061020318E42EE52E372F30306102031C38
:100DD000EA2EEB2E372F3A3062020318F02EF12E56
:100DE000372F30306202031CF62EF72E372F6108A2
:100DF000A000A101200883120313A000831603138F
:100E0000210883120313A1000A30A2000030A300BE
:100E10000A128A158B200A128A118316031362089C
:100E200083120313200783160313A2000030031854
:100E3000013083120313210783160313A300220832
:100E4000F03EC40023080318013EFD3EC5004508DE
:100E500083120313CB008316031344088312031376
:100E6000CA000A128A1564260A128A11422F2630F5
:100E700083120313A0008430A1000A128A15902166
:100E80000A128A110800013083120313CA004A08AB
:100E9000EE07700883160313DA070318DB0A7108DC
:100EA000DB07F001F10183160317D401D501831686
:100EB0000313C001C101831603134008CD3E840013
:100EC000831380010130C0070318C10A0030C10735
:100ED0004108803AFF0080307F02031D712F0D30E2
:100EE0004002031C742F752F5B2F72080319792F92
:100EF0007A2FAE2FA03083120313B4000030B50058
:100F00005630B6008430B7007808CA00CB014A08D2
:100F1000B8004B08B9006E08CC00CD014C08BA00EF
:100F20004D08BB00831603135B0883120313BD0037
:100F3000831603135A0883120313BC000A128A1182
:100F40004B220A128A11A03083120313A000003032
:100F5000A1000A128A1590210A128A1171088312BF
:100F60000313B5007008B4000A128A15F5250A1299
:100F70008A110A128A11B4230A128A1108008316F0
:100F8000031755087106031DC72F5408700603196F
:100F9000CA2FCB2FFB2F5508F1005408F000831601
:100FA00003135F0883120313AF00831603135E0855
:100FB00083120313AE000A128A1592230A128A11B1
:100FC000710883120313B5007008B4000A128A1561
:100FD000F5250A128A1172080319EF2FF02FFB2F43
:100FE000FB3083120313A0008430A1000A128A157B
:0A0FF00090210A128A110800013452
:1010180064008001840A04060319003404060D28BC
:1010280083120313A300A201231C1B281C282028B9
:101038002008A1002108A2070310A00D0310A30C8B
:101048002308031D282829281828220808008312A5
:101058000313A1006400831603178C18342837285B
:10106800831203132E2883120313210883120317F4
:101078008D003F3083120313A00020088316031746
:101088008C050C14831203170C0808003F308316D4
:1010980003136006031D5128522858280A128A1182
:1010A8005D260A128A1569282B306006031D5D2803
:1010B8005E2864280A128A15B2200A128A1569283D
:1010C8000A128A156A200A128A1508004430831603
:1010D80003136106031D712872287F28F2017C30F2
:1010E80083120313A0008430A1000A128A159021EC
:1010F8000A128A158A28263083120313A000843026
:10110800A1000A128A1590210A128A150800831272
:101118000313A401A501201C9228932899282208CA
:10112800A4070318A50A2308A50701300310A20D78
:10113800A30DFF3E031D9A2801300310A10CA00C3B
:10114800FF3E031DA12820082104031DAC28AD285B
:101158008F282508A1002408A00008004C30831619
:1011680003136106031DB928BA28C0280A128A1574
:1011780090220A128A15E6280A128A151E210A12D6
:101188008A15063A031DC928CA28D0280A128A15C2
:101198002E270A128A15E62844308316031361069F
:1011A800031DD728D828DB28F201F20AE6282630C2
:1011B80083120313A0008430A1000A128A1590211B
:1011C8000A128A15080083120313A2008316031754
:1011D8008C18EF28F028EA288312031322088312B8
:1011E80003178D00831203132008831203178C0042
:1011F8003F3083120313A1002108831603178C05BF
:101208008312031303108B1F0A290B290C290314BB
:101218008B13831603170C1555308D00AA308D00DB
:101228008C140C1183120313031C1B291C291D2960
:101238008B17080083120313A201A20AA1012C290B
:101248000130A0002008A2070130A0002008A10753
:101258002208E03E84003A3083130002031835293F
:1012680036293F292208E03E840030300002031866
:101278003E293F294E292208E03E84003D300006E1
:10128800031D47294829542903302206031D4D29E7
:101298004E29542907302202031C53295429242992
:1012A8002108080083120313AC01AD01AA01AB01A8
:1012B80081292A082B04031D622963296829013022
:1012C800AC000030AD007B292D08A1002C08A0003F
:1012D8002708A3002608A2000A128A158B200A12E2
:1012E8008A15831203132108AD002008AC000130D1
:1012F800AA070318AB0A0030AB072B082902031D05
:1013080087292A08280203188A298B295D292D088C
:10131800A7002C08A600080083120313A501A60144
:10132800A701A70AC02925082007A3002108A200B1
:101338000318A20AA51FA129A203831203132208D6
:10134800A4002408FF00230884000A128A1100243C
:101358000A128A1599001908031DB329B429B62958
:10136800A701BC290130A5070318A60A0030A60763
:101378000C1EBF29C029BC292708031DC429C5295B
:1013880097290D3099000C1ECA29CB29C7290800B6
:10139800831203132E082F040319D329D429032AEF
:1013A800B301B30AE22901300310AE0DAF0DFF3EC1
:1013B800031DD8290130B2003208B307AF1FE52951
:1013C800E629D7292F083102031DEC292E083002FF
:1013D800031CEF29F029F6292E08B0022F08031C58
:1013E800B103B10201300310AF0CAE0CFF3E031D78
:1013F800F7290130B302031D022A032AE62931081E
:10140800AF003008AE000800831603135A08831291
:101418000313A3002308A400831603135B08831295
:101428000313A3002308A5002508A3002308A00090
:10143800FC300A128A15E7200A128A158312031350
:101448002408A3002308A000FD300A128A15E7200B
:101458000A128A15831203136E08A3002308A0003A
:10146800FE300A128A15E7200A128A1578088312B4
:101478000313A3002308A000FF300A128A15E720EF
:101488000A128A1583120313071408008312031320
:10149800AC01AD01260827040319532A542A8B2AC4
:1014A800AB01AB0A622A01300310A60DA70DFF3E5F
:1014B800031D582A0130AA002A08AB07A71F652A6E
:1014C800662A572A01300310AC0DAD0DFF3E031DEF
:1014D800672A27082902031D732A26082802031CE5
:1014E800762A772A7E2A2608A8022708031CA90339
:1014F800A9022C1401300310A70CA60CFF3E031DF3
:101508007F2A0130AB02031D8A2A8B2A662A2D08FE
:10151800A7002C08A6000800831603175708031D08
:10152800962A972ACC2A4E3083120313B40000302F
:10153800B500BF30B6008430B7007808CA00CB01C8
:101548004A08B8004B08B9006E08CC00CD014C0819
:10155800BA004D08BB00831603135B0883120313FC
:10156800BD00831603135A0883120313BC000A1222
:101578008A114B220A128A154E3083120313A000D7
:101588000030A1000A128A1590210A128A15CD2A64
:10159800D701013083120313CA004A08F807EE0185
:1015A80083160313DA01DB01080083120313A60173
:1015B800A31FDF2AE02AE72AA209A309A20A03191E
:1015C800A30AA601A60AA11FEA2AEB2AF02AA00963
:1015D800A109A00A0319A10A200821040319F52A60
:1015E800F62A252BA501A50A042B01300310A00D0E
:1015F800A10DFF3E031DFA2A0130A4002408A50707
:10160800A11F072B082BF92A21082302031D0E2BE3
:1016180020082202031C112B122B182B2008A202CF
:101628002108031CA303A30201300310A10CA00C82
:10163800FF3E031D192B0130A502031D242B252B6A
:10164800082B26080319292B2A2B2F2BA209A309BB
:10165800A20A0319A30A2308A1002208A00008006F
:10166800831203130C1C392B3A2B402B1F153C30CB
:101678008F00B0308E000C10181D432B442B452BC7
:101688001A08981C482B492B4B2B181218168C1E1D
:101698004E2B4F2B782B1A08F4007308E03E840079
:1016A8007408831380000D30000603195C2B5D2B32
:1016B800712B7308E03E84000A3000060319652B7D
:1016C800662B712B0930730203186B2B6C2B712B53
:1016D8000130F4007408F307782BF3010130831606
:1016E8000317D2000030D300831203130C1F7D2B85
:1016F8007E2B892B0C131E0883160317D90083161B
:1017080003131E0883160317D80077088A00760883
:101718008400750E8300FE0E7E0E09000C308312C5
:101728000313B3000030B4003408B1003308B0002C
:101738000310B00DB10D0310B00DB10D0310B00DB5
:10174800B10D2F08803AB2003108803A3202031DE9
:10175800AF2B30082E02031CB22BB32BE72B8312BE
:1017680003133408B1003308B0000310B00DB10DF5
:101778000310B00DB10D0310B00DB10D30082E02DD
:10178800AE003108031C310A2F02AF003308CD3EEA
:1017980084000230A6000030A7002F08A9002E08F8
:1017A800A8000A128A1556210A128A1583120313F1
:1017B800260883130006B0003308CD3E84003008A5
:1017C8008000B301B401FF3083120313B307031879
:1017D800B40AFF30B407B41FF22BF32B982B080080
:1017E8000C3083120313B3000030B4003408B10086
:1017F8003308B0000310B00DB10D0310B00DB10DDA
:101808000310B00DB10D2F08803AB2003108803AAC
:101818003202031D112C30082E02031C142C152C27
:10182800492C831203133408B1003308B0000310A5
:10183800B00DB10D0310B00DB10D0310B00DB10D09
:1018480030082E02AE003108031C310A2F02AF0007
:101858003308CD3E84000230A6000030A7002F08D0
:10186800A9002E08A8000A128A1556210A128A15FC
:1018780083120313260883130004B0003308CD3EF7
:10188800840030088000B301B401FF3083120313D1
:10189800B3070318B40AFF30B407B41F542C552CEF
:1018A800FA2B080083120313B3010C30B400003084
:1018B800B5003508B1003408B0000310B00DB10D03
:1018C8000310B00DB10D0310B00DB10D2F08803A03
:1018D800B2003108803A3202031D742C30082E02FF
:1018E800031C772C782CAC2C831203133508B10019
:1018F8003408B0000310B00DB10D0310B00DB10DD8
:101908000310B00DB10D30082E02AE003108031CD3
:10191800310A2F02AF003408CD3E84000230A60001
:101928000030A7002F08A9002E08A8000A128A155F
:1019380056210A128A1583120313260883130005F9
:101948000319A72CA82CAA2CB301B30AB401B5011A
:10195800FF3083120313B4070318B50AFF30B50725
:10196800B51FB72CB82C5D2C330808003F30831600
:10197800031360060319C12CC22CCE2C2B30600631
:101988000319C72CC82CCE2C2D306006031DCD2C76
:10199800CE2CD42C0A128A154A200A128A151D2D1B
:1019A8003A3060020318D92CDA2C092D3030600245
:1019B800031CDF2CE02C092D72080319E42CE52CFC
:1019C800032D903083120313B4000130B500473063
:1019D800B6008530B700E030B8000030B9000A1210
:1019E8008A114B220A128A15903083120313A00021
:1019F8000130A1000A128A1590210A128A150A12CA
:101A08008A114C250A128A151D2D83120313851677
:101A1800063083160313C8001330C700AD30C60064
:101A2800C60B142DC70B142DC80B142D83120313CA
:101A38008512080083120313A601A11F242D252D4A
:101A48002C2DA009A109A00A0319A10AA601A60A1A
:101A5800A31F2F2D302D392DA209A309A20A03197E
:101A6800A30A0130A4002408A606A701A80120089B
:101A780021040319402D412D782DA501A50A4F2DCC
:101A880001300310A00DA10DFF3E031D452D0130AF
:101A9800A4002408A507A11F522D532D442D013061
:101AA8000310A70DA80DFF3E031D542D2108230286
:101AB800031D602D20082202031C632D642D6B2D4D
:101AC8002008A2022108031CA303A3022714013043
:101AD8000310A10CA00CFF3E031D6C2D0130A502C4
:101AE800031D772D782D532D260803197C2D7D2D68
:101AF800822DA709A809A70A0319A80A2808A1007E
:101B08002708A000080083120313BE003E0803192B
:101B18008E2D8F2DE82D0130BE023E08B800380703
:101B2800B9003908BE003E08013E0A128A152B206A
:101B38000A128A1583120313B800B9013E080A1263
:101B48008A152B200A128A1583120313BA00BB01C7
:101B58003A08BB00BA0138083A04BC0039083B040B
:101B6800BD00BD1BB82DB92DE82D3D08803AFF00FA
:101B780083307F02031DC22DE8303C020318C52DB7
:101B8800C62DE82D023083120313A0000030A100F7
:101B98003E08B800B9013808A2003908A3000A12A3
:101BA8008A151E250A128A15831203132108AF000D
:101BB8002008AE000A128A1556240A128A15003A1D
:101BC8000319E72DE82DEE2DFF3083120313BC0017
:101BD800FF30BD00831203133D08B7003C08B60070
:101BE8000800643083120313A6000030A7003508EC
:101BF800A9003408A8000A128A154A220A128A156E
:101C08008312031326081C3E840084300318013E07
:101C1800FF000A128A1100240A128A1586000A3067
:101C2800A6000030A7003508B1003408B0006430C1
:101C3800AE000030AF000A128A15CC210A128A15AC
:101C4800831203132F08A9002E08A8000A128A1568
:101C58004A220A128A1583120313260806048600EC
:101C68003508B1003408B0006430AE000030AF0071
:101C78000A128A15CC210A128A15831203132F0817
:101C8800B7002E08B6000A30AE000030AF003708A3
:101C9800B1003608B0000A128A15CC210A128A153A
:101CA800831203132E081C3E840084300318013E5F
:101CB800FF000A128A1100240A128A1588000800F7
:101CC800831203134B08803AFF0080307F02031D04
:101CD8006F2E01304A02031C722E732E222FFF3002
:101CE80083120313CA070318CB0AFF30CB0703106C
:101CF8004A0DCA004B0DCB004A08013E0A128A154C
:101D08002B200A128A1583120313CC00CD014A082E
:101D18000A128A152B200A128A1583120313CE0081
:101D2800CF014E08CF00CE014C084E04EA004D0802
:101D38004F04EB006B08803AFF0083307F02031DDD
:101D4800A72EE8306A020318AA2EAB2EB12E8312F2
:101D58000313EB1FB02EB12ECC2E50308312031379
:101D6800B4000030B5006530B6008430B7000A1200
:101D78008A114B220A128A15503083120313A000CD
:101D88000030A1000A128A1590210A128A152D2FF7
:101D98005030B4000030B500A930B6008430B70028
:101DA8000230A0000030A1004B08A3004A08A2009E
:101DB8000A128A151E250A128A158312031320088F
:101DC800013EB80021080318013E003EB9000A3060
:101DD800A0000030A1006B08A3006A08A2000A1244
:101DE8008A151E250A128A15831203132108BB00BF
:101DF8002008BA000A30A0000030A1006B08A30038
:101E08006A08A2000A128A15D9220A128A158312B0
:101E180003132108BD002008BC000A128A114B22B6
:101E28000A128A15503083120313A0000030A10053
:101E38000A128A1590210A128A152D2F93308312BF
:101E48000313A0008430A1000A128A1590210A12F7
:101E58008A1508000A3083120313CA004A08A00032
:101E68008316031361080A128A1514200A128A15A8
:101E7800831603136207F03E83120313CB004B084B
:101E8800E20062080319492F4A2FF62F0130E202B7
:101E98006208CA004A07CB004B08E2008316031306
:101EA800640883120313CA00CB014A08A0004B0838
:101EB800A1006430A2000030A3000A128A158B200A
:101EC8000A128A15831203132008CC002108CD00BA
:101ED80083160313650883120313CE00CF014E083F
:101EE800A0004F08A1000A30A2000030A3000A1287
:101EF8008A158B200A128A158312031320084C07AF
:101F0800D00021080318210A4D07D10083160313B6
:101F18006608831203135007D200003003180130FB
:101F28005107D3005208303EE00053080318013E21
:101F3800EB3EE1006008CA004A08DE006108CA00FA
:101F48004A08DF005F08CA004A08A00062080A12AF
:101F58008A15E7200A128A15831203135E08CA003D
:101F68004A08A0006208013E0A128A15E7200A12F0
:101F78008A15543083120313B4000030B500403082
:101F8800B6008530B7000230A0000030A10062081A
:101F9800CA00CB014A08A2004B08A3000A128A15FE
:101FA8001E250A128A15831203132008013EB80061
:101FB80021080318013E003EB9006108BB00600813
:101FC800BA000A128A114B220A128A155430831257
:101FD8000313A0000030A1000A128A1590210A12EA
:101FE8008A15FF2FD530A0008430A1000A128A1567
:081FF80090210A128A1508006D
:02400E00793FF8
:00000001FF
