:020000040000FA
:060000000A128A110E280D
:10000800FE00030EF1000408F2000A08F3000A12C9
:100018008A11BA2D0A128A1111280A128A11D426B5
:100028000A128A11F9008313483084006C300A12CE
:100038008A11CC260A128A11F701F80183010A12E3
:100048008A11B82B83120313C301C401C001C10173
:10005800831203134008623E840083130008D03ED5
:10006800BD00FF3003180030BE003D08C307031869
:10007800C40A3E08C4070130C0070318C10A00308B
:10008800C1074108803AFF0080307F02031D4E28D7
:1000980008304002031C512852282C280A308312A9
:1000A8000313A0000030A1004408A3004308A200E5
:1000B8000A128A115D230A128A11831203136A082D
:1000C800D03EBD00FF3003180030BE0021083E06B8
:1000D800031D702820083D06031D73287428E9288D
:1000E8000A30BD003D08F40062080A128A1175261C
:1000F8000A128A11831203136307F03EBE003E08FA
:10010800C20042080A128A11FC200A128A118312BC
:1001180003133508C4003408C3005F084307BD0053
:1001280060080318600A4407BE0003303E02E83046
:1001380003193D020318A128A228E928430A031D30
:10014800AA28440A0319A928AA28E9280130C202C2
:100158004208BD00BE013D08AC003E08AD000A12D1
:100168008A1199220A128A11831203134208BD00C8
:10017800BE013D08D9003E08DA006008DE005F08CD
:10018800DD004308DF070318E00A4408E0076008B9
:10019800AC005F08AB000A128A11CE210A128A113C
:1001A800831203138515063083120313BF0013301F
:1001B800BE00AD30BD00BD0BDF28BE0BDF28BF0B76
:1001C800DF28831203138511FB2885160630831256
:1001D8000313BF001330BE00AD30BD00BD0BF228C5
:1001E800BE0BF228BF0BF2288312031385120800F6
:1001F80083120313BC000130BC023C08B60036076A
:10020800B7003708BC003C08013E0A128A118C2648
:100218000A128A1183120313B600B7013C080A12A6
:100228008A118C260A128A1183120313B800B901A5
:100238003808B900B80136083804BA003708390454
:10024800BB00BB1B2829292958293B08803AFF00F5
:1002580083307F02031D3229E8303A02031835291A
:1002680036295829023083120313A0000030A10058
:100278003C08B600B7013608A2003708A3000A12E6
:100288008A1165210A128A11831203132108AD000D
:100298002008AC000A128A1135220A128A11003A83
:1002A8000319572958295E29FF3083120313BA000E
:1002B800FF30BB00831203133B08B5003A08B400B3
:1002C800080083120313A501A11F6B296C29732948
:1002D800A009A109A00A0319A10AA501A50AA31F3B
:1002E800762977298029A209A309A20A0319A30A52
:1002F8000130F4007408A506A601A701200821040E
:10030800031987298829BF29A401A40A962901303D
:100318000310A00DA10DFF3E031D8C290130F40030
:100328007408A407A11F99299A298B290130031061
:10033800A60DA70DFF3E031D9B2921082302031DBF
:10034800A72920082202031CAA29AB29B2292008C0
:10035800A2022108031CA303A302261401300310E0
:10036800A10CA00CFF3E031DB3290130A402031DFC
:10037800BE29BF299A2925080319C329C429C929CF
:10038800A609A709A60A0319A70A2708A10026088B
:10039800A0000800643083120313A4000030A500F5
:1003A8002C08A7002B08A6000A128A1107240A1293
:1003B8008A11831203132408013E84000A128A1149
:1003C800A3260A128A1186000A30A4000030A5006C
:1003D8002C08A3002B08A2006430A0000030A10064
:1003E8000A128A110E250A128A1183120313210890
:1003F800A7002008A6000A128A1107240A128A11E7
:10040800831203132408060486002C08A3002B0873
:10041800A2006430A0000030A1000A128A110E2543
:100428000A128A11831203132108AE002008AD00B6
:100438000A30A0000030A1002E08A3002D08A20059
:100448000A128A110E250A128A1183120313200830
:10045800013E84000A128A11A3260A128A11880012
:10046800080083120313B1010C30B2000030B3004E
:100478003308AF003208AE000310AE0DAF0D031005
:10048800AE0DAF0D0310AE0DAF0D2D08803AB000C4
:100498002F08803A3002031D532A2E082C02031C11
:1004A800562A572A8B2A831203133308AF003208BF
:1004B800AE000310AE0DAF0D0310AE0DAF0D03105F
:1004C800AE0DAF0D2E082C02AC002F08031C2F0A0E
:1004D8002D02AD003208483E84000230A4000030EE
:1004E800A5002D08A7002C08A6000A128A114A2583
:1004F8000A128A11831203132408831300050319AF
:10050800862A872A892AB101B10AB201B301FF30CC
:1005180083120313B2070318B30AFF30B307B31FDC
:10052800962A972A3C2A310808000C3083120313B4
:10053800B1000030B2003208AF003108AE0003103D
:10054800AE0DAF0D0310AE0DAF0D0310AE0DAF0D18
:100558002D08803AB0002F08803A3002031DB62AD1
:100568002E082C02031CB92ABA2AEE2A8312031376
:100578003208AF003108AE000310AE0DAF0D031006
:10058800AE0DAF0D0310AE0DAF0D2E082C02AC0052
:100598002F08031C2F0A2D02AD003108483E8400A5
:1005A8000230A4000030A5002D08A7002C08A600E2
:1005B8000A128A114A250A128A118312031324087F
:1005C80083130004AE003108483E84002E088000E2
:1005D800B101B201FF3083120313B1070318B20A45
:1005E800FF30B207B21FF92AFA2A9F2A08000C30F6
:1005F80083120313B1000030B2003208AF00310893
:10060800AE000310AE0DAF0D0310AE0DAF0D03100D
:10061800AE0DAF0D2D08803AB0002F08803A300299
:10062800031D182B2E082C02031C1B2B1C2B502BD4
:10063800831203133208AF003108AE000310AE0D69
:10064800AF0D0310AE0DAF0D0310AE0DAF0D2E089C
:100658002C02AC002F08031C2F0A2D02AD00310814
:10066800483E84000230A4000030A5002D08A700F1
:100678002C08A6000A128A114A250A128A11831226
:100688000313240883130006AE003108483E840093
:100698002E088000B101B201FF3083120313B107A5
:1006A8000318B20AFF30B207B21F5B2B5C2B012B79
:1006B8000800F60183120313A31F632B642B6B2B13
:1006C800A209A309A20A0319A30AF601F60AA11F9F
:1006D8006E2B6F2B742BA009A109A00A0319A10A7C
:1006E800200821040319792B7A2BA92BF501F50A87
:1006F800882B01300310A00DA10DFF3E031D7E2B9A
:100708000130F4007408F507A11F8B2B8C2B7D2B6F
:1007180021082302031D922B20082202031C952B7B
:10072800962B9C2B2008A2022108031CA303A302DA
:1007380001300310A10CA00CFF3E031D9D2B0130BE
:10074800F502031DA82BA92B8C2B76080319AD2BBA
:10075800AE2BB32BA209A309A20A0319A30A2308E3
:10076800A1002208A00008000730831603139F0089
:100778000630850086018801C0308B008C160A126D
:100788008A11B3260A128A1183120313DF01E001CA
:10079800DD01DE016008AC005F08AB000A128A11B7
:1007A800CE210A128A1183120313851CDC2BDD2B40
:1007B800E72B8518E02BE12BDD2B0A128A11D124B7
:1007C8000A128A11D72B051DEA2BEB2BF52B0519DD
:1007D800EE2BEF2BEB2B0A128A1114260A128A1120
:1007E800D72B5B085C040319FA2BFB2B032CDB01CA
:1007F800DC010A128A1192240A128A11D72BD72BEC
:100808000A128A110E2883120313A901AA012408C7
:1008180025040319102C112C482CA801A80A1F2CF8
:1008280001300310A40DA50DFF3E031D152C01304A
:10083800F6007608A807A51F222C232C142C0130BB
:100848000310A90DAA0DFF3E031D242C250827021D
:10085800031D302C24082602031C332C342C3B2C7B
:100868002408A6022508031CA703A702291401309F
:100878000310A50CA40CFF3E031D3C2C0130A8025C
:10088800031D472C482C232C2A08A5002908A4005E
:10089800080083120313A001A10185150230F60098
:1008A8000430F500BA30F400F40B582CF50B582C32
:1008B800F60B582C00008312031385160230F6003D
:1008C8000430F500BA30F400F40B682CF50B682CF2
:1008D800F60B682C00008312031385110230F60012
:1008E8000430F500BA30F400F40B782CF50B782CB2
:1008F800F60B782C00008312031385120130A00731
:100908000318A10A0030A10700302102033003199F
:100918002002031C902C912C512C08003F3083128C
:10092800031362060319992C9A2CA62C2B30620605
:1009380003199F2CA02CA62C2D306206031DA52C74
:10094800A62CAC2C0A128A115A260A128A11D02C0B
:100958003A3062020318B12CB22CBE2C303062023D
:10096800031CB72CB82CBE2C0A128A1126200A1296
:100978008A11D02C8516063083120313C700133052
:10098800C600AD30C500C50BC72CC60BC72CC70B9E
:10099800C72C831203138512080001308312031336
:1009A800AF002F08E1075F08D5070318D60A6008CB
:1009B800D607DF01E001DD01DE01B001B1018312DC
:1009C80003133008483E8400831380010130B007C8
:1009D8000318B10A0030B1073108803AFF008030AF
:1009E8007F02031DF92C0D303002031CFC2CFD2C5A
:1009F800E32C831203136008AC005F08AB000A12F3
:100A08008A11CE210A128A110A128A114D240A1259
:100A18008A11080083120313200821040319152DD5
:100A2800162D452DF501F50A242D01300310A00DD2
:100A3800A10DFF3E031D1A2D0130F4007408F507BF
:100A4800A11F272D282D192D21082302031D2E2D26
:100A580020082202031C312D322D382D2008A20235
:100A68002108031CA303A30201300310A10CA00C4E
:100A7800FF3E031D392D0130F502031D442D452D80
:100A8800282D2308A1002208A000080083120313C0
:100A9800AA01AB01A801A901752D28082904031D85
:100AA800562D572D5C2D0130AA000030AB006F2D5C
:100AB8002B08A1002A08A0002508A3002408A200EA
:100AC8000A128A11ED250A128A11831203132108CA
:100AD800AB002008AA000130A8070318A90A0030B3
:100AE800A90729082702031D7B2D280826020318B9
:100AF8007E2D7F2D512D2B08A5002A08A400080063
:100B0800013083120313A2000030A300A001A10149
:100B1800992D0130A2070318A30A0030A30701305A
:100B2800A0070318A10A0030A1072208623E84002A
:100B38003A30831300020318A22DA32DAC2D2208EE
:100B4800623E8400303000020318AB2DAC2D8D2D91
:100B58002208623E84003D3000060319B42DB52DED
:100B68008D2D2108F5002008F400080083120313D6
:100B78008C1EBF2DC02DE42D0D301A060319C52D6E
:100B8800C62DDF2D0A301A060319CB2DCC2DDF2DEB
:100B9800093078020318D12DD22DDF2D1A08F00064
:100BA8007808623E84007008831380000130F000EA
:100BB8007008F807E42DF8010130DB000030DC0094
:100BC80073088A0072088400710E8300FE0E7E0E80
:100BD8000900F401F50183120313201CF42DF52DEF
:100BE800FB2D2208F4070318F50A2308F50701303E
:100BF8000310A20DA30DFF3E031DFC2D01300310B1
:100C0800A10CA00CFF3E031D032E20082104031D88
:100C18000E2E0F2EEF2D7508A1007408A0000800F5
:100C2800831203135E086006031D1C2E5D085F0611
:100C380003191F2E202E382E5E08E0005D08DF0005
:100C48005A08AD005908AC000A128A11FB220A1290
:100C58008A11831203136008AC005F08AB000A1204
:100C68008A11CE210A128A1108004C30831203130C
:100C78006306031D402E412E422E592E0A128A1158
:100C880084250A128A11053074067504031D4D2E39
:100C98004E2E4F2E592E4430831203136306031D24
:100CA800562E572E592EF701F70A08003F308312A7
:100CB80003136206031D612E622E632E742E2B30E1
:100CC8006206031D682E692E6F2E0A128A113926B4
:100CD8000A128A11742E0A128A11C2260A128A115D
:100CE800080083120313A100A001211C7C2E7D2E75
:100CF800812E7408F5007508A0070310F40D031081
:100D0800A10C2108031D892E8A2E792E200808009F
:100D1800F5006400831603178C18932E942E8D2EDD
:100D28007508831203178D003F30F400740883168A
:100D380003178C050C14831203170C0808000630DF
:100D48008A000408840A82070034003410342034EE
:100D580030344034503460347034803490348030CF
:100D680083160313870026309800903083120313EC
:100D78009800193083160313990008004430831231
:100D880003136306031DC92ECA2ECB2EF7010800D4
:100D980064008001840A0406031900340406CD2E79
:020DA800013414
:02400E00793FF8
:00000001FF
