:020000040000FA
:060000000A128A110E280D
:10000800FE00030EF1000408F2000A08F3000A16C5
:100018008A15132D0A128A111128831603130A123E
:100028008A11FF270A128A11EE0083179030840084
:10003800B2300A168A1589240A128A11F601F701C4
:10004800F801F90183010A168A15F62E83120313A3
:1000580042088039C7004708CC004208C700470754
:10006800C8004808D200C11F3A283B283C2852142F
:1000780052080319402841285028520A031D4528D0
:1000880046284E280030C2000030C1000030C000B1
:100098000030BF00C11758280030C2000030C1002E
:1000A8000030C0000030BF0046088039C70047084C
:1000B800CC064608C7004707C8004808CD00C51F3A
:1000C8006628672868284D144D0803196C286D2880
:1000D8007C284D0A031D712872287A280030C60032
:1000E8000030C5000030C4000030C300C5178428A4
:1000F8000030C6000030C5000030C4000030C30026
:100108004D080319882889288E285208031D8D2830
:100118008E2897280030C2000030C1000030C0008F
:100128000030BF008A2B3F08C7004708F400450885
:100138000A168A15BF240A128A1175088312031336
:10014800D8007408D7005708C700C801C901CA01F8
:100158004A08D1004908D0004808CF004708CE0017
:100168005808C700C801C901CA014A08D600490889
:10017800D5004808D4004708D3004008C7004708FE
:10018800F40044080A168A15BF240A128A11750851
:1001980083120313D8007408D7005708C700C80192
:1001A800C901CA014708CE07480803110318013ED0
:1001B8000319DF28CF07490803110318013E031963
:1001C800E628D0074A0803110318013E0319ED2851
:1001D800D1075808C700C801C901CA014708D30791
:1001E800480803110318013E0319FB28D4074908DE
:1001F80003110318013E03190229D5074A08031100
:100208000318013E03190929D6074108C700470802
:10021800F40043080A168A15BF240A128A117508C1
:1002280083120313D8007408D7005708C700C80101
:10023800C901CA014708CE07480803110318013E3F
:1002480003192729CF07490803110318013E031989
:100258002E29D0074A0803110318013E031935292E
:10026800D1075808C700C801C901CA014708D30700
:10027800480803110318013E03194329D407490804
:1002880003110318013E03194A29D5074A08031127
:100298000318013E03195129D6070830C700031077
:1002A800CE0DCF0DD00DD10DC70B53294008C70077
:1002B8004708F40043080A168A15BF240A128A114F
:1002C800750883120313D8007408D7005708C700AD
:1002D8005808C800C901CA014708CE0748080311D1
:1002E8000318013E03197929CF0749080311031898
:1002F800013E03198029D0074A0803110318013E5B
:1003080003198729D1073F08C7004708F4004408A4
:100318000A168A15BF240A128A1175088312031354
:10032800D8007408D7005708C7005808C800C90182
:10033800CA014708CE07480803110318013E0319EC
:10034800A629CF07490803110318013E0319AD294F
:10035800D0074A0803110318013E0319B429D1072D
:100368000830C7000310CE0DCF0DD00DD10DC70B2F
:10037800B6293F08C7004708F40043080A168A153B
:10038800BF240A128A11750883120313D80074084F
:10039800D7005708C7005808C800C901CA0147084C
:1003A800CE07480803110318013E0319DC29CF07BB
:1003B800490803110318013E0319E329D0074A0825
:1003C80003110318013E0319EA29D1074008C700A1
:1003D8004708F40045080A168A15BF240A128A112C
:1003E800750883120313D8007408D7005708C7008C
:1003F8005808C800C901CA014708D30748080311AB
:100408000318013E0319092AD407490803110318E0
:10041800013E0319102AD5074A0803110318013EA3
:100428000319172AD6074108C7004708F4004408EB
:100438000A168A15BF240A128A1175088312031333
:10044800D8007408D7005708C7005808C800C90161
:10045800CA014708D307480803110318013E0319C6
:10046800362AD407490803110318013E03193D2A07
:10047800D5074A0803110318013E0319442AD60771
:100488004108C7004708F40045080A168A15BF2422
:100498000A128A11750883120313D8007408D7004A
:1004A8005708C7005808C800C901CA010830031016
:1004B800C70DC80DC90DCA0DFF3E031D5B2A4708AD
:1004C800D307480803110318013E03196C2AD407FF
:1004D800490803110318013E0319732AD5074A086E
:1004E80003110318013E03197A2AD6074E08C700DC
:1004F8004F08C8005008C9005108CA001830031036
:10050800CA0CC90CC80CC70CFF3E031D832A470838
:10051800D307480803110318013E0319942AD40786
:10052800490803110318013E03199B2AD5074A08F5
:1005380003110318013E0319A22AD6070830C70081
:100548000310CE0DCF0DD00DD10DC70BA42A520824
:100558004D07C700C801C80D4708823ED7004808A4
:100568000318013EFF3ED800D62A0130C700031009
:10057800D30DD40DD50DD60DC70BBB2AD11FC52A57
:10058800C62AC72A53140130C7000310CE0DCF0D59
:10059800D00DD10DC70BC92AFF30D7070318D80AC9
:1005A800FF30D807D51FD92ADA2AB92ACD01D11F99
:1005B800DE2ADF2AFB2AFF304E05C700FF304F0531
:1005C800C800FF305005C9007F305105CA004A08ED
:1005D8004904480447040319F22AF32AF62ACD01EC
:1005E800CD0AFB2A531CF92AFA2AFB2AF32A4D08BA
:1005F8000319FF2A002B312B0130D30700300318D1
:100608000130D407003003180130D5070030031833
:100618000130D607561C112B122B312B5308C7005B
:100628005408C8005508C9005608CA000130CB0054
:100638004A0DCA0CC90CC80CC70CCB0B1C2B4A089A
:10064800D6004908D5004808D4004708D30001302F
:10065800D7070318D80A0030D8075808803AFF008F
:1006680080307F02031D3A2BFF305702031C3D2BBD
:100678003E2B492B7F3083120313D6008030D500E0
:100688000030D4000030D3007E2B831203135808A7
:10069800803AFF0080307F02031D542B013057023F
:1006A8000318572B582B642B003083120313D600E2
:1006B8000030D5000030D4000030D300CC017E2BB0
:1006C800831203135708C7004708D200FF30D30529
:1006D800FF30D4057F30D5050030D605521C752B68
:1006E800762B772BD5175208C7000310470CC80084
:1006F8004808D6004C08C7004708D6045608C20068
:100708005508C1005408C0005308BF0008008312F0
:1007180003135C088039E1006108E9005C08E10026
:100728006107E2006208EB00DB1F9B2B9C2B9D2BD3
:100738006B146B080319A12BA22BB22B6B0A031D98
:10074800A62BA72BAF2B0030DC000030DB000030DD
:10075800DA000030D900DB17DC01BA2B0030DC00EE
:100768000030DB000030DA000030D9006008803942
:10077800E1006108EA006A0869060319C42BC52B61
:10078800C62B69176008E1006107E2006208EA0009
:10079800DF1FCF2BD02BD12B6A146A080319D52B56
:1007A800D62BE62B6A0A031DDA2BDB2BE32B003052
:1007B800E0000030DF000030DE000030DD00DF1731
:1007C800E001EE2B0030E0000030DF000030DE00FA
:1007D8000030DD006B086A020318F32BF42B382C69
:1007E800691FF72BF82BFC2B8030E1006108E90624
:1007F8006B08E1006108EC006A08E1006108EB00A1
:100808006C08E1006108EA005908E1006108EC00A1
:100818005D08E1006108D9006C08E1006108DD00AD
:100828005A08E1006108EC005E08E1006108DA009E
:100838006C08E1006108DE005B08E1006108EC007B
:100848005F08E1006108DB006C08E1006108DF0077
:100858005C08E1006108EC006008E1006108DC0068
:100868006C08E1006108E000EC016A08E100E201BF
:100878006208E4006B086102E300031CE4036408F7
:10088800803AFF0080307F02031D4C2C1A3063022F
:10089800031C4F2C502C8D2C831203135C085B0413
:1008A8005A045904031D592C5B2C01305C2C003070
:1008B800E1006108EC000030DC000030DB000030B3
:1008C800DA000030D9006A08E1006108EB00952CD5
:1008D8006C1C6F2C702C792C6C08E1000310610CD7
:1008E8000138E2006208EC007B2C0310EC0C591C68
:1008F8007E2C7F2C802CEC170130E1005C0DDC0C89
:10090800DB0CDA0CD90CE10B822C0130E100610818
:10091800EB07831203136A086B02031C942C952CB3
:100928006C2C691B982C992CE42C6B08031D9D2CAE
:100938009E2CA72C0030DC000030DB000030DA00F1
:100948000030D900122E5D08D9075E08031103187C
:10095800013E0319B02CDA075F0803110318013EA2
:100968000319B72CDB07600803110318013E0319AC
:10097800BE2CDC075C1CC12CC22C982D6C1CC52C11
:10098800C62CCF2C6C08E1000310610C0138E20082
:100998006208EC00D12C0310EC0C591CD42CD52C7B
:1009A800D62CEC170130E1005C0DDC0CDB0CDA0C0A
:1009B800D90CE10BD82C0130E1006108EB07982D28
:1009C8005C08803AFF006008803A7F02031DF62C1D
:1009D8005F085B02031DF62C5E085A02031DF62C05
:1009E8005D0859020318F92CFA2C522DFF30E1004A
:1009F800FF30E200FF30E300FF30E4005D08E5006F
:100A08005E08E6005F08E7006008E8005908E502AC
:100A18005A08031C5A0F112D122DE6025B08031CFD
:100A28005B0F172D182DE7025C08031C5C0F1D2DAA
:100A38001E2DE8026508E10766080318660F252DD4
:100A4800262DE20767080318670F2B2D2C2DE307C7
:100A580068080318680AE4076408DC006308DB0018
:100A68006208DA006108D9008030E1006108E9060F
:100A7800EC09EC0A6C08031D422D432D602D013052
:100A8800D907003003180130DA07003003180130A5
:100A9800DB07003003180130DC07602D5D08D90240
:100AA8005E08031C5E0FDA025F08031C5F0FDB029F
:100AB8006008031C600FDC025C085B045A045904DC
:100AC800031D672D682D942D6C08031D6C2D6D2D4D
:100AD800942D0030DC000030DB000030DA000030FC
:100AE800D900122E0130E1000310D90DDA0DDB0D0B
:100AF800DC0DE10B782DEC1F822D832D842D5914EC
:100B08006C1C872D882D8B2D0314EC0D8D2D031057
:100B1800EC0D6B080319912D922D942D0130EB02E9
:100B2800DB1F972D982D762DEA01EC1F9C2D9D2D0E
:100B3800AB2D6C087F390319A22DA32DA62DEA0130
:100B4800EA0AAB2D591CA92DAA2DAB2DA32D6A0895
:100B58000319AF2DB02DE42D0130D907003003184B
:100B68000130DA07003003180130DB0700300318C2
:100B78000130DC075C1CC12DC22DE42D5908E100B1
:100B88005A08E2005B08E3005C08E4000130E50075
:100B9800640DE40CE30CE20CE10CE50BCC2D6408CD
:100BA800DC006308DB006208DA006108D9006B0A20
:100BB8000319DF2DE02DE42D0130E1006108EB077A
:100BC8006B0A0319E82DE92DEE2D6B08031DED2D99
:100BD800EE2DFC2D0030DC000030DB000030DA00A8
:100BE8000030D9006B08031DFA2DFB2DFC2DE901FF
:100BF8006B1CFF2D002E022EDB17062E7F30E10026
:100C08006108DB056B08E1000310610CE200620873
:100C1800DC00E91F102E112E122EDC17080083129B
:100C2800031327088039A8002808B1002708A8005E
:100C38002807A9002908B800A61F232E242E252E30
:100C4800381438080319292E2A2E3A2E380A031D7B
:100C58002E2E2F2E372E0030A7000030A600003091
:100C6800A5000030A400A617A701422E0030A70057
:100C78000030A6000030A5000030A4002308803909
:100C8800A8002808B1062308A8002807A9002908F1
:100C9800B900A21F502E512E522E391439080319AB
:100CA800562E572E672E390A031D5B2E5C2E642E96
:100CB8000030A3000030A2000030A1000030A000E6
:100CC800A217A3016F2E0030A3000030A20000304D
:100CD800A1000030A0002308220421042004031DE1
:100CE800762E772E902E0030A7000030A600003018
:100CF800A5000030A4008030A6047F30A704310886
:100D0800A8002808A7042708A3002608A200250889
:100D1800A1002408A000EF2F3808031D942E952E5B
:100D28009E2E0030A3000030A2000030A100003049
:100D3800A000EF2F3808A800A9012908AB0039083E
:100D48002802AA00031CAB032A087F3EB2002B0826
:100D58000318013E003EB3002708B0002608AF0084
:100D68002508AE002408AD000030A7000030A6001A
:100D78000030A5000030A4000030B7000030B600F5
:100D88000030B5000030B400B901142F3908031938
:100D9800CE2ECF2EEF2E0130A8000310AD0DAE0DD4
:100DA800AF0DB00DA80BD12E0130A8000310A40D73
:100DB800A50DA60DA70DA80BDA2EB71FE42EE52E5C
:100DC800E62E24140130A8000310B40DB50DB60D9D
:100DD800B70DA80BE82E23083002031DFD2E2208AC
:100DE8002F02031DFD2E21082E02031DFD2E2008B3
:100DF8002D02031C002F012F102F37172008AD02DA
:100E08002108031C210FAE022208031C220FAF0287
:100E18002308031C230FB0020130A8002808B907D3
:100E28001A303902031C192F1A2FCA2E30082F0422
:100E38002E042D040319212F222F412F3414412F62
:100E48000130A8000310A40DA50DA60DA70DA80B31
:100E5800262FB71F302F312F322F24140130A8002E
:100E68000310B40DB50DB60DB70DA80B342FFF3018
:100E7800B2070318B30AFF30B307A61F442F452F44
:100E8800242FB901B71F492F4A2F662FFF30340589
:100E9800A800FF303505A900FF303605AA007F30CD
:100EA8003705AB002B082A042904280403195D2FF1
:100EB8005E2F612FB901B90A662F241C642F652F94
:100EC800662F5E2F390803196A2F6B2F9C2F01306C
:100ED800A407003003180130A507003003180130BB
:100EE800A607003003180130A707271C7C2F7D2F89
:100EF8009C2F2408A8002508A9002608AA0027086E
:100F0800AB000130AC002B0DAB0CAA0CA90CA80C43
:100F1800AC0B872F2B08A7002A08A6002908A500D4
:100F28002808A4000130B2070318B30A0030B30739
:100F38003308803AFF0080307F02031DA52FFF3061
:100F48003202031CA82FA92FB72FFF3083120313D7
:100F5800B2000030B3000030A7000030A600003017
:100F6800A5000030A400831203133308803AFF0061
:100F780080307F02031DC22F013032020318C52FB3
:100F8800C62FD32F83120313B201B3010030A70079
:100F98000030A6000030A5000030A400B101831283
:100FA80003133208A8002808B800381CDC2FDD2FEE
:100FB800DF2FA617E32F7F30A8002808A6053808DA
:100FC800A8000310280CA9002908A7003108A800C8
:100FD8002808A704872E080080308316031387008B
:100FE8002630980090308312031398001930831626
:080FF800031399000800013405
:101002000030831203132005A80000302105A90037
:1010120080302205AA007F302305AB002B082A046A
:1010220029042804031D162817281F280030A300AE
:101032000030A2000030A1000030A00000302405E2
:10104200A80000302505A90080302605AA007F30BF
:101052002705AB002B082A0429042804031D322883
:1010620033283B280030A7000030A6000030A5003E
:101072000030A400A31F3E283F2863280030A800A8
:101082000030A9000030AA008030AB002008A8027E
:101092002108031C210F4E284F28A9022208031CF5
:1010A200220F54285528AA022308031C230F5A286A
:1010B2005B28AB022B08A3002A08A2002908A10082
:1010C2002808A000A71F662867288B280030A800E0
:1010D2000030A9000030AA008030AB002408A8022A
:1010E2002508031C250F76287728A9022608031C49
:1010F200260F7C287D28AA022708031C270F822896
:101102008328AB022B08A7002A08A6002908A500FD
:101112002808A4008030A3068030A70627082302EF
:10112200031D9D2826082202031D9D282508210251
:10113200031D9D28240820020318A028A128A32803
:101142000310A42803140800831603132308831230
:101152000313BD0083160313220883120313BC007A
:1011620083160313210883120313BB008316031390
:10117200200883120313BA00A830ED006D08BE00E8
:101182000A168A15A4270A128A1583160313A91FA1
:10119200CB28CC280929230883120313A300831622
:1011A2000313220883120313A200831603132108D8
:1011B20083120313A100831603132008831203135F
:1011C200A0000030A7000030A6000030A5000030CB
:1011D200A4000A128A1501200A128A150318F2289D
:1011E200F328FE28BF3083160313A3008030A20029
:1011F2000030A1000030A000D7290030831603136D
:10120200A3000030A2000030A1000030A000D729C6
:10121200003029021D3003192802031C112912294A
:101222001329D729230883120313B100831603134A
:10123200220883120313B0008316031321088312BA
:101242000313AF0083160313200883120313AE00A7
:101252000A168A113D210A128A15831203133108D4
:10126200A3003008A2002F08A1002E08A000013020
:101272000A168A1144220A128A15831203132308BA
:1012820083160313A7008312031322088316031382
:10129200A60083120313210883160313A5008312E9
:1012A2000313200883160313A400230883120313D5
:1012B200A30083160313220883120313A2008316CA
:1012C2000313210883120313A100831603132008BA
:1012D20083120313A0008316031327088312031338
:1012E200A70083160313260883120313A60083168E
:1012F2000313250883120313A5008316031324087E
:1013020083120313A4000A128A1501200A128A15F5
:1013120003188C298D29CD29BF3083120313DC00D9
:101322008030DB000030DA000030D900831603136E
:10133200270883120313E00083160313260883127F
:101342000313DF0083160313250883120313DE0041
:1013520083160313240883120313DD000A128A1171
:101362008B230A128A15831203135C088316031354
:10137200A300831203135B0883160313A2008312D4
:1013820003135A0883160313A10083120313590887
:1013920083160313A000D729831603132708A3007B
:1013A2002608A2002508A1002408A0000800831630
:1013B2000313330883120313A300831603133208A3
:1013C20083120313A200831603133108831203133B
:1013D200A10083160313300883120313A000003008
:1013E200A7000030A6000030A5000030A4000A12B9
:1013F2008A1501200A128A150318002A012A122AC4
:101402002130831603179D0000309E0000308316A2
:101412000313B3000030B2000030B1000030B0005E
:10142200452B83160313330883120313B10083166B
:101432000313320883120313B00083160313310817
:1014420083120313AF0083160313300883120313AE
:10145200AE000030B5000030B4000030B300003000
:10146200B2000A168A15A6260A128A15031C3A2AFF
:101472003B2A4C2A2230831603179D0000309E001F
:10148200003083160313B3000030B2000030B10005
:101492000030B000452BBF3083120313DC008030D4
:1014A200DB000030DA000030D9004030C2000030EA
:1014B200C1000030C0000030BF006E30ED006D088A
:1014C200BE0083160313330883120313BD00831671
:1014D2000313320883120313BC008316031331086B
:1014E20083120313BB008316031330088312031302
:1014F200BA000A168A15A4270A128A158312031340
:101502003D08C6003C08C5003B08C4003A08C300B9
:101512000A128A112A200A128A1583120313420818
:10152200E0004108DF004008DE003F08DD000A124B
:101532008A118B230A128A15831203135C088316FD
:101542000313B300831203135B0883160313B20061
:10155200831203135A0883160313B1008312031371
:10156200590883160313B000FF3083120313EE07EA
:101572000318EF0AFF30EF07831603133308A300A3
:101582003208A2003108A1003008A00033308312D3
:101592000313ED006D0883160313A4000830A500A1
:1015A2000030A6000A168A113E250A128A158316F1
:1015B20003132308B3002208B2002108B100200857
:1015C200B000330883120313DC00831603133208BE
:1015D20083120313DB0083160313310883120313F0
:1015E200DA0083160313300883120313D9003F3045
:1015F200C2003130C1007230C0001830BF006E0826
:10160200A0006F08A1000030A11BFF30A200A300C0
:1016120001300A168A1144220A128A158312031310
:101622002308C6002208C5002108C4002008C30000
:101632000A128A112A200A128A15831203134208F7
:10164200E0004108DF004008DE003F08DD000A122A
:101652008A118B230A128A15831203135C088316DC
:101662000313B300831203135B0883160313B20040
:10167200831203135A0883160313B1008312031350
:10168200590883160313B000080083160313D3010D
:10169200450883120313B10083160313440883120F
:1016A2000313B00083160313430883120313AF001E
:1016B20083160313420883120313AE000030B500F1
:1016C2000030B4000030B3000030B2000A168A15B0
:1016D200A6260A128A15031C6F2B702BAC2B003026
:1016E20083120313A3000030A2000030A1000030D7
:1016F200A00083160313490883120313A70083165D
:101702000313480883120313A60083160313470822
:1017120083120313A50083160313460883120313CF
:10172200A4000A128A1501200A128A15031C9A2B98
:101732009B2BA12B2130831603179D0000309E00A6
:10174200003083160313C5000030C4000030C3000C
:101752000030C200842D8316031349088312031339
:10176200B10083160313480883120313B0008316D3
:101772000313470883120313AF00831603134608AB
:1017820083120313AE000030B5000030B400003005
:10179200B3000030B2000A168A15A6260A128A156C
:1017A200031CD42BD52BE02B3F3083160313C5002B
:1017B2008030C4000030C3000030C200842D831684
:1017C2000313450883120313A3008316031344086B
:1017D20083120313A2008316031343088312031315
:1017E200A10083160313420883120313A0000030E2
:1017F200A7000030A6000030A5000030A4000A12A5
:101802008A1501200A128A150318082C092CD02CDB
:1018120083160313490883120313B10083160313BB
:10182200480883120313B000831603134708831278
:101832000313AF0083160313460883120313AE008B
:101842000A168A113D210A128A15831203133108DE
:1018520083160313D700831203133008831603136E
:10186200D600831203132F0883160313D5008312A5
:1018720003132E0883160313D4005708831203138D
:10188200A30083160313560883120313A2008316C0
:101892000313550883120313A1008316031354087C
:1018A20083120313A00000300A168A1144220A127E
:1018B2008A15831203132308B1002208B0002108FD
:1018C200AF002008AE0083160313490883120313E6
:1018D200B50083160313480883120313B40083165A
:1018E2000313470883120313B30083160313460836
:1018F20083120313B2000A168A15A6260A128A1543
:101902000318842C852C962C2130831603179D00F6
:1019120000309E00003083160313C5000030C4005F
:101922000030C3000030C200842D83160313540814
:101932000139CA004A08D300450883120313A300E1
:1019420083160313440883120313A200831603139E
:10195200430883120313A100831603134208831260
:101962000313A0000A168A1160200A128A15831234
:101972000313230883160313C500831203132208DB
:1019820083160313C400831203132108831603135F
:10199200C30083120313200883160313C2008316A5
:1019A20003134508B3004408B2004308B1004208DB
:1019B200B0000A128A15D8210A128A158316031357
:1019C2003308CE003208CD003108CC003008CB00FD
:1019D200490883120313C2008316031348088312B3
:1019E2000313C10083160313470883120313C000B5
:1019F20083160313460883120313BF0083160313CF
:101A02004E0883120313C600831603134D08831274
:101A12000313C500831603134C0883120313C40077
:101A2200831603134B0883120313C3000A128A118D
:101A32002A200A128A1583120313420883160313FB
:101A4200D20083120313410883160313D1008312B9
:101A52000313400883160313D000831203133F08B5
:101A620083160313CF005208B9005108B80050087A
:101A7200B7004F08B6000A128A1585250A128A1580
:101A8200831603133908C5003808C4003708C30099
:101A92003608C200530803194F2D502D842D4508D6
:101AA20083120313A3008316031344088312031340
:101AB200A20083160313430883120313A1008316A3
:101AC2000313420883120313A0000A168A1160202E
:101AD2000A128A1583120313230883160313C500FF
:101AE20083120313220883160313C4008312031301
:101AF200210883160313C3008312031320088316DD
:101B02000313C200842D08008316031339088312BD
:101B12000313B10083160313380883120313B000B2
:101B220083160313370883120313AF0083160313BC
:101B3200360883120313AE000030B5000030B40043
:101B42000030B3000030B2000A168A15A6260A1227
:101B52008A15031CAD2DAE2DB92D3F30831603130C
:101B6200B9008030B8000030B7000030B600FF2F57
:101B7200443083120313A3003130A2007230A1005B
:101B82001830A00083160313390883120313A70029
:101B920083160313380883120313A6008316031354
:101BA200370883120313A500831603133608831222
:101BB2000313A4000A128A1501200A128A150318B7
:101BC200E32DE42DF52D2230831603179D000030FE
:101BD2009E007F3083160313B9007F30B800FF30B8
:101BE200B700FF30B600FF2F8316031339088312A4
:101BF2000313A30083160313380883120313A200EE
:101C020083160313370883120313A10083160313E9
:101C1200360883120313A000C430A7003A30A6008E
:101C22004830A5008730A4000A128A1501200A1242
:101C32008A1503181D2E1E2E2F2E223083160317EF
:101C42009D0000309E00003083160313B90000305F
:101C5200B8000030B7000030B600FF2F8316031320
:101C6200390883120313A30083160313380883125F
:101C72000313A20083160313370883120313A10070
:101C820083160313360883120313A0000030A70043
:101C92000030A6000030A5000030A4000A128A1508
:101CA20001200A128A15031C572E592E01305A2E72
:101CB200003083160313BA003A08C1004108031921
:101CC200632E642E972E390883120313A300831602
:101CD2000313380883120313A20083160313370871
:101CE20083120313A100831603133608831203130E
:101CF200A0000A168A1160200A128A1583120313A1
:101D0200230883160313B9008312031322088316D0
:101D12000313B80083120313210883160313B700B9
:101D220083120313200883160313B6003F30831275
:101D32000313C200B830C100AA30C0003B30BF005C
:101D420083160313390883120313C6008316031381
:101D5200380883120313C50083160313370883124E
:101D62000313C40083160313360883120313C3003C
:101D72000A128A112A200A128A15831203134208B0
:101D820083160313B9008312031341088316031346
:101D9200B80083120313400883160313B70083129B
:101DA20003133F0883160313B6003908A30038084B
:101DB200A2003708A1003608A0000A128A15A52041
:101DC2000A128A15831603132308BE002208BD00D7
:101DD2002108BC002008BB003E0883120313B10097
:101DE200831603133D0883120313B00083160313F3
:101DF2003C0883120313AF00831603133B088312BC
:101E02000313AE000A168A113D210A128A158312A3
:101E120003132F0883160313C000831203132E0823
:101E220083160313BF003F0883120313A000831617
:101E32000313400883120313A1000030A11BFF30DB
:101E4200A200A30001300A168A1144220A128A153E
:101E520083120313230883160313A30083120313AD
:101E6200220883160313A200831203132108831688
:101E72000313A10083120313200883160313A00087
:101E82003908A7003808A6003708A5003608A400BC
:101E92000A168A1556260A128A1583160313230870
:101EA200B9002208B8002108B7002008B600390896
:101EB200A3003808A2003708A1003608A0000B30A2
:101EC200BA003A08A4000930A5000030A6000A169C
:101ED2008A113E250A128A15831603132308B300BA
:101EE2002208B2002108B1002008B0004008B50065
:101EF2003F08B4000A168A1118260A128A15831698
:101F020003133308B9003208B8003108B7003008AB
:101F1200B600410803198E2F8F2FFF2F3908831225
:101F22000313B10083160313380883120313B0009E
:101F320083160313370883120313AF0083160313A8
:101F4200360883120313AE007F30B5007F30B40031
:101F5200FF30B300FF30B2000A168A15A6260A1215
:101F62008A15031CB52FB62FC12F00308316031319
:101F7200B9000030B8000030B7000030B600FF2FC3
:101F820083160313390883120313A3008316031362
:101F9200380883120313A20083160313370883122F
:101FA2000313A10083160313360883120313A00040
:101FB2003F30A7008030A6000030A5000030A4000A
:101FC2000A128A1113260A128A158312031323088E
:101FD20083160313B9008312031322088316031313
:101FE200B80083120313210883160313B700831268
:101FF2000313200883160313B600FF2F08001030C6
:102002008A000408840A8207003400341034203421
:10201200303440345034603470348034903400347E
:10202200003480343F341834723431343F34F03465
:10203200FD3475343E344734583463343D345834B7
:1020420095341D343C348234C434AE343A34A8342A
:10205200783421343934EF34933480343734A03433
:102062009234A7343534463456341534343400347B
:10207200003400340034C434FF347F343F348034BD
:10208200EF34FF34BE349034E134A9343E34EC34BE
:1020920082347634BE348234AD342B343E340E3442
:1020A2003C34C334BD348734D13413343D344134E9
:0620B2007834D334BB3486
:1020C000831203132308220421042004031969281E
:1020D0006A286C288030A30608006430831203133A
:1020E000A4000030A5002D08A7002C08A6000A16A1
:1020F0008A15C5250A168A11831203132408013E86
:1021000084000A168A1100200A168A1186000A30F5
:10211000A4000030A5002D08A3002C08A200643004
:10212000A0000030A1000A168A1548250A168A1157
:10213000831203132108A7002008A6000A168A1597
:10214000C5250A168A118312031324080604860083
:102150002D08A3002C08A2006430A0000030A100CC
:102160000A168A1548250A168A11831203132108B4
:10217000AF002008AE000A30A0000030A1002F08F8
:10218000A3002E08A2000A168A1548250A168A11ED
:10219000831203132008013E84000A168A110020CE
:1021A0000A168A118800080083120313A501A11FD3
:1021B000DA28DB28E228A009A109A00A0319A10A4C
:1021C000A501A50AA31FE528E628EF28A209A3096F
:1021D000A20A0319A30A0130F4007408A506A60197
:1021E000A701200821040319F628F7282E29A401A5
:1021F000A40A052901300310A00DA10DFF3E031D07
:10220000FB280130F4007408A407A11F082909293C
:10221000FA2801300310A60DA70DFF3E031D0A2961
:1022200021082302031D162920082202031C192954
:102230001A2921292008A2022108031CA303A302B2
:10224000261401300310A10CA00CFF3E031D22290F
:102250000130A402031D2D292E290929250803195F
:10226000322933293829A609A709A60A0319A70A7A
:102270002708A1002608A0000800031083120313FA
:10228000300D310DB2003208F5007508031D4929E3
:102290004A2953290030B1000030B0000030AF00AF
:1022A0000030AE00B8292E08B2002F08B300300865
:1022B000B4003108B5001F300310B50CB40CB30CDA
:1022C000B20CFF3E031D5C293208B6003608F4004C
:1022D000B017FF30AE05FF30AF05FF30B00500305E
:1022E000B1059630F502F51F7629772991297508F1
:1022F000803A973E03187D297E297F294A2901309B
:102300000310B10CB00CAF0CAE0CFF3E031D8029C6
:102310000130B2003208F507031D8F2990297F296B
:10232000A82920307502031C96299729A3294A2938
:102330000130B2000310AE0DAF0DB00DB10DB20BF8
:102340009A290130F5027508031DA729A8299829A3
:1023500074080319AC29AD29B829AE09AF09B00931
:10236000B109AE0A0319AF0A0319B00A0319B10A79
:10237000080083160317B4000130B4023408831632
:102380000313EA006A07EB006B0883160317B40017
:102390003408013E0A168A1591240A168A118316FA
:1023A0000313EA00EB018316031734080A168A1593
:1023B00091240A168A1183160313EC00ED016C08B0
:1023C000ED00EC016A086C0483160317B200831653
:1023D00003136B086D0483160317B300B31BF129B5
:1023E000F229312A3308803AFF0083307F02031D2F
:1023F000FB29E83032020318FE29FF29312A023076
:1024000083120313A0000030A100831603173408C1
:1024100083160313EA00EB016A0883120313A20078
:10242000831603136B0883120313A3000A168A1181
:10243000D4200A168A11831203132108831603136A
:10244000D90083120313200883160313D8000A1639
:102450008A117C240A168A11003A0319302A312A7B
:10246000372AFF3083160317B200FF30B3008316FC
:102470000317330883160313E90083160317320882
:1024800083160313E800080083120313A80028082A
:1024900003194B2A4C2A602AA31F4F2A502A602A6C
:1024A0002009AA002109AB002209AC002309AD00D4
:1024B000AA0A0319AB0A0319AC0A0319AD0A682A60
:1024C0002308AD002208AC002108AB002008AA00B8
:1024D0002308220421042004031D6F2A702A792A6C
:1024E0000030A3000030A2000030A1000030A000A6
:1024F000FF2A9630A4002408A9008B2A0130A400EA
:102500002408A90701300310AD0CAC0CAB0CAA0CCD
:10251000FF3E031D832AFE302D05031D902A912ABC
:102520007E2AAD2A0130A4002408A9070130AA0799
:10253000003003180130AB07003003180130AC073E
:10254000003003180130AD0701300310AD0CAC0CA6
:10255000AB0CAA0CFF3E031DA52AFF302D05031D61
:10256000B22AB32A922ABF2A0130A9020130A4005C
:102570000310AA0DAB0DAC0DAD0DA40BB82AAC1B0E
:10258000C22AC32AC92A023029020318C82AC92A22
:10259000B42A2918CC2ACD2AD52AFF30AA05FF3023
:1025A000AB057F30AC05FF30AD050310A90C290841
:1025B000A400A501A601A70118300310A40DA50DC4
:1025C000A60DA70DFF3E031DDD2A2408AA04250839
:1025D000AB042608AC042708AD0428080319F12A27
:1025E000F22AF72AA31FF52AF62AF72AAD172D0893
:1025F000A3002C08A2002B08A1002A08A0000800B4
:102600000C3083160313E5000030E6006608DB009B
:102610006508DA000310DA0DDB0D0310DA0DDB0DAF
:102620000310DA0DDB0D5908803ADC005B08803AB4
:102630005C02031D1D2B5A085802031C202B212B62
:10264000B12B831603136608DB006508DA0003105C
:10265000DA0DDB0D0310DA0DDB0D0310DA0DDB0DE7
:102660005A085802D8005B08031C5B0A5902D900BB
:10267000580883120313A00083160313590883120A
:102680000313A1000030A11BFF30A200A300013002
:102690000A168A1144220A168A1183120313230888
:1026A00083160313E0008312031322088316031317
:1026B000DF0083120313210883160313DE00831245
:1026C0000313200883160313DD006008C9005F08A8
:1026D000C8005E08C7005D08C6004030C500003075
:1026E000C4000030C3000030C2000A128A1546231D
:1026F0000A168A11831603134508E4004408E30010
:102700004308E2004208E1006508903E8400640846
:1027100083120313B1008316031363088312031398
:10272000B00083160313620883120313AF008316ED
:102730000313610883120313AE000A168A113D21A8
:102740000A168A11831203132E08831700068316B4
:102750000313DA006508903E84005A088000E50102
:10276000E601FF3083160313E5070318E60AFF307E
:10277000E607E61FBC2BBD2B062B08000C3083168A
:102780000313E5000030E6006608DB006508DA00A8
:102790000310DA0DDB0D0310DA0DDB0D0310DA0D7B
:1027A000DB0D5908803ADC005B08803A5C02031DAF
:1027B000DB2B5A085802031CDE2BDF2B6F2C8316F1
:1027C00003136608DB006508DA000310DA0DDB0D81
:1027D0000310DA0DDB0D0310DA0DDB0D5A08580279
:1027E000D8005B08031C5B0A5902D9005808831201
:1027F0000313A00083160313590883120313A100C7
:102800000030A11BFF30A200A30001300A168A117C
:1028100044220A168A118312031323088316031312
:10282000E00083120313220883160313DF008312D0
:102830000313210883160313DE00831203132008F9
:1028400083160313DD006008C9005F08C8005E0836
:10285000C7005D08C6004030C5000030C40000302D
:10286000C3000030C2000A128A1546230A168A11D4
:10287000831603134508E4004408E3004308E2001C
:102880004208E1006508903E840064088312031347
:10289000B10083160313630883120313B000831679
:1028A0000313620883120313AF0083160313610836
:1028B00083120313AE000A168A113D210A168A11EB
:1028C000831203132E088317000483160313DA0000
:1028D0006508903E84005A088000E501E601FF305B
:1028E00083160313E5070318E60AFF30E607E61F21
:1028F0007A2C7B2CC42B080083160313E5010C30C3
:10290000E6000030E7006708DB006608DA00031025
:10291000DA0DDB0D0310DA0DDB0D0310DA0DDB0D24
:102920005908803ADC005B08803A5C02031D9A2C4F
:102930005A085802031C9D2C9E2C302D831603131D
:102940006708DB006608DA000310DA0DDB0D031000
:10295000DA0DDB0D0310DA0DDB0D5A085802D80032
:102960005B08031C5B0A5902D90058088312031341
:10297000A00083160313590883120313A10000302B
:10298000A11BFF30A200A30001300A168A114422C5
:102990000A168A1183120313230883160313E00017
:1029A00083120313220883160313DF008312031319
:1029B000210883160313DE008312031320088316F5
:1029C0000313DD006008C9005F08C8005E08C70087
:1029D0005D08C6004030C5000030C4000030C300B0
:1029E0000030C2000A128A1546230A168A1183167D
:1029F00003134508E4004408E3004308E2004208EA
:102A0000E1006608903E8400640883120313B1005D
:102A100083160313630883120313B0008316031392
:102A2000620883120313AF00831603136108831235
:102A30000313AE000A168A113D210A168A11831269
:102A400003132E08831700050319272D282D2C2D7D
:102A500083160313E501E50A83160313E601E70174
:102A6000FF3083160313E6070318E70AFF30E70772
:102A7000E71F3B2D3C2D832C6508080083160313AC
:102A80002508A70001300310A70DFF3E031D432DAD
:102A90000310270D240784000A168A1100200A1645
:102AA0008A11A8000A168A1100200A168A11A900A4
:102AB0000A168A1100200A168A11AA000A168A111B
:102AC00000200A168A11AB002B08AF002A08AE00BE
:102AD0002908AD002808AC00092EFF30A50703180F
:102AE000A60AFF30A6072508A70001300310A70D8E
:102AF000FF3E031D762D0310270D240784000A16C0
:102B00008A1100200A168A11A8000A168A110020CC
:102B10000A168A11A9000A168A1100200A168A11BB
:102B2000AA000A168A1100200A168A11AB002B0887
:102B300083120313DC00831603132A088312031382
:102B4000DB0083160313290883120313DA008316AC
:102B50000313280883120313D900831603132F08C5
:102B600083120313C200831603132E088312031368
:102B7000C100831603132D0883120313C0008316AC
:102B800003132C0883120313BF00831603132308B7
:102B900083120313C6008316031322088312031340
:102BA000C50083160313210883120313C400831680
:102BB0000313200883120313C3000A128A112A2068
:102BC0000A168A11831203134208E0004108DF004D
:102BD0004008DE003F08DD000A128A118B230A1626
:102BE0008A11831203135C0883160313AF00831248
:102BF00003135B0883160313AE00831203135A08F2
:102C000083160313AD0083120313590883160313AD
:102C1000AC0025082604031D0E2E0F2E6D2D2F0847
:102C2000A3002E08A2002D08A1002C08A000080077
:102C300083160313330883120313B100831603139F
:102C4000320883120313B000831603133108831272
:102C50000313AF0083160313300883120313AE006F
:102C60000030B5000030B4000030B3000030B200D6
:102C70000A168A15A6260A168A11031C402E412E12
:102C80004C2E003083160313B3000030B200003026
:102C9000B1000030B000092F8316031333087F39C9
:102CA00083120313ED00EE010310ED0DEE0D6D0820
:102CB00083160313B4070318B50A831203136E08AF
:102CC00083160313B507320D320D01398312031336
:102CD000ED00EE016D0883160313B4070318B50A5F
:102CE000831203136E0883160313B507B51F792EDD
:102CF0007A2E8B2E2230831603179D0000309E0003
:102D0000003083160313B3000030B2000030B1006E
:102D10000030B000092F3508803AFF0081307F0273
:102D2000031D942E00303402031C972E982EDD2EA6
:102D30002230831603179D0000309E008316031374
:102D4000330883120313A30083160313320883127C
:102D50000313A20083160313310883120313A10087
:102D600083160313300883120313A0000030A7005A
:102D70000030A6000030A5000030A4000A128A1519
:102D800001200A168A110318C62EC72ED22EFF3034
:102D900083160313B3007F30B200FF30B100FF3061
:102DA000B000092F7F3083160313B3007F30B200C9
:102DB000FF30B100FF30B000092F83160313350830
:102DC00083120313EE0083160313340883120313D4
:102DD000ED006E0DEE0CED0C831603133308831219
:102DE00003136D0680396D0683160313B300340890
:102DF000013983120313ED00ED0CED0C8316031360
:102E00003208831203136D067F396D068316031390
:102E1000B200080083160317BB01BC01B801B90159
:102E2000831603173808A93E840083170008D03E94
:102E3000B500FF3003180030B6003508BB07031893
:102E4000BC0A3608BC070130B8070318B90A0030BD
:102E5000B9073908803AFF0080307F02031D322F06
:102E600008303802031C352F362F102F0A308312FA
:102E70000313A0000030A100831603173C0883123F
:102E80000313A300831603173B0883120313A20046
:102E90000A168A1549270A168A118316031731085C
:102EA000D03EB500FF3003180030B6008312031384
:102EB0002108831603173606031D642F831203139C
:102EC0002008831603173506031D672F682FEB2F85
:102ED0000A30B5003508F40029080A168A15A82416
:102EE0000A168A11831603172A07F03EB600360821
:102EF000BA003A080A168A11B9210A168A118316ED
:102F00000313690883160317BC00831603136808AC
:102F100083160317BB0076083B07B5007708031834
:102F2000770A3C07B60003303602E8300319350251
:102F300003189B2F9C2FEB2F3B0A031DA42F3C0A49
:102F40000319A32FA42FEB2F0130BA023A08B500C2
:102F5000B601350883160313D80083160317360805
:102F600083160313D9000A168A11BE230A168A1182
:102F7000831603173A08B500B6013508A3003608D2
:102F8000A4007708A8007608A7003B08F6070318F6
:102F9000F70A3C08F707770883120313AD00760899
:102FA000AC000A168A116D200A168A1183120313C7
:102FB0008515063083160317B7001330B600AD3001
:102FC000B500B50BE12FB60BE12FB70BE12F831244
:102FD00003138511FF2F8312031385160630831602
:102FE0000317B7001330B600AD30B500B50BF62FA0
:102FF000B60BF62FB70BF62F8312031385120800BA
:1039120064008001840A04060319003404068A2C18
:10392200F5006400831603178C18982C992C922C9E
:103932007508831203178D003F30F4007408831654
:1039420003178C050C14831203170C08080083124A
:103952000313A100A001211CAF2CB02CB42C7408BD
:10396200F5007508A0070310F40D0310A10C21083F
:10397200031DBC2CBD2CAC2C2008080083120313A1
:10398200A600A201A3017408A000A1012008A400BE
:103992002108A500261CCE2CCF2CD52C2408A2074A
:1039A2000318A30A2508A30701300310A40DA50DCF
:1039B200FF3E031DD62C0310A60C2608031DE22C85
:1039C200E32CCB2C2308F5002208F4000800831610
:1039D200031728087706031DF02C2708760603191B
:1039E200F32CF42C122D2808F7002708F6002408DF
:1039F20083160313D90083160317230883160313B0
:103A0200D8000A168A1100230A168A15770883122B
:103A12000313AD007608AC000A168A116D200A164F
:103A22008A150800831203138C1E182D192D3F2DA1
:103A32000D301A0603191E2D1F2D382D0A301A06B5
:103A42000319242D252D382D0930790203182A2D2A
:103A52002B2D382D1A08F0007908A93E8400700831
:103A6200831780000130F0007008F9073F2DF9013B
:103A7200013083160317A5000030A60073088A00E0
:103A820072088400710E8300FE0E7E0E09008312FE
:103A920003132008210403194F2D502D7F2DF5010A
:103AA200F50A5E2D01300310A00DA10DFF3E031D8E
:103AB200542D0130F4007408F507A11F612D622D09
:103AC200532D21082302031D682D20082202031C06
:103AD2006B2D6C2D722D2008A2022108031CA3035A
:103AE200A30201300310A10CA00CFF3E031D732D95
:103AF2000130F502031D7E2D7F2D622D2308A100CA
:103B02002208A0000800013083120313B00030081D
:103B1200F8077608831603179F070318A00A770889
:103B2200A007F601F701A701A80183120313B1014F
:103B3200B201831203133108903E8400831780017F
:103B42000130B1070318B20A0030B2073208803AD6
:103B5200FF0080307F02031DB02D0D303102031CA7
:103B6200B32DB42D9A2D770883120313AD00760876
:103B7200AC000A168A116D200A168A150A168A15D1
:103B82000B260A168A15080083120313A901AA013B
:103B9200240825040319CE2DCF2D062EAB01AB0A26
:103BA200DD2D01300310A40DA50DFF3E031DD32D05
:103BB2000130A8002808AB07A51FE02DE12DD22D6A
:103BC20001300310A90DAA0DFF3E031DE22D2508A9
:103BD2002702031DEE2D24082602031CF12DF22DCF
:103BE200F92D2408A6022508031CA703A7022914FD
:103BF20001300310A50CA40CFF3E031DFA2D013069
:103C0200AB02031D052E062EE12D2A08A500290868
:103C1200A4000800F401F501831203138515023094
:103C220083120313A2000430A100B930A000A00B3C
:103C3200182EA10B182EA20B182E1F2E831203135F
:103C42008516023083120313A2000430A100B9309A
:103C5200A000A00B2A2EA10B2A2EA20B2A2E312E57
:103C6200831203138511023083120313A20004305E
:103C7200A100B930A000A00B3C2EA10B3C2EA20B40
:103C82003C2E432E8312031385120130F4070318CE
:103C9200F50A0030F507003075020330031974028B
:103CA200031C542E552E0D2E08008030831603134C
:103CB200A306270883120313DC00831603132608C6
:103CC20083120313DB0083160313250883120313E5
:103CD200DA0083160313240883120313D900831610
:103CE2000313230883120313E0008316031322082D
:103CF20083120313DF0083160313210883120313B5
:103D0200DE0083160313200883120313DD000A1258
:103D12008A118B230A168A15831203135C088316F1
:103D22000313A300831203135B0883160313A20079
:103D3200831203135A0883160313A1008312031379
:103D4200590883160313A0000800003083120313DE
:103D52002E05B60000302F05B70080303005B800C0
:103D62007F303105B9003908380437043604031DA1
:103D7200BB2EBC2EC42E0030B1000030B00000308B
:103D8200AF000030AE0000303205B600003033051F
:103D9200B70080303405B8007F303505B9003908E6
:103DA200380437043604031DD72ED82EE02E0030F7
:103DB200B5000030B4000030B3000030B200350866
:103DC2003106031DEE2E34083006031DEE2E330895
:103DD2002F06031DEE2E32082E060319F12EF22EA7
:103DE200F42E0310F52E0314080007308316031374
:103DF2009F000630850086018801C0308B008C163A
:103E02000A128A11F0270A168A15F601F70183169B
:103E12000317A701A801770883120313AD007608E0
:103E2200AC000A168A116D200A168A158312031332
:103E3200851C1C2F1D2F272F8518202F212F1D2F6A
:103E42000A168A1584250A168A15172F051D2A2F88
:103E52002B2F352F05192E2F2F2F2B2F0A168A15B0
:103E6200E8240A168A15172F831603172508260435
:103E720003193C2F3D2F452FA501A6010A168A11D1
:103E82000A270A168A15172F172F0A128A110E28C7
:103E920083120313A501A31F4F2F502F572FA209DF
:103EA200A309A20A0319A30AA501A50AA11F5A2F51
:103EB2005B2F602FA009A109A00A0319A10A2008FB
:103EC20021040319652F662F952FA401A40A742FCC
:103ED20001300310A00DA10DFF3E031D6A2F01301A
:103EE200F4007408A407A11F772F782F692F2108E7
:103EF2002302031D7E2F20082202031C812F822F02
:103F0200882F2008A2022108031CA303A302013068
:103F12000310A10CA00CFF3E031D892F0130A40247
:103F2200031D942F952F782F25080319992F9A2F67
:103F32009F2FA209A309A20A0319A30A2308A10019
:103F42002208A0000800831203133D08B1003C08B8
:103F5200B0003B08AF003A08AE000030B5000030B8
:103F6200B4000030B3000030B2000A168A15A6264B
:103F72000A168A15031CBE2FBF2FD02F83120313DC
:103F82003E08840083138001840A80010030BD0052
:103F92000030BC000030BB000030BA00FF2F83129B
:103FA20003133D087F39F400F5010310F40DF50DFC
:103FB2003E088400740883138000840A7508800018
:103FC2003C0D3C0D0139F400F5013E0884007408F3
:103FD2008004840A750880043E08840082308007C9
:103FE200840F00080318000AFF00FF307F078000DB
:0E3FF20084033D0880393F38BD00BC13080031
:02400E00793FF8
:00000001FF
