:020000040000FA
:060000000A128A110E280D
:10000800FE00030EF5000408F6000A08F7000A12BD
:100018008A15042C0A128A1111280A128A11FF273C
:100028000A128A11F80083160317D201D301D401EA
:10003800D501D601D701D8018313CD308400EA3029
:100048000A128A1562210A128A1183120313EE0119
:10005800F001F101F201F30183010A128A11342837
:100068000130831603138500073089008601880153
:100078008130831203139F008E30831603139F0071
:10008800C0308B0080308700263098009030831273
:10009800031398001930831603139900831203136E
:1000A8000C13831603130C178C16F001F101831639
:1000B8000317D401D501710883120313B500700822
:1000C800B4000A128A1515270A128A11831203131B
:1000D800091C6F2870287A28091873287428702832
:1000E8000A128A1584270A128A116A28891C7D280F
:1000F8007E2888288918812882287E280A128A154D
:10010800ED220A128A116A28091D8B288C28FA28E0
:1001180009198F2890288C2870087104031D9528C8
:1001280096286A2883160317D601D60A9C308312AC
:100138000313B4000130B5004E30B6008430B70068
:10014800780883160313C900CA01490883120313E8
:10015800B800831603134A0883120313B900720800
:1001680083160313CB00CC014B0883120313BA0088
:10017800831603134C0883120313BB00831603135F
:100188005B0883120313BD00831603135A088312F6
:100198000313BC000A128A11D9210A128A119C3051
:1001A80083120313A0000130A1000A128A150A2243
:1001B8000A128A1183160317D0018230831603139B
:1001C800CA00DD30C900C90BE728CA0BE72801308F
:1001D80083160313C900490883160317D0070A308A
:1001E8005002031CF828F928E1286A288316031707
:1001F800520853040319012902292029D201D301E5
:100208000A128A15DB250A128A1183160317D101EF
:100218005108E03E840083138001013083160313E4
:10022800C900490883160317D1070A305102031C75
:100238001E291F290C296A2857085804031925293B
:100248002629D529FF3083120313A6000330A700FF
:1002580083160317580883120313A1008316031784
:10026800570883120313A0003230A2000030A30005
:100278000A128A11D9230A128A1183120313210838
:10028800A9002008A8000A128A152A230A128A112E
:1002980083120313270883160317D8008312031346
:1002A800260883160317D7000A3083120313A60003
:1002B8000030A70083160317580883120313A900F8
:1002C80083160317570883120313A8000A128A1506
:1002D8002A230A128A118312031327088316031785
:1002E800CD0083120313260883160317CC000A30A7
:1002F80083120313AE000030AF00831603175808AB
:1003080083120313B10083160317570883120313CC
:10031800B0000A128A15B1220A128A118312031335
:100328002F0883160317CF00831203132E08831692
:100338000317CE00BC3083120313B4000130B5009C
:100348000830B6008530B700831603174D088312AE
:100358000313B900831603174C0883120313B8005C
:10036800831603174F0883120313BB008316031762
:100378004E0883120313BA000A128A11D9210A12ED
:100388008A11BC3083120313A0000130A1000A12A5
:100398008A150A220A128A1183160317D701D8016F
:1003A8006A286A280A128A110E2838308312031321
:1003B800BE003E08C4000B2B253049060319E52969
:1003C800E629F6294908BE00340884008317351C3D
:1003D80083133E0880000130B4070318B50A0030C3
:1003E800B5070B2BC2013A2A44088400831300087E
:1003F800C5000030C6000130BE003E08C4074508ED
:100408004604031D082A092A2B2A1B30C5008530FB
:10041800C6002B2A4608FF00450884000A128A11E4
:1004280000240A128A11BE00340884008317351C80
:1004380083133E0880000130C5070318C60A003040
:10044800C6070130B4070318B50A0030B5074608D7
:10045800FF00450884000A128A1100240A128A1132
:10046800003A031D382A392A0E2A0B2B3708BF00F9
:100478003608BE00B60A0319B70A3F08FF003E084F
:1004880084000A128A1100240A128A11C900C000C5
:10049800C1014108003A0319522A0B2B4008003ABF
:1004A8000319232B643A0319602A0D3A0319602AA9
:1004B8001A3A0319F8290B2B4408840083130008FF
:1004C800C700840A0008C8000230BE003E08C407FE
:1004D800C81F6F2A702A792A0330BE003E08C2045A
:1004E800C709C809C70A0319C80AC901C90A4908B6
:1004F800BE003E07123E840084300318013EFF0010
:100508000A128A1100240A128A11BF000A128A11DB
:1005180000240A128A11C00040084802031D962AC6
:100528003F0847020318992A9A2A9B2AA52A0130CC
:10053800BE003E08C90705304906031DA42AA52A9E
:100548007B2A420803390319AA2AAB2ABA2A2D3072
:10055800BE00340884008317351C83133E088000CE
:100568000130B4070318B50A0030B5074908BE00C2
:100578003E08C300022B0A30AE000030AF0043082B
:10058800BE003E07123E840084300318013EFF007F
:100598000A128A1100240A128A11A6000A128A1164
:1005A80000240A128A11A7004808A9004708A800D1
:1005B8000A128A152A230A128A118312031327089A
:1005C800B1002608B0000A128A15B1220A128A114F
:1005D800831203132E08303EBF003F08C9004908A4
:1005E800BE00340884008317351C83133E0880003E
:1005F8000130B4070318B50A0030B507FF30BE0054
:100608003E08C307430A031D0A2B0B2BBF2A3708D2
:10061800BF003608BE00B60A0319B70A3F08FF0034
:100628003E0884000A128A1100240A128A11C000A6
:100638004008C9004908031D222B232BE029340850
:1006480084008317351C831380010800FF30831250
:100658000313CA070318CB0AFF30CB0703104A0D50
:10066800CA004B0DCB004A08013E0A128A1599218F
:100678000A128A1183120313CC00CD014A080A1208
:100688008A1599210A128A1183120313CE00CF0109
:100698004E08CF00CE014C084E04EA004D084F0426
:1006A800EB006B08803AFF0083307F02031D5E2B4E
:1006B800E8306A020318612B622B682B831203133C
:1006C800EB1F672B682B832B503083120313B40066
:1006D8000030B5006730B6008430B7000A128A11BE
:1006E800D9210A128A11503083120313A000003056
:1006F800A1000A128A150A220A128A11D82B503030
:10070800B4000030B500C030B6008430B700023005
:10071800A0000030A1004B08A3004A08A2000A125A
:100728008A1543260A128A11831203132008013EF0
:10073800B80021080318013E003EB9000A30A000A5
:100748000030A1006B08A3006A08A2000A128A15EB
:1007580043260A128A11831203132108BB002008BA
:10076800BA000A30A0000030A1006B08A3006A0894
:10077800A2000A128A1558240A128A118312031336
:100788002108BD002008BC000A128A11D9210A12CA
:100798008A11503083120313A0000030A1000A12FE
:1007A8008A150A220A128A11080083120313A40167
:1007B800A501201CE02BE12BE72B2208A407031836
:1007C800A50A2308A50701300310A20DA30DFF3EBB
:1007D800031DE82B01300310A10CA00CFF3E031DE4
:1007E800EF2B20082104031DFA2BFB2BDD2B2508FA
:1007F800A1002408A0000800FF1B0A2C83137F18FF
:1008080083170008840A0319FF0A08007F087F3944
:100818008A000408840A0319FF0A8200013400349C
:100828000A34003464340034E83403341034273490
:100838000034103420343034403450346034703450
:10084800803490344F34633475347234723469347C
:100858006F34203475346E34203465347234723415
:100868006F347234203465346E3420346C3461341F
:10087800203469346E3474346534723470347234AC
:10088800653474346134633469346F346E342E34AF
:100898000A3400340A3443346934653472347234A7
:1008A80065342C3420344C343A34253464342C34B4
:1008B8004E343A34253464342C3454343A342534A0
:1008C80064340A3400340A34503472346F34643473
:1008D8007534633474346F3420346E346F34203498
:1008E80065346E3463346F346E3474347234613406
:1008F80064346F340A3400340A3443346934653458
:100908007234723465342C344C343A3425346434BB
:100918002C344E343A34253464342C3454343A3438
:10092800253464340A3400340A3445347334743456
:10093800613464346F343A34203445346E342034AE
:100948006534733470346534723461340A34003475
:10095800503472346F3464347534633474346F349F
:10096800203469346E3467347234653473346134D6
:1009780064346F340A3400340A34543450343A340A
:10098800203425346434203450343A3420343F340D
:10099800253464342C34253464340A340034503417
:1009A80072346F3464347534633474346F3420347F
:1009B800633461346E34633465346C346134643464
:1009C8006F3400340A344534733474346134643415
:1009D8006F343A34203441346334743469347634AF
:1009E8006F340A3400340A344C343A3425346434CD
:1009F8002C344E343A34253464342C3454343A3458
:100A0800253464340A34003456343D34253464348F
:100A18002E342534643456340A3400340A345034BD
:100A2800253464343D34253464340A34003428349D
:100A38006E3475346C346C342934003445343A34AB
:100A480025347334003483120313C501C601C2016F
:100A5800C301831203134208E03E84008313000895
:100A6800D03EBF00FF3003180030C0003F08C50764
:100A78000318C60A4008C6070130C2070318C30A8C
:100A88000030C3074308803AFF0080307F02031D0F
:100A98004F2D08304202031C522D532D2D2D0A30A4
:100AA80083120313A0000030A1004608A3004508E4
:100AB800A2000A128A1558240A128A1183160313EF
:100AC8006808D03E83120313BF00FF3003180030BC
:100AD800C00021084006031D732D20083F06031D92
:100AE800762D772D0A2E0A30BF003F08A000831606
:100AF800031360080A128A156A210A128A118316DA
:100B080003136107F03E83120313C0004008C400BA
:100B180044080A128A15AC260A128A118312031392
:100B28003708C6003608C50070084507BF007108B9
:100B38000318710A4607C00003304002E830031961
:100B48003F020318A82DA92D0A2E450A031DB12D11
:100B5800460A0319B02DB12D0A2E6E080319B52DBA
:100B6800B62DBF2DAC30A0008430A1000A128A1522
:100B78000A220A128A11013083120313C40244089C
:100B8800BF00C0013F08AE004008AF000A128A1536
:100B980015250A128A11831203134408BF00C001E5
:100BA8003F0883160313DE008312031340088316DD
:100BB8000313DF00710883160317D5007008D400EB
:100BC800831203134508F0070318F10A4608F107D2
:100BD8007108B5007008B4000A128A1515270A12A0
:100BE8008A11831203138515063083120313C1007B
:100BF8001330C000AD30BF00BF0B002EC00B002E5D
:100C0800C10B002E8312031385111C2E8516063086
:100C180083120313C1001330C000AD30BF00BF0BF7
:100C2800132EC00B132EC10B132E83120313851220
:100C380008000D308316031361060319242E252E90
:100C48002B2E0A306106031D2A2E2B2E492E7008E2
:100C580071040319302E312E3D2EE6308312031312
:100C6800A0008430A1000A128A150A220A128A11E9
:100C7800F52E983083120313A0008430A1000A12C5
:100C88008A150A220A128A11F52E4C306106031DB4
:100C98004E2E4F2E942EA43083120313B40000302E
:100CA800B500F730B6008430B70078088316031310
:100CB800A000A101200883120313B80083160313B0
:100CC800210883120313B900720883160313A200C4
:100CD800A301220883120313BA00831603132308FF
:100CE80083120313BB00831603135B0883120313D9
:100CF800BD00831603135A0883120313BC000A129B
:100D08008A11D9210A128A11A43083120313A00070
:100D18000030A1000A128A150A220A128A11F52E39
:100D280056306106031D992E9A2E9E2E83120313A8
:100D38001F15F52E3A3061020318A32EA42EF52EA6
:100D480030306102031CA92EAA2EF52E3A30620219
:100D58000318AF2EB02EF52E30306202031CB52ECC
:100D6800B62EF52E6108A000A101200883120313F6
:100D7800A00083160313210883120313A1000A306D
:100D8800A2000030A3000A128A11D9230A128A117C
:100D980083160313620883120313200783160313B1
:100DA800A2000030031801308312031321078316B1
:100DB8000313A3002208F03EC40023080318013ED1
:100DC800FD3EC500450883120313CB0083160313A9
:100DD800440883120313CA000A128A112A230A122A
:100DE8008A1108000A3083120313CA004A08A000B7
:100DF8008316031361080A128A156A210A128A11D6
:100E0800831603136207F03E83120313CB004B08CB
:100E1800E2000130E2026208CA004A07CB004B0830
:100E2800E20062080A128A1599210A128A118312AD
:100E380003136208013E0A128A1599210A128A11BF
:100E480083160313640883120313CA00CB014A08EC
:100E5800A0004B08A1006430A2000030A3000A12D1
:100E68008A11D9230A128A11831203132008CC008D
:100E78002108CD0083160313650883120313CE00DF
:100E8800CF014E08A0004F08A1000A30A200003090
:100E9800A3000A128A11D9230A128A118312031392
:100EA80020084C07D00021080318210A4D07D1005B
:100EB800831603136608831203135007D200003009
:100EC800031801305107D3005208303EE0005308A0
:100ED8000318013EEB3EE1006008CA004A08DE0044
:100EE8006108CA004A08DF005F08CA004A08A00073
:100EF80062080A128A1540220A128A118312031301
:100F08005E08CA004A08A0006208013E0A128A1553
:100F180040220A128A11543083120313B40000309D
:100F2800B5001230B6008530B7000230A00000309E
:100F3800A1006208CA00CB014A08A2004B08A3001E
:100F48000A128A1543260A128A11831203132008EB
:100F5800013EB80021080318013E003EB9006108AF
:100F6800BB006008BA000A128A11D9210A128A1134
:100F7800543083120313A0000030A1000A128A150E
:100F88000A220A128A1108004C30831603136106DC
:100F9800031DCF2FD02FD62F0A128A1570230A12BD
:100FA8008A11FE2F0A128A15D8210A128A11063AC6
:100FB800031DDF2FE02FE62F0A128A11F6260A12E8
:100FC8008A11FE2F4430831603136106031DED2F8B
:100FD800EE2FF32F83120313EE01EE0AFE2F673074
:100FE80083120313A0008430A1000A128A150A2272
:080FF8000A128A1108000134FD
:1012C40064008001840A04060319003404066329B7
:1012D40083120313A300A201231C71297229762906
:1012E4002008A1002108A2070310A00D0310A30CDD
:1012F4002308031D7E297F296E2922080800443013
:10130400831603136106031D882989298D298312F5
:101314000313EE019829263083120313A0008430AE
:10132400A1000A128A150A220A128A1508008312D9
:101334000313A1006400831603178C18A229A5299E
:10134400831203139C2983120313210883120317A6
:101354008D003F3083120313A00020088316031767
:101364008C050C14831203170C0808003F308316F5
:1013740003136006031DBF29C029C6290A128A1156
:101384001D260A128A15D7292B306006031DCB2986
:10139400CC29D2290A128A11C8270A128A15D729F8
:1013A4000A128A1581210A128A150800831203136E
:1013B400A201A20AA101E6290130A0002008A20787
:1013C4000130A0002008A1072208E03E84003A3042
:1013D400831300020318EF29F029F9292208E03EBB
:1013E4008400303000020318F829F929022A22085F
:1013F400E03E84003D300006031D012A022A082A2B
:1014040007302202031C072A082ADE2921080800C3
:1014140083120313A501A601A701A70A3A2A2508E6
:101424002007A3002108A2000318A20AA51F1B2A53
:10143400A203831203132208A4002408FF00230834
:1014440084000A128A1100240A128A1599001908C4
:10145400031D2D2A2E2A302AA701362A0130A5077A
:101464000318A60A0030A6070C1E392A3A2A362A7F
:101474002708031D3E2A3F2A112A0800831203135A
:10148400A200831603178C18482A492A432A831278
:1014940003132208831203178D00831203132008F9
:1014A400831203178C003F3083120313A100210819
:1014B400831603178C058312031303108B1F632AEF
:1014C400642A652A03148B13831603170C155530ED
:1014D4008D00AA308D008C140C1183120313031C8D
:1014E400742A752A762A8B17080083120313AC0119
:1014F400AD01AA01AB01A22A2A082B04031D832AE9
:10150400842A892A0130AC000030AD009C2A2D08C1
:10151400A1002C08A0002708A3002608A2000A1294
:101524008A11D9230A128A15831203132108AD00E4
:101534002008AC000130AA070318AB0A0030AB073F
:101544002B082902031DA82A2A0828020318AB2AFB
:10155400AC2A7E2A2D08A7002C08A60008008312B6
:1015640003132E082F040319B82AB92AE82AB30151
:10157400B30AC72A01300310AE0DAF0DFF3E031DA1
:10158400BD2A0130B2003208B307AF1FCA2ACB2AE2
:10159400BC2A2F083102031DD12A2E083002031C55
:1015A400D42AD52ADB2A2E08B0022F08031CB10343
:1015B400B10201300310AF0CAE0CFF3E031DDC2A58
:1015C4000130B302031DE72AE82ACB2A3108AF0011
:1015D4003008AE0008008316031755087106031D72
:1015E400F52A540870060319F82AF92A192B550804
:1015F400F1005408F000831603135F0883120313E9
:10160400AF00831603135E0883120313AE000A129D
:101614008A15B3240A128A15710883120313B500BC
:101624007008B4000A128A1515270A128A15831243
:1016340003136E0803191F2B202B292BD330A00072
:101644008430A1000A128A150A220A128A15080097
:1016540083120313AC01AD01260827040319332BAD
:10166400342B6B2BAB01AB0A422B01300310A60DBC
:10167400A70DFF3E031D382B0130AA002A08AB0733
:10168400A71F452B462B372B01300310AC0DAD0D96
:10169400FF3E031D472B27082902031D532B260851
:1016A4002802031C562B572B5E2B2608A80227085A
:1016B400031CA903A9022C1401300310A70CA60CC7
:1016C400FF3E031D5F2B0130AB02031D6A2B6B2B06
:1016D400462B2D08A7002C08A60008008316031724
:1016E4005608031D762B772BAC2B4E308312031335
:1016F400B4000030B5008030B6008430B7007808FC
:10170400CA00CB014A08B8004B08B9007208CC00E3
:10171400CD014C08BA004D08BB00831603135B08C7
:1017240083120313BD00831603135A088312031391
:10173400BC000A128A11D9210A128A154E3083126A
:101744000313A0000030A1000A128A150A220A120B
:101754008A15AD2BD601013083120313CA004A083F
:10176400F807F20183160313DA01DB010800831280
:101774000313A301A4018515023083120313A200ED
:101784000430A100B930A000A00BC62BA10BC62BBE
:10179400A20BC62BCD2B83120313851602308312A2
:1017A4000313A2000430A100B930A000A00BD82B71
:1017B400A10BD82BA20BD82BDF2B8312031385117B
:1017C400023083120313A2000430A100B930A00038
:1017D400A00BEA2BA10BEA2BA20BEA2BF12B831211
:1017E400031385120130A3070318A40A0030A407C9
:1017F40000302402033003192302031C022C032C9F
:10180400BD2B080083120313181D092C0A2C0B2C62
:101814001A08981C0E2C0F2C112C181218168C1E3A
:10182400142C152C3E2C1A08F4007308E03E840096
:101834007408831380000D3000060319222C232C16
:10184400372C7308E03E84000A30000603192B2C61
:101854002C2C372C093073020318312C322C372CE2
:101864000130F4007408F3073E2CF30101308316B1
:101874000317D2000030D300831203130C1F432C30
:10188400442C4F2C0C131E0883160317D800831600
:1018940003131E0883160317D70077088A007608F7
:1018A4008400750E8300FE0E7E0E0900831203135E
:1018B400A601A31F5E2C5F2C662CA209A309A20A11
:1018C4000319A30AA601A60AA11F692C6A2C6F2C6E
:1018D400A009A109A00A0319A10A200821040319D7
:1018E400742C752CA42CA501A50A832C013003109B
:1018F400A00DA10DFF3E031D792C0130A400240886
:10190400A507A11F862C872C782C21082302031DF0
:101914008D2C20082202031C902C912C972C20083B
:10192400A2022108031CA303A30201300310A10C8B
:10193400A00CFF3E031D982C0130A502031DA32C0F
:10194400A42C872C26080319A82CA92CAE2CA20998
:10195400A309A20A0319A30A2308A1002208A000CC
:1019640008000C3083120313B3000030B4003408B1
:10197400B1003308B0000310B00DB10D0310B00D69
:10198400B10D0310B00DB10D2F08803AB20031082B
:10199400803A3202031DD02C30082E02031CD32CB3
:1019A400D42C082D831203133408B1003308B0007B
:1019B4000310B00DB10D0310B00DB10D0310B00D37
:1019C400B10D30082E02AE003108031C310A2F027B
:1019D400AF003308CD3E84000230A6000030A700DB
:1019E4002F08A9002E08A8000A128A1577220A12C5
:1019F4008A1583120313260883130006B0003308E4
:101A0400CD3E840030088000B301B401FF3083125E
:101A14000313B3070318B40AFF30B407B41F132D1C
:101A2400142DB92C08000C3083120313B3000030BA
:101A3400B4003408B1003308B0000310B00DB10D88
:101A44000310B00DB10D0310B00DB10D2F08803A85
:101A5400B2003108803A3202031D322D30082E02C2
:101A6400031C352D362D6A2D831203133408B1005F
:101A74003308B0000310B00DB10D0310B00DB10D5B
:101A84000310B00DB10D30082E02AE003108031C56
:101A9400310A2F02AF003308CD3E84000230A60085
:101AA4000030A7002F08A9002E08A8000A128A15E2
:101AB40077220A128A15831203132608831300045B
:101AC400B0003308CD3E840030088000B301B40177
:101AD400FF3083120313B3070318B40AFF30B407AB
:101AE400B41F752D762D1B2D080083120313B3012B
:101AF4000C30B4000030B5003508B1003408B00033
:101B04000310B00DB10D0310B00DB10D0310B00DE5
:101B1400B10D2F08803AB2003108803A3202031D19
:101B2400952D30082E02031C982D992DCD2D83124E
:101B340003133508B1003408B0000310B00DB10D23
:101B44000310B00DB10D0310B00DB10D30082E020D
:101B5400AE003108031C310A2F02AF003408CD3E19
:101B640084000230A6000030A7002F08A9002E0828
:101B7400A8000A128A1577220A128A1583120313FF
:101B84002608831300050319C82DC92DCB2DB301D5
:101B9400B30AB401B501FF3083120313B407031869
:101BA400B50AFF30B507B51FD82DD92D7E2D3308C2
:101BB40008003F308316031360060319E22DE32D5A
:101BC400EF2D2B3060060319E82DE92DEF2D2D3074
:101BD4006006031DEE2DEF2DF52D0A128A15B8218E
:101BE4000A128A15422E3A3060020318FA2DFB2D90
:101BF4002E2E30306002031C002E012E2E2E831256
:101C040003136E080319072E082E282E9030B400F3
:101C14000130B5002230B6008530B700E0308316BD
:101C24000313C600460883120313B8000A128A116C
:101C3400D9210A128A15903083120313A0000130AF
:101C4400A1000A128A150A220A128A150A128A1196
:101C540027250A128A15422E83120313851606308D
:101C640083160313C8001330C700AD30C600C60B7B
:101C7400392EC70B392EC80B392E83120313851244
:101C8400080083120313A601A11F492E4A2E512EC8
:101C9400A009A109A00A0319A10AA601A60AA31F63
:101CA400542E552E5E2EA209A309A20A0319A30AD3
:101CB4000130A4002408A606A701A80120082104D5
:101CC4000319652E662E9D2EA501A50A742E0130DA
:101CD4000310A00DA10DFF3E031D6A2E0130A400C8
:101CE4002408A507A11F772E782E692E0130031032
:101CF400A70DA80DFF3E031D792E21082302031D05
:101D0400852E20082202031C882E892E902E20085E
:101D1400A2022108031CA303A30227140130031009
:101D2400A10CA00CFF3E031D912E0130A502031D42
:101D34009C2E9D2E782E26080319A12EA22EA72EA6
:101D4400A709A809A70A0319A80A2808A1002708AF
:101D5400A000080083120313BE000130BE023E0837
:101D6400B8003807B9003908BE003E08013E0A121F
:101D74008A1599210A128A1583120313B800B9012E
:101D84003E080A128A1599210A128A15831203132E
:101D9400BA00BB013A08BB00BA0138083A04BC00D7
:101DA40039083B04BD00BD1BD82ED92E082F3D0891
:101DB400803AFF0083307F02031DE22EE8303C02AC
:101DC4000318E52EE62E082F023083120313A00019
:101DD4000030A1003E08B800B9013808A200390853
:101DE400A3000A128A1543260A128A1583120313C2
:101DF4002108AF002008AE000A128A1577250A12BE
:101E04008A15003A0319072F082F0E2FFF3083126B
:101E14000313BC00FF30BD00831203133D08B70059
:101E24003C08B6000800643083120313A600003097
:101E3400A7003508A9003408A8000A128A152A2325
:101E44000A128A158312031326081C3E8400843068
:101E54000318013EFF000A128A1100240A128A158F
:101E640086000A30A6000030A7003508B100340807
:101E7400B0006430AE000030AF000A128A15B122FF
:101E84000A128A15831203132F08A9002E08A8002A
:101E94000A128A152A230A128A15831203132608A2
:101EA400060486003508B1003408B0006430AE0082
:101EB4000030AF000A128A15B1220A128A15831261
:101EC40003132F08B7002E08B6000A30AE00003006
:101ED400AF003708B1003608B0000A128A15B122E3
:101EE4000A128A15831203132E081C3E84008430C0
:101EF4000318013EFF000A128A1100240A128A15EF
:101F040088000800013083120313CA004A08F2074C
:101F1400700883160313DA070318DB0A7108DB075A
:101F2400F001F10183160317D401D50183160313BD
:101F3400C001C101831603134008CD3E84008313FE
:101F440080010130C0070318C10A0030C1074108ED
:101F5400803AFF0080307F02031DB22F0D30400213
:101F6400031CB52FB62F9C2F831203136E0803197D
:101F7400BC2FBD2FEF2FA030B4000030B500F730D8
:101F8400B6008430B7007808CA00CB014A08B8000C
:101F94004B08B9007208CC00CD014C08BA004D08BA
:101FA400BB00831603135B0883120313BD0083165F
:101FB40003135A0883120313BC000A128A11D9218D
:101FC4000A128A15A03083120313A0000030A10066
:101FD4000A128A150A220A128A1571088312031337
:101FE400B5007008B4000A128A1515270A128A155A
:0C1FF4000A128A15B9230A128A15080087
:02400E00793FF8
:00000001FF
