:020000040000FA
:060000000A128A11122809
:10000800FE00030EF1000408F2000A08F300831250
:1000180003137F08F4000A168A115E280A128A114F
:100028001528F901FA018313E6308400EE300A1628
:100038008A15E2240A128A11831790308400B4309A
:100048000A168A15E2240A128A1183010A168A15E9
:10005800F22E8312031344088039C9004908CE00E0
:100068004408C9004907CA004A08D400C31F3D28EC
:100078003E283F2854145408031943284428532879
:10008800540A031D4828492851280030C40000306C
:10009800C3000030C2000030C100C3175B28003025
:1000A800C4000030C3000030C2000030C10048085E
:1000B8008039C9004908CE064808C9004907CA005E
:1000C8004A08D300C71F69286A286B2853145308A5
:1000D80003196F2870287F28530A031D7428752870
:1000E8007D280030C8000030C7000030C60000304E
:1000F800C500C71787280030C8000030C700003087
:10010800C6000030C500530803198B288C28912895
:100118005408031D902891289A280030C400003004
:10012800C3000030C2000030C1008D2B4108C90057
:100138004908A00047080A168A155C250A128A1180
:10014800831203132108DA002008D9005908C900CE
:10015800CA01CB01CC014C08D2004B08D1004A0897
:10016800D0004908CF005A08C900CA01CB01CC0108
:100178004C08D8004B08D7004A08D6004908D500D3
:100188004208C9004908A00046080A168A155C25D5
:100198000A128A11831203132108DA002008D900F1
:1001A8005908C900CA01CB01CC014908CF074A0840
:1001B80003110318013E0319E228D0074B08031165
:1001C8000318013E0319E928D1074C080311031845
:1001D800013E0319F028D2075A08C900CA01CB0109
:1001E800CC014908D5074A0803110318013E031931
:1001F800FE28D6074B0803110318013E03190529E9
:10020800D7074C0803110318013E03190C29D80716
:100218004308C9004908A00045080A168A155C2544
:100228000A128A11831203132108DA002008D90060
:100238005908C900CA01CB01CC014908CF074A08AF
:1002480003110318013E03192A29D0074B0803118B
:100258000318013E03193129D1074C08031103186B
:10026800013E03193829D2075A08C900CA01CB012F
:10027800CC014908D5074A0803110318013E0319A0
:100288004629D6074B0803110318013E03194D29C7
:10029800D7074C0803110318013E03195429D8073E
:1002A8000830C9000310CF0DD00DD10DD20DC90BE8
:1002B80056294208C9004908A00045080A168A15A7
:1002C8005C250A128A11831203132108DA00200818
:1002D800D9005908C9005A08CA00CB01CC014908FD
:1002E800CF074A0803110318013E03197C29D007D8
:1002F8004B0803110318013E03198329D1074C0841
:1003080003110318013E03198A29D2074108C900BD
:100318004908A00046080A168A155C250A128A119F
:10032800831203132108DA002008D9005908C900EC
:100338005A08CA00CB01CC014908CF074A08031163
:100348000318013E0319A929D0074B080311031804
:10035800013E0319B029D1074C0803110318013EC7
:100368000319B729D2070830C9000310CF0DD00DE3
:10037800D10DD20DC90BB9294108C9004908A000FF
:1003880045080A168A155C250A128A118312031376
:100398002108DA002008D9005908C9005A08CA00FB
:1003A800CB01CC014908CF074A0803110318013EC5
:1003B8000319DF29D0074B0803110318013E03195D
:1003C800E629D1074C0803110318013E0319ED294A
:1003D800D2074208C9004908A00047080A168A152A
:1003E8005C250A128A11831203132108DA002008F7
:1003F800D9005908C9005A08CA00CB01CC014908DC
:10040800D5074A0803110318013E03190C2AD60719
:100418004B0803110318013E0319132AD7074C0888
:1004280003110318013E03191A2AD8074308C90003
:100438004908A00046080A168A155C250A128A117E
:10044800831203132108DA002008D9005908C900CB
:100458005A08CA00CB01CC014908D5074A0803113C
:100468000318013E0319392AD6074B08031103184C
:10047800013E0319402AD7074C0803110318013E0F
:100488000319472AD8074308C9004908A0004708A4
:100498000A168A155C250A128A1183120313210889
:1004A800DA002008D9005908C9005A08CA00CB0147
:1004B800CC0108300310C90DCA0DCB0DCC0DFF3E81
:1004C800031D5E2A4908D5074A0803110318013E8F
:1004D80003196F2AD6074B0803110318013E0319A5
:1004E800762AD7074C0803110318013E03197D2A01
:1004F800D8074F08C9005008CA005108CB00520855
:10050800CC0018300310CC0CCB0CCA0CC90CFF3E25
:10051800031D862A4908D5074A0803110318013E16
:100528000319972AD6074B0803110318013E03192C
:100538009E2AD7074C0803110318013E0319A52A60
:10054800D8070830C9000310CF0DD00DD10DD20D3A
:10055800C90BA72A54085307C900CA01CA0D49087C
:10056800823ED9004A080318013EFF3EDA00D92A24
:100578000130C9000310D50DD60DD70DD80DC90B04
:10058800BE2AD21FC82AC92ACA2A55140130C9004E
:100598000310CF0DD00DD10DD20DC90BCC2AFF30D1
:1005A800D9070318DA0AFF30DA07D71FDC2ADD2A51
:1005B800BC2AD301D21FE12AE22AFE2AFF304F05C6
:1005C800C900FF305005CA00FF305105CB007F300D
:1005D8005205CC004C084B044A0449040319F52A77
:1005E800F62AF92AD301D30AFE2A551CFC2AFD2A29
:1005F800FE2AF62A53080319022B032B342B013049
:10060800D507003003180130D60700300318013031
:10061800D707003003180130D807581C142B152BA6
:10062800342B5508C9005608CA005708CB0058088B
:10063800CC000130CD004C0DCC0CCB0CCA0CC90C35
:10064800CD0B1F2B4C08D8004B08D7004A08D60002
:100658004908D5000130D9070318DA0A0030DA074B
:100668005A08803AFF0080307F02031D3D2BFF307F
:100678005902031C402B412B4C2B7F308312031350
:10068800D8008030D7000030D6000030D500812B4C
:10069800831203135A08803AFF0080307F02031D3B
:1006A800572B0130590203185A2B5B2B672B00304C
:1006B80083120313D8000030D7000030D600003072
:1006C800D500CE01812B831203135908C9004908AC
:1006D800D400FF30D505FF30D6057F30D705003070
:1006E800D805541C782B792B7A2BD7175408C900B6
:1006F8000310490CCA004A08D8004E08C900490826
:10070800D8045808C4005708C3005608C200550842
:10071800C1000800831203135E088039E3006308F0
:10072800EB005E08E3006307E4006408ED00DD1FEA
:100738009E2B9F2BA02B6D146D080319A42BA52BA2
:10074800B52B6D0A031DA92BAA2BB22B0030DE0096
:100758000030DD000030DC000030DB00DD17DE019A
:10076800BD2B0030DE000030DD000030DC00003042
:10077800DB0062088039E3006308EC006C086B0654
:100788000319C72BC82BC92B6B176208E300630733
:10079800E4006408EC00E11FD22BD32BD42B6C149B
:1007A8006C080319D82BD92BE92B6C0A031DDD2BF8
:1007B800DE2BE62B0030E2000030E1000030E000E4
:1007C8000030DF00E117E201F12B0030E2000030D9
:1007D800E1000030E0000030DF006D086C02031813
:1007E800F62BF72B3B2C6B1FFA2BFB2BFF2B8030A8
:1007F800E3006308EB066D08E3006308EE006C088D
:10080800E3006308ED006E08E3006308EC005B0892
:10081800E3006308EE005F08E3006308DB006E088E
:10082800E3006308DF005C08E3006308EE0060088B
:10083800E3006308DC006E08E3006308E0005D087D
:10084800E3006308EE006108E3006308DD006E085A
:10085800E3006308E1005E08E3006308EE00620855
:10086800E3006308DE006E08E3006308E200EE01BF
:100878006C08E300E4016408E6006D086302E50023
:10088800031CE6036608803AFF0080307F02031DE0
:100898004F2C1A306502031C522C532C902C8312B7
:1008A80003135E085D045C045B04031D5C2C5E2C72
:1008B80001305F2C0030E3006308EE000030DE00FA
:1008C8000030DD000030DC000030DB006C08E300A5
:1008D8006308ED00982C6E1C722C732C7C2C6E080F
:1008E800E3000310630C0138E4006408EE007E2C7A
:1008F8000310EE0C5B1C812C822C832CEE1701302C
:10090800E3005E0DDE0CDD0CDC0CDB0CE30B852C50
:100918000130E3006308ED07831203136C086D02CE
:10092800031C972C982C6F2C6B1B9B2C9C2CE72C56
:100938006D08031DA02CA12CAA2C0030DE0000306D
:10094800DD000030DC000030DB00152E5F08DB071F
:10095800600803110318013E0319B32CDC07610872
:1009680003110318013E0319BA2CDD0762080311AD
:100978000318013E0319C12CDE075E1CC42CC52CCC
:100988009B2D6E1CC82CC92CD22C6E08E3000310BA
:10099800630C0138E4006408EE00D42C0310EE0C5C
:1009A8005B1CD72CD82CD92CEE170130E3005E0D38
:1009B800DE0CDD0CDC0CDB0CE30BDB2C0130E30084
:1009C8006308ED079B2D5E08803AFF006208803AB5
:1009D8007F02031DF92C61085D02031DF92C6008D4
:1009E8005C02031DF92C5F085B020318FC2CFD2C2C
:1009F800552DFF30E300FF30E400FF30E500FF3005
:100A0800E6005F08E7006008E8006108E90062089E
:100A1800EA005B08E7025C08031C5C0F142D152D27
:100A2800E8025D08031C5D0F1A2D1B2DE9025E0804
:100A3800031C5E0F202D212DEA026708E3076808D2
:100A48000318680F282D292DE40769080318690F72
:100A58002E2D2F2DE5076A0803186A0AE60766088F
:100A6800DE006508DD006408DC006308DB00803018
:100A7800E3006308EB06EE09EE0A6E08031D452D38
:100A8800462D632D0130DB07003003180130DC07E9
:100A9800003003180130DD07003003180130DE078D
:100AA800632D5F08DB026008031C600FDC0261082D
:100AB800031C610FDD026208031C620FDE025E0880
:100AC8005D045C045B04031D6A2D6B2D972D6E0875
:100AD800031D6F2D702D972D0030DE000030DD00D6
:100AE8000030DC000030DB00152E0130E30003107D
:100AF800DB0DDC0DDD0DDE0DE30B7B2DEE1F852DF3
:100B0800862D872D5B146E1C8A2D8B2D8E2D03143C
:100B1800EE0D902D0310EE0D6D080319942D952DF3
:100B2800972D0130ED02DD1F9A2D9B2D792DEC01BB
:100B3800EE1F9F2DA02DAE2D6E087F390319A52D10
:100B4800A62DA92DEC01EC0AAE2D5B1CAC2DAD2D0C
:100B5800AE2DA62D6C080319B22DB32DE72D01304B
:100B6800DB07003003180130DC07003003180130C0
:100B7800DD07003003180130DE075E1CC42DC52DCB
:100B8800E72D5B08E3005C08E4005D08E5005E080B
:100B9800E6000130E700660DE60CE50CE40CE30C1A
:100BA800E70BCF2D6608DE006508DD006408DC0071
:100BB8006308DB006D0A0319E22DE32DE72D0130F0
:100BC800E3006308ED076D0A0319EB2DEC2DF12DF9
:100BD8006D08031DF02DF12DFF2D0030DE000030D3
:100BE800DD000030DC000030DB006D08031DFD2D4A
:100BF800FE2DFF2DEB016D1C022E032E052EDD1799
:100C0800092E7F30E3006308DD056D08E30003105B
:100C1800630CE4006408DE00EB1F132E142E152E5F
:100C2800DE1708008312031327088039A800280854
:100C3800B1002708A8002807A9002908B800A61F9E
:100C4800262E272E282E3814380803192C2E2D2E40
:100C58003D2E380A031D312E322E3A2E0030A700C1
:100C68000030A6000030A5000030A400A617A70198
:100C7800452E0030A7000030A6000030A500003047
:100C8800A40023088039A8002808B1062308A80072
:100C98002807A9002908B900A21F532E542E552E43
:100CA800391439080319592E5A2E6A2E390A031D88
:100CB8005E2E5F2E672E0030A3000030A2000030A9
:100CC800A1000030A000A217A301722E0030A300DB
:100CD8000030A2000030A1000030A0002308220448
:100CE80021042004031D792E7A2E932E0030A700AC
:100CF8000030A6000030A5000030A4008030A60413
:100D08007F30A7043108A8002808A7042708A300F3
:100D18002608A2002508A1002408A000F22F380800
:100D2800031D972E982EA12E0030A3000030A2009C
:100D38000030A1000030A000F22F3808A800A90157
:100D48002908AB0039082802AA00031CAB032A08AB
:100D58007F3EB2002B080318013E003EB30027086F
:100D6800B0002608AF002508AE002408AD0000300A
:100D7800A7000030A6000030A5000030A400003015
:100D8800B7000030B6000030B5000030B400B9013B
:100D9800172F39080319D12ED22EF22E0130A800B0
:100DA8000310AD0DAE0DAF0DB00DA80BD42E013054
:100DB800A8000310A40DA50DA60DA70DA80BDD2EE8
:100DC800B71FE72EE82EE92E24140130A8000310DF
:100DD800B40DB50DB60DB70DA80BEB2E23083002D8
:100DE800031D002F22082F02031D002F21082E02A9
:100DF800031D002F20082D02031C032F042F132F7F
:100E080037172008AD022108031C210FAE02220863
:100E1800031C220FAF022308031C230FB00201306A
:100E2800A8002808B9071A303902031C1C2F1D2FE7
:100E3800CD2E30082F042E042D040319242F252F1E
:100E4800442F3414442F0130A8000310A40DA50D1D
:100E5800A60DA70DA80B292FB71F332F342F352F19
:100E680024140130A8000310B40DB50DB60DB70D4C
:100E7800A80B372FFF30B2070318B30AFF30B307A8
:100E8800A61F472F482F272FB901B71F4C2F4D2FCB
:100E9800692FFF303405A800FF303505A900FF3061
:100EA8003605AA007F303705AB002B082A04290431
:100EB80028040319602F612F642FB901B90A692F1B
:100EC800241C672F682F692F612F390803196D2F8C
:100ED8006E2F9F2F0130A407003003180130A5079B
:100EE800003003180130A607003003180130A707A7
:100EF800271C7F2F802F9F2F2408A8002508A900D2
:100F08002608AA002708AB000130AC002B0DAB0C5B
:100F1800AA0CA90CA80CAC0B8A2F2B08A7002A082E
:100F2800A6002908A5002808A4000130B207031864
:100F3800B30A0030B3073308803AFF0080307F02DD
:100F4800031DA82FFF303202031CAB2FAC2FBA2F82
:100F5800FF3083120313B2000030B3000030A70043
:100F68000030A6000030A5000030A400831203134F
:100F78003308803AFF0080307F02031DC52F0130FF
:100F880032020318C82FC92FD62F83120313B201B8
:100F9800B3010030A7000030A6000030A5000030E3
:100FA800A400B101831203133208A8002808B8006E
:100FB800381CDF2FE02FE22FA617E62F7F30A8007E
:100FC8002808A6053808A8000310280CA900290835
:100FD800A7003108A8002808A7048A2E0800831251
:100FE800031323082204210420040319FC2FFD2FD6
:080FF800FF2F8030A306080062
:1010020083120313A300A201231C082809280D2818
:101012002008A1002108A2070310A00D0310A30CB1
:101022002308031D15281628052822080800831600
:1010320003132508A70001300310A70DFF3E031D6F
:101042001D280310270D240784000A168A11002088
:101052000A128A15A8000A168A1100200A128A1595
:10106200A9000A168A1100200A128A15AA000A1675
:101072008A1100200A128A15AB002B08AF002A0839
:10108200AE002908AD002808AC00E328FF30A50710
:101092000318A60AFF30A6072508A700013003108F
:1010A200A70DFF3E031D50280310270D24078400BF
:1010B2000A168A1100200A128A15A8000A168A1135
:1010C20000200A128A15A9000A168A1100200A12A3
:1010D2008A15AA000A168A1100200A128A15AB0084
:1010E2002B0883120313DE00831603132A088312CC
:1010F2000313DD0083160313290883120313DC0094
:1011020083160313280883120313DB0083160313C9
:101112002F0883120313C400831603132E088312AD
:101122000313C300831603132D0883120313C20093
:10113200831603132C0883120313C10083160313AF
:10114200230883120313C800831603132208831291
:101152000313C70083160313210883120313C60067
:1011620083160313200883120313C5000A128A117F
:101172002D200A128A15831203134408E200430841
:10118200E1004208E0004108DF000A128A118E23C2
:101192000A128A15831203135E0883160313AF0023
:1011A200831203135D0883160313AE008312031325
:1011B2005C0883160313AD00831203135B088316C6
:1011C2000313AC0025082604031DE828E928472854
:1011D2002F08A3002E08A2002D08A1002C08A000B1
:1011E200080083160313D501470883120313B100C5
:1011F20083160313460883120313B00083160313E6
:10120200450883120313AF008316031344088312A5
:101212000313AE000030B5000030B4000030B3005C
:101222000030B2000A168A15A2260A128A15031C79
:101232001B291C295629003083120313A3000030F6
:10124200A2000030A1000030A000831603134B0857
:1012520083120313A700831603134A08831203138E
:10126200A60083160313490883120313A5008316ED
:101272000313480883120313A4000A168A11642276
:101282000A128A15031C462947294B292130F900E5
:101292000030FA00003083160313C7000030C60086
:1012A2000030C5000030C4002C2B831603134B08FA
:1012B20083120313B100831603134A088312031324
:1012C200B00083160313490883120313AF00831679
:1012D2000313480883120313AE000030B500003038
:1012E200B4000030B3000030B2000A168A15A226FC
:1012F2000A128A15031C7E297F298A293F30831608
:101302000313C7008030C6000030C5000030C4009F
:101312002C2B83160313470883120313A30083168F
:101322000313460883120313A2008316031345080E
:1013320083120313A10083160313440883120313B9
:10134200A0000030A7000030A6000030A500003049
:10135200A4000A168A1164220A128A150318B229F5
:10136200B329782A831603134B0883120313B1009F
:10137200831603134A0883120313B0008316031360
:10138200490883120313AF0083160313480883121C
:101392000313AE000A168A11B0200A128A158312AC
:1013A2000313310883160313D90083120313300881
:1013B20083160313D800831203132F088316031313
:1013C200D700831203132E0883160313D60059087D
:1013D20083120313A3008316031358088312031303
:1013E200A20083160313570883120313A100831666
:1013F2000313560883120313A00000300A168A1141
:1014020008230A128A15831203132308B100220843
:10141200B0002108AF002008AE00831603134B086A
:1014220083120313B500831603134A0883120313AE
:10143200B40083160313490883120313B3008316FF
:101442000313480883120313B2000A168A15A22650
:101452000A128A1503182E2A2F2A3E2A2130F90051
:101462000030FA00003083160313C7000030C600B4
:101472000030C5000030C4002C2B8316031356081D
:101482000139CC004C08D500470883120313A3008E
:1014920083160313460883120313A2008316031351
:1014A200450883120313A100831603134408831211
:1014B2000313A0000A128A11F3270A128A15831253
:1014C2000313230883160313C7008312031322088E
:1014D20083160313C6008312031321088316031312
:1014E200C50083120313200883160313C400831656
:1014F20003134708B3004608B2004508B100440888
:10150200B0000A168A1192260A128A15831603134C
:101512003308D0003208CF003108CE003008CD00A9
:101522004B0883120313C400831603134A08831261
:101532000313C30083160313490883120313C20063
:1015420083160313480883120313C100831603137F
:10155200500883120313C800831603134F08831223
:101562000313C700831603134E0883120313C60026
:10157200831603134D0883120313C5000A128A113E
:101582002D200A128A1583120313440883160313AB
:10159200D40083120313430883160313D300831268
:1015A2000313420883160313D20083120313410864
:1015B20083160313D1005408BB005308BA00520823
:1015C200B9005108B8000A128A1589250A128A152B
:1015D200831603133B08C7003A08C6003908C50042
:1015E2003808C40055080319F72AF82A2C2B470893
:1015F20083120313A30083160313460883120313F3
:10160200A20083160313450883120313A100831655
:101612000313440883120313A0000A128A11F3274A
:101622000A128A1583120313230883160313C700B1
:1016320083120313220883160313C60083120313B3
:10164200210883160313C50083120313200883168F
:101652000313C4002C2B080083160317BE01BF011D
:10166200C201C30183160313E801E901FF308316A7
:101672000317B400FF30B5008D2B83160317BE018C
:10168200BF01C001C101831603174008903E8400C8
:1016920042080A168A1516250A128A1583170006A9
:1016A200031D542B552B5E2B013083160317BE07E7
:1016B2000318BF0A0030BF07622B83160317BE014F
:1016C200BF010130C2070318C30A0030C30701304B
:1016D200C0070318C10A0030C1074108803AFF0061
:1016E20080307F02031D772B08304002031C7A2BC7
:1016F2007B2B442B831603174208033EC200430888
:101702000318013E003EC300013083160313E807AD
:101712000318E90A0030E907831603173F08803AE5
:10172200FF0080307F02031D982B08303E02031811
:101732009B2B9C2BAB2B831603174308803AFF008D
:1017420080307F02031DA72B8F304202031CAA2B7D
:10175200AB2B3E2BFF3083160313E8070318E90A6D
:10176200FF30E9070830831603173E063F04031DC6
:10177200BB2BBC2B7C2D8316031368088312031327
:10178200A00083160313690883120313A10000301B
:10179200A11BFF30A200A30001300A168A11082300
:1017A2000A128A1583120313230883160317B9003A
:1017B20083120313220883160317B800831203133C
:1017C200210883160317B700831203132008831618
:1017D2000317B600390883160313CB0083160317C9
:1017E200380883160313CA008316031737088316B3
:1017F2000313C90083160317360883160313C800A0
:101802004030C7000030C6000030C5000030C400C0
:101812000A128A15F2200A128A1583160313470840
:1018220083160317BD008316031346088316031796
:10183200BC0083160313450883160317BB008316E7
:101842000313440883160317BA003D0883120313D7
:10185200B100831603173C0883120313B0008316EA
:1018620003173B0883120313AF00831603173A08CA
:1018720083120313AE000A168A11B0200A128A15C7
:10188200831603136608831203132E0583160313AC
:10189200DC006708831203132F0583160313DD0090
:1018A2005C085D04031D562C572C7C2D0B30DC008C
:1018B2005C0883120313A0008316031368080A123C
:1018C2008A1501200A128A15083E0A168A1516255B
:1018D2000A128A15D03E83120313A400FF300318A4
:1018E2000030A5006430A6000030A7000A168A1551
:1018F20035250A128A158312031325088316031746
:10190200B50083120313240883160317B4000B30A7
:1019120083160313DC005C0883120313A0008316F2
:10192200031368080A128A1501200A128A15093E51
:101932000A168A1516250A128A15D03E8312031337
:10194200A400FF3003180030A5000A30A6000030C2
:10195200A7000A168A1535250A128A15831203135F
:10196200240883160317B4070318B50A8312031356
:10197200250883160317B5070B3083160313DC0003
:101982005C0883120313A0008316031368080A126B
:101992008A1501200A128A150A3E0A168A15162588
:1019A2000A128A15D03E83160313DD00FF30031896
:1019B2000030DE005D0883160317B4070318B50A6A
:1019C200831603135E0883160317B50783160313E2
:1019D200680883120313A000831603136908831295
:1019E2000313A1000030A11BFF30A200A3000130AD
:1019F2000A168A1108230A128A158312031323086E
:101A020083160317B90083120313220883160317E0
:101A1200B80083120313210883160317B700831239
:101A22000313200883160317B6003908831603131D
:101A3200CB0083160317380883160313CA008316D4
:101A42000317370883160313C900831603173608D2
:101A520083160313C8004030C7000030C6000030B0
:101A6200C5000030C4000A128A15F2200A128A1533
:101A720083160313470883160317BD008316031347
:101A8200460883160317BC00831603134508831602
:101A92000317BB0083160313440883160317BA0007
:101AA2003D0883120313B100831603173C08831207
:101AB2000313B000831603173B0883120313AF000E
:101AC200831603173A0883120313AE000A168A110B
:101AD200B0200A128A1583160313660883120313B1
:101AE2002E0483160313E6006708831203132F04E0
:101AF20083160313E70083160317350883160313AF
:101B0200DB0083160317340883160313DA00080078
:101B1200831603133B0883120313B10083160313C6
:101B22003A0883120313B000831603133908831291
:101B32000313AF0083160313380883120313AE0096
:101B42000030B5000030B4000030B3000030B20005
:101B52000A168A15A2260A128A15031CB12DB22D65
:101B6200BD2D3F3083160313BB008030BA00003016
:101B7200B9000030B800FF2F443083120313A300D2
:101B82003130A2007230A1001830A0008316031376
:101B92003B0883120313A700831603133A08831228
:101BA2000313A60083160313390883120313A50037
:101BB20083160313380883120313A4000A168A112A
:101BC20064220A128A150318E72DE82DF72D223018
:101BD200F9000030FA007F3083160313BB007F3018
:101BE200BA00FF30B900FF30B800FF2F831603138D
:101BF2003B0883120313A300831603133A088312CC
:101C02000313A20083160313390883120313A100DE
:101C120083160313380883120313A000C430A700ED
:101C22003A30A6004830A5008730A4000A168A116F
:101C320064220A128A1503181F2E202E2F2E2230FC
:101C4200F9000030FA00003083160313BB000030A5
:101C5200BA000030B9000030B800FF2F831603131A
:101C62003B0883120313A300831603133A0883125B
:101C72000313A20083160313390883120313A1006E
:101C820083160313380883120313A0000030A70041
:101C92000030A6000030A5000030A4000A168A1108
:101CA20064220A128A15031C572E592E01305A2E0D
:101CB200003083160313BC003C08C3004308031919
:101CC200632E642E972E3B0883120313A300831600
:101CD20003133A0883120313A2008316031339086D
:101CE20083120313A100831603133808831203130C
:101CF200A0000A128A11F3270A128A15831203130B
:101D0200230883160313BB008312031322088316CE
:101D12000313BA0083120313210883160313B900B5
:101D220083120313200883160313B8003F30831273
:101D32000313C400B830C300AA30C2003B30C10054
:101D4200831603133B0883120313C800831603137D
:101D52003A0883120313C700831603133908831248
:101D62000313C60083160313380883120313C50036
:101D72000A128A112D200A128A15831203134408AB
:101D820083160313BB008312031343088316031342
:101D9200BA0083120313420883160313B900831295
:101DA2000313410883160313B8003B08A3003A0843
:101DB200A2003908A1003808A0000A168A115F257E
:101DC2000A128A15831603132308C0002208BF00D3
:101DD2002108BE002008BD00400883120313B10091
:101DE200831603133F0883120313B00083160313F1
:101DF2003E0883120313AF00831603133D088312B8
:101E02000313AE000A168A11B0200A128A15831231
:101E120003132F0883160313C200831203132E0821
:101E220083160313C100410883120313A000831613
:101E32000313420883120313A1000030A11BFF30D9
:101E4200A200A30001300A168A1108230A128A1579
:101E520083120313230883160313A30083120313AD
:101E6200220883160313A200831203132108831688
:101E72000313A10083120313200883160313A00087
:101E82003B08A7003A08A6003908A5003808A400B4
:101E92000A168A1552260A128A1583160313230874
:101EA200BB002208BA002108B9002008B8003B088C
:101EB200A3003A08A2003908A1003808A0000B309C
:101EC200BC003C08A4000930A5000030A6000A129C
:101ED2008A1518200A128A15831603132308B300E1
:101EE2002208B2002108B1002008B0004208B50063
:101EF2004108B4000A168A11C4230A128A158316ED
:101F020003133308BB003208BA003108B9003008A5
:101F1200B800430803198E2F8F2FFF2F3B0883121F
:101F22000313B100831603133A0883120313B0009C
:101F320083160313390883120313AF0083160313A6
:101F4200380883120313AE007F30B5007F30B4002F
:101F5200FF30B300FF30B2000A168A15A2260A1219
:101F62008A15031CB52FB62FC12F00308316031319
:101F7200BB000030BA000030B9000030B800FF2FBB
:101F8200831603133B0883120313A3008316031360
:101F92003A0883120313A20083160313390883122B
:101FA2000313A10083160313380883120313A0003E
:101FB2003F30A7008030A6000030A5000030A4000A
:101FC2000A128A1116260A128A158312031323088B
:101FD20083160313BB008312031322088316031311
:101FE200BA0083120313210883160313B900831264
:101FF2000313200883160313B800FF2F08001030C4
:102002008A000408840A820700343F3406345B34B1
:102012004F3466346D347D3407347F346F3400348A
:10202200003480343F341834723431343F34F03465
:10203200FD3475343E344734583463343D345834B7
:1020420095341D343C348234C434AE343A34A8342A
:10205200783421343934EF34933480343734A03433
:102062009234A7343534463456341534343400347B
:10207200003400340034C434FF347F343F348034BD
:10208200EF34FF34BE349034E134A9343E34EC34BE
:1020920082347634BE348234AD342B343E340E3442
:1020A2003C34C334BD348734D13413343D344134E9
:0620B2007834D334BB3486
:1020BC00F701F8010130F5000030F600013083160D
:1020CC000317B2000030B3009D28831203138C1E3B
:1020DC00702871289D280D301A0603197628772848
:1020EC009B280A301A0603197C287D289B2878081F
:1020FC00803AFF0080307F02031D8628093077026A
:10210C00031889288A289B28831203131A08F000C5
:10211C007708903E84007008831780000130F70721
:10212C000318F80A0030F8079D28F501F601750828
:10213C007604031DA228A3286B28740883120313AA
:10214C00FF0073088A0072088400710E8300FE0E73
:10215C007E0E0900031083120313300D310DB200F3
:10216C003208B8003808031DBC28BD28C62800302A
:10217C00B1000030B0000030AF000030AE002B29B1
:10218C002E08B2002F08B3003008B4003108B50097
:10219C001F300310B50CB40CB30CB20CFF3E031D76
:1021AC00CF283208B6003608B700B017FF30AE059E
:1021BC00FF30AF05FF30B0050030B1059630B802E6
:1021CC00B81FE928EA2804293808803A973E0318F2
:1021DC00F028F128F228BD2801300310B10CB00C06
:1021EC00AF0CAE0CFF3E031DF3280130B2003208D9
:1021FC00B807031D02290329F2281B2920303802B5
:10220C00031C09290A291629BD280130B200031024
:10221C00AE0DAF0DB00DB10DB20B0D290130B802E2
:10222C003808031D1A291B290B29370803191F29E4
:10223C0020292B29AE09AF09B009B109AE0A03193F
:10224C00AF0A0319B00A0319B10A08008316031365
:10225C006B086D06031D34296A086C0603193729AF
:10226C003829C4296B08ED006A08EC0083160317A3
:10227C00300883120313A00083160317310883124E
:10228C000313A1000030A11BFF30A200A3000130FA
:10229C000A168A1108230A168A11831203132308BB
:1022AC0083160313DD008312031322088316031312
:1022BC00DC0083120313210883160313DB00831243
:1022CC000313200883160313DA005D08CB005C08A7
:1022DC00CA005B08C9005A08C8004030C70000306B
:1022EC00C6000030C5000030C4000A128A15F22066
:1022FC000A168A11831603134708E1004608E0000A
:10230C004508DF004408DE00610883120313B100A6
:10231C0083160313600883120313B0008316031390
:10232C005F0883120313AF00831603135E08831236
:10233C000313AE000A168A11B0200A168A118316EE
:10234C0003136608831203132E0683160313E60089
:10235C006708831203132F0683160313E7006D0817
:10236C0083120313A900831603136C08831203133F
:10237C00A8000A168A11C5210A168A1108000A300B
:10238C0083120313A0000030A1002908A300280821
:10239C00A2000A168A15C1250A168A11003083126A
:1023AC00031321026330031920020318DE29DF29ED
:1023BC00202A0A30A0000030A1002908A300280818
:1023CC00A2000A168A1585250A168A110A3083126C
:1023DC000313A0000030A1002908A3002808A200C4
:1023EC000A168A15C1250A168A11831203132108AD
:1023FC00A9002008A8000A30A0000030A10029087C
:10240C00A3002808A2000A168A1585250A168A1127
:10241C000030831203132102053003192002031C20
:10242C00182A192A332A0130A8070318A90A0030E0
:10243C00A907332A0A30A0000030A1002908A30004
:10244C002808A2000A168A15C1250A168A118312B9
:10245C0003132108A9002008A8000A30A0000030AE
:10246C00A1002908A3002808A2000A168A15C12574
:10247C000A168A11831203132008013E84000A16DF
:10248C008A1100200A168A1186000A30A00000303A
:10249C00A1002908A3002808A2000A168A15852580
:1024AC000A168A11831203132008013E84000A16AF
:1024BC008A1100200A168A11880008000030831245
:1024CC0003132005A80000302105A9008030220547
:1024DC00AA007F302305AB002B082A04290428040A
:1024EC00031D792A7A2A822A0030A3000030A20028
:1024FC000030A1000030A00000302405A8000030FE
:10250C002505A90080302605AA007F302705AB00E1
:10251C002B082A0429042804031D952A962A9E2A8E
:10252C000030A7000030A6000030A5000030A40049
:10253C00A31FA12AA22AC62A0030A8000030A90095
:10254C000030AA008030AB002008A8022108031C30
:10255C00210FB12AB22AA9022208031C220FB72A82
:10256C00B82AAA022308031C230FBD2ABE2AAB02D9
:10257C002B08A3002A08A2002908A1002808A00003
:10258C00A71FC92ACA2AEE2A0030A8000030A900C9
:10259C000030AA008030AB002408A8022508031CD8
:1025AC00250FD92ADA2AA9022608031C260FDF2AAE
:1025BC00E02AAA022708031C270FE52AE62AAB0209
:1025CC002B08A7002A08A6002908A5002808A400A3
:1025DC008030A3068030A70627082302031D002B9A
:1025EC0026082202031D002B25082102031D002BA7
:1025FC00240820020318032B042B062B0310072B93
:10260C000314080083120313A800280803190F2BC6
:10261C00102B242BA31F132B142B242B2009AA00C3
:10262C002109AB002209AC002309AD00AA0A031949
:10263C00AB0A0319AC0A0319AD0A2C2B2308AD0005
:10264C002208AC002108AB002008AA0023082204B1
:10265C0021042004031D332B342B3D2B0030A3000D
:10266C000030A2000030A1000030A000C32B963037
:10267C00A4002408A9004F2B0130A4002408A907AA
:10268C0001300310AD0CAC0CAB0CAA0CFF3E031DBF
:10269C00472BFE302D05031D542B552B422B712B34
:1026AC000130A4002408A9070130AA070030031840
:1026BC000130AB07003003180130AC0700300318B1
:1026CC000130AD0701300310AD0CAC0CAB0CAA0CF7
:1026DC00FF3E031D692BFF302D05031D762B772B39
:1026EC00562B832B0130A9020130A4000310AA0D34
:1026FC00AB0DAC0DAD0DA40B7C2BAC1B862B872B23
:10270C008D2B0230290203188C2B8D2B782B29183A
:10271C00902B912B992BFF30AA05FF30AB057F3006
:10272C00AC05FF30AD050310A90C2908A400A501C8
:10273C00A601A70118300310A40DA50DA60DA70D19
:10274C00FF3E031DA12B2408AA042508AB04260870
:10275C00AC042708AD0428080319B52BB62BBB2BEA
:10276C00A31FB92BBA2BBB2BAD172D08A3002C081C
:10277C00A2002B08A1002A08A0000800831603134E
:10278C00330883120313B100831603133208831228
:10279C000313B00083160313310883120313AF0025
:1027AC0083160313300883120313AE000030B500F8
:1027BC000030B4000030B3000030B2000A168A15A5
:1027CC00A2260A168A11031CEC2BED2BF82B0030D9
:1027DC0083160313B3000030B2000030B100003098
:1027EC00B0008B2C8316031333087F39B600B70166
:1027FC000310B60DB70D3608B4070318B50A370821
:10280C00B507320D320D0139B600B7013608B407E1
:10281C000318B50A3708B507B51F152C162C232C31
:10282C002230F9000030FA000030B3000030B20062
:10283C000030B1000030B0008B2C3508803AFF001E
:10284C0081307F02031D2C2C00303402031C2F2CF2
:10285C00302C732C2230F9000030FA00831603134D
:10286C00330883120313A300831603133208831255
:10287C000313A20083160313310883120313A10060
:10288C0083160313300883120313A0000030A70033
:10289C000030A6000030A5000030A4000A168A11F2
:1028AC0064220A168A1103185C2C5D2C682CFF30EC
:1028BC0083160313B3007F30B200FF30B100FF303A
:1028CC00B0008B2C7F3083160313B3007F30B20023
:1028DC00FF30B100FF30B0008B2C8316031335088A
:1028EC00B7003408B600370DB70CB60C33083606F3
:1028FC0080393606B30034080139B600B60CB60C74
:10290C00320836067F393606B200080083160313E8
:10291C00E401E501E201E301831603136208903E32
:10292C00840083170008D03EDF00FF30031800300E
:10293C00E0005F08E4070318E50A6008E5070130CA
:10294C00E2070318E30A0030E3076308803AFF004C
:10295C0080307F02031DB42C08306202031CB72C9C
:10296C00B82C922C0A3083120313A0000030A10063
:10297C0083160313650883120313A3008316031332
:10298C00640883120313A2000A168A1549270A1633
:10299C008A11831603171808D03E83160313DF0021
:1029AC00FF3003180030E000831203132108831654
:1029BC0003136006031DE82C8312031320088316EF
:1029CC0003135F06031DEB2CEC2C4A2D0A128A15FF
:1029DC002D230A168A11831603135B08E5005A0887
:1029EC00E4006C086407DF006D0803186D0A6507C6
:1029FC00E00003306002E83003195F020318072D72
:102A0C00082D4A2D640A031D102D650A03190F2D7C
:102A1C00102D4A2D690883160317B1008316031372
:102A2C00680883160317B000831603136D08EB00B8
:102A3C006C08EA006408EC070318ED0A6508ED075A
:102A4C006D0883120313A900831603136C088312F9
:102A5C000313A8000A168A11C5210A168A118312BB
:102A6C0003138515063083160313E1001330E000C1
:102A7C00AD30DF00DF0B402DE00B402DE10B402D86
:102A8C008312031385115E2D8312031385160630F2
:102A9C0083160313E1001330E000AD30DF00DF0BD1
:102AAC00552DE00B552DE10B552D8312031385127B
:102ABC00080083160313230883120313BD00831627
:102ACC000313220883120313BC008316031321087B
:102ADC0083120313BB008316031320088312031302
:102AEC00BA00A830EF006F08BE000A168A15A4279A
:102AFC000A168A1183160313A91F852D862DC32D43
:102B0C00230883120313A3008316031322088312D2
:102B1C000313A20083160313210883120313A100CD
:102B2C0083160313200883120313A0000030A700A0
:102B3C000030A6000030A5000030A4000A168A114F
:102B4C0064220A168A110318AC2DAD2DB82DBF3096
:102B5C0083160313A3008030A2000030A1000030C4
:102B6C00A000912E003083160313A3000030A200A6
:102B7C000030A1000030A000912E003029021D3041
:102B8C0003192802031CCB2DCC2DCD2D912E2308FF
:102B9C0083120313B1008316031322088312031349
:102BAC00B00083160313210883120313AF0083169E
:102BBC000313200883120313AE000A168A11B020E7
:102BCC000A168A11831203133108A3003008A200DD
:102BDC002F08A1002E08A00001300A168A11082324
:102BEC000A168A1183120313230883160313A700F2
:102BFC0083120313220883160313A60083120313F4
:102C0C00210883160313A5008312031320088316CF
:102C1C000313A400230883120313A30083160313C6
:102C2C00220883120313A2008316031321088312B4
:102C3C000313A10083160313200883120313A000AF
:102C4C0083160313270883120313A7008316031399
:102C5C00260883120313A600831603132508831278
:102C6C000313A50083160313240883120313A40073
:102C7C000A168A1164220A168A110318462E472E48
:102C8C00872EBF3083120313DE008030DD0000304E
:102C9C00DC000030DB0083160313270883120313B8
:102CAC00E20083160313260883120313E100831634
:102CBC000313250883120313E0008316031324085F
:102CCC0083120313DF000A128A118E230A168A114B
:102CDC00831203135E0883160313A30083120313DA
:102CEC005D0883160313A200831203135C0883167A
:102CFC000313A100831203135B0883160313A000B4
:102D0C00912E831603132708A3002608A20025087A
:102D1C00A1002408A00008008316031333088312B3
:102D2C000313A30083160313320883120313A200A8
:102D3C0083160313310883120313A10083160313A4
:102D4C00300883120313A0000030A7000030A60047
:102D5C000030A5000030A4000A168A1164220A165D
:102D6C008A110318BA2EBB2ECA2E2130F90000305E
:102D7C00FA00003083160313B3000030B2000030A9
:102D8C00B1000030B000FF2F8316031333088312F9
:102D9C000313B10083160313320883120313B0001C
:102DAC0083160313310883120313AF008316031326
:102DBC00300883120313AE000030B5000030B400AD
:102DCC000030B3000030B2000A168A15A2260A168B
:102DDC008A11031CF22EF32E022F2230F900003040
:102DEC00FA00003083160313B3000030B200003039
:102DFC00B1000030B000FF2FBF3083120313DE0090
:102E0C008030DD000030DC000030DB004030C400DE
:102E1C000030C3000030C2000030C100B430EF00FD
:102E2C006F08BE0083160313330883120313BD000F
:102E3C0083160313320883120313BC008316031387
:102E4C00310883120313BB0083160313300883125B
:102E5C000313BA000A168A15A4270A168A118312BC
:102E6C0003133D08C8003C08C7003B08C6003A08DD
:102E7C00C5000A128A112D200A168A118312031317
:102E8C004408E2004308E1004208E0004108DF008A
:102E9C000A128A118E230A168A11831203135E08F2
:102EAC0083160313B300831203135D0883160313F5
:102EBC00B200831203135C0883160313B100831250
:102ECC0003135B0883160313B000FF30B407031819
:102EDC00B50AFF30B5073308A3003208A200310849
:102EEC00A1003008A000333083120313EF006F08E9
:102EFC0083160313A4000830A5000030A6000A12A4
:102F0C008A1518200A168A11831603132308B30096
:102F1C002208B2002108B1002008B0003308831247
:102F2C000313DE0083160313320883120313DD0030
:102F3C0083160313310883120313DC008316031367
:102F4C00300883120313DB003F30C4003130C30060
:102F5C007230C2001830C100831603133408831278
:102F6C000313A00083160313350883120313A10067
:102F7C000030A11BFF30A200A30001300A168A11F9
:102F8C0008230A168A11831203132308C800220887
:102F9C00C7002108C6002008C5000A128A112D207E
:102FAC000A168A11831203134408E2004308E10055
:102FBC004208E0004108DF000A128A118E230A162B
:102FCC008A11831203135E0883160313B300831252
:102FDC0003135D0883160313B200831203135C08FA
:102FEC0083160313B100831203135B0883160313B8
:042FFC00B000080019
:1039C40064008001840A0406031900340406E32C0D
:1039D40080308316031387002630980090308312BA
:1039E40003139800193083160313990008008316F3
:1039F4000313EC01ED01EA01EB01E601E7016D08B7
:103A040083120313A900831603136C088312031390
:103A1400A8000A168A11C5210A168A150A168A15DB
:103A240007260A168A15080083120313A1006400EE
:103A3400831603178C181F2D222D83120313192D9F
:103A4400831203132108831203178D003F3083125E
:103A54000313A0002008831603178C050C1483128B
:103A640003170C08080083120313A801A901241CDE
:103A74003C2D3D2D432D2608A8070318A90A270825
:103A8400A90701300310A60DA70DFF3E031D442D09
:103A940001300310A50CA40CFF3E031D4B2D24087C
:103AA4002504031D562D572D392D2908A500280856
:103AB400A400080083120313A800A401A501200890
:103AC400A200A3012208A6002308A700281C6B2D2E
:103AD4006C2D722D2608A4070318A50A2708A5072C
:103AE40001300310A60DA70DFF3E031D732D031017
:103AF400A80C2808031D7F2D802D682D2508A10002
:103B04002408A000080083120313200821040319C9
:103B14008C2D8D2DBC2DA501A50A9B2D01300310E4
:103B2400A00DA10DFF3E031D912D0130A40024081A
:103B3400A507A11F9E2D9F2D902D21082302031D53
:103B4400A52D20082202031CA82DA92DAF2D200885
:103B5400A2022108031CA303A30201300310A10C39
:103B6400A00CFF3E031DB02D0130A502031DBB2D8B
:103B7400BC2D9F2D2308A1002208A0000800831259
:103B84000313A501A601200821040319CA2DCB2D76
:103B9400022EA701A70AD92D01300310A00DA10DF3
:103BA400FF3E031DCF2D0130A4002408A707A11F49
:103BB400DC2DDD2DCE2D01300310A50DA60DFF3E0D
:103BC400031DDE2D21082302031DEA2D20082202F5
:103BD400031CED2DEE2DF52D2008A2022108031C57
:103BE400A303A302251401300310A10CA00CFF3E73
:103BF400031DF62D0130A702031D012E022EDD2D1B
:103C04002608A1002508A000080083120313A301BD
:103C1400A4018515023083120313A2000430A1000D
:103C2400B930A000A00B142EA10B142EA20B142E3D
:103C34001B2E831203138516023083120313A20072
:103C44000430A100B930A000A00B262EA10B262E13
:103C5400A20B262E2D2E83120313851102308312FC
:103C64000313A2000430A100B930A000A00B382E29
:103C7400A10B382EA20B382E3F2E8312031385126C
:103C84000130A3070318A40A0030A407003024025B
:103C94000A3003192302031C502E512E0B2E080048
:103CA400803083160313A306270883120313DE0050
:103CB40083160313260883120313DD0083160313EC
:103CC400250883120313DC008316031324088312CC
:103CD4000313DB0083160313230883120313E20088
:103CE40083160313220883120313E10083160313BC
:103CF400210883120313E0008316031320088312A0
:103D04000313DF000A128A118E230A168A158312FE
:103D140003135E0883160313A300831203135D08C1
:103D240083160313A200831203135C088316031380
:103D3400A100831203135B0883160313A000080079
:103D44000030831203132E05B60000302F05B70090
:103D540080303005B8007F303105B90039083804A7
:103D640037043604031DB72EB82EC02E0030B10020
:103D74000030B0000030AF000030AE00003032053B
:103D8400B60000303305B70080303405B8007F300A
:103D94003505B9003908380437043604031DD32E19
:103DA400D42EDC2E0030B5000030B4000030B30057
:103DB4000030B20035083106031DEA2E34083006FF
:103DC400031DEA2E33082F06031DEA2E32082E06A1
:103DD4000319ED2EEE2EF02E0310F12E031408001D
:103DE4000730831603139F0006308500860188017F
:103DF400C0308B008C160A168A15EA240A168A1516
:103E040083160313EC01ED01EA01EB016D08831243
:103E14000313A900831603136C0883120313A80069
:103E24000A168A11C5210A168A1583120313851CE2
:103E34001C2F1D2F272F8518202F212F1D2F0A16E9
:103E44008A15F9240A168A15172F051D2A2F2B2FD8
:103E5400352F05192E2F2F2F2B2F0A168A112C21BF
:103E64000A168A15172F8316031732083304031909
:103E74003C2F3D2F452FB201B3010A168A118C2421
:103E84000A168A15172F172F0A128A11122883125D
:103E94000313A601A31F4F2F502F572FA209A309C5
:103EA400A20A0319A30AA601A60AA11F5A2F5B2F6F
:103EB400602FA009A109A00A0319A10A200821045E
:103EC4000319652F662F952FA501A50A742F0130BC
:103ED4000310A00DA10DFF3E031D6A2F0130A400A5
:103EE4002408A507A11F772F782F692F2108230203
:103EF400031D7E2F20082202031C812F822F882F6E
:103F04002008A2022108031CA303A302013003100A
:103F1400A10CA00CFF3E031D892F0130A502031D37
:103F2400942F952F782F26080319992F9A2F9F2FB6
:103F3400A209A309A20A0319A30A2308A1002208BB
:103F4400A0000800831203133D08B1003C08B00030
:103F54003B08AF003A08AE000030B5000030B400B2
:103F64000030B3000030B2000A168A15A2260A16E1
:103F74008A15031CBE2FBF2FD02F831203133E08B4
:103F8400840083138001840A80010030BD00003066
:103F9400BC000030BB000030BA00FF2F83120313B3
:103FA4003D087F39BF00C0010310BF0DC00D3E089E
:103FB40084003F0883138000840A400880003C0D7D
:103FC4003C0D0139BF00C0013E0884003F08800455
:103FD400840A400880043E08840082308007840FED
:103FE40000080318000AFF00FF307F0780008403E5
:0C3FF4003D0880393F38BD00BC130800B8
:02400E00793FF8
:00000001FF
