:020000040000FA
:060000000A128A110E280D
:10000800FE00030EF1000408F2000A08F3000A12C9
:100018008A15322F0A128A1111280A128A11FE270C
:100028000A128A11EE008313B7308400CC300A120A
:100038008A159C240A128A115E3084006E300A12D6
:100048008A159C240A128A11F601F701F801F901B0
:1000580083010A128A113E290A3083120313A4006D
:100068002408F40063080A128A15CF240A128A1198
:10007800831203136407F03EA5002508B20001307F
:10008800B2023208A4002407A5002508B2003208ED
:10009800013E0A128A15B8240A128A118312031320
:1000A800A400A50132080A128A15B8240A128A1176
:1000B80083120313A600A7012608A700A601240897
:1000C8002604B00025082704B100B11B6C286D2850
:1000D8007A283108803AFF0083307F02031D762892
:1000E800E8303002031C79287A28DC2883120313AD
:1000F8006608A400A5012408A0002508A100643012
:10010800A2000030A3000A128A1523250A128A11B8
:10011800831203132008A6002108A7006708A80077
:10012800A9012808A0002908A1000A30A20000306F
:10013800A3000A128A1523250A128A1183120313AF
:1001480020082607AA0021080318210A2707AB0060
:1001580068082A07AC000030031801302B07AD00EF
:100168002C08303EB0002D080318013EEB3EB100CC
:100178003008A4002408AE003108A4002408AF0009
:100188002F08A4002408F40032080A128A157425DE
:100198000A128A11831203132E08A4002408F400FB
:1001A8003208013E0A128A1574250A128A113D295D
:1001B800831203136608A400A5012408A0002508DB
:1001C800A1006430A2000030A3000A128A1523257A
:1001D8000A128A11831203132008A6002108A70017
:1001E8006708A800A9012808A0002908A1000A306A
:1001F800A2000030A3000A128A1523250A128A11C8
:100208008312031320082607AA0021080318210ACD
:100218002707AB0068082A07AC0000300318013034
:100228002B07AD002C08303EB0002D080318013E06
:10023800EB3EB1003008A4002408AE003108A40049
:100248002408AF002F08A4002408F40032080A127A
:100258008A1574250A128A11831203132E08A40022
:100268002408F4003208013E0A128A1574250A127D
:100278008A110800013083160313850007308900AE
:10028800860188014130831203139F000E308316C4
:1002980003139F00C0308B00803087002630980001
:1002A80090308312031398001930831603139900B2
:1002B800831203130C13831603130C178C16C8012F
:1002C800C90183120313E001E101831603134908EE
:1002D80083120313AD008316031348088312031314
:1002E800AC000A128A11E0240A128A11831203133D
:1002F800891C7F2980298A298918832984298029AA
:100308000A128A15B9270A128A117A29091D8D2914
:100318008E2998290919912992298E290A128A1554
:100328007C260A128A117A29091C9B299C29A3294F
:1003380009189F29A0299C29E201E20A7A29831633
:100348000313460847040319AA29AB29B329C60190
:10035800C7010A128A15F3260A128A117A294A084D
:100368004B040319B829B9292E2A4B088312031301
:10037800A100831603134A0883120313A0008830D0
:10038800A2001330A3000A128A1523250A128A1123
:1003980083120313200883160313A3008312031385
:1003A800210883160313A4000A300310A40CA30C1D
:1003B800FF3E031DD9292308CA002408CB00E830D2
:1003C80083120313A7000330A800831603134B08F6
:1003D80083120313AA00831603134A088312031314
:1003E800A9000A128A15B7260A128A118312031362
:1003F800280883160313B6008312031327088316ED
:100408000313B5004D30A300230883120313AC0077
:1004180083160313360883120313AE0083160313DF
:10042800350883120313AD00A5300A128A1124235C
:100438000A128A11A53083120313A2000030A30008
:100448000A128A1509260A128A1183160313CA0189
:10045800CB017A297A290A128A110E2883120313EA
:10046800C301C401C001C101831203134008633EE4
:10047800840083130008D03EBD00FF30031800300D
:10048800BE003D08C3070318C40A3E08C40701306C
:10049800C0070318C10A0030C1074108803AFF00AD
:1004A80080307F02031D5A2A08304002031C5D2A4F
:1004B8005E2A382A0A3083120313A0000030A100F4
:1004C8004408A3004308A2000A128A1134270A121A
:1004D8008A11831203136B08D03EBD00FF30031846
:1004E8000030BE0021083E06031D7C2A20083D0678
:1004F800031D7F2A802A112B0A30BD003D08F40015
:1005080063080A128A15CF240A128A118312031368
:100518006407F03EBE003E08C20042080A128A1173
:100528000E240A128A11831203133508C4003408F2
:10053800C300831603134808831203134307BD003F
:100548008316031349080318490A8312031344073F
:10055800BE0003303E02E83003193D020318B52AF5
:10056800B62A112B430A031DBE2A440A0319BD2AC1
:10057800BE2A112B0130C2024208BD00BE013D084F
:10058800AC003E08AD000A128A1170260A128A11C0
:10059800831203134208BD00BE013D08DE003E0879
:1005A800DF0083160313490883120313E10083163F
:1005B8000313480883120313E00043088316031348
:1005C800C8070318C90A83120313440883160313C0
:1005D800C907490883120313AD008316031348089B
:1005E80083120313AC000A128A11E0240A128A113A
:1005F800831203138515063083120313BF001330CB
:10060800BE00AD30BD00BD0B072BBE0B072BBF0BCB
:10061800072B831203138511232B851606308312AB
:100628000313BF001330BE00AD30BD00BD0B1A2B45
:10063800BE0B1A2BBF0B1A2B83120313851208004B
:1006480083120313B8002D30B0003008B300F72B25
:10065800253039060319312B322B3E2B3908B000CF
:10066800380884003008831380000130B000300857
:10067800B807F72BB4010130AC07FF302C07840012
:100688000A128A1118260A128A11B900B000B1019B
:100698003108003A0319512BF72B3008003A031997
:1006A800092C643A03195C2B0D3A03195C2BF72BC0
:1006B8003308840083130008B600840A0008B700D2
:1006C8000230B0003008B307B71F6B2B6C2B752BAB
:1006D8000330B0003008B404B609B709B60A0319E4
:1006E800B70AB901B90A3908B0003007013E8400D9
:1006F8000A128A1118260A128A11B1000A128A11DE
:1007080018260A128A11B20032083702031D8E2BEE
:10071800310836020318912B922B932B9D2B013015
:10072800B0003008B90705303906031D9C2B9D2BF6
:10073800772B340803390319A22BA32BAE2B2D30AA
:10074800B000380884003008831380000130B000FE
:100758003008B8073908B0003008B500EE2B0A3069
:10076800A7000030A8003508B0003007013E84001B
:100778000A128A1118260A128A11A0000A128A116E
:1007880018260A128A11A1003708A3003608A20009
:100798000A128A1573270A128A1183120313210871
:1007A800AA002008A9000A128A15B7260A128A1177
:1007B800831203132708303EB1003108B900390805
:1007C800B000380884003008831380000130B0007E
:1007D8003008B807FF30B0003008B507350A031DE8
:1007E800F62BF72BB32B0130AC07FF302C07840016
:1007F8000A128A1118260A128A11B0003008B900A4
:100808003908031D082C092C2C2B38088400831365
:100818008001080083120313BC000130BC023C08AD
:10082800B6003607B7003708BC003C08013E0A127C
:100838008A15B8240A128A1183120313B600B70165
:100848003C080A128A15B8240A128A118312031363
:10085800B800B9013808B900B80136083804BA0038
:1008680037083904BB00BB1B3A2C3B2C6A2C3B08CD
:10087800803AFF0083307F02031D442CE8303A029F
:100888000318472C482C6A2C023083120313A0004B
:100898000030A1003C08B600B7013608A2003708AE
:1008A800A3000A128A1177240A128A1183120313E9
:1008B8002108AD002008AC000A128A1147250A1247
:1008C8008A11003A0319692C6A2C702CFF308312A4
:1008D8000313BA00FF30BB00831203133B08B500B3
:1008E8003A08B400080083120313A501A11F7D2C48
:1008F8007E2C852CA009A109A00A0319A10AA5012B
:10090800A50AA31F882C892C922CA209A309A20A44
:100918000319A30A0130F4007408A506A601A7016B
:10092800200821040319992C9A2CD12CA401A40A7B
:10093800A82C01300310A00DA10DFF3E031D9E2C15
:100948000130F4007408A407A11FAB2CAC2C9D2C1B
:1009580001300310A60DA70DFF3E031DAD2C210885
:100968002302031DB92C20082202031CBC2CBD2C19
:10097800C42C2008A2022108031CA303A3022614E6
:1009880001300310A10CA00CFF3E031DC52C013043
:10099800A402031DD02CD12CAC2C25080319D52C6E
:1009A800D62CDB2CA609A709A60A0319A70A27082B
:1009B800A1002608A0000800643083120313A000D9
:1009C8000030A1002D08A3002C08A2000A128A15E5
:1009D80073270A128A118312031320080B3E84001E
:1009E8000A128A1118260A128A1186000A30A000F3
:1009F8000030A1002D08AA002C08A9006430A70027
:100A08000030A8000A128A15B7260A128A11831222
:100A180003132808A3002708A2000A128A157327BF
:100A28000A128A11831203132008060486002D086F
:100A3800AA002C08A9006430A7000030A8000A12F8
:100A48008A15B7260A128A11831203132808AF00E1
:100A58002708AE000A30A7000030A8002F08AA0017
:100A68002E08A9000A128A15B7260A128A118312BB
:100A7800031327080B3E84000A128A1118260A124B
:100A88008A118800080083120313B1010C30B200E8
:100A98000030B3003308AF003208AE000310AE0DCB
:100AA800AF0D0310AE0DAF0D0310AE0DAF0D2D0839
:100AB800803AB0002F08803A3002031D652D2E08B9
:100AC8002C02031C682D692D9D2D831203133308F6
:100AD800AF003208AE000310AE0DAF0D0310AE0D1F
:100AE800AF0D0310AE0DAF0D2E082C02AC002F0871
:100AF800031C2F0A2D02AD003208B73E84000230D5
:100B0800A4000030A5002D08A7002C08A6000A1292
:100B18008A1542260A128A118312031324088313A2
:100B280000050319982D992D9B2DB101B10AB20129
:100B3800B301FF3083120313B2070318B30AFF305F
:100B4800B307B31FA82DA92D4E2D310808000D306D
:100B58008312031364060319B22DB32DBA2D0A307C
:100B68006406031DB82DB92DBB2D0D2E0D2E4C304E
:100B78006406031DC02DC12DC22D0D2E56306406EE
:100B8800031DC72DC82DCA2D1F150D2E3A3064021E
:100B98000318CF2DD02D0D2E30306402031CD52D17
:100BA800D62D0D2E3A3065020318DB2DDC2D0D2EC7
:100BB80030306502031CE12DE22D0D2E6408A400DF
:100BC800A5012408A0002508A1000A30A2000030D1
:100BD800A3000A128A1523250A128A118312031305
:100BE80065082007A6000030031801302107A70078
:100BF8002608F03EA80027080318013EFD3EA9007C
:100C08002908A1002808A0000A128A15E6240A1259
:100C18008A110800FF1B182E83137F1883170008FA
:100C2800840A0319FF0A080006308A000408840AA7
:100C380082070034013400340A3400346434003448
:100C4800E83403341034273400341034203430347A
:100C58004034503460347034803490344F346334CA
:100C680075347234723469346F34203475346E34A8
:100C780020346534723472346F34723420346534FD
:100C88006E3420346C346134203469346E347434F6
:100C98006534723470347234653474346134633456
:100CA80069346F346E342E340A3400344C343A3498
:100CB800253464342C344E343A34253464342C349A
:100CC80054343A34253464340A34003456343D34C8
:100CD800253464340A3400340C3083120313B10011
:100CE8000030B2003208AF003108AE000310AE0D7C
:100CF800AF0D0310AE0DAF0D0310AE0DAF0D2D08E7
:100D0800803AB0002F08803A3002031D8D2E2E083D
:100D18002C02031C902E912EC52E83120313320829
:100D2800AF003108AE000310AE0DAF0D0310AE0DCD
:100D3800AF0D0310AE0DAF0D2E082C02AC002F081E
:100D4800031C2F0A2D02AD003108B73E8400023083
:100D5800A4000030A5002D08A7002C08A6000A1240
:100D68008A1542260A128A11831203132408831350
:100D78000004AE003108B73E84002E088000B1019F
:100D8800B201FF3083120313B1070318B20AFF3010
:100D9800B207B21FD02ED12E762E08000C30831247
:100DA8000313B1000030B2003208AF003108AE00C2
:100DB8000310AE0DAF0D0310AE0DAF0D0310AE0D49
:100DC800AF0D2D08803AB0002F08803A3002031D7D
:100DD800EF2E2E082C02031CF22EF32E272F83123F
:100DE80003133208AF003108AE000310AE0DAF0D8B
:100DF8000310AE0DAF0D0310AE0DAF0D2E082C0273
:100E0800AC002F08031C2F0A2D02AD003108B73E95
:100E180084000230A4000030A5002D08A7002C088B
:100E2800A6000A128A1542260A128A11831203138F
:100E3800240883130006AE003108B73E84002E084C
:100E48008000B101B201FF3083120313B107031808
:100E5800B20AFF30B207B21F322F332FD82E080044
:100E680083120313A501A31F3A2F3B2F422FA20978
:100E7800A309A20A0319A30AA501A50AA11F452FC0
:100E8800462F4B2FA009A109A00A0319A10A20087F
:100E980021040319502F512F802FA401A40A5F2F7A
:100EA80001300310A00DA10DFF3E031D552F013089
:100EB800F4007408A407A11F622F632F542F210880
:100EC8002302031D692F20082202031C6C2F6D2F9B
:100ED800732F2008A2022108031CA303A3020130D8
:100EE8000310A10CA00CFF3E031D742F0130A402B7
:100EF800031D7F2F802F632F25080319842F852F2B
:100F08008A2FA209A309A20A0319A30A2308A10088
:100F18002208A0000800F401F501831203138515C7
:100F2800023083120313A2000430A100B930A000DC
:100F3800A00B9C2FA10B9C2FA20B9C2FA32F8312DD
:100F480003138516023083120313A2000430A10094
:100F5800B930A000A00BAE2FA10BAE2FA20BAE2F65
:100F6800B52F831203138511023083120313A200D5
:100F78000430A100B930A000A00BC02FA10BC02FD6
:100F8800A20BC02FC72F8312031385120130F40759
:100F98000318F50A0030F50700307502033003190D
:100FA8007402031CD82FD92F912F080074088312BC
:100FB8000313A0007508A100E72F0130A00703184C
:100FC800A10A0030A1072108FF00200884000A12A6
:100FD8008A110E260A128A11003A031DF42FF52FE2
:100FE800E12F74082002F4007508031C750A210219
:060FF800F50008000134C1
:1019380064008001840A04060319003404069D2CFF
:101948004430831203136406031DAB2CAC2CAE2C5D
:10195800F601B72C1530A2008030A3000A128A15B0
:1019680009260A128A150800F50064008316031771
:101978008C18BF2CC02CB92C7508831203178D0046
:101988003F30F4007408831603178C050C14831277
:1019980003170C08080083120313A100A001211CDF
:1019A800D62CD72CDB2C7408F5007508A00703107B
:1019B800F40D0310A10C2108031DE32CE42CD32CF7
:1019C80020080800FF3083120313A0070318A10A98
:1019D800FF30A1070310200DA000210DA100200851
:1019E8000A128A15B8240A128A15831203132008CA
:1019F800013E0A128A15B8240A128A1508003F30D7
:101A0800831203136306031D0A2D0B2D112D0A12D1
:101A18008A11AB250A128A15222D2B306306031D65
:101A2800162D172D1D2D0A128A154A250A128A15F8
:101A3800222D0A128A15A4240A128A150800F40114
:101A4800F50183120313201C2A2D2B2D312D22087A
:101A5800F4070318F50A2308F50701300310A20D4F
:101A6800A30DFF3E031D322D01300310A10CA00C65
:101A7800FF3E031D392D20082104031D442D452D4B
:101A8800252D7508A1007408A00008004C308312A9
:101A980003136406031D512D522D582D0A128A1561
:101AA800A5250A128A15732D0A128A15D7250A1236
:101AB8008A15063A031D612D622D682D0A128A11B6
:101AC80030200A128A15732D4430831203136406DA
:101AD800031D6F2D702D732DF601F60A732D080066
:101AE80083120313A000831603178C187C2D7D2DF9
:101AF800772D831203132008831203178D007408AF
:101B08008C003F30F5007508831603178C05831287
:101B1800031303108B1F912D922D932D03148B13F8
:101B2800831603170C1555308D00AA308D008C14C0
:101B38000C1183120313031CA22DA32DA42D8B17A4
:101B48000800831203136208031DAB2DAC2DCD2DA5
:101B58003D30BA003A08AC006E30BB003B08AD001F
:101B68006D30BC003C08AE007830BD003D08AF00C9
:101B78003E300A128A1124230A128A153E30831233
:101B88000313A2000030A3000A128A1509260A12BC
:101B98008A15013083120313BA003A08EE07ED01E3
:101BA800F801F901080083120313A101A10AA00199
:101BB800E52D0130F4007408A1070130F400740821
:101BC800A0072108633E84003A30831300020318FB
:101BD800EE2DEF2DF82D2108633E840030300002F1
:101BE8000318F72DF82D012E2108633E84003D309F
:101BF8000006031D002E012E072E07302102031CAC
:101C0800062E072EDD2D2008080083120313A701D6
:101C1800A8012C2E27082207A5002308A4000318D2
:101C2800A40AA71F182EA403831203132408A600CE
:101C38002608FF00250884000A128A110E260A12B7
:101C48008A1599000130A7070318A80A0030A807C9
:101C58002208F4002308F5000A128A11DA270A126A
:101C68008A157508831203132802031D3D2E740874
:101C78002702031C402E412E0E2E08008312031348
:101C8800AA01AB01A801A9016D2E28082904031D8A
:101C98004E2E4F2E542E0130AA000030AB00672E76
:101CA8002B08A1002A08A0002508A3002408A200E8
:101CB8000A128A1523250A128A158312031321088A
:101CC800AB002008AA000130A8070318A90A0030B1
:101CD800A90729082702031D732E280826020318BE
:101CE800762E772E492E2B08A5002A08A400080076
:101CF800831203136108831603134906031D8A2EF2
:101D080083120313600883160313480603198D2EE4
:101D18008E2EB62E83120313610883160313C9008F
:101D280083120313600883160313C8008312031376
:101D38005F08AD005E08AC000A128A11D2260A12AA
:101D48008A1583160313490883120313AD008316FB
:101D58000313480883120313AC000A128A11E02403
:101D68000A128A1508008312031327082804031986
:101D7800BE2EBF2EEE2EAB01AB0ACD2E01300310C6
:101D8800A70DA80DFF3E031DC32E0130F5007508F1
:101D9800AB07A81FD02ED12EC22E28082A02031D59
:101DA800D72E27082902031CDA2EDB2EE12E27085E
:101DB800A9022808031CAA03AA0201300310A80CD0
:101DC800A70CFF3E031DE22E0130AB02031DED2ED2
:101DD800EE2ED12E2A08A8002908A70008003F30B7
:101DE8008312031363060319FA2EFB2E072F2B30D9
:101DF80063060319002F012F072F2D306306031DDB
:101E0800062F072F0D2F0A128A1503250A128A1585
:101E1800312F3A3063020318122F132F1F2F30303F
:101E28006302031C182F192F1F2F0A128A1132223E
:101E38000A128A15312F8516063083160313A2005D
:101E48001330A100AD30A000A00B282FA10B282F24
:101E5800A20B282F83120313851208008312031381
:101E68008C1E372F382F5F2F0D301A0603193D2F80
:101E78003E2F572F0A301A060319432F442F572F86
:101E8800093077020318492F4A2F572F1A08F000F4
:101E98007708633E84007008831380000130F000E7
:101EA8007008F7076A2FF701013083160313C6007D
:101EB8000030C7006A2F0C1F622F632F6A2F0C1384
:101EC8001E0883160313CB001E08CA0073088A0075
:101ED80072088400710E8300FE0E7E0E09008312C4
:101EE8000313A501A6012008210403197C2F7D2FC7
:101EF800B42FA401A40A8B2F01300310A00DA10D4B
:101F0800FF3E031D812F0130F4007408A407A11FB0
:101F18008E2F8F2F802F01300310A50DA60DFF3EA9
:101F2800031D902F21082302031D9C2F2008220245
:101F3800031C9F2FA02FA72F2008A2022108031CF3
:101F4800A303A302251401300310A10CA00CFF3E2B
:101F5800031DA82F0130A402031DB32FB42F8F2F08
:101F68002608A1002508A0000800013083120313E9
:101F7800B0003008ED07831603134808F807031864
:101F8800F90A4908F907C801C90183120313E001D6
:101F9800E101B101B201831203133108B73E840095
:101FA800831380010130B1070318B20A0030B20769
:101FB8003208803AFF0080307F02031DE52F0D3084
:101FC8003102031CE82FE92FCF2F8316031349088A
:101FD80083120313AD0083160313480883120313F7
:101FE800AC000A128A11E0240A128A150A128A1110
:081FF8008F270A128A15080068
:02400E00793FF8
:00000001FF
