:020000040000FA
:060000000A128A110E280D
:10000800FE00030EF5000408F6000A08F7000A12BD
:100018008A15962B0A128A1111280A128A11FF27AB
:100028000A128A11F8008317D2308400DA300A12D3
:100038008A1529200A128A118313CD308400EA30E8
:100048000A128A1529200A128A11EE01F001F1011B
:10005800F201F30183010A128A113228FF300A12D1
:100068008A155E200A128A11FF3A03193C283D2896
:100078007228FD300A128A155E200A128A11831628
:100088000313C900CA01FC300A128A155E200A123D
:100098008A1183160313CB00CC014B08CC00CB018B
:1000A80049084B04DA004A084C04DB00FE300A1207
:1000B8008A155E200A128A1183160313C90049089B
:1000C80083120313EE00FF300A128A155E200A120B
:1000D8008A1183160313C9004908F80001308316F2
:1000E80003138500073089008601880111308312C7
:1000F800031390003C308F00B0308E0041309F00D9
:100108008E30831603139F00C0308B008030870029
:100118002630980090308312031398001930831604
:1001280003139900831203130C13831603130C177C
:100138008C160C14F001F10183160317D401D501B4
:10014800710883120313B5007008B4000A128A15E7
:10015800F5250A128A118312031307108312031359
:10016800091CB728B828C2280918BB28BC28B828F1
:100178000A128A114B220A128A11B228891CC52830
:10018800C628D0288918C928CA28C6280A128A1554
:10019800E2210A128A11B228091DD328D428552928
:1001A8000919D728D828D42870087104031DDD2818
:1001B800DE28422983160317D701D70A9C308312F9
:1001C8000313B4000130B5004E30B6008330B700D9
:1001D800780883160313C900CA0149088312031358
:1001E800B800831603134A0883120313B9006E0874
:1001F80083160313CB00CC014B0883120313BA00F8
:10020800831603134C0883120313BB0083160313CE
:100218005B0883120313BD00831603135A08831265
:100228000313BC000A128A1153240A128A119C3043
:1002380083120313A0000130A1000A128A156A2153
:100248000A128A1183160317D0018230831603130A
:10025800CA00DD30C900C90B2F29CA0B2F2901306C
:1002680083160313C900490883160317D0070A30F9
:100278005002031C402941292929B2288516063035
:1002880083160313CB001330CA00AD30C900C90B65
:100298004B29CA0B4B29CB0B4B298312031385120D
:1002A800B228831603175208530403195C295D29E1
:1002B8007B29D201D3010A128A15BA240A128A119B
:1002C80083160317D1015108E03E8400831380018F
:1002D800013083160313C900490883160317D10791
:1002E8000A305102031C79297A296729B22858084B
:1002F8005904031980298129472AFF3083120313DF
:10030800A6000330A70083160317590883120313A6
:10031800A10083160317580883120313A000323074
:10032800A2000030A3000A128A159D200A128A1121
:10033800831203132108A9002008A8000A128A15AD
:1003480061220A128A11031083120313260D8316E1
:100358000317D80083120313270D83160317D90038
:10036800003059024B30031958020318BC29BD2923
:10037800C2290A128A151F220A128A118316031724
:1003880056080319C829C929442A0A3083120313B5
:10039800A6000030A7008316031759088312031319
:1003A800A90083160317580883120313A8000A121A
:1003B8008A1561220A128A118312031327088316E9
:1003C8000317CD0083120313260883160317CC00E6
:1003D8000A3083120313AE000030AF0083160317F0
:1003E800590883120313B1008316031758088312A0
:1003F8000313B0000A128A15A6210A128A11831261
:1004080003132F0883160317CF00831203132E0834
:1004180083160317CE00BC3083120313B4000130D7
:10042800B5003430B6008430B700831603174D0882
:1004380083120313B900831603174C08831203139E
:10044800B800831603174F0883120313BB008316E3
:1004580003174E0883120313BA000A128A11532491
:100468000A128A11BC3083120313A0000130A100C4
:100478000A128A156A210A128A1183160317D601ED
:10048800D801D901B228B2280A128A110E280130DF
:1004980083120313CA004A08EE0770088316031371
:1004A800DA070318DB0A7108DB07F001F10183168C
:1004B8000317D401D50183160313C001C1018316A4
:1004C80003134008CD3E8400831380010130C00728
:1004D8000318C10A0030C1074108803AFF00803084
:1004E8007F02031D792A0D304002031C7C2A7D2AD5
:1004F800632A72080319812A822AB62AA030831235
:100508000313B4000030B5002330B6008430B700C0
:100518007808CA00CB014A08B8004B08B9006E0831
:10052800CC00CD014C08BA004D08BB00831603135C
:100538005B0883120313BD00831603135A08831242
:100548000313BC000A128A1153240A128A11A0301C
:1005580083120313A0000030A1000A128A156A2131
:100568000A128A11710883120313B5007008B400C7
:100578000A128A15F5250A128A110A128A15F0221A
:100588000A128A11080083120313A201A20AA10108
:10059800D52A0130A0002008A2070130A0002008B9
:1005A800A1072208E03E84003A30831300020318B2
:1005B800DE2ADF2AE82A2208E03E840030300002E2
:1005C8000318E72AE82AF72A2208E03E84003D308B
:1005D8000006031DF02AF12AFD2A03302206031D16
:1005E800F62AF72AFD2A07302202031CFC2AFD2AD4
:0605F800CD2A21080800D5
:10060000FF1B0A2B83137F1883170008840A031922
:10061000FF0A08007F087F398A000408840A03194A
:10062000FF0A8200013400340A3400346434003498
:10063000E834033410342734003410342034303498
:100640004034503460347034803490344F346334E8
:1006500075347234723469346F34203475346E34C6
:1006600020346534723472346F347234203465341B
:100670006E3420346C346134203469346E34743414
:100680006534723470347234653474346134633474
:1006900069346F346E342E340A3400340A344334EF
:1006A000693465347234723465342C3420344C34FB
:1006B0003A34253464342C344E343A34253464349A
:1006C0002C3454343A34253464340A3400340A3433
:1006D000503472346F3464347534633474346F342A
:1006E00020346E346F34203465346E3463346F34A8
:1006F0006E3474347234613464346F340A340034C8
:100700000A344334693465347234723465342C34B9
:100710004C343A34253464342C344E343A34253451
:1007200064342C3454343A34253464340A34003478
:100730004E346F342034653478346934733474340F
:1007400065342034703472346F34643475346334F7
:1007500074346F34203430343034003454345034F2
:100760003A34203425346434203450343A3420343C
:10077000253464342C3425346434203445347534C1
:1007800072346F34733400340A344534733474343F
:10079000613464346F343A34203445346E34203458
:1007A0006534733470346534723461340A3400341F
:1007B000503472346F3464347534633474346F3449
:1007C000203469346E346734723465347334613480
:1007D00064346F340A3400344E346F342034683457
:1007E000613479342034703472346F346434753445
:1007F000633474346F342034303430340034503443
:1008000072346F3464347534633474346F34203428
:10081000633461346E34633465346C34613464340D
:100820006F3400340A3445347334743461346434BE
:100830006F343A3420344134633474346934763458
:100840006F340A3400340A344C343A342534643476
:100850002C344E343A34253464342C3454343A3401
:10086000253464340A34003456343D342534643439
:100870002E342534643456340A3400340A34503467
:10088000253464343D34253464340A340034283447
:100890006E3475346C346C342934003445343A3455
:1008A000253473340034383083120313BE003E08FD
:1008B000C400872D2530490603195F2C602C702C4D
:1008C0004908BE00340884008317351C83133E0892
:1008D00080000130B4070318B50A0030B507872D32
:1008E000C201B62C4408840083130008C500840AA2
:1008F00000088403C6000230BE003E08C407450855
:100900004604031D842C852CA72C4730C500843059
:10091000C600A72C4608FF00450884000A128A1169
:1009200000230A128A11BE00340884008317351C84
:1009300083133E0880000130C5070318C60A003043
:10094000C6070130B4070318B50A0030B5074608DA
:10095000FF00450884000A128A1100230A128A1136
:10096000003A031DB42CB52C8A2C872D3708BF0004
:100970003608BE00B60A0319B70A3F08FF003E0852
:1009800084000A128A1100230A128A11C900C000C9
:10099000C1014108003A0319CE2C872D4008003AC6
:1009A00003199F2D643A0319DC2C0D3A0319DC2C32
:1009B0001A3A0319722C872D440884008313000807
:1009C000C700840A0008C8000230BE003E08C40701
:1009D000C81FEB2CEC2CF52C0330BE003E08C204E3
:1009E000C709C809C70A0319C80AC901C90A4908B9
:1009F000BE003E07123E840083300318013EFF0014
:100A00000A128A1100230A128A11BF000A128A11DF
:100A100000230A128A11C00040084802031D122D4B
:100A20003F0847020318152D162D172D212D0130D3
:100A3000BE003E08C90705304906031D202D212DA3
:100A4000F72C420803390319262D272D362D2D307A
:100A5000BE00340884008317351C83133E088000D1
:100A60000130B4070318B50A0030B5074908BE00C5
:100A70003E08C3007E2D0A30AE000030AF004308B0
:100A8000BE003E07123E840083300318013EFF0083
:100A90000A128A1100230A128A11A6000A128A1168
:100AA00000230A128A11A7004808A9004708A800D5
:100AB0000A128A1561220A128A1183120313270867
:100AC000B1002608B0000A128A15A6210A128A115E
:100AD000831203132E08303EBF003F08C9004908A7
:100AE000BE00340884008317351C83133E08800041
:100AF0000130B4070318B50A0030B507FF30BE0057
:100B00003E08C307430A031D862D872D3B2D37085A
:100B1000BF003608BE00B60A0319B70A3F08FF0037
:100B20003E0884000A128A1100230A128A11C000AA
:100B30004008C9004908031D9E2D9F2D5A2C3408DA
:100B400084008317351C831380010800831203136C
:100B5000C401C501C201C601C701831203134608BF
:100B6000E03E8400303083130002031CB82DB92D01
:100B7000D32D4608E03E84003A3000020318C12D10
:100B8000C22DD32D4608E03E84000008D03EBF00B1
:100B9000FF3003180030C0003F08C4070318C50A1F
:100BA0004008C507D52DC201C20A0130C607031887
:100BB000C70A0030C7074708803AFF0080307F022D
:100BC000031DE42D08304602031CE72DE82DAD2D52
:100BD0000A3083120313A0000030A1004508A300CF
:100BE0004408A2000A128A153B230A128A118316AE
:100BF00003136808D03E83120313BF00FF300318AD
:100C00000030C00021084006031D082E20083F06C2
:100C1000031D0B2E0C2EA42E4208031D102E112E88
:100C2000A42E0A30BF003F08A000831603136008FB
:100C30000A128A1547200A128A11831603136107C4
:100C4000F03E83120313C0004008C30043080A1299
:100C50008A1587250A128A11831203133708C500E3
:100C60003608C40070084407BF0071080318710AF1
:100C70004507C00003304002E83003193F02031863
:100C8000422E432EA42E440A031D4B2E450A03195F
:100C90004A2E4B2EA42E720803194F2E502E592E79
:100CA000D830A0008330A1000A128A156A210A12E6
:100CB0008A11013083120313C3024308BF00C0012D
:100CC0003F08AE004008AF000A128A119D270A12A1
:100CD0008A11831203134308BF00C0013F08831623
:100CE0000313DE0083120313400883160313DF008F
:100CF000710883160317D5007008D40083120313FC
:100D00004408F0070318F10A4508F1077108B50017
:100D10007008B4000A128A15F5250A128A11831286
:100D200003138515063083120313C1001330C0006E
:100D3000AD30BF00BF0B9A2EC00B9A2EC10B9A2E5E
:100D4000831203138511B62E851606308312031302
:100D5000C1001330C000AD30BF00BF0BAD2EC00BC3
:100D6000AD2EC10BAD2E83120313851208000D307A
:100D70008316031361060319BE2EBF2EC52E0A303B
:100D80006106031DC42EC52EE32E700871040319DD
:100D9000CA2ECB2ED72E123083120313A00084301C
:100DA000A1000A128A156A210A128A119C2FC430E6
:100DB00083120313A0008330A1000A128A156A214E
:100DC0000A128A119C2F4C306106031DE82EE92E71
:100DD0002E2FA43083120313B4000030B50023304B
:100DE000B6008430B700780883160313A000A10171
:100DF000200883120313B8008316031321088312FB
:100E00000313B9006E0883160313A200A30122087E
:100E100083120313BA0083160313230883120313E8
:100E2000BB00831603135B0883120313BD008316F4
:100E300003135A0883120313BC000A128A115324A5
:100E40000A128A11A43083120313A0000030A100FB
:100E50000A128A156A210A128A119C2F56306106DD
:100E6000031D332F342F392F83160317D601D60ACB
:100E70009C2F3A30610203183E2F3F2F912F3030C4
:100E80006102031C442F452F912F3A306202031850
:100E90004A2F4B2F912F30306202031C502F512FBD
:100EA000912F6108A000A101200883120313A00064
:100EB00083160313210883120313A1000A30A20032
:100EC0000030A3000A128A159D200A128A11831687
:100ED0000313620883120313200783160313A2006F
:100EE0000030031801308312031321078316031304
:100EF000A3002208F03EC40023080318013EFD3E73
:100F0000C500450883120313CB008316031344085E
:100F100083120313CA000A128A1564260A128A1160
:100F20009C2F263083120313A0008330A1000A12E5
:100F30008A156A210A128A1108000C3083120313E1
:100F4000B3000030B4003408B1003308B00003101F
:100F5000B00DB10D0310B00DB10D0310B00DB10DFA
:100F60002F08803AB2003108803A3202031DBA2FAE
:100F700030082E02031CBD2FBE2FF22F8312031345
:100F80003408B1003308B0000310B00DB10D0310E8
:100F9000B00DB10D0310B00DB10D30082E02AE0032
:100FA0003108031C310A2F02AF003308CD3E840004
:100FB0000230A6000030A7002F08A9002E08A800C4
:100FC0000A128A1530210A128A1183120313260885
:100FD00083130004B0003308CD3E84003008800045
:100FE000B301B401FF3083120313B3070318B40A2B
:100FF000FF30B407B41FFD2FFE2FA32F08000134CC
:1010520064008001840A04060319003404062A2865
:101062004430831603136106031D382839283B28B0
:10107200F2014628263083120313A0008330A10018
:101082000A128A156A210A128A15080083120313AA
:10109200A300A201231C4E284F2853282008A10098
:1010A2002108A2070310A00D0310A30C2308031D9F
:1010B2005B285C284B282208080083120313A10036
:1010C2006400831603178C1867286A288312031397
:1010D2006128831203132108831203178D003F3006
:1010E20083120313A0002008831603178C050C1427
:1010F200831203170C0808003F308316031360069F
:10110200031D842885288B280A128A11B7260A1201
:101112008A159C282B306006031D90289128972859
:101122000A128A15C4200A128A159C280A128A15E4
:1011320031200A128A15080083120313A401A501A3
:10114200201CA428A528AB282208A4070318A50A56
:101152002308A50701300310A20DA30DFF3E031DB6
:10116200AC2801300310A10CA00CFF3E031DB328D4
:1011720020082104031DBE28BF28A1282508A1009C
:101182002408A00008004C30831603136106031DD7
:10119200CB28CC28D2280A128A15A7220A128A152D
:1011A200F8280A128A11C7220A128A15063A031D62
:1011B200DB28DC28E2280A128A152E270A128A1551
:1011C200F8284430831603136106031DE928EA2830
:1011D200ED28F201F20AF828263083120313A00048
:1011E2008330A1000A128A156A210A128A150800A0
:1011F20083120313A200831603178C1801290229F4
:10120200FC28831203132208831203178D00831212
:1012120003132008831203178C003F308312031339
:10122200A1002108831603178C05831203130310F0
:101232008B1F1C291D291E2903148B1383160317C8
:101242000C1555308D00AA308D008C140C118312B0
:101252000313031C2D292E292F298B170800831213
:101262000313AC01AD01AA01AB015B292A082B04CF
:10127200031D3C293D2942290130AC000030AD005C
:1012820055292D08A1002C08A0002708A300260834
:10129200A2000A128A159D200A128A1583120313CC
:1012A2002108AD002008AC000130AA070318AB0AE0
:1012B2000030AB072B082902031D61292A082802E6
:1012C20003186429652937292D08A7002C08A600D0
:1012D200080083120313A501A601A701A70A9A29F0
:1012E20025082007A3002108A2000318A20AA51FAF
:1012F2007B29A203831203132208A4002408FF00FF
:10130200230884000A128A1100230A128A159900FE
:101312001908031D8D298E299029A70196290130CC
:10132200A5070318A60A0030A6070C1E99299A29B8
:1013320096292708031D9E299F2971290D3099009E
:101342000C1EA429A529A1290800831203132E0823
:101352002F040319AD29AE29DD29B301B30ABC2933
:1013620001300310AE0DAF0DFF3E031DB229013057
:10137200B2003208B307AF1FBF29C029B1292F0815
:101382003102031DC6292E083002031CC929CA29AD
:10139200D0292E08B0022F08031CB103B10201307C
:1013A2000310AF0CAE0CFF3E031DD1290130B30276
:1013B200031DDC29DD29C0293108AF003008AE0049
:1013C20008008316031755087106031DEA295408FD
:1013D20070060319ED29EE290E2A5508F10054086A
:1013E200F000831603135F0883120313AF00831602
:1013F20003135E0883120313AE000A128A15F42344
:101402000A128A15710883120313B5007008B4001A
:101412000A128A15F5250A128A1572080319122A68
:10142200132A1E2AFF3083120313A0008330A10067
:101432000A128A156A210A128A15080083160313F2
:101442005A0883120313A3002308A400831603136C
:101452005B0883120313A3002308A5002508A30039
:101462002308A000FC300A128A15F9200A128A15F4
:10147200831203132408A3002308A000FD300A12DC
:101482008A15F9200A128A15831203136E08A30023
:101492002308A000FE300A128A15F9200A128A15C2
:1014A200780883120313A3002308A000FF300A1256
:1014B2008A15F9200A128A158312031307140800E9
:1014C20083120313AC01AD012608270403196A2A0B
:1014D2006B2AA22AAB01AB0A792A01300310A60DAE
:1014E200A70DFF3E031D6F2A0130AA002A08AB0791
:1014F200A71F7C2A7D2A6E2A01300310AC0DAD0D88
:10150200FF3E031D7E2A27082902031D8A2A260878
:101512002802031C8D2A8E2A952A2608A80227084B
:10152200031CA903A9022C1401300310A70CA60C5A
:10153200FF3E031D962A0130AB02031DA12AA22AF7
:101542007D2A2D08A7002C08A60008008316031781
:101552005708031DAD2AAE2AE32A4E308312031325
:10156200B4000030B5008030B6008330B700780890
:10157200CA00CB014A08B8004B08B9006E08CC007B
:10158200CD014C08BA004D08BB00831603135B085B
:1015920083120313BD00831603135A088312031325
:1015A200BC000A128A1153240A128A154E30831281
:1015B2000313A0000030A1000A128A156A210A1240
:1015C2008A15E42AD701013083120313CA004A089C
:1015D200F807EE0183160313DA01DB010800831218
:1015E2000313A301A4018515023083120313A20081
:1015F2000430A100B930A000A00BFD2AA10BFD2AE6
:10160200A20BFD2A042B83120313851602308312C8
:101612000313A2000430A100B930A000A00B0F2BCD
:10162200A10B0F2BA20B0F2B162B83120313851169
:10163200023083120313A2000430A100B930A000CB
:10164200A00B212BA10B212BA20B212B282B8312C8
:10165200031385120130A3070318A40A0030A4075C
:1016620000302402033003192302031C392B3A2BC6
:10167200F42A080083120313A601A31F412B422B55
:10168200492BA209A309A20A0319A30AA601A60AC1
:10169200A11F4C2B4D2B522BA009A109A00A031903
:1016A200A10A200821040319572B582B872BA501C7
:1016B200A50A662B01300310A00DA10DFF3E031DEC
:1016C2005C2B0130A4002408A507A11F692B6A2BFB
:1016D2005B2B21082302031D702B20082202031C0E
:1016E200732B742B7A2B2008A2022108031CA3035C
:1016F200A30201300310A10CA00CFF3E031D7B2BA3
:101702000130A502031D862B872B6A2B260803199D
:101712008B2B8C2B912BA209A309A20A0319A30AD2
:101722002308A1002208A0000800831203130C1C46
:101732009B2B9C2BA22B1F153C308F00B0308E00B0
:101742000C10181DA52BA62BA72B1A08981CAA2B28
:10175200AB2BAD2B181218168C1EB02BB12BDA2B1B
:101762001A08F4007308E03E8400740883138000B2
:101772000D3000060319BE2BBF2BD32B7308E03E9E
:1017820084000A3000060319C72BC82BD32B09305B
:1017920073020318CD2BCE2BD32B0130F400740827
:1017A200F307DA2BF301013083160317D20000305E
:1017B200D300831203130C1FDF2BE02BEB2B0C1334
:1017C2001E0883160317D900831603131E088316F7
:1017D2000317D80077088A0076088400750E830004
:1017E200FE0E7E0E09000C3083120313B30000308C
:1017F200B4003408B1003308B0000310B00DB10DCD
:101802000310B00DB10D0310B00DB10D2F08803AC9
:10181200B2003108803A3202031D112C30082E0228
:10182200031C142C152C492C831203133408B10009
:101832003308B0000310B00DB10D0310B00DB10D9F
:101842000310B00DB10D30082E02AE003108031C9A
:10185200310A2F02AF003308CD3E84000230A600C9
:101862000030A7002F08A9002E08A8000A128A1526
:1018720030210A128A1583120313260883130006E5
:10188200B0003308CD3E840030088000B301B401BB
:10189200FF3083120313B3070318B40AFF30B407EF
:1018A200B41F542C552CFA2B080083120313B301D6
:1018B2000C30B4000030B5003508B1003408B00077
:1018C2000310B00DB10D0310B00DB10D0310B00D2A
:1018D200B10D2F08803AB2003108803A3202031D5E
:1018E200742C30082E02031C772C782CAC2C83121B
:1018F20003133508B1003408B0000310B00DB10D68
:101902000310B00DB10D0310B00DB10D30082E0251
:10191200AE003108031C310A2F02AF003408CD3E5D
:1019220084000230A6000030A7002F08A9002E086C
:10193200A8000A128A1530210A128A15831203138B
:101942002608831300050319A72CA82CAA2CB3017F
:10195200B30AB401B501FF3083120313B4070318AD
:10196200B50AFF30B507B51FB72CB82C5D2C33086C
:1019720008003F308316031360060319C12CC22CE2
:10198200CE2C2B3060060319C72CC82CCE2C2D3040
:101992006006031DCD2CCE2CD42C0A128A157D2074
:1019A2000A128A151D2D3A3060020318D92CDA2C3E
:1019B200092D30306002031CDF2CE02C092D720847
:1019C2000319E42CE52C032D903083120313B40089
:1019D2000130B5004E30B6008430B700E030B800B8
:1019E2000030B9000A128A1153240A128A15903063
:1019F20083120313A0000130A1000A128A156A2182
:101A02000A128A150A128A11A6250A128A151D2D92
:101A1200831203138516063083160313C80013308E
:101A2200C700AD30C600C60B142DC70B142DC80B52
:101A3200142D831203138512080083120313A601C7
:101A4200A11F242D252D2C2DA009A109A00A0319BF
:101A5200A10AA601A60AA31F2F2D302D392DA209F6
:101A6200A309A20A0319A30A0130A4002408A606A6
:101A7200A701A801200821040319402D412D782D2A
:101A8200A501A50A4F2D01300310A00DA10DFF3EA7
:101A9200031D452D0130A4002408A507A11F522DC6
:101AA200532D442D01300310A70DA80DFF3E031D39
:101AB200542D21082302031D602D20082202031C3D
:101AC200632D642D6B2D2008A2022108031CA303A1
:101AD200A302271401300310A10CA00CFF3E031D2A
:101AE2006C2D0130A502031D772D782D532D26086C
:101AF20003197C2D7D2D822DA709A809A70A031998
:101B0200A80A2808A1002708A000080083120313CE
:101B1200BE003E0803198E2D8F2DE82D0130BE0226
:101B22003E08B8003807B9003908BE003E08013E39
:101B32000A128A155E200A128A1583120313B8004C
:101B4200B9013E080A128A155E200A128A1583120A
:101B52000313BA00BB013A08BB00BA0138083A04C1
:101B6200BC0039083B04BD00BD1BB82DB92DE82DC2
:101B72003D08803AFF0083307F02031DC22DE8300A
:101B82003C020318C52DC62DE82D02308312031323
:101B9200A0000030A1003E08B800B9013808A20038
:101BA2003908A3000A128A151E250A128A15831201
:101BB20003132108AF002008AE000A128A1556242A
:101BC2000A128A15003A0319E72DE82DEE2DFF308F
:101BD20083120313BC00FF30BD00831203133D08C0
:101BE200B7003C08B6000800643083120313A60055
:101BF2000030A7003508A9003408A8000A128A1587
:101C020061220A128A158312031326081C3E8400DD
:101C120083300318013EFF000A128A1100230A12C0
:101C22008A1586000A30A6000030A7003508B100E8
:101C32003408B0006430AE000030AF000A128A15DA
:101C4200A6210A128A15831203132F08A9002E084F
:101C5200A8000A128A1561220A128A158312031336
:101C62002608060486003508B1003408B000643046
:101C7200AE000030AF000A128A15A6210A128A1598
:101C8200831203132F08B7002E08B6000A30AE00E5
:101C92000030AF003708B1003608B0000A128A15CA
:101CA200A6210A128A15831203132E081C3E8400F1
:101CB20083300318013EFF000A128A1100230A1220
:101CC2008A1588000800831203134B08803AFF002C
:101CD20080307F02031D6F2E01304A02031C722ED8
:101CE200732E222FFF3083120313CA070318CB0A65
:101CF200FF30CB0703104A0DCA004B0DCB004A0838
:101D0200013E0A128A155E200A128A1583120313F3
:101D1200CC00CD014A080A128A155E200A128A15E1
:101D220083120313CE00CF014E08CF00CE014C0820
:101D32004E04EA004D084F04EB006B08803AFF00A6
:101D420083307F02031DA72EE8306A020318AA2EF1
:101D5200AB2EB12E83120313EB1FB02EB12ECC2E5D
:101D6200503083120313B4000030B5006730B60060
:101D72008330B7000A128A1153240A128A1550308E
:101D820083120313A0000030A1000A128A156A21EF
:101D92000A128A152D2F5030B4000030B500AE3033
:101DA200B6008330B7000230A0000030A1004B081B
:101DB200A3004A08A2000A128A151E250A128A15D1
:101DC200831203132008013EB80021080318013EC4
:101DD200003EB9000A30A0000030A1006B08A30049
:101DE2006A08A2000A128A151E250A128A1583128F
:101DF20003132108BB002008BA000A30A0000030FB
:101E0200A1006B08A3006A08A2000A128A153B23EC
:101E12000A128A15831203132108BD002008BC0090
:101E22000A128A1153240A128A155030831203139C
:101E3200A0000030A1000A128A156A210A128A152E
:101E42002D2F983083120313A0008330A1000A12B1
:101E52008A156A210A128A1508000A3083120313AE
:101E6200CA004A08A0008316031361080A128A15E1
:101E720047200A128A15831603136207F03E831263
:101E82000313CB004B08E20062080319492F4A2FC3
:101E9200F62F0130E2026208CA004A07CB004B0863
:101EA200E20083160313640883120313CA00CB01F2
:101EB2004A08A0004B08A1006430A2000030A30031
:101EC2000A128A159D200A128A158312031320080A
:101ED200CC002108CD008316031365088312031377
:101EE200CE00CF014E08A0004F08A1000A30A20088
:101EF2000030A3000A128A159D200A128A15831245
:101F0200031320084C07D00021080318210A4D07AB
:101F1200D100831603136608831203135007D200FD
:101F22000030031801305107D3005208303EE00060
:101F320053080318013EEB3EE1006008CA004A085C
:101F4200DE006108CA004A08DF005F08CA004A08CA
:101F5200A00062080A128A15F9200A128A15831251
:101F620003135E08CA004A08A0006208013E0A1272
:101F72008A15F9200A128A15543083120313B40009
:101F82000030B5003E30B6008430B7000230A00009
:101F92000030A1006208CA00CB014A08A2004B0827
:101FA200A3000A128A151E250A128A158312031328
:101FB2002008013EB80021080318013E003EB90086
:101FC2006108BB006008BA000A128A1153240A127F
:101FD2008A15543083120313A0000030A1000A12A4
:101FE2008A156A210A128A15FF2FEC30A00083306D
:0E1FF200A1000A128A156A210A128A15080037
:02400E00793FF8
:00000001FF
