:020000040000FA
:060000000A128A110E280D
:10000800FE00030EF1000408F2000A08F3000A12C9
:100018008A11D92E0A128A1111280A128A11FC276C
:100028000A128A11F9008313483084006C300A12CE
:100038008A159E270A128A11F601F701F801830131
:100048000A128A11C72C0A3083120313A400240849
:10005800F40062080A128A15C9270A128A11831243
:1000680003136307F03EA5002508B2000130B20271
:100078003208A4002407A5002508B2003208013E72
:100088000A128A11E5270A128A1183120313A4009F
:10009800A50132080A128A11E5270A128A11831269
:1000A8000313A600A7012608A700A6012408260412
:1000B800B00025082704B100B11B63286428712803
:1000C8003108803AFF0083307F02031D6D28E83035
:1000D8003002031C70287128D32883120313650883
:1000E800A400A5012408A0002508A1006430A200EE
:1000F8000030A3000A128A1199270A128A11831262
:1001080003132008A6002108A7006608A800A90173
:100118002808A0002908A1000A30A2000030A30086
:100128000A128A1199270A128A11831203132008C6
:100138002607AA0021080318210A2707AB00670829
:100148002A07AC000030031801302B07AD002C083B
:10015800303EB0002D080318013EEB3EB1003008D8
:10016800A4002408AE003108A4002408AF002F081A
:10017800A4002408F40032080A128A113E270A1241
:100188008A11831203132E08A4002408F4003208ED
:10019800013E0A128A113E270A128A113429831253
:1001A80003136508A400A5012408A0002508A100E0
:1001B8006430A2000030A3000A128A1199270A129B
:1001C8008A11831203132008A6002108A7006608D5
:1001D800A800A9012808A0002908A1000A30A20047
:1001E8000030A3000A128A1199270A128A11831271
:1001F800031320082607AA0021080318210A270745
:10020800AB0067082A07AC000030031801302B0741
:10021800AD002C08303EB0002D080318013EEB3E1F
:10022800B1003008A4002408AE003108A400240856
:10023800AF002F08A4002408F40032080A128A111B
:100248003E270A128A11831203132E08A4002408D9
:10025800F4003208013E0A128A113E270A128A1156
:10026800080083120313C301C401C001C101831232
:1002780003134008623E840083130008D03EBD008B
:10028800FF3003180030BE003D08C3070318C40A36
:100298003E08C4070130C0070318C10A0030C1076F
:1002A8004108803AFF0080307F02031D5D29083035
:1002B8004002031C602961293B290A308312031379
:1002C800A0000030A1004408A3004308A2000A12BD
:1002D8008A116C240A128A11831203136A08D03E09
:1002E800BD00FF3003180030BE0021083E06031D84
:1002F8007F2920083D06031D82298329F8290A3011
:10030800BD003D08F40062080A128A15C9270A12BE
:100318008A11831203136307F03EBE003E08C20031
:1003280042080A128A110B220A128A118312031335
:100338003508C4003408C3005F084307BD006008DF
:100348000318600A4407BE0003303E02E830031970
:100358003D020318B029B129F829430A031DB92918
:10036800440A0319B829B929F8290130C2024208F8
:10037800BD00BE013D08AC003E08AD000A128A115E
:10038800A8230A128A11831203134208BD00BE0172
:100398003D08D9003E08DA006008DE005F08DD008D
:1003A8004308DF070318E00A4408E0076008AD00C7
:1003B8005F08AC000A128A11DD220A128A11831220
:1003C80003138515063083120313BF001330BE00D4
:1003D800AD30BD00BD0BEE29BE0BEE29BF0BEE29DB
:1003E8008312031385110A2A851606308312031314
:1003F800BF001330BE00AD30BD00BD0B012ABE0BDF
:10040800012ABF0B012A83120313851208008312E5
:100418000313BC000130BC023C08B6003607B70025
:100428003708BC003C08013E0A128A11E5270A1267
:100438008A1183120313B600B7013C080A128A1105
:10044800E5270A128A1183120313B800B901380884
:10045800B900B80136083804BA0037083904BB00B7
:10046800BB1B372A382A672A3B08803AFF008330AB
:100478007F02031D412AE8303A020318442A452A1C
:10048800672A023083120313A0000030A1003C0841
:10049800B600B7013608A2003708A3000A128A116D
:1004A80074220A128A11831203132108AD0020084E
:1004B800AC000A128A1144230A128A11003A03195D
:1004C800662A672A6D2AFF3083120313BA00FF30A9
:1004D800BB00831203133B08B5003A08B4000800B8
:1004E80083120313A501A11F7A2A7B2A822AA00955
:1004F800A109A00A0319A10AA501A50AA31F852A13
:10050800862A8F2AA209A309A20A0319A30A01307D
:10051800F4007408A506A601A70120082104031900
:10052800962A972ACE2AA401A40AA52A01300310E4
:10053800A00DA10DFF3E031D9B2A0130F400740895
:10054800A407A11FA82AA92A9A2A01300310A60DD8
:10055800A70DFF3E031DAA2A21082302031DB62A60
:1005680020082202031CB92ABA2AC12A2008A2029A
:100578002108031CA303A302261401300310A10CB5
:10058800A00CFF3E031DC22A0130A402031DCD2A80
:10059800CE2AA92A25080319D22AD32AD82AA60995
:1005A800A709A60A0319A70A2708A1002608A00078
:1005B8000800643083120313A4000030A5002D083E
:1005C800A7002C08A6000A128A1161250A128A11AE
:1005D800831203132408013E84000A128A1500209E
:1005E8000A128A1186000A30A4000030A5002D08DE
:1005F800A3002C08A2006430A0000030A1000A1259
:100608008A1163260A128A11831203132108A7008C
:100618002008A6000A128A1161250A128A1183127B
:1006280003132408060486002D08A3002C08A20042
:100638006430A0000030A1000A128A1163260A1251
:100648008A11831203132108AF002008AE000A3074
:10065800A0000030A1002F08A3002E08A2000A1253
:100668008A1163260A128A11831203132008013E95
:1006780084000A128A1500200A128A1188000800CC
:1006880083120313B1010C30B2000030B3003308F9
:10069800AF003208AE000310AE0DAF0D0310AE0D63
:1006A800AF0D0310AE0DAF0D2D08803AB0002F0826
:1006B800803A3002031D622B2E082C02031C652B86
:1006C800662B9A2B831203133308AF003208AE004F
:1006D8000310AE0DAF0D0310AE0DAF0D0310AE0D30
:1006E800AF0D2E082C02AC002F08031C2F0A2D0278
:1006F800AD003208483E84000230A4000030A50056
:100708002D08A7002C08A6000A128A119F260A1293
:100718008A11831203132408831300050319952BE8
:10072800962B982BB101B10AB201B301FF308312A5
:100738000313B2070318B30AFF30B307B31FA52B7F
:10074800A62B4B2B310808000C3083120313B10081
:100758000030B2003208AF003108AE000310AE0D11
:10076800AF0D0310AE0DAF0D0310AE0DAF0D2D087C
:10077800803AB0002F08803A3002031DC52B2E089E
:100788002C02031CC82BC92BFD2B83120313320820
:10079800AF003108AE000310AE0DAF0D0310AE0D63
:1007A800AF0D0310AE0DAF0D2E082C02AC002F08B4
:1007B800031C2F0A2D02AD003108483E8400023088
:1007C800A4000030A5002D08A7002C08A6000A12D6
:1007D8008A119F260A128A1183120313240883138D
:1007E8000004AE003108483E84002E088000B101A4
:1007F800B201FF3083120313B1070318B20AFF30A6
:10080800B207B21F082C092CAE2B08000C3083123B
:100818000313B1000030B2003208AF003108AE0057
:100828000310AE0DAF0D0310AE0DAF0D0310AE0DDE
:10083800AF0D2D08803AB0002F08803A3002031D12
:10084800272C2E082C02031C2A2C2B2C5F2C8312FD
:1008580003133208AF003108AE000310AE0DAF0D20
:100868000310AE0DAF0D0310AE0DAF0D2E082C0208
:10087800AC002F08031C2F0A2D02AD003108483E9A
:1008880084000230A4000030A5002D08A7002C0821
:10089800A6000A128A119F260A128A1183120313CC
:1008A800240883130006AE003108483E84002E0851
:1008B8008000B101B201FF3083120313B10703189E
:1008C800B20AFF30B207B21F6A2C6B2C102C08003A
:1008D80083120313A501A31F722C732C7A2CA2096F
:1008E800A309A20A0319A30AA501A50AA11F7D2C21
:1008F8007E2C832CA009A109A00A0319A10A2008AB
:1009080021040319882C892CB82CA401A40A972C3B
:1009180001300310A00DA10DFF3E031D8D2C0130E9
:10092800F4007408A407A11F9A2C9B2C8C2C210876
:100938002302031DA12C20082202031CA42CA52C91
:10094800AB2C2008A2022108031CA303A302013038
:100958000310A10CA00CFF3E031DAC2C0130A40217
:10096800031DB72CB82C9B2C25080319BC2CBD2CB7
:10097800C22CA209A309A20A0319A30A2308A100E9
:100988002208A00008000730831603139F000630D2
:10099800850086018801C0308B008C160A128A15E2
:1009A800BA270A128A1183120313DF01E001DD015D
:1009B800DE016008AD005F08AC000A128A11DD2272
:1009C8000A128A1183120313851CEB2CEC2CF62CCB
:1009D8008518EF2CF02CEC2C0A128A1126260A1204
:1009E8008A11E62C051DF92CFA2C042D0519FD2C6D
:1009F800FE2CFA2C0A128A11C0270A128A11E62C38
:100A08005B085C040319092D0A2D122DDB01DC019A
:100A18000A128A11E7250A128A11E62CE62C0A1214
:100A28008A110E28F401F50183120313851502308B
:100A380083120313A2000430A100B930A000A00B58
:100A4800232DA10B232DA20B232D2A2D8312031353
:100A58008516023083120313A2000430A100B930B6
:100A6800A000A00B352DA10B352DA20B352D3C2D4B
:100A7800831203138511023083120313A20004307A
:100A8800A100B930A000A00B472DA10B472DA20B48
:100A9800472D4E2D8312031385120130F4070318D6
:100AA800F50A0030F50700307502033003197402A7
:100AB800031C5F2D602D182D080083120313A90154
:100AC800AA012408250403196A2D6B2DA22DAB0158
:100AD800AB0A792D01300310A40DA50DFF3E031DAF
:100AE8006F2D0130A8002808AB07A51F7C2D7D2D90
:100AF8006E2D01300310A90DAA0DFF3E031D7E2D9A
:100B080025082702031D8A2D24082602031C8D2D83
:100B18008E2D952D2408A6022508031CA703A702DD
:100B2800291401300310A50CA40CFF3E031D962DBB
:100B38000130AB02031DA12DA22D7D2D2A08A50091
:100B48002908A40008000D30831203136306031953
:100B5800AE2DAF2DB62D0A306306031DB42DB52D6D
:100B6800B72DE62DE62D4C306306031DBC2DBD2D9B
:100B7800BE2DE62D3A3063020318C32DC42DE62D91
:100B880030306302031CC92DCA2DE62D3A306402A9
:100B98000318CF2DD02DE62D30306402031CD52D3F
:100BA800D62DE62D6308A400A5012408A000250879
:100BB800A1000A30A2000030A3000A128A11992766
:100BC8000A128A1108003F308312031362060319C0
:100BD800EE2DEF2DFB2D2B3062060319F42DF52D8C
:100BE800FB2D2D306206031DFA2DFB2D012E0A1256
:100BF8008A15E0270A128A11252E3A306202031854
:100C0800062E072E132E30306202031C0C2E0D2EDA
:100C1800132E0A128A1135210A128A11252E8516D9
:100C2800063083120313C7001330C600AD30C50069
:100C3800C50B1C2EC60B1C2EC70B1C2E83120313B0
:100C480085120800013083120313B0003008E10751
:100C58005F08D5070318D60A6008D607DF01E00148
:100C6800DD01DE01B101B201831203133108483EF0
:100C78008400831380010130B1070318B20A0030E1
:100C8800B2073208803AFF0080307F02031D4E2EE3
:100C98000D303102031C512E522E382E83120313AD
:100CA8006008AD005F08AC000A128A11DD220A1242
:100CB8008A110A128A1116250A128A11080083124B
:100CC80003132008210403196A2E6B2E9A2EF501AE
:100CD800F50A792E01300310A00DA10DFF3E031D6A
:100CE8006F2E0130F4007408F507A11F7C2E7D2EAD
:100CF8006E2E21082302031D832E20082202031CC6
:100D0800862E872E8D2E2008A2022108031CA303FD
:100D1800A30201300310A10CA00CFF3E031D8E2E70
:100D28000130F502031D992E9A2E7D2E2308A1006D
:100D38002208A000080083120313AA01AB01A8012E
:100D4800A901CA2E28082904031DAB2EAC2EB12EEA
:100D58000130AA000030AB00C42E2B08A1002A08DD
:100D6800A0002508A3002408A2000A128A119927C6
:100D78000A128A11831203132108AB002008AA0063
:100D88000130A8070318A90A0030A9072908270273
:100D9800031DD02E280826020318D32ED42EA62EE3
:100DA8002B08A5002A08A4000800831203138C1E30
:100DB800DE2EDF2E032F0D301A060319E42EE52E42
:100DC800FE2E0A301A060319EA2EEB2EFE2E0930E3
:100DD80078020318F02EF12EFE2E1A08F00078087B
:100DE800623E84007008831380000130F0007008B0
:100DF800F807032FF8010130DB000030DC0073082E
:100E08008A0072088400710E8300FE0E7E0E0900AF
:100E180083120313A101A10AA0011A2F0130F400C3
:100E28007408A1070130F4007408A0072108623E85
:100E380084003A30831300020318232F242F2D2F08
:100E48002108623E84003030000203182C2F2D2F19
:100E5800362F2108623E84003D300006031D352FE1
:100E6800362F3C2F07302102031C3B2F3C2F122F1B
:100E78002008080083120313A000831603178C1898
:100E8800462F472F412F831203132008831203177D
:100E98008D0074088C003F30F50075088316031721
:100EA8008C058312031303108B1F5B2F5C2F5D2FA0
:100EB80003148B13831603170C1555308D00AA30B5
:100EC8008D008C140C1183120313031C6C2F6D2FCF
:100ED8006E2F8B1708004C30831203136306031D13
:100EE800762F772F7D2F0A128A15A6270A128A11C4
:100EF800982F0A128A110C270A128A11063A031D22
:100F0800862F872F8D2F0A128A1127200A128A11FD
:100F1800982F4430831203136306031D942F952FD3
:100F2800982FF701F70A982F0800F401F5018312AA
:100F38000313201CA02FA12FA72F2208F4070318A2
:100F4800F50A2308F50701300310A20DA30DFF3E93
:100F5800031DA82F01300310A10CA00CFF3E031D98
:100F6800AF2F20082104031DBA2FBB2F9B2F750814
:100F7800A1007408A0000800831203135E0860062D
:100F8800031DC82F5D085F060319CB2FCC2FE42F54
:100F98005E08E0005D08DF005A08AD005908AC00A3
:100FA8000A128A110A240A128A118312031360088A
:100FB800AD005F08AC000A128A11DD220A128A11FC
:100FC8000800F5006400831603178C18EC2FED2F2A
:100FD800E62F7508831203178D003F30F40074085C
:100FE800831603178C050C14831203170C080800CA
:020FF8000134C2
:1010000008308A000408840A82070034003410344F
:101010002034303440345034603470348034903470
:101F3C0064008001840A04060319003404069F2FF0
:101F4C000130F4007408F90783120313E101D50181
:101F5C00D60108004430831203136306031DB72F08
:101F6C00B82FB92FF70108008030831603138700B0
:101F7C002630980090308312031398001930831682
:101F8C0003139900080083120313A100A001211C64
:101F9C00D02FD12FD52F7408F5007508A00703108A
:101FAC00F40D0310A10C2108031DDD2FDE2FCD2F06
:101FBC00200808003F30831203136206031DE72F2D
:101FCC00E82FEE2F0A128A11A7250A128A15FF2F65
:101FDC002B306206031DF32FF42FFA2F0A128A11ED
:101FEC006F270A128A15FF2F0A128A15B0270A12B8
:041FFC008A1508003A
:02400E00793FF8
:00000001FF
