:020000040000FA
:060000000A128A110E280D
:10000800FE00030EF1000408F2000A08F3000A16C5
:100018008A15EE2D0A128A1111288317D030FD0097
:100028001D30FE001C30FF00B63084000A168A1509
:10003800F6240A128A1190308400B6300A128A1106
:10004800F5270A128A11F801F901FA01FB01830167
:100058000A128A1530288312031344088039C9000C
:100068004908CE004408C9004907CA004A08D40014
:10007800C31F3F2840284128541454080319452811
:1000880046285528540A031D4A284B28532800306F
:10009800C4000030C3000030C2000030C100C317E4
:1000A8005D280030C4000030C3000030C2000030BA
:1000B800C10048088039C9004908CE064808C90067
:1000C8004907CA004A08D300C71F6B286C286D2847
:1000D800531453080319712872288128530A031DE1
:1000E800762877287F280030C8000030C700003005
:1000F800C6000030C500C71789280030C800003086
:10010800C7000030C6000030C500530803198D2809
:100118008E2893285408031D922893289C28003081
:10012800C4000030C3000030C2000030C1008F2B73
:100138004108C9004908A00047080A128A15072083
:100148000A128A11831203132108DA002008D90041
:100158005908C900CA01CB01CC014C08D2004B0890
:10016800D1004A08D0004908CF005A08C900CA017E
:10017800CB01CC014C08D8004B08D7004A08D60060
:100188004908D5004208C9004908A00046080A12D3
:100198008A1507200A128A11831203132108DA002C
:1001A8002008D9005908C900CA01CB01CC01490867
:1001B800CF074A0803110318013E0319E428D007A2
:1001C8004B0803110318013E0319EB28D1074C080B
:1001D80003110318013E0319F228D2075A08C9006F
:1001E800CA01CB01CC014908D5074A0803110318F5
:1001F800013E03190029D6074B0803110318013ED5
:1002080003190729D7074C0803110318013E0319DE
:100218000E29D8074308C9004908A00045080A1252
:100228008A1507200A128A11831203132108DA009B
:100238002008D9005908C900CA01CB01CC014908D6
:10024800CF074A0803110318013E03192C29D007C8
:100258004B0803110318013E03193329D1074C0831
:1002680003110318013E03193A29D2075A08C90095
:10027800CA01CB01CC014908D5074A080311031864
:10028800013E03194829D6074B0803110318013EFC
:1002980003194F29D7074C0803110318013E031906
:1002A8005629D8070830C9000310CF0DD00DD10D3D
:1002B800D20DC90B58294208C9004908A0004508B1
:1002C8000A128A1507200A128A11831203132108B9
:1002D800DA002008D9005908C9005A08CA00CB0119
:1002E800CC014908CF074A0803110318013E031936
:1002F8007E29D0074B0803110318013E03198529ED
:10030800D1074C0803110318013E03198C29D207A1
:100318004108C9004908A00046080A128A150720A2
:100328000A128A11831203132108DA002008D9005F
:100338005908C9005A08CA00CB01CC014908CF079F
:100348004A0803110318013E0319AB29D0074B08CB
:1003580003110318013E0319B229D1074C080311F0
:100368000318013E0319B929D2070830C900031040
:10037800CF0DD00DD10DD20DC90BBB294108C90035
:100388004908A00045080A128A1507200A128A118E
:10039800831203132108DA002008D9005908C9007C
:1003A8005A08CA00CB01CC014908CF074A080311F3
:1003B8000318013E0319E129D0074B08031103185C
:1003C800013E0319E829D1074C0803110318013E1F
:1003D8000319EF29D2074208C9004908A0004708B5
:1003E8000A128A1507200A128A1183120313210898
:1003F800DA002008D9005908C9005A08CA00CB01F8
:10040800CC014908D5074A0803110318013E03190E
:100418000E2AD6074B0803110318013E0319152AA3
:10042800D7074C0803110318013E03191C2AD807E3
:100438004308C9004908A00046080A128A1507207F
:100448000A128A11831203132108DA002008D9003E
:100458005908C9005A08CA00CB01CC014908D50778
:100468004A0803110318013E03193B2AD6074B0813
:1004780003110318013E0319422AD7074C08031138
:100488000318013E0319492AD8074308C900490837
:10049800A00047080A128A1507200A128A11831237
:1004A80003132108DA002008D9005908C9005A089E
:1004B800CA00CB01CC0108300310C90DCA0DCB0D01
:1004C800CC0DFF3E031D602A4908D5074A080311D1
:1004D8000318013E0319712AD6074B0803110318A4
:1004E800013E0319782AD7074C0803110318013E67
:1004F80003197F2AD8074F08C9005008CA005108B5
:10050800CB005208CC0018300310CC0CCB0CCA0C12
:10051800C90CFF3E031D882A4908D5074A0803115C
:100528000318013E0319992AD6074B08031103182B
:10053800013E0319A02AD7074C0803110318013EEE
:100548000319A72AD8070830C9000310CF0DD00D0A
:10055800D10DD20DC90BA92A54085307C900CA01E5
:10056800CA0D4908823ED9004A080318013EFF3ED9
:10057800DA00DB2A0130C9000310D50DD60DD70DDE
:10058800D80DC90BC02AD21FCA2ACB2ACC2A551487
:100598000130C9000310CF0DD00DD10DD20DC90BFC
:1005A800CE2AFF30D9070318DA0AFF30DA07D71F37
:1005B800DE2ADF2ABE2AD301D21FE32AE42A002B2F
:1005C800FF304F05C900FF305005CA00FF30510504
:1005D800CB007F305205CC004C084B044A04490438
:1005E8000319F72AF82AFB2AD301D30A002B551C32
:1005F800FE2AFF2A002BF82A53080319042B052B7F
:10060800362B0130D507003003180130D6070030EB
:1006180003180130D707003003180130D807581CD9
:10062800162B172B362B5508C9005608CA00570831
:10063800CB005808CC000130CD004C0DCC0CCB0CB5
:10064800CA0CC90CCD0B212B4C08D8004B08D7007D
:100658004A08D6004908D5000130D9070318DA0A34
:100668000030DA075A08803AFF0080307F02031D05
:100678003F2BFF305902031C422B432B4E2B7F305C
:1006880083120313D8008030D7000030D600003022
:10069800D500832B831203135A08803AFF00803059
:1006A8007F02031D592B0130590203185C2B5D2B67
:1006B800692B003083120313D8000030D7000030B4
:1006C800D6000030D500CE01832B831203135908BE
:1006D800C9004908D400FF30D505FF30D6057F3062
:1006E800D7050030D805541C7A2B7B2B7C2BD717C9
:1006F8005408C9000310490CCA004A08D8004E081B
:10070800C9004908D8045808C4005708C300560847
:10071800C2005508C1000800831203135E0880391F
:10072800E3006308EB005E08E3006307E400640885
:10073800ED00DD1FA02BA12BA22B6D146D08031952
:10074800A62BA72BB72B6D0A031DAB2BAC2BB42BF9
:100758000030DE000030DD000030DC000030DB005F
:10076800DD17DE01BF2B0030DE000030DD00003079
:10077800DC000030DB0062088039E3006308EC002D
:100788006C086B060319C92BCA2BCB2B6B17620895
:10079800E3006307E4006408EC00E11FD42BD52BC9
:1007A800D62B6C146C080319DA2BDB2BEB2B6C0A99
:1007B800031DDF2BE02BE82B0030E2000030E100C6
:1007C8000030E0000030DF00E117E201F32B0030D9
:1007D800E2000030E1000030E0000030DF006D088A
:1007E8006C020318F82BF92B3D2C6B1FFC2BFD2BEF
:1007F800012C8030E3006308EB066D08E300630812
:10080800EE006C08E3006308ED006E08E30063087F
:10081800EC005B08E3006308EE005F08E300630890
:10082800DB006E08E3006308DF005C08E300630890
:10083800EE006008E3006308DC006E08E30063086C
:10084800E0005D08E3006308EE006108E300630868
:10085800DD006E08E3006308E1005E08E30063085A
:10086800EE006208E3006308DE006E08E300630838
:10087800E200EE016C08E300E4016408E6006D089C
:100888006302E500031CE6036608803AFF00803037
:100898007F02031D512C1A306502031C542C552C61
:1008A800922C831203135E085D045C045B04031D31
:1008B8005E2C602C0130612C0030E3006308EE00F0
:1008C8000030DE000030DD000030DC000030DB00EE
:1008D8006C08E3006308ED009A2C6E1C742C752CD0
:1008E8007E2C6E08E3000310630C0138E4006408F2
:1008F800EE00802C0310EE0C5B1C832C842C852CC2
:10090800EE170130E3005E0DDE0CDD0CDC0CDB0CB9
:10091800E30B872C0130E3006308ED078312031310
:100928006C086D02031C992C9A2C712C6B1B9D2C46
:100938009E2CE92C6D08031DA22CA32CAC2C003096
:10094800DE000030DD000030DC000030DB00172E58
:100958005F08DB07600803110318013E0319B52C73
:10096800DC07610803110318013E0319BC2CDD07DD
:10097800620803110318013E0319C32CDE075E1C2D
:10098800C62CC72C9D2D6E1CCA2CCB2CD42C6E08C3
:10099800E3000310630C0138E4006408EE00D62C71
:1009A8000310EE0C5B1CD92CDA2CDB2CEE17013073
:1009B800E3005E0DDE0CDD0CDC0CDB0CE30BDD2C48
:1009C8000130E3006308ED079D2D5E08803AFF00C3
:1009D8006208803A7F02031DFB2C61085D02031D3B
:1009E800FB2C60085C02031DFB2C5F085B020318EC
:1009F800FE2CFF2C572DFF30E300FF30E400FF30C2
:100A0800E500FF30E6005F08E7006008E8006108DD
:100A1800E9006208EA005B08E7025C08031C5C0F57
:100A2800162D172DE8025D08031C5D0F1C2D1D2DCA
:100A3800E9025E08031C5E0F222D232DEA026708D7
:100A4800E30768080318680F2A2D2B2DE4076908A7
:100A58000318690F302D312DE5076A0803186A0A53
:100A6800E6076608DE006508DD006408DC00630848
:100A7800DB008030E3006308EB06EE09EE0A6E083F
:100A8800031D472D482D652D0130DB070030031865
:100A98000130DC07003003180130DD07003003188F
:100AA8000130DE07652D5F08DB026008031C600F5C
:100AB800DC026108031C610FDD026208031C620F7F
:100AC800DE025E085D045C045B04031D6C2D6D2D65
:100AD800992D6E08031D712D722D992D0030DE00A1
:100AE8000030DD000030DC000030DB00172E013064
:100AF800E3000310DB0DDC0DDD0DDE0DE30B7D2DBA
:100B0800EE1F872D882D892D5B146E1C8C2D8D2D45
:100B1800902D0314EE0D922D0310EE0D6D080319A0
:100B2800962D972D992D0130ED02DD1F9C2D9D2DC1
:100B38007B2DEC01EE1FA12DA22DB02D6E087F3963
:100B48000319A72DA82DAB2DEC01EC0AB02D5B1CC9
:100B5800AE2DAF2DB02DA82D6C080319B42DB52DD1
:100B6800E92D0130DB07003003180130DC070030C5
:100B780003180130DD07003003180130DE075E1C62
:100B8800C62DC72DE92D5B08E3005C08E4005D086D
:100B9800E5005E08E6000130E700660DE60CE50CAE
:100BA800E40CE30CE70BD12D6608DE006508DD00D8
:100BB8006408DC006308DB006D0A0319E42DE52DE9
:100BC800E92D0130E3006308ED076D0A0319ED2DE7
:100BD800EE2DF32D6D08031DF22DF32D012E00309F
:100BE800DE000030DD000030DC000030DB006D0886
:100BF800031DFF2D002E012EEB016D1C042E052E6A
:100C0800072EDD170B2E7F30E3006308DD056D0826
:100C1800E3000310630CE4006408DE00EB1F152EEC
:100C2800162E172EDE1708008312031327088039A3
:100C3800A8002808B1002708A8002807A900290843
:100C4800B800A61F282E292E2A2E38143808031972
:100C58002E2E2F2E3F2E380A031D332E342E3C2ED7
:100C68000030A7000030A6000030A5000030A40026
:100C7800A617A701472E0030A7000030A6000030B5
:100C8800A5000030A40023088039A8002808B10670
:100C98002308A8002807A9002908B900A21F552E73
:100CA800562E572E3914390803195B2E5C2E6C2EDC
:100CB800390A031D602E612E692E0030A300003012
:100CC800A2000030A1000030A000A217A301742EDA
:100CD8000030A3000030A2000030A1000030A000C6
:100CE8002308220421042004031D7B2E7C2E952E2C
:100CF8000030A7000030A6000030A5000030A40096
:100D08008030A6047F30A7043108A8002808A7046B
:100D18002708A3002608A2002508A1002408A0008F
:100D2800F42F3808031D992E9A2EA32E0030A30005
:100D38000030A2000030A1000030A000F42F3808D5
:100D4800A800A9012908AB0039082802AA00031C39
:100D5800AB032A087F3EB2002B080318013E003E71
:100D6800B3002708B0002608AF002508AE00240805
:100D7800AD000030A7000030A6000030A50000300C
:100D8800A4000030B7000030B6000030B5000030D5
:100D9800B400B901192F39080319D32ED42EF42E13
:100DA8000130A8000310AD0DAE0DAF0DB00DA80BAE
:100DB800D62E0130A8000310A40DA50DA60DA70D71
:100DC800A80BDF2EB71FE92EEA2EEB2E24140130D4
:100DD800A8000310B40DB50DB60DB70DA80BED2E78
:100DE80023083002031D022F22082F02031D022FA1
:100DF80021082E02031D022F20082D02031C052F97
:100E0800062F152F37172008AD022108031C210FC4
:100E1800AE022208031C220FAF022308031C230F73
:100E2800B0020130A8002808B9071A303902031C9B
:100E38001E2F1F2FCF2E30082F042E042D04031928
:100E4800262F272F462F3414462F0130A8000310D1
:100E5800A40DA50DA60DA70DA80B2B2FB71F352F79
:100E6800362F372F24140130A8000310B40DB50D08
:100E7800B60DB70DA80B392FFF30B2070318B30A08
:100E8800FF30B307A61F492F4A2F292FB901B71FD3
:100E98004E2F4F2F6B2FFF303405A800FF3035053C
:100EA800A900FF303605AA007F303705AB002B08B4
:100EB8002A04290428040319622F632F662FB90115
:100EC800B90A6B2F241C692F6A2F6B2F632F3908DF
:100ED80003196F2F702FA12F0130A40700300318BA
:100EE8000130A507003003180130A60700300318A9
:100EF8000130A707271C812F822FA12F2408A800C3
:100F08002508A9002608AA002708AB000130AC0074
:100F18002B0DAB0CAA0CA90CA80CAC0B8C2F2B0816
:100F2800A7002A08A6002908A5002808A40001305F
:100F3800B2070318B30A0030B3073308803AFF003A
:100F480080307F02031DAA2FFF303202031CAD2F11
:100F5800AE2FBC2FFF3083120313B2000030B30052
:100F68000030A7000030A6000030A5000030A40023
:100F7800831203133308803AFF0080307F02031D79
:100F8800C72F013032020318CA2FCB2FD82F831254
:100F98000313B201B3010030A7000030A6000030EF
:100FA800A5000030A400B101831203133208A80081
:100FB8002808B800381CE12FE22FE42FA617E82FE5
:100FC8007F30A8002808A6053808A8000310280CB8
:100FD800A9002908A7003108A8002808A7048C2E12
:100FE800080064008001840A04060319003404061A
:020FF800F62FD2
:10100E0083120313A800A401A5012008A200A301C6
:10101E002208A6002308A700281C162817281D281A
:10102E002608A4070318A50A2708A50701300310F0
:10103E00A60DA70DFF3E031D1E280310A80C2808A1
:10104E00031D2A282B2813282508A1002408A000F8
:10105E000800063083160313850086018801C03010
:10106E008B008C160A168A15E3240A128A15003094
:10107E000A168A1551250A128A15303A031948287C
:10108E004928CF2883160313EA01EB0183160313B5
:10109E00EC01ED01831603136A0883160317E200B1
:1010AE006207B63E840083170008E300840A000836
:1010BE00E400831603136C08831603176307E60018
:1010CE006408E5000318E50A83160313EC1F722863
:1010DE0083160317E503831603176508E7006708F1
:1010EE0083120313FF00831603176608840083120E
:1010FE0003130A168A1500200A128A15831603177F
:10110E00E800680883120313A4000B30831603173C
:10111E00E900690883120313A000831603136A08FB
:10112E000A168A1505250A128A15831603136C07EB
:10113E000A168A15B7250A128A150130831603136B
:10114E00EC070318ED0A0030ED076D08803AFF003A
:10115E0080307F02031DB5280B306C02031CB828AB
:10116E00B9285128013083160313EA070318EB0A36
:10117E000030EB076B08803AFF0080307F02031DC2
:10118E00CA280D306A02031CCD28CE284D28CF2840
:10119E0083120313851CD428D528DF288518D82858
:1011AE00D928D5280A168A1536250A128A15CF2867
:1011BE00051DE228E328ED280519E628E728E3288F
:1011CE000A168A1570250A128A15CF288316031758
:1011DE00320833040319F428F528CF28B201B301DD
:1011EE000A168A110B220A128A15CF280A128A11A0
:1011FE000E2883160313D9014B0883120313B10073
:10120E00831603134A0883120313B00083160313C5
:10121E00490883120313AF00831603134808831281
:10122E000313AE000030B5000030B4000030B30040
:10123E000030B2000A168A15F9260A128A15031C06
:10124E0029292A296429003083120313A3000030B0
:10125E00A2000030A1000030A000831603134F0837
:10126E0083120313A700831603134E08831203136E
:10127E00A600831603134D0883120313A5008316CD
:10128E0003134C0883120313A4000A168A11C020FC
:10129E000A128A15031C5429552959292130F800A0
:1012AE000030F900003083160313CB000030CA0063
:1012BE000030C9000030C8003A2B831603134F08C4
:1012CE0083120313B100831603134E088312031304
:1012DE00B000831603134D0883120313AF00831659
:1012EE0003134C0883120313AE000030B500003018
:1012FE00B4000030B3000030B2000A168A15F92689
:10130E000A128A15031C8C298D2998293F308316C1
:10131E000313CB008030CA000030C9000030C80073
:10132E003A2B831603134B0883120313A300831661
:10133E0003134A0883120313A200831603134908EA
:10134E0083120313A1008316031348088312031399
:10135E00A0000030A7000030A6000030A50000302D
:10136E00A4000A168A11C0200A128A150318C02971
:10137E00C129862A831603134F0883120313B10063
:10138E00831603134E0883120313B0008316031340
:10139E004D0883120313AF00831603134C088312F8
:1013AE000313AE000A168A1144200A128A158312FC
:1013BE000313310883160313DD0083120313300861
:1013CE0083160313DC00831203132F0883160313F3
:1013DE00DB00831203132E0883160313DA005D0855
:1013EE0083120313A300831603135C0883120313E3
:1013FE00A200831603135B0883120313A100831646
:10140E0003135A0883120313A00000300A168A1120
:10141E00C1220A128A15831203132308B10022086F
:10142E00B0002108AF002008AE00831603134F084A
:10143E0083120313B500831603134E08831203138E
:10144E00B400831603134D0883120313B3008316DF
:10145E0003134C0883120313B2000A168A15F926D9
:10146E000A128A1503183C2A3D2A4C2A2130F8000C
:10147E000030F900003083160313CB000030CA0091
:10148E000030C9000030C8003A2B831603135A08E7
:10149E000139D0005008D9004B0883120313A30062
:1014AE00831603134A0883120313A2008316031331
:1014BE00490883120313A1008316031348088312ED
:1014CE000313A0000A168A15D6240A128A1583124F
:1014DE000313230883160313CB008312031322086E
:1014EE0083160313CA0083120313210883160313F2
:1014FE00C90083120313200883160313C800831632
:10150E0003134B08B7004A08B6004908B50048084F
:10151E00B4000A168A1196260A128A158316031328
:10152E003708D4003608D3003508D2003408D1006D
:10153E004F0883120313C400831603134E0883123D
:10154E000313C300831603134D0883120313C20043
:10155E00831603134C0883120313C100831603135F
:10156E00540883120313C8008316031353088312FF
:10157E000313C70083160313520883120313C60006
:10158E0083160313510883120313C5000A128A111E
:10159E002F200A128A15831203134408831603138D
:1015AE00D80083120313430883160313D700831244
:1015BE000313420883160313D60083120313410844
:1015CE0083160313D5005808BF005708BE005608EF
:1015DE00BD005508BC000A128A1589250A128A1503
:1015EE00831603133F08CB003E08CA003D08C9000E
:1015FE003C08C80059080319052B062B3A2B4B083B
:10160E0083120313A300831603134A0883120313D2
:10161E00A20083160313490883120313A100831635
:10162E000313480883120313A0000A168A15D62442
:10163E000A128A1583120313230883160313CB0091
:10164E0083120313220883160313CA008312031393
:10165E00210883160313C90083120313200883166F
:10166E000313C8003A2B080083160317DA01DB01B7
:10167E00DE01DF01E001E101FF30D000FF30D100DB
:10168E00932B83160317DC01DD01831603175C0809
:10169E00903E84005E080A168A1551250A128A1594
:1016AE0083170006031D5C2B5D2B662B0130831602
:1016BE000317DA070318DB0A0030DB076A2B8316E1
:1016CE000317DA01DB010130DE070318DF0A0030F1
:1016DE00DF070130DC070318DD0A0030DD075D0887
:1016EE00803AFF0080307F02031D7F2B08305C02A2
:1016FE00031C822B832B4C2B831603175E08033E91
:10170E00DE005F080318013E003EDF000130E007F7
:10171E000318E10A0030E1075B08803AFF008030D1
:10172E007F02031D9C2B08305A0203189F2BA02BFF
:10173E00AF2B831603175F08803AFF0080307F02BD
:10174E00031DAB2B8F305E02031CAE2BAF2B482B31
:10175E00FF3083160317E0070318E10AFF30E10795
:10176E0008305A065B04031DBD2BBE2B7C2D600872
:10177E0083120313A0008316031761088312031349
:10178E00A1000030A11BFF30A200A30001300A16F9
:10179E008A11C1220A128A15831203132308831693
:1017AE000317D50083120313220883160317D400E0
:1017BE0083120313210883160317D3008312031316
:1017CE00200883160317D200550883160313CF0083
:1017DE0083160317540883160313CE0083160317BC
:1017EE00530883160313CD0083160317520883166E
:1017FE000313CC004030CB000030CA000030C900CB
:10180E000030C8000A128A1500210A128A158316A2
:10181E0003134B0883160317D900831603134A08C4
:10182E0083160317D800831603134908831603176C
:10183E00D70083160313480883160317D6005908DA
:10184E0083120313B1008316031758088312031370
:10185E00B00083160317570883120313AF008316C5
:10186E000317560883120313AE000A168A1144207A
:10187E000A128A15831603173008831203132E05D6
:10188E0083160313E0008316031731088312031324
:10189E002F0583160313E10060086104031D582C05
:1018AE00592C7C2D0B30E000600883120313A0002E
:1018BE008316031760080A168A1505250A128A155B
:1018CE00083E0A168A1551250A128A15D03E831231
:1018DE000313A400FF3003180030A5006430A600E7
:1018EE000030A7000A168A1590250A128A1583124F
:1018FE000313250883160317D1008312031324083C
:10190E0083160317D0000B3083160313E000600814
:10191E0083120313A0008316031760080A168A1594
:10192E0005250A128A15093E0A168A1551250A122C
:10193E008A15D03E83120313A400FF300318003023
:10194E00A5000A30A6000030A7000A168A159025B9
:10195E000A128A1583120313240883160317D0075D
:10196E000318D10A83120313250883160317D10710
:10197E000B3083160313E000600883120313A000DC
:10198E008316031760080A168A1505250A128A158A
:10199E000A3E0A168A1551250A128A15D03E83165A
:1019AE000313E100FF3003180030E20061088316D4
:1019BE000317D0070318D10A831603136208831680
:1019CE000317D107600883120313A00083160317B1
:1019DE00610883120313A1000030A11BFF30A20087
:1019EE00A30001300A168A11C1220A128A15831227
:1019FE000313230883160317D5008312031322083B
:101A0E0083160317D40083120313210883160317BA
:101A1E00D30083120313200883160317D200550830
:101A2E0083160313CF00831603175408831603136C
:101A3E00CE0083160317530883160313CD008316A7
:101A4E000317520883160313CC004030CB0000302E
:101A5E00CA000030C9000030C8000A128A150021E1
:101A6E000A128A15831603134B0883160317D9001F
:101A7E00831603134A0883160317D800831603131D
:101A8E00490883160317D7008316031348088316D5
:101A9E000317D600590883120313B10083160317D8
:101AAE00580883120313B0008316031757088312C6
:101ABE000313AF0083160317560883120313AE00E9
:101ACE000A168A1144200A128A1583160317300843
:101ADE00831203132E0483160317B00031088312EA
:101AEE0003132F0483160317B1008316031751082F
:101AFE0083160313DF008316031750088316031390
:101B0E00DE000800831603133F0883120313B1008F
:101B1E00831603133E0883120313B00083160313B8
:101B2E003D0883120313AF00831603133C08831280
:101B3E000313AE000030B5000030B4000030B30027
:101B4E000030B2000A168A15F9260A128A15031CED
:101B5E00B12DB22DBD2D3F3083160313BF00803043
:101B6E00BE000030BD000030BC00FF2F4430831299
:101B7E000313A3003130A2007230A1001830A00070
:101B8E00831603133F0883120313A7008316031350
:101B9E003E0883120313A600831603133D08831217
:101BAE000313A500831603133C0883120313A4002A
:101BBE000A168A11C0200A128A150318E72DE82D7D
:101BCE00F72D2230F8000030F9007F308316031312
:101BDE00BF007F30BE00FF30BD00FF30BC00FF2FC6
:101BEE00831603133F0883120313A30083160313F4
:101BFE003E0883120313A200831603133D088312BB
:101C0E000313A100831603133C0883120313A000D1
:101C1E00C430A7003A30A6004830A5008730A40093
:101C2E000A168A11C0200A128A1503181F2E202E9A
:101C3E002F2E2230F8000030F900003083160313E7
:101C4E00BF000030BE000030BD000030BC00FF2FD2
:101C5E00831603133F0883120313A3008316031383
:101C6E003E0883120313A200831603133D0883124A
:101C7E000313A100831603133C0883120313A00061
:101C8E000030A7000030A6000030A5000030A400F0
:101C9E000A168A11C0200A128A15031C572E592EB5
:101CAE0001305A2E003083160313C0004008C700BF
:101CBE0047080319632E642E972E3F0883120313D1
:101CCE00A300831603133E0883120313A200831688
:101CDE0003133D0883120313A100831603133C085C
:101CEE0083120313A0000A168A15D6240A128A1527
:101CFE0083120313230883160313BF0083120313E7
:101D0E00220883160313BE008312031321088316C1
:101D1E000313BD0083120313200883160313BC00A4
:101D2E003F3083120313C400B830C300AA30C20080
:101D3E003B30C100831603133F0883120313C80000
:101D4E00831603133E0883120313C700831603136F
:101D5E003D0883120313C600831603133C08831237
:101D6E000313C5000A128A112F200A128A15831234
:101D7E000313440883160313BF008312031343088F
:101D8E0083160313BE008312031342088316031334
:101D9E00BD0083120313410883160313BC003F08D2
:101DAE00A3003E08A2003D08A1003C08A0000A16B0
:101DBE008A1163250A128A15831603132308C40099
:101DCE002208C3002108C2002008C1004408831263
:101DDE000313B10083160313430883120313B000D9
:101DEE0083160313420883120313AF0083160313E3
:101DFE00410883120313AE000A168A1144200A12F8
:101E0E008A15831203132F0883160313C600831239
:101E1E0003132E0883160313C500450883120313FC
:101E2E00A00083160313460883120313A10000308B
:101E3E00A11BFF30A200A30001300A168A11C12295
:101E4E000A128A1583120313230883160313A300A1
:101E5E0083120313220883160313A20083120313A3
:101E6E00210883160313A10083120313200883167F
:101E7E000313A0003F08A7003E08A6003D08A500DA
:101E8E003C08A4000A168A15A9260A128A1583167A
:101E9E0003132308BF002208BE002108BD0020083E
:101EAE00BC003F08A3003E08A2003D08A1003C086C
:101EBE00A0001C30A4009830A5000930A600003008
:101ECE00A7000A168A1145240A128A1583160313CF
:101EDE002308B7002208B6002108B5002008B40078
:101EEE004608B9004508B8000A168A117D230A1261
:101EFE008A15831603133708BF003608BE0035084F
:101F0E00BD003408BC00470803198E2F8F2FFF2FFA
:101F1E003F0883120313B100831603133E08831286
:101F2E000313B000831603133D0883120313AF008F
:101F3E00831603133C0883120313AE007F30B500E3
:101F4E007F30B400FF30B300FF30B2000A168A159E
:101F5E00F9260A128A15031CB52FB62FC12F003091
:101F6E0083160313BF000030BE000030BD000030EA
:101F7E00BC00FF2F831603133F0883120313A30025
:101F8E00831603133E0883120313A2008316031352
:101F9E003D0883120313A100831603133C0883121A
:101FAE000313A0003F30A7008030A6000030A5002C
:101FBE000030A4000A128A1118260A128A158312FA
:101FCE000313230883160313BF008312031322087F
:101FDE0083160313BE008312031321088316031303
:101FEE00BD0083120313200883160313BC00FF2FBA
:021FFE000800D9
:10201000831203132008210403190F2810283F28D6
:10202000A501A50A1E2801300310A00DA10DFF3E39
:10203000031D14280130A4002408A507A11F21288E
:102040002228132821082302031D28282008220201
:10205000031C2B282C2832282008A2022108031C4C
:10206000A303A30201300310A10CA00CFF3E031D2B
:1020700033280130A502031D3E283F2822282308CB
:10208000A1002208A0000800031083120313300DE2
:10209000310DB2003208B8003808031D502851280D
:1020A0005A280030B1000030B0000030AF000030DE
:1020B000AE00BF282E08B2002F08B3003008B400CD
:1020C0003108B5001F300310B50CB40CB30CB20CC2
:1020D000FF3E031D63283208B6003608B700B0176C
:1020E000FF30AE05FF30AF05FF30B0050030B10561
:1020F0009630B802B81F7D287E2898283808803A84
:10210000973E03188428852886285128013003101B
:10211000B10CB00CAF0CAE0CFF3E031D8728013094
:10212000B2003208B807031D962897288628AF28E2
:1021300020303802031C9D289E28AA2851280130EF
:10214000B2000310AE0DAF0DB00DB10DB20BA12852
:102150000130B8023808031DAE28AF289F28370881
:102160000319B328B428BF28AE09AF09B009B109D3
:10217000AE0A0319AF0A0319B00A0319B10A08001D
:102180000030831203132005A80000302105A900A8
:1021900080302205AA007F302305AB002B082A04DB
:1021A00029042804031DD528D628DE280030A300E2
:1021B0000030A2000030A1000030A0000030240553
:1021C000A80000302505A90080302605AA007F3030
:1021D0002705AB002B082A0429042804031DF12835
:1021E000F228FA280030A7000030A6000030A50031
:1021F0000030A400A31FFD28FE2822290030A800DB
:102200000030A9000030AA008030AB002008A802EE
:102210002108031C210F0D290E29A9022208031CE5
:10222000220F13291429AA022308031C230F19299A
:102230001A29AB022B08A3002A08A2002908A10032
:102240002808A000A71F252926294A290030A80010
:102250000030A9000030AA008030AB002408A8029A
:102260002508031C250F35293629A9022608031C39
:10227000260F3B293C29AA022708031C270F4129C6
:102280004229AB022B08A7002A08A6002908A500AE
:102290002808A4008030A3068030A7062708230260
:1022A000031D5C2926082202031D5C292508210242
:1022B000031D5C292408200203185F296029622974
:1022C00003106329031408000A3083120313A000CB
:1022D0000030A1002908A3002808A2000A168A15C8
:1022E00063260A168A110030831203132102633019
:1022F0000319200203187D297E29BF290A30A00076
:102300000030A1002908A3002808A2000A168A119B
:1023100008200A168A110A3083120313A000003025
:10232000A1002908A3002808A2000A168A1563261E
:102330000A168A11831203132108A9002008A80095
:102340000A30A0000030A1002908A3002808A2003C
:102350000A168A1108200A168A1100308312031304
:102360002102053003192002031CB729B829D229FC
:102370000130A8070318A90A0030A907D2290A309A
:10238000A0000030A1002908A3002808A2000A1616
:102390008A1563260A168A11831203132108A900DD
:1023A0002008A8000A30A0000030A1002908A300DE
:1023B0002808A2000A168A1563260A168A118312B3
:1023C00003132008123E840098300318013EFF00DA
:1023D0000A168A1500200A168A1186000A30A00003
:1023E0000030A1002908A3002808A2000A168A11BB
:1023F00008200A168A11831203132008123E840053
:1024000098300318013EFF000A168A1500200A16AC
:102410008A118800080083160313E801E901E60128
:10242000E701831603136608903E840083170008B3
:10243000D03EE300FF3003180030E4006308E807F3
:102440000318E90A6408E9070130E6070318E70AF8
:102450000030E7076708803AFF0080307F02031DE5
:10246000332A08306602031C362A372A112A0A301A
:1024700083120313A0000030A10083160313690820
:1024800083120313A3008316031368088312031334
:10249000A2000A168A1549270A168A1183160317FD
:1024A0001808D03E83160313E300FF3003180030F2
:1024B000E400831203132108831603136406031D2B
:1024C000672A831203132008831603136306031D70
:1024D0006A2A6B2AAB2A0A128A153B230A168A112A
:1024E000831603135F08E9005E08E80083160317EC
:1024F0003408831603136807E300831603173508AF
:102500000318350A831603136907E40003306402D5
:10251000E8300319630203188E2A8F2AAB2A680851
:1025200083160317B4070318B50A83160313690843
:1025300083160317B507350883120313A900831602
:102540000317340883120313A8000A168A116421A2
:102550000A168A11C02A8312031305160530831642
:102560000313E5008B30E4002A30E300E30BB62AC6
:10257000E40BB62AE50BB62A0000831203130512FA
:10258000080083120313A80028080319C82AC92ABF
:10259000DD2AA31FCC2ACD2ADD2A2009AA00210981
:1025A000AB002209AC002309AD00AA0A0319AB0A4B
:1025B0000319AC0A0319AD0AE52A2308AD00220865
:1025C000AC002108AB002008AA0023082204210443
:1025D0002004031DEC2AED2AF62A0030A300003067
:1025E000A2000030A1000030A0007C2B9630A40097
:1025F0002408A900082B0130A4002408A9070130F1
:102600000310AD0CAC0CAB0CAA0CFF3E031D002B51
:10261000FE302D05031D0D2B0E2BFB2A2A2B01301E
:10262000A4002408A9070130AA07003003180130CC
:10263000AB07003003180130AC070030031801303D
:10264000AD0701300310AD0CAC0CAB0CAA0CFF3E77
:10265000031D222BFF302D05031D2F2B302B0F2B9D
:102660003C2B0130A9020130A4000310AA0DAB0DD0
:10267000AC0DAD0DA40B352BAC1B3F2B402B462BCB
:10268000023029020318452B462B312B2918492BE0
:102690004A2B522BFF30AA05FF30AB057F30AC052B
:1026A000FF30AD050310A90C2908A400A501A6015F
:1026B000A70118300310A40DA50DA60DA70DFF3E10
:1026C000031D5A2B2408AA042508AB042608AC04D1
:1026D0002708AD04280803196E2B6F2B742BA31F3A
:1026E000722B732B742BAD172D08A3002C08A2009E
:1026F0002B08A1002A08A00008008316031337083E
:1027000083120313B10083160313360883120313D5
:10271000B00083160313350883120313AF0083162A
:102720000313340883120313AE000030B5000030E9
:10273000B4000030B3000030B2000A168A15F92642
:102740000A168A11031CA52BA62BB12B0030831669
:102750000313B7000030B6000030B5000030B400FD
:10276000442C8316031337087F39BA00BB010310CA
:10277000BA0DBB0D3A08B8070318B90A3B08B907E8
:10278000360D360D0139BA00BB013A08B8070318F7
:10279000B90A3B08B907B91FCE2BCF2BDC2B22304F
:1027A000F8000030F9000030B7000030B60000300B
:1027B000B5000030B400442C3908803AFF00813065
:1027C0007F02031DE52B00303802031CE82BE92BA8
:1027D0002C2C2230F8000030F90083160313370840
:1027E00083120313A3008316031336088312031303
:1027F000A20083160313350883120313A100831666
:102800000313340883120313A0000030A700003024
:10281000A6000030A5000030A4000A168A11C020CE
:102820000A168A110318152C162C212CFF3083163A
:102830000313B7007F30B600FF30B500FF30B4009F
:10284000442C7F3083160313B7007F30B600FF306F
:10285000B500FF30B400442C831603133908BB00C5
:102860003808BA003B0DBB0CBA0C37083A06803961
:102870003A06B70038080139BA00BA0CBA0C360863
:102880003A067F393A06B600080083160313260875
:10289000A80002300310A80DFF3E031D4A2C280893
:1028A0002407AA002508A9000318A90AA81F592C63
:1028B000A903831603132908AB002B088312031303
:1028C000FF00831603132A088400831203130A16D9
:1028D0008A1500200A168A1183160313AC0083128E
:1028E00003130A168A1500200A168A118316031389
:1028F000AD00831203130A168A1500200A168A11E6
:1029000083160313AE00831203130A168A150020E0
:102910000A168A1183160313AF002F08B3002E087E
:10292000B2002D08B1002C08B000542DFF30A607CE
:102930000318A70AFF30A7072608A80002300310D3
:10294000A80DFF3E031D9F2C28082407AA00250878
:10295000A9000318A90AA81FAE2CA9038316031304
:102960002908AB002B0883120313FF0083160313FF
:102970002A088400831203130A168A1500200A16F7
:102980008A1183160313AC00831203130A168A15E7
:1029900000200A168A1183160313AD008312031355
:1029A0000A168A1500200A168A1183160313AE0030
:1029B000831203130A168A1500200A168A11831639
:1029C0000313AF002F0883120313DE0083160313D3
:1029D0002E0883120313DD00831603132D088312C0
:1029E0000313DC00831603132C0883120313DB008C
:1029F00083160313330883120313C40083160313CF
:102A0000320883120313C3008316031331088312A1
:102A10000313C20083160313300883120313C1008B
:102A200083160313230883120313C80083160313AA
:102A3000220883120313C70083160313210883128D
:102A40000313C60083160313200883120313C50063
:102A50000A128A112F200A168A11831203134408BE
:102A6000E2004308E1004208E0004108DF000A12EA
:102A70008A1190230A168A11831203135E088316A3
:102A80000313B300831203135D0883160313B2000C
:102A9000831203135C0883160313B100831203131C
:102AA0005B0883160313B00026082704031D592D65
:102AB0005A2D962C3308A3003208A2003108A10039
:102AC0003008A000080083160313230883120313A1
:102AD000BD0083160313220883120313BC00831660
:102AE0000313210883120313BB008316031320086A
:102AF00083120313BA00A830EF006F08BE000A1655
:102B00008A15A4270A168A1183160313A91F892D73
:102B10008A2DC72D230883120313A30083160313E2
:102B2000220883120313A2008316031321088312C1
:102B30000313A10083160313200883120313A000BC
:102B40000030A7000030A6000030A5000030A4002F
:102B50000A168A11C0200A168A110318B02DB12D49
:102B6000BC2DBF3083160313A3008030A2000030B9
:102B7000A1000030A000952E003083160313A3009F
:102B80000030A2000030A1000030A000952E0030DF
:102B900029021D3003192802031CCF2DD02DD12D61
:102BA000952E230883120313B10083160313220802
:102BB00083120313B0008316031321088312031337
:102BC000AF0083160313200883120313AE000A1606
:102BD0008A1144200A168A11831203133108A300B4
:102BE0003008A2002F08A1002E08A00001300A160C
:102BF0008A11C1220A168A1183120313230883162D
:102C00000313A70083120313220883160313A600DD
:102C100083120313210883160313A50083120313E1
:102C2000200883160313A400230883120313A300B0
:102C300083160313220883120313A20083160313BF
:102C4000210883120313A1008316031320088312A3
:102C50000313A00083160313270883120313A7008E
:102C600083160313260883120313A6008316031387
:102C7000250883120313A500831603132408831267
:102C80000313A4000A168A11C0200A168A11031819
:102C90004A2E4B2E8B2EBF3083120313DE00803062
:102CA000DD000030DC000030DB0083160313270852
:102CB00083120313E20083160313260883120313FF
:102CC000E10083160313250883120313E000831623
:102CD0000313240883120313DF000A128A119023BE
:102CE0000A168A11831203135E0883160313A300C6
:102CF000831203135D0883160313A20083120313C8
:102D00005C0883160313A100831203135B08831668
:102D10000313A000952E831603132708A30026088B
:102D2000A2002508A1002408A000080083160313B0
:102D3000370883120313A300831603133608831284
:102D40000313A20083160313350883120313A10093
:102D500083160313340883120313A0000030A70066
:102D60000030A6000030A5000030A4000A168A1129
:102D7000C0200A168A110318BE2EBF2ECE2E213077
:102D8000F8000030F900003083160313B70000305C
:102D9000B6000030B5000030B400FF2F83160313D7
:102DA000370883120313B100831603133608831206
:102DB0000313B00083160313350883120313AF0007
:102DC00083160313340883120313AE000030B500DA
:102DD0000030B4000030B3000030B2000A168A158B
:102DE000F9260A168A11031CF62EF72E062F22301A
:102DF000F8000030F900003083160313B7000030EC
:102E0000B6000030B5000030B400FF2FBF30831291
:102E10000313DE008030DD000030DC000030DB001A
:102E20004030C4000030C3000030C2000030C10098
:102E3000B830EF006F08BE00831603133708831203
:102E40000313BD0083160313360883120313BC005B
:102E500083160313350883120313BB008316031371
:102E6000340883120313BA000A168A15A4270A1617
:102E70008A11831203133D08C8003C08C7003B08B1
:102E8000C6003A08C5000A128A112F200A168A11B4
:102E9000831203134408E2004308E1004208E00003
:102EA0004108DF000A128A1190230A168A11831240
:102EB00003135E0883160313B700831203135D0820
:102EC00083160313B600831203135C0883160313DF
:102ED000B500831203135B0883160313B400FF309D
:102EE000B8070318B90AFF30B9073708A300360836
:102EF000A2003508A1003408A0004430A400983096
:102F0000A5000830A6000030A7000A168A11452443
:102F10000A168A11831603132308B7002208B60085
:102F20002108B5002008B400370883120313DE001F
:102F300083160313360883120313DD00831603136D
:102F4000350883120313DC0083160313340883123D
:102F50000313DB003F30C4003130C3007230C200C5
:102F60001830C10083160313380883120313A0001E
:102F700083160313390883120313A1000030A11B29
:102F8000FF30A200A30001300A168A11C1220A16DE
:102F90008A11831203132308C8002208C7002108DE
:102FA000C6002008C5000A128A112F200A168A11AD
:102FB000831203134408E2004308E1004208E000E2
:102FC0004108DF000A128A1190230A168A1183121F
:102FD00003135E0883160313B700831203135D08FF
:102FE00083160313B600831203135C0883160313BE
:102FF000B500831203135B0883160313B4000800A3
:10300000FF1B0A2883137F1883170008840A0319FB
:10301000FF0A08007F087F398A000408840A031920
:10302000FF0A8200FC346034DA34F2346634B63499
:10303000BE34E234FE34E6340034003480343F34AD
:103040001834723431343F34F034FD3475343E3446
:103050004734583463343D34583495341D343C344B
:103060008234C434AE343A34A83478342134393418
:10307000EF34933480343734A0349234A734353469
:1030800046345634153434340034003400340034BB
:10309000C434FF347F343F348034EF34FF34BE34E3
:1030A0009034E134A9343E34EC3482347634BE3486
:1030B0008234AD342B343E340E343C34C334BD340E
:1030C0008734D13413343D3441347834D334BB3471
:1030D00030343134323430343234303430343134CA
:1030E00030343134303400343034343432343034E9
:1030F00032343034303432343034323430340034DA
:103100003034323432343034323430343034323497
:1031100030343134313400343034353432343034B6
:1031200032343034303431343034343431340034A7
:103130003034333432343034323430343034313467
:103140003034313432340034303433343234303487
:103150003234303430343234303432343334003476
:103160003034343432343034323430343034333434
:103170003034323433340034303435343234303453
:103180003234303430343134303435343334003444
:103190003034323432343034323430343034333406
:1031A0003034313435340034303431343234303426
:1031B0003234303430343234303432343534003414
:1031C00030343534323430343234303430343134D5
:1031D00030343634353400343034343432343034EE
:1031E00032343034303431343034313436340034E5
:1031F00030343234323430343234303430343134A8
:0832000030343034373400345F
:1039AC008312031323082204210420040319DF2C9F
:1039BC00E02CE22C8030A306080083160313871733
:1039CC00071326309800903083120313980016309A
:1039DC0083160313990008007E088A007F08820072
:1039EC000A168A15F2240A168A158000840A04081D
:1039FC007D0603190034FF0A0319FE0AF62C831204
:103A0C000313A300A201231C0C2D0D2D112D200836
:103A1C00A1002108A2070310A00D0310A30C23087A
:103A2C00031D192D1A2D092D22080800683498340D
:103A3C00D4349834F834983480349834C834983466
:103A4C0098349834A4349834EC34983474349834CE
:103A5C00B03498348C349834BC349834E034983482
:103A6C0083160317B401B501FA01FB013508831263
:103A7C000313A90083160317340883120313A80039
:103A8C000A168A1164210A168A150A168A1527261F
:103A9C000A168A15080083120313A100640083160A
:103AAC0003178C185A2D5D2D83120313542D83127A
:103ABC0003132108831203178D003F308312031365
:103ACC00A0002008831603178C050C14831203170F
:103ADC000C0808007B08831603173506031D782D88
:103AEC007A08340603197B2D7C2D8F2D7B08B500AD
:103AFC007A08B400350883120313A9008316031740
:103B0C00340883120313A8000A168A1164210A16BA
:103B1C008A15080083120313A801A901241C972DF0
:103B2C00982D9E2D2608A8070318A90A2708A9076F
:103B3C0001300310A60DA70DFF3E031D9F2D013074
:103B4C000310A50CA40CFF3E031DA62D2408250470
:103B5C00031DB12DB22D942D2908A5002808A40011
:103B6C00080083120313A600831603178C18BF2DAD
:103B7C00C02DBA2D831203132608831203178D0050
:103B8C00831203132408831203178C003F30831213
:103B9C000313A5002508831603178C058312031342
:103BAC0003108B1FDA2DDB2DDC2D03148B138316E6
:103BBC0003170C1555308D00AA308D008C140C1188
:103BCC0083120313031CEB2DEC2DED2D8B1708002A
:103BDC00F401F5010130F6000030F70001308316D6
:103BEC000317B2000030B300182E831203138C1E7F
:103BFC00002E012E182E0D301A06031D062E072E30
:103C0C000D2E0A301A0603190C2E0D2E162E1A081C
:103C1C00F0007408903E8400700883178000182E02
:103C2C00F601F70176087704031D1D2E1E2EFB2DC1
:103C3C0073088A0072088400710E8300FE0E7E0EDB
:103C4C00090083120313A201A3018515E930831225
:103C5C000313A1006E30A000A00B322EA10B322E4C
:103C6C00831203130516E93083120313A1006E307F
:103C7C00A000A00B3F2EA10B3F2E83120313851126
:103C8C00E93083120313A1006E30A000A00B4C2E60
:103C9C00A10B4C2E8312031305120130A20703183B
:103CAC00A30A0030A307003023020A3003192202B2
:103CBC00031C612E622E2B2E080083120313A50108
:103CCC00A6012008210403196C2E6D2EA42EA70129
:103CDC00A70A7B2E01300310A00DA10DFF3E031D82
:103CEC00712E0130A4002408A707A11F7E2E7F2E61
:103CFC00702E01300310A50DA60DFF3E031D802E66
:103D0C0021082302031D8C2E20082202031C8F2E57
:103D1C00902E972E2008A2022108031CA303A302B5
:103D2C00251401300310A10CA00CFF3E031D982E8E
:103D3C000130A702031DA32EA42E7F2E2608A1005E
:103D4C002508A0000800803083160313A30627085B
:103D5C0083120313DE008316031326088312031346
:103D6C00DD0083160313250883120313DC0083166E
:103D7C000313240883120313DB0083160313230895
:103D8C0083120313E2008316031322088312031316
:103D9C00E10083160313210883120313E00083163A
:103DAC000313200883120313DF000A128A119023D5
:103DBC000A168A15831203135E0883160313A300D5
:103DCC00831203135D0883160313A20083120313DB
:103DDC005C0883160313A100831203135B0883167C
:103DEC000313A00008000030831203132E05B60045
:103DFC0000302F05B70080303005B8007F3031051A
:103E0C00B9003908380437043604031D0E2F0F2F60
:103E1C00172F0030B1000030B0000030AF00003080
:103E2C00AE0000303205B60000303305B7008030EC
:103E3C003405B8007F303505B9003908380437042B
:103E4C003604031D2A2F2B2F332F0030B5000030E2
:103E5C00B4000030B3000030B20035083106031D49
:103E6C00412F34083006031D412F33082F06031D44
:103E7C00412F32082E060319442F452F472F0310CC
:103E8C00482F0314080083120313A601A31F4F2FFE
:103E9C00502F572FA209A309A20A0319A30AA6019E
:103EAC00A60AA11F5A2F5B2F602FA009A109A00AF7
:103EBC000319A10A200821040319652F662F952FD9
:103ECC00A501A50A742F01300310A00DA10DFF3E12
:103EDC00031D6A2F0130A4002408A507A11F772F0A
:103EEC00782F692F21082302031D7E2F2008220220
:103EFC00031C812F822F882F2008A2022108031C6B
:103F0C00A303A30201300310A10CA00CFF3E031D60
:103F1C00892F0130A502031D942F952F782F260889
:103F2C000319992F9A2F9F2FA209A309A20A0319EB
:103F3C00A30A2308A1002208A0000800831203137F
:103F4C003D08B1003C08B0003B08AF003A08AE0099
:103F5C000030B5000030B4000030B3000030B200C7
:103F6C000A168A15F9260A168A15031CBE2FBF2FAE
:103F7C00D02F831203133E08840083138001840A1C
:103F8C0080010030BD000030BC000030BB000030B0
:103F9C00BA00FF2F831203133D087F39BF00C00105
:103FAC000310BF0DC00D3E0884003F088313800032
:103FBC00840A400880003C0D3C0D0139BF00C00153
:103FCC003E0884003F088004840A400880043E08B0
:103FDC00840082308007840F00080318000AFF0059
:103FEC00FF307F07800084033D0880393F38BD00D7
:043FFC00BC130800EA
:02400E00793FF8
:00000001FF
