:020000040000FA
:060000000A128A11122809
:10000800FE00030EF1000408F2000A08F300831250
:1000180003137F08F4000A168A1117280A128A1196
:1000280015288317AA30FD001D30FE005430FF004C
:10003800903084000A128A11EF270A128A11831657
:100048000317C401C501C601C701C801C901CA0116
:10005800CB01CC01CD01CE01CF01D001D101D2011C
:10006800F901FA01FB01FC0183010A128A152C2807
:100078008312031344088039C9004908CE00440894
:10008800C9004907CA004A08D400C31F4C284D2894
:100098004E28541454080319522853286228540A25
:1000A800031D5728582860280030C4000030C300BA
:1000B8000030C2000030C100C3176A280030C400F5
:1000C8000030C3000030C2000030C1004808803949
:1000D800C9004908CE064808C9004907CA004A08A5
:1000E800D300C71F782879287A285314530803198E
:1000F8007E287F288E28530A031D832884288C286D
:100108000030C8000030C7000030C6000030C5000D
:10011800C71796280030C8000030C7000030C60056
:100128000030C500530803199A289B28A0285408B2
:10013800031D9F28A028A9280030C4000030C30050
:100148000030C2000030C1009C2B4108C90049089A
:10015800A00047080A128A1503200A128A1183127E
:1001680003132108DA002008D9005908C900CA0178
:10017800CB01CC014C08D2004B08D1004A08D00072
:100188004908CF005A08C900CA01CB01CC014C0864
:10019800D8004B08D7004A08D6004908D5004208BD
:1001A800C9004908A00046080A128A1503200A1245
:1001B8008A11831203132108DA002008D90059088C
:1001C800C900CA01CB01CC014908CF074A0803116D
:1001D8000318013E0319F128D0074B08031103182F
:1001E800013E0319F828D1074C0803110318013EF2
:1001F8000319FF28D2075A08C900CA01CB01CC014C
:100208004908D5074A0803110318013E03190D29A7
:10021800D6074B0803110318013E03191429D70701
:100228004C0803110318013E03191B29D80743087A
:10023800C9004908A00045080A128A1503200A12B5
:100248008A11831203132108DA002008D9005908FB
:10025800C900CA01CB01CC014908CF074A080311DC
:100268000318013E03193929D0074B080311031855
:10027800013E03194029D1074C0803110318013E18
:1002880003194729D2075A08C900CA01CB01CC0172
:100298004908D5074A0803110318013E03195529CF
:1002A800D6074B0803110318013E03195C29D70729
:1002B8004C0803110318013E03196329D8070830B5
:1002C800C9000310CF0DD00DD10DD20DC90B652972
:1002D8004208C9004908A00045080A128A150320E7
:1002E8000A128A11831203132108DA002008D900A0
:1002F8005908C9005A08CA00CB01CC014908CF07E0
:100308004A0803110318013E03198B29D0074B082B
:1003180003110318013E03199229D1074C08031150
:100328000318013E03199929D2074108C900490851
:10033800A00046080A128A1503200A128A1183129D
:1003480003132108DA002008D9005908C9005A08FF
:10035800CA00CB01CC014908CF074A08031103188A
:10036800013E0319B829D0074B0803110318013EB1
:100378000319BF29D1074C0803110318013E0319BB
:10038800C629D2070830C9000310CF0DD00DD10DF2
:10039800D20DC90BC8294108C9004908A000450861
:1003A8000A128A1503200A128A11831203132108DC
:1003B800DA002008D9005908C9005A08CA00CB0138
:1003C800CC014908CF074A0803110318013E031955
:1003D800EE29D0074B0803110318013E0319F5292C
:1003E800D1074C0803110318013E0319FC29D20751
:1003F8004208C9004908A00047080A128A150320C4
:100408000A128A11831203132108DA002008D9007E
:100418005908C9005A08CA00CB01CC014908D507B8
:100428004A0803110318013E03191B2AD6074B0873
:1004380003110318013E0319222AD7074C08031198
:100448000318013E0319292AD8074308C900490897
:10045800A00046080A128A1503200A128A1183127C
:1004680003132108DA002008D9005908C9005A08DE
:10047800CA00CB01CC014908D5074A080311031863
:10048800013E0319482AD6074B0803110318013EF9
:1004980003194F2AD7074C0803110318013E031903
:1004A800562AD8074308C9004908A00047080A1275
:1004B8008A1503200A128A11831203132108DA000D
:1004C8002008D9005908C9005A08CA00CB01CC0134
:1004D80008300310C90DCA0DCB0DCC0DFF3E031D0E
:1004E8006D2A4908D5074A0803110318013E031964
:1004F8007E2AD6074B0803110318013E0319852AE3
:10050800D7074C0803110318013E03198C2AD80792
:100518004F08C9005008CA005108CB005208CC0047
:1005280018300310CC0CCB0CCA0CC90CFF3E031DB1
:10053800952A4908D5074A0803110318013E0319EB
:10054800A62AD6074B0803110318013E0319AD2A42
:10055800D7074C0803110318013E0319B42AD8071A
:100568000830C9000310CF0DD00DD10DD20DC90B25
:10057800B62A54085307C900CA01CA0D4908823E61
:10058800D9004A080318013EFF3EDA00E82A013084
:10059800C9000310D50DD60DD70DD80DC90BCD2A1E
:1005A800D21FD72AD82AD92A55140130C9000310D6
:1005B800CF0DD00DD10DD20DC90BDB2AFF30D907D5
:1005C8000318DA0AFF30DA07D71FEB2AEC2ACB2AFE
:1005D800D301D21FF02AF12A0D2BFF304F05C90095
:1005E800FF305005CA00FF305105CB007F3052055F
:1005F800CC004C084B044A0449040319042B052B6E
:10060800082BD301D30A0D2B551C0B2B0C2B0D2BB0
:10061800052B53080319112B122B432B0130D50737
:10062800003003180130D607003003180130D7070F
:10063800003003180130D807581C232B242B432BD8
:100648005508C9005608CA005708CB005808CC00FE
:100658000130CD004C0DCC0CCB0CCA0CC90CCD0B09
:100668002E2B4C08D8004B08D7004A08D60049085A
:10067800D5000130D9070318DA0A0030DA075A081A
:10068800803AFF0080307F02031D4C2BFF30590257
:10069800031C4F2B502B5B2B7F3083120313D80086
:1006A8008030D7000030D6000030D500902B831260
:1006B80003135A08803AFF0080307F02031D662B1F
:1006C800013059020318692B6A2B762B00308312EC
:1006D8000313D8000030D7000030D6000030D50012
:1006E800CE01902B831203135908C9004908D4007E
:1006F800FF30D505FF30D6057F30D7050030D80547
:10070800541C872B882B892BD7175408C900031032
:10071800490CCA004A08D8004E08C9004908D8043C
:100728005808C4005708C3005608C2005508C1003D
:100738000800831203135E088039E3006308EB00A6
:100748005E08E3006307E4006408ED00DD1FAD2BDD
:10075800AE2BAF2B6D146D080319B32BB42BC42B20
:100768006D0A031DB82BB92BC12B0030DE000030F9
:10077800DD000030DC000030DB00DD17DE01CC2BB3
:100788000030DE000030DD000030DC000030DB002F
:1007980062088039E3006308EC006C086B060319F3
:1007A800D62BD72BD82B6B176208E3006307E4001E
:1007B8006408EC00E11FE12BE22BE32B6C146C08BE
:1007C8000319E72BE82BF82B6C0A031DEC2BED2BF8
:1007D800F52B0030E2000030E1000030E00000308E
:1007E800DF00E117E201002C0030E2000030E100F8
:1007F8000030E0000030DF006D086C020318052CA3
:10080800062C4A2C6B1F092C0A2C0E2C8030E30076
:100818006308EB066D08E3006308EE006C08E3006C
:100828006308ED006E08E3006308EC005B08E30072
:100838006308EE005F08E3006308DB006E08E3006E
:100848006308DF005C08E3006308EE006008E3006B
:100858006308DC006E08E3006308E0005D08E3005D
:100868006308EE006108E3006308DD006E08E3003A
:100878006308E1005E08E3006308EE006208E30035
:100888006308DE006E08E3006308E200EE016C080E
:10089800E300E4016408E6006D086302E500031C58
:1008A800E6036608803AFF0080307F02031D5E2C55
:1008B8001A306502031C612C622C9F2C83120313CF
:1008C8005E085D045C045B04031D6B2C6D2C013019
:1008D8006E2C0030E3006308EE000030DE000030CC
:1008E800DD000030DC000030DB006C08E30063084A
:1008F800ED00A72C6E1C812C822C8B2C6E08E3003B
:100908000310630C0138E4006408EE008D2C03101A
:10091800EE0C5B1C902C912C922CEE170130E3000E
:100928005E0DDE0CDD0CDC0CDB0CE30B942C0130D3
:10093800E3006308ED07831203136C086D02031CC0
:10094800A62CA72C7E2C6B1BAA2CAB2CF62C6D0886
:10095800031DAF2CB02CB92C0030DE000030DD00B8
:100968000030DC000030DB00242E5F08DB07600865
:1009780003110318013E0319C22CDC076108031197
:100988000318013E0319C92CDD0762080311031877
:10099800013E0319D02CDE075E1CD32CD42CAA2DC3
:1009A8006E1CD72CD82CE12C6E08E3000310630CC6
:1009B8000138E4006408EE00E32C0310EE0C5B1C25
:1009C800E62CE72CE82CEE170130E3005E0DDE0C78
:1009D800DD0CDC0CDB0CE30BEA2C0130E3006308D4
:1009E800ED07AA2D5E08803AFF006208803A7F0270
:1009F800031D082D61085D02031D082D60085C02B7
:100A0800031D082D5F085B0203180B2D0C2D642DA8
:100A1800FF30E300FF30E400FF30E500FF30E60080
:100A28005F08E7006008E8006108E9006208EA007A
:100A38005B08E7025C08031C5C0F232D242DE802E9
:100A48005D08031C5D0F292D2A2DE9025E08031C91
:100A58005E0F2F2D302DEA026708E3076808031898
:100A6800680F372D382DE40769080318690F3D2DE5
:100A78003E2DE5076A0803186A0AE6076608DE00DD
:100A88006508DD006408DC006308DB008030E300F3
:100A98006308EB06EE09EE0A6E08031D542D552D6A
:100AA800722D0130DB07003003180130DC070030FD
:100AB80003180130DD07003003180130DE07722DFE
:100AC8005F08DB026008031C600FDC026108031C7E
:100AD800610FDD026208031C620FDE025E085D041E
:100AE8005C045B04031D792D7A2DA62D6E08031D69
:100AF8007E2D7F2DA62D0030DE000030DD00003079
:100B0800DC000030DB00242E0130E3000310DB0D95
:100B1800DC0DDD0DDE0DE30B8A2DEE1F942D952DDA
:100B2800962D5B146E1C992D9A2D9D2D0314EE0D98
:100B38009F2D0310EE0D6D080319A32DA42DA62DCE
:100B48000130ED02DD1FA92DAA2D882DEC01EE1F25
:100B5800AE2DAF2DBD2D6E087F390319B42DB52DDF
:100B6800B82DEC01EC0ABD2D5B1CBB2DBC2DBD2D99
:100B7800B52D6C080319C12DC22DF62D0130DB07E8
:100B8800003003180130DC07003003180130DD079E
:100B9800003003180130DE075E1CD32DD42DF62D4E
:100BA8005B08E3005C08E4005D08E5005E08E60019
:100BB8000130E700660DE60CE50CE40CE30CE70BEE
:100BC800DE2D6608DE006508DD006408DC006308C9
:100BD800DB006D0A0319F12DF22DF62D0130E3002B
:100BE8006308ED076D0A0319FA2DFB2D002E6D0819
:100BF800031DFF2D002E0E2E0030DE000030DD001C
:100C08000030DC000030DB006D08031D0C2E0D2EBB
:100C18000E2EEB016D1C112E122E142EDD17182E20
:100C28007F30E3006308DD056D08E3000310630C03
:100C3800E4006408DE00EB1F222E232E242EDE178C
:100C4800080083160313370883120313A3008316BF
:100C58000313360883120313A200831603133508FF
:100C680083120313A100831603133408831203139A
:100C7800A0000030A7000030A6000030A50000301A
:100C8800A4000A168A1103210A128A1103184D2E8C
:100C98004E2E5D2E2130F9000030FA000030831608
:100CA8000313B7000030B6000030B5000030B400C0
:100CB8008E2F83160313370883120313B10083168C
:100CC8000313360883120313B00083160313350881
:100CD80083120313AF00831603133408831203131C
:100CE800AE000030B5000030B4000030B300003072
:100CF800B2000A168A1534270A128A11031C852E97
:100D0800862E952E2230F9000030FA000030831626
:100D18000313B7000030B6000030B5000030B4004F
:100D28008E2FBF3083120313DE008030DD000030C9
:100D3800DC000030DB004030C4000030C30000306D
:100D4800C2000030C100B830EF006F08BE00831643
:100D58000313370883120313BD00831603133608E1
:100D680083120313BC00831603133508831203137D
:100D7800BB0083160313340883120313BA000A1244
:100D88008A118F270A128A11831203133D08C8009B
:100D98003C08C7003B08C6003A08C5000A128A1179
:100DA8003C200A128A11831203134408E200430804
:100DB800E1004208E0004108DF000A128A119D2381
:100DC8000A128A11831203135E0883160313B700ED
:100DD800831203135D0883160313B60083120313EB
:100DE8005C0883160313B500831203135B0883168C
:100DF8000313B400FF30B8070318B90AFF30B90766
:100E08003708A3003608A2003508A1003408A0005E
:100E18004430A4009830A5000830A6000030A70090
:100E28000A168A11D2230A128A1183160313230879
:100E3800B7002208B6002108B5002008B40037081A
:100E480083120313DE008316031336088312031379
:100E5800DD0083160313350883120313DC008316A1
:100E68000313340883120313DB003F30C40031300E
:100E7800C3007230C2001830C1008316031338084B
:100E880083120313A0008316031339088312031374
:100E9800A1000030A11BFF30A200A30001300A16F8
:100EA8008A114E220A128A11831203132308C800DA
:100EB8002208C7002108C6002008C5000A128A11A6
:100EC8003C200A128A11831203134408E2004308E3
:100ED800E1004208E0004108DF000A128A119D2360
:100EE8000A128A11831203135E0883160313B700CC
:100EF800831203135D0883160313B60083120313CA
:100F08005C0883160313B500831203135B0883166A
:100F18000313B4000800831203133D08B1003C0812
:100F2800B0003B08AF003A08AE000030B500003012
:100F3800B4000030B3000030B2000A168A15342716
:100F48000A128A11031CA92FAA2FBB2F831203137D
:100F58003E08840083138001840A80010030BD00AC
:100F68000030BC000030BB000030BA00EA2F83120A
:100F780003133D087F39BF00C0010310BF0DC00D2A
:100F88003E0884003F0883138000840A40088000DC
:100F98003C0D3C0D0139BF00C0013E0884003F08EC
:100FA8008004840A400880043E0884008230800758
:100FB800840F00080318000AFF00FF307F07800035
:100FC80084033D0880393F38BD00BC1308007E0803
:100FD8008A007F0882000A128A11EB270A128A11F6
:100FE8008000840A04087D0603190034FF0A0319E7
:040FF800FE0AEF2FCF
:1010060083120313A800A401A5012008A200A301CE
:101016002208A6002308A700281C1228132819282E
:101026002608A4070318A50A2708A50701300310F8
:10103600A60DA70DFF3E031D1A280310A80C2808AD
:10104600031D262827280F282508A1002408A0000C
:101056000800063083160313850086018801C03018
:101066008B008C160A168A1545250A128A15003039
:101076000A168A1589250A128A15303A0319442850
:101086004528CB2883160313EA01EB0183160313C5
:10109600EC01ED01831603136A0883160317BC00DF
:1010A6003C07903E840083170008BD00840A0008B0
:1010B600BE00831603136C08831603173D07C00092
:1010C6003E08BF000318BF0A83160313EC1F6E28E1
:1010D60083160317BF03831603173F08C100410891
:1010E60083120313FF00831603174008840083123C
:1010F60003130A168A1500200A128A158316031787
:10110600C200420883120313A4000B308316031790
:10111600C300430883120313A000831603136A084F
:101126000A168A1100200A128A15831603136C0701
:101136000A168A15EF250A128A150130831603133B
:10114600EC070318ED0A0030ED076D08803AFF0042
:1011560080307F02031DB1280B306C02031CB428BB
:10116600B5284D28013083160313EA070318EB0A46
:101176000030EB076B08803AFF0080307F02031DCA
:10118600C6280D306A02031CC928CA284928CB285C
:1011960083120313851CD028D128DB288518D42870
:1011A600D528D1280A168A156E250A128A15CB2843
:1011B600051DDE28DF28E9280519E228E328DF28AF
:1011C6000A168A15A8250A128A15CB28831603172C
:1011D6004F0850040319F028F128CB28CF01D0017D
:1011E6000A168A116C200A128A15CB280A128A114D
:1011F600122883160313D9014B0883120313B10077
:10120600831603134A0883120313B00083160313CD
:10121600490883120313AF00831603134808831289
:101226000313AE000030B5000030B4000030B30048
:101236000030B2000A168A1534270A128A15031CD2
:10124600252926296029003083120313A3000030C4
:10125600A2000030A1000030A000831603134F083F
:1012660083120313A700831603134E088312031376
:10127600A600831603134D0883120313A5008316D5
:1012860003134C0883120313A4000A168A110321C0
:101296000A128A15031C5029512955292130F900B3
:1012A6000030FA00003083160313CB000030CA006A
:1012B6000030C9000030C800362B831603134F08D0
:1012C60083120313B100831603134E08831203130C
:1012D600B000831603134D0883120313AF00831661
:1012E60003134C0883120313AE000030B500003020
:1012F600B4000030B3000030B2000A168A15342755
:101306000A128A15031C8829892994293F308316D5
:101316000313CB008030CA000030C9000030C8007B
:10132600362B831603134B0883120313A30083166D
:1013360003134A0883120313A200831603134908F2
:1013460083120313A10083160313480883120313A1
:10135600A0000030A7000030A6000030A500003035
:10136600A4000A168A1103210A128A150318BC2939
:10137600BD29822A831603134F0883120313B10073
:10138600831603134E0883120313B0008316031348
:101396004D0883120313AF00831603134C08831200
:1013A6000313AE000A168A1584270A128A158312B9
:1013B6000313310883160313DD0083120313300869
:1013C60083160313DC00831203132F0883160313FB
:1013D600DB00831203132E0883160313DA005D085D
:1013E60083120313A300831603135C0883120313EB
:1013F600A200831603135B0883120313A10083164E
:1014060003135A0883120313A00000300A168A1128
:101416004E220A128A15831203132308B1002208EA
:10142600B0002108AF002008AE00831603134F0852
:1014360083120313B500831603134E088312031396
:10144600B400831603134D0883120313B3008316E7
:1014560003134C0883120313B2000A168A153427A5
:101466000A128A150318382A392A482A2130F9001F
:101476000030FA00003083160313CB000030CA0098
:101486000030C9000030C800362B831603135A08F3
:101496000139D0005008D9004B0883120313A3006A
:1014A600831603134A0883120313A2008316031339
:1014B600490883120313A1008316031348088312F5
:1014C6000313A0000A168A1538250A128A158312F4
:1014D6000313230883160313CB0083120313220876
:1014E60083160313CA0083120313210883160313FA
:1014F600C90083120313200883160313C80083163A
:1015060003134B08B7004A08B6004908B500480857
:10151600B4000A128A1125260A128A1583160313A5
:101526003708D4003608D3003508D2003408D10075
:101536004F0883120313C400831603134E08831245
:101546000313C300831603134D0883120313C2004B
:10155600831603134C0883120313C1008316031367
:10156600540883120313C800831603135308831207
:101576000313C70083160313520883120313C6000E
:1015860083160313510883120313C5000A128A1126
:101596003C200A128A158312031344088316031388
:1015A600D80083120313430883160313D70083124C
:1015B6000313420883160313D6008312031341084C
:1015C60083160313D5005808BF005708BE005608F7
:1015D600BD005508BC000A128A1589250A128A150B
:1015E600831603133F08CB003E08CA003D08C90016
:1015F6003C08C80059080319012B022B362B4B084F
:1016060083120313A300831603134A0883120313DA
:10161600A20083160313490883120313A10083163D
:101626000313480883120313A0000A168A153825E7
:101636000A128A1583120313230883160313CB0099
:1016460083120313220883160313CA00831203139B
:10165600210883160313C900831203132008831677
:101666000313C800362B080083160317B401B5010F
:10167600B601B701BA01BB01FF30AA00FF30AB00CB
:10168600932B83160317B801B9018316031738087D
:10169600C43E840036080A168A1589250A128A1558
:1016A60083170006031D582B592B622B0130831616
:1016B6000317B4070318B50A0030B5076A2B83165B
:1016C6000317B401B5010830B8000030B900013085
:1016D600B6070318B70A0030B7070130B807031872
:1016E600B90A0030B9073908803AFF0080307F0216
:1016F600031D7F2B08303802031C822B832B482BBB
:10170600831603173608033EB60037080318013E52
:10171600003EB7000130BA070318BB0A0030BB070A
:101726003508803AFF0080307F02031D9C2B08306D
:10173600340203189F2BA02BAF2B831603173708F1
:10174600803AFF0080307F02031DAB2B8F303602BC
:10175600031CAE2BAF2B442BFF3083160317BA079F
:101766000318BB0AFF30BB07083034063504031DD7
:10177600BD2BBE2B7C2D3A0883120313A0008316C3
:1017860003173B0883120313A1000030A11BFF308F
:10179600A200A30001300A168A114E220A128A15E7
:1017A60083120313230883160317AF008312031350
:1017B600220883160317AE0083120313210883162B
:1017C6000317AD0083120313200883160317AC001A
:1017D6002F0883160313CF00831603172E088316CC
:1017E6000313CE00831603172D0883160313CD00AB
:1017F600831603172C0883160313CC004030CB0046
:101806000030CA000030C9000030C8000A128A152C
:10181600FC200A128A15831603134B088316031736
:10182600B300831603134A0883160317B200831600
:101836000313490883160317B100831603134808D8
:1018460083160317B000330883120313B1008316FF
:101856000317320883120313B000831603173108E7
:1018660083120313AF008316031730088312031382
:10187600AE000A168A1584270A128A1583160317DC
:101886004D08831203132E0583160313E0008316F7
:1018960003174E08831203132F0583160313E10063
:1018A60060086104031D582C592C7C2D0B30E00078
:1018B600600883120313A000831603173A080A165A
:1018C6008A1100200A128A15083E0A168A158925E9
:1018D6000A128A15D03E83120313A400FF300318A0
:1018E6000030A5006430A6000030A7000A168A154D
:1018F600C8250A128A1583120313250883160317AF
:10190600AB0083120313240883160317AA000B30B7
:1019160083160313E000600883120313A0008316E6
:1019260003173A080A168A1100200A128A15093E78
:101936000A168A1589250A128A15D03E83120313C0
:10194600A400FF3003180030A5000A30A6000030BE
:10195600A7000A168A15C8250A128A1583120313C8
:10196600240883160317AA070318AB0A8312031366
:10197600250883160317AB070B3083160313E00005
:10198600600883120313A000831603173A080A1689
:101996008A1100200A128A150A3E0A168A15892516
:1019A6000A128A15D03E83160313E100FF3003188E
:1019B6000030E200610883160317AA070318AB0A72
:1019C60083160313620883160317AB073A088312BC
:1019D6000313A000831603173B0883120313A10009
:1019E6000030A11BFF30A200A30001300A168A11A5
:1019F6004E220A128A15831203132308831603172D
:101A0600AF0083120313220883160317AE00831256
:101A16000313210883160317AD008312031320084E
:101A260083160317AC002F0883160313CF00831603
:101A360003172E0883160313CE00831603172D08EB
:101A460083160313CD00831603172C08831603137E
:101A5600CC004030CB000030CA000030C900003056
:101A6600C8000A128A15FC200A128A158316031367
:101A76004B0883160317B300831603134A0883160D
:101A86000317B20083160313490883160317B10020
:101A960083160313480883160317B000330883120E
:101AA6000313B10083160317320883120313B00021
:101AB60083160317310883120313AF008316031727
:101AC600300883120313AE000A168A1584270A12F9
:101AD6008A15831603174D08831203132E048316E3
:101AE6000317CD004E08831203132F048316031722
:101AF600CE00831603172B0883160313DF00831605
:101B060003172A0883160313DE000800831603133F
:101B16003F0883120313B100831603133E08831292
:101B26000313B000831603133D0883120313AF009B
:101B3600831603133C0883120313AE000030B5006E
:101B46000030B4000030B3000030B2000A168A1527
:101B560034270A128A15031CB12DB22DBD2D3F3034
:101B660083160313BF008030BE000030BD00003076
:101B7600BC00FF2F443083120313A3003130A200B0
:101B86007230A1001830A000831603133F08831299
:101B96000313A700831603133E0883120313A6003C
:101BA600831603133D0883120313A500831603133C
:101BB6003C0883120313A4000A168A1103210A1291
:101BC6008A150318E72DE82DF72D2230F90000308D
:101BD600FA007F3083160313BF007F30BE00FF304C
:101BE600BD00FF30BC00FF2F831603133F0883128E
:101BF6000313A300831603133E0883120313A200E4
:101C0600831603133D0883120313A10083160313DF
:101C16003C0883120313A000C430A7003A30A60084
:101C26004830A5008730A4000A168A1103210A123B
:101C36008A1503181F2E202E2F2E2230F900003071
:101C4600FA00003083160313BF000030BE000030D8
:101C5600BD000030BC00FF2F831603133F0883121C
:101C66000313A300831603133E0883120313A20073
:101C7600831603133D0883120313A100831603136F
:101C86003C0883120313A0000030A7000030A60012
:101C96000030A5000030A4000A168A1103210A129A
:101CA6008A15031C572E592E01305A2E00308316E2
:101CB6000313C0004008C70047080319632E642EAB
:101CC600972E3F0883120313A300831603133E08BF
:101CD60083120313A200831603133D088312031312
:101CE600A100831603133C0883120313A0000A16EF
:101CF6008A1538250A128A158312031323088316B8
:101D06000313BF0083120313220883160313BE00B6
:101D160083120313210883160313BD0083120313D2
:101D2600200883160313BC003F3083120313C4003C
:101D3600B830C300AA30C2003B30C100831603137B
:101D46003F0883120313C800831603133E08831249
:101D56000313C700831603133D0883120313C6003B
:101D6600831603133C0883120313C5000A128A1153
:101D76003C200A128A1583120313440883160313A0
:101D8600BF0083120313430883160313BE00831296
:101D96000313420883160313BD008312031341087D
:101DA60083160313BC003F08A3003E08A2003D08AB
:101DB600A1003C08A0000A168A11F0240A128A150E
:101DC600831603132308C4002208C3002108C20097
:101DD6002008C100440883120313B10083160313BD
:101DE600430883120313B0008316031342088312B9
:101DF6000313AF0083160313410883120313AE00C7
:101E06000A168A1584270A128A15831203132F08C5
:101E160083160313C600831203132E0883160313B7
:101E2600C500450883120313A00083160313460852
:101E360083120313A1000030A11BFF30A200A300F0
:101E460001300A168A114E220A128A1583120313CA
:101E5600230883160313A300831203132208831691
:101E66000313A20083120313210883160313A10090
:101E760083120313200883160313A0003F08A7004C
:101E86003E08A6003D08A5003C08A4000A168A15CF
:101E9600E4260A128A15831603132308BF002208B4
:101EA600BE002108BD002008BC003F08A3003E0874
:101EB600A2003D08A1003C08A0001C30A4009830F8
:101EC600A5000930A6000030A7000A168A11D22301
:101ED6000A128A15831603132308B7002208B600D0
:101EE6002108B5002008B4004608B9004508B80026
:101EF6000A168A110A230A128A158316031337084B
:101F0600BF003608BE003508BD003408BC004708CF
:101F160003198E2F8F2FFF2F3F0883120313B10053
:101F2600831603133E0883120313B00083160313AC
:101F36003D0883120313AF00831603133C08831274
:101F46000313AE007F30B5007F30B400FF30B3001E
:101F5600FF30B2000A168A1534270A128A15031CA6
:101F6600B52FB62FC12F003083160313BF000030E4
:101F7600BE000030BD000030BC00FF2F83160313E7
:101F86003F0883120313A300831603133E0883122C
:101F96000313A200831603133D0883120313A10043
:101FA600831603133C0883120313A0003F30A700D7
:101FB6008030A6000030A5000030A4000A168A1161
:101FC60023260A128A158312031323088316031382
:101FD600BF0083120313220883160313BE00831265
:101FE6000313210883160313BD008312031320086D
:101FF60083160313BC00FF2F080083120313A300EC
:10200600A201231C072808280C282008A100210863
:10201600A2070310A00D0310A30C2308031D142808
:102026001528042822080800F701F8010130F500F8
:102036000030F600013083160317CF000030D000C1
:102046005928831203138C1E29282A2859280D3053
:102056001A06031D2F28302836280A301A060319B7
:102066003528362854287808803AFF0080307F02C9
:10207600031D3F28093077020318422843285428B5
:10208600831203131A08F0007708C43E8400700810
:10209600831780000130F7070318F80A0030F807A5
:1020A6005928F501F601831203138C12750876047C
:1020B600031D5E285F282428740883120313FF007B
:1020C60073088A0072088400710E8300FE0E7E0E6D
:1020D600090083160313E801E901E601E701831607
:1020E60003136608C43E840083170008D03EE3004D
:1020F600FF3003180030E4006308E8070318E90A14
:102106006408E9070130E6070318E70A0030E70725
:102116006708803AFF0080307F02031D942808304C
:102126006602031C972898287228831603174C0802
:10213600D03E83160313E300FF3003180030E4009B
:1021460069086406031DA92868086306031DAC28F0
:10215600AD28ED280A128A1537230A168A11831626
:1021660003135F08E9005E08E800831603175108A9
:10217600831603136807E300831603175208031830
:10218600520A831603136907E40003306402E83039
:10219600031963020318D028D128ED28680883168E
:1021A6000317D1070318D20A831603136908831687
:1021B6000317D207520883120313A90083160317C5
:1021C600510883120313A8000A168A11A7210A16BA
:1021D6008A11022983120313051605308316031389
:1021E600E5008B30E4002A30E300E30BF828E40B2B
:1021F600F828E50BF82800008312031305120800DF
:102206000030831203132005A80000302105A90021
:1022160080302205AA007F302305AB002B082A0454
:1022260029042804031D1829192921290030A3008F
:102236000030A2000030A1000030A00000302405CC
:10224600A80000302505A90080302605AA007F30A9
:102256002705AB002B082A0429042804031D34296A
:1022660035293D290030A7000030A6000030A50022
:102276000030A400A31F4029412965290030A80089
:102286000030A9000030AA008030AB002008A80268
:102296002108031C210F50295129A9022208031CD9
:1022A600220F56295729AA022308031C230F5C294B
:1022B6005D29AB022B08A3002A08A2002908A10069
:1022C6002808A000A71F682969298D290030A800C1
:1022D6000030A9000030AA008030AB002408A80214
:1022E6002508031C250F78297929A9022608031C2D
:1022F600260F7E297F29AA022708031C270F842977
:102306008529AB022B08A7002A08A6002908A500E4
:102316002808A4008030A3068030A70627082302D9
:10232600031D9F2926082202031D9F292508210235
:10233600031D9F29240820020318A229A329A529E1
:102346000310A629031408000A3083120313A00001
:102356000030A1002908A3002808A2000A168A1541
:102366009E260A168A110030831203132102633057
:10237600031920020318C029C129022A0A30A00025
:102386000030A1002908A3002808A2000A168A1511
:1023960062260A168A110A3083120313A00000303F
:1023A600A1002908A3002808A2000A168A159E265D
:1023B6000A168A11831203132108A9002008A8000F
:1023C6000A30A0000030A1002908A3002808A200B6
:1023D6000A168A1562260A168A110030831203131A
:1023E6002102053003192002031CFA29FB29152AAC
:1023F6000130A8070318A90A0030A907152A0A30D0
:10240600A0000030A1002908A3002808A2000A168F
:102416008A159E260A168A11831203132108A9001B
:102426002008A8000A30A0000030A1002908A30057
:102436002808A2000A168A159E260A168A118312F1
:1024460003132008123E840098300318013EFF0053
:102456000A168A1500200A168A1186000A30A0007C
:102466000030A1002908A3002808A2000A168A1530
:1024760062260A168A11831203132008123E84006C
:1024860098300318013EFF000A168A1500200A1626
:102496008A118800080083120313A800280803196C
:1024A600552A562A6A2AA31F592A5A2A6A2A20090D
:1024B600AA002109AB002209AC002309AD00AA0A33
:1024C6000319AB0A0319AC0A0319AD0A722A2308C9
:1024D600AD002208AC002108AB002008AA002308A2
:1024E600220421042004031D792A7A2A832A003033
:1024F600A3000030A2000030A1000030A000092B8C
:102506009630A4002408A900952A0130A4002408C6
:10251600A90701300310AD0CAC0CAB0CAA0CFF3EA6
:10252600031D8D2AFE302D05031D9A2A9B2A882A13
:10253600B72A0130A4002408A9070130AA070030F1
:1025460003180130AB07003003180130AC07003028
:1025560003180130AD0701300310AD0CAC0CAB0C09
:10256600AA0CFF3E031DAF2AFF302D05031DBC2A12
:10257600BD2A9C2AC92A0130A9020130A4000310F1
:10258600AA0DAB0DAC0DAD0DA40BC22AAC1BCC2A0B
:10259600CD2AD32A023029020318D22AD32ABE2AE8
:1025A6002918D62AD72ADF2AFF30AA05FF30AB051D
:1025B6007F30AC05FF30AD050310A90C2908A40037
:1025C600A501A601A70118300310A40DA50DA60D9F
:1025D600A70DFF3E031DE72A2408AA042508AB041D
:1025E6002608AC042708AD0428080319FB2AFC2A90
:1025F600012BA31FFF2A002B012BAD172D08A300CB
:102606002C08A2002B08A1002A08A00008008316A7
:102616000313370883120313B10083160313360816
:1026260083120313B00083160313350883120313B2
:10263600AF0083160313340883120313AE00003071
:10264600B5000030B4000030B3000030B2000A1606
:102656008A1534270A168A11031C322B332B3E2B7C
:10266600003083160313B7000030B6000030B50003
:102676000030B400D12B8316031337087F39BA0014
:10268600BB010310BA0DBB0D3A08B8070318B90A07
:102696003B08B907360D360D0139BA00BB013A08B9
:1026A600B8070318B90A3B08B907B91F5B2B5C2B9F
:1026B600692B2230F9000030FA000030B7000030F4
:1026C600B6000030B5000030B400D12B3908803A8E
:1026D600FF0081307F02031D722B00303802031C7D
:1026E600752B762BB92B2230F9000030FA008316B1
:1026F6000313370883120313A30083160313360844
:1027060083120313A20083160313350883120313DF
:10271600A10083160313340883120313A0000030AC
:10272600A7000030A6000030A5000030A4000A165D
:102736008A1103210A168A110318A22BA32BAE2B8A
:10274600FF3083160313B7007F30B600FF30B500A5
:10275600FF30B400D12B7F3083160313B7007F30D0
:10276600B600FF30B500FF30B400D12B831603133B
:102776003908BB003808BA003B0DBB0CBA0C370849
:102786003A0680393A06B70038080139BA00BA0C59
:10279600BA0C36083A067F393A06B60008008316A0
:1027A60003132608A80002300310A80DFF3E031DE0
:1027B600D72B28082407AA002508A9000318A90A68
:1027C600A81FE62BA903831603132908AB002B08C1
:1027D60083120313FF00831603132A08840083124F
:1027E60003130A168A1500200A168A118316031384
:1027F600AC00831203130A168A1500200A168A11E2
:1028060083160313AD00831203130A168A150020DC
:102816000A168A1183160313AE00831203130A16CF
:102826008A1500200A168A1183160313AF002F0893
:10283600B3002E08B2002D08B1002C08B000E12C20
:10284600FF30A6070318A70AFF30A7072608A80027
:1028560002300310A80DFF3E031D2C2C2808240768
:10286600AA002508A9000318A90AA81F3B2CA9033A
:10287600831603132908AB002B0883120313FF00EA
:10288600831603132A088400831203130A168A1573
:1028960000200A168A1183160313AC008312031351
:1028A6000A168A1500200A168A1183160313AD002C
:1028B600831203130A168A1500200A168A11831634
:1028C6000313AE00831203130A168A1500200A1694
:1028D6008A1183160313AF002F0883120313DE0039
:1028E600831603132E0883120313DD0083160313C6
:1028F6002D0883120313DC00831603132C0883129E
:102906000313DB0083160313330883120313C40077
:1029160083160313320883120313C30083160313AB
:10292600310883120313C20083160313300883127F
:102936000313C10083160313230883120313C8006D
:1029460083160313220883120313C7008316031387
:10295600210883120313C60083160313200883126B
:102966000313C5000A128A113C200A168A11831223
:1029760003134408E2004308E1004208E00041086E
:10298600DF000A128A119D230A168A118312031385
:102996005E0883160313B300831203135D088316C0
:1029A6000313B200831203135C0883160313B100EA
:1029B600831203135B0883160313B000260827044B
:1029C600031DE62CE72C232C3308A3003208A200B3
:1029D6003108A1003008A00008008316031323085D
:1029E60083120313BD0083160313220883120313F5
:1029F600BC0083160313210883120313BB0083163E
:102A06000313200883120313BA00A830EF006F08DF
:102A1600BE000A128A118F270A168A11831603131B
:102A2600A91F162D172D542D230883120313A30057
:102A360083160313220883120313A20083160313BB
:102A4600210883120313A10083160313200883129F
:102A56000313A0000030A7000030A6000030A50038
:102A66000030A4000A168A1103210A168A110318D7
:102A76003D2D3E2D492DBF3083160313A300803014
:102A8600A2000030A1000030A000222E00308316E4
:102A96000313A3000030A2000030A1000030A00004
:102AA600222E003029021D3003192802031C5C2D3A
:102AB6005D2D5E2D222E230883120313B10083168B
:102AC6000313220883120313B0008316031321088D
:102AD60083120313AF008316031320088312031314
:102AE600AE000A168A1584270A168A118312031362
:102AF6003108A3003008A2002F08A1002E08A0006C
:102B060001300A168A114E220A168A1183120313FD
:102B1600230883160313A7008312031322088316C0
:102B26000313A60083120313210883160313A500BB
:102B360083120313200883160313A40023088312A9
:102B46000313A30083160313220883120313A200A0
:102B560083160313210883120313A100831603139C
:102B6600200883120313A000831603132708831279
:102B76000313A70083160313260883120313A60064
:102B860083160313250883120313A5008316031364
:102B9600240883120313A4000A168A1103210A16B5
:102BA6008A110318D72DD82D182EBF308312031380
:102BB600DE008030DD000030DC000030DB008316F4
:102BC6000313270883120313E20083160313260850
:102BD60083120313E10083160313250883120313DC
:102BE600E00083160313240883120313DF000A127E
:102BF6008A119D230A168A11831203135E0883160F
:102C06000313A300831203135D0883160313A200A4
:102C1600831203135C0883160313A10083120313A4
:102C26005B0883160313A000222E831603132708BE
:102C3600A3002608A2002508A1002408A000080079
:102C46008312031327088039A8002808B100270833
:102C5600A8002807A9002908B800A61F332E342E7D
:102C6600352E381438080319392E3A2E4A2E380ACA
:102C7600031D3E2E3F2E472E0030A7000030A60033
:102C86000030A5000030A400A617A701522E003080
:102C9600A7000030A6000030A5000030A4002308DD
:102CA6008039A8002808B1062308A8002807A9002B
:102CB6002908B900A21F602E612E622E3914390828
:102CC6000319662E672E772E390A031D6B2E6C2E7E
:102CD600742E0030A3000030A2000030A1000030A6
:102CE600A000A217A3017F2E0030A3000030A2008F
:102CF6000030A1000030A000230822042104200493
:102D0600031D862E872EA02E0030A7000030A600B9
:102D16000030A5000030A4008030A6047F30A70450
:102D26003108A8002808A7042708A3002608A2003F
:102D36002508A1002408A000FF2F3808031DA42E93
:102D4600A52EAE2E0030A3000030A2000030A10058
:102D56000030A000FF2F3808A800A9012908AB0001
:102D660039082802AA00031CAB032A087F3EB200DA
:102D76002B080318013E003EB3002708B0002608C2
:102D8600AF002508AE002408AD000030A7000030D3
:102D9600A6000030A5000030A4000030B7000030C7
:102DA600B6000030B5000030B400B901242F390850
:102DB6000319DE2EDF2EFF2E0130A8000310AD0D05
:102DC600AE0DAF0DB00DA80BE12E0130A80003101B
:102DD600A40DA50DA60DA70DA80BEA2EB71FF42E60
:102DE600F52EF62E24140130A8000310B40DB50DEF
:102DF600B60DB70DA80BF82E23083002031D0D2FB4
:102E060022082F02031D0D2F21082E02031D0D2F50
:102E160020082D02031C102F112F202F37172008F2
:102E2600AD022108031C210FAE022208031C220F4B
:102E3600AF022308031C230FB0020130A8002808A4
:102E4600B9071A303902031C292F2A2FDA2E300827
:102E56002F042E042D040319312F322F512F341431
:102E6600512F0130A8000310A40DA50DA60DA70D26
:102E7600A80B362FB71F402F412F422F24140130A5
:102E8600A8000310B40DB50DB60DB70DA80B442F51
:102E9600FF30B2070318B30AFF30B307A61F542F3B
:102EA600552F342FB901B71F592F5A2F762FFF30C0
:102EB6003405A800FF303505A900FF303605AA0005
:102EC6007F303705AB002B082A0429042804031990
:102ED6006D2F6E2F712FB901B90A762F241C742F0E
:102EE600752F762F6E2F390803197A2F7B2FAC2F6B
:102EF6000130A407003003180130A507003003187D
:102F06000130A607003003180130A707271C8C2FB5
:102F16008D2FAC2F2408A8002508A9002608AA0092
:102F26002708AB000130AC002B0DAB0CAA0CA90C8A
:102F3600A80CAC0B972F2B08A7002A08A600290877
:102F4600A5002808A4000130B2070318B30A003010
:102F5600B3073308803AFF0080307F02031DB52F88
:102F6600FF303202031CB82FB92FC72FFF30831250
:102F76000313B2000030B3000030A7000030A600F3
:102F86000030A5000030A400831203133308803AF2
:102F9600FF0080307F02031DD22F0130320203185A
:102FA600D52FD62FE32F83120313B201B3010030BE
:102FB600A7000030A6000030A5000030A400B10133
:102FC600831203133208A8002808B800381CEC2F17
:102FD600ED2FEF2FA617F32F7F30A8002808A605A0
:102FE6003808A8000310280CA9002908A7003108F2
:102FF600A8002808A704972E0800FF1B0A28831399
:103006007F1883170008840A0319FF0A08007F083F
:103016007F398A000408840A0319FF0A8200FC34F7
:103026006034DA34F2346634B634BE34E234FE3414
:10303600E6340034003480343F341834723431348A
:103046003F34F034FD3475343E34473458346334F9
:103056003D34583495341D343C348234C434AE3453
:103066003A34A834783421343934EF349334803404
:103076003734A0349234A7343534463456341534B4
:1030860034340034003400340034C434FF347F3424
:103096003F348034EF34FF34BE349034E134A93405
:1030A6003E34EC3482347634BE348234AD342B3440
:1030B6003E340E343C34C334BD348734D1341334F7
:1030C6003D3441347834D334BB3430343134323443
:1030D60030343234303430343134303431343034C6
:1030E60000343034343432343034323430343034E2
:1030F60032343034323430340034303432343234D2
:103106003034323430343034323430343134313493
:1031160000343034353432343034323430343034B0
:10312600313430343434313400343034333432349E
:103136003034323430343034313430343134323463
:103146000034303433343234303432343034303482
:10315600323430343234333400343034343432346C
:10316600303432343034303433343034323433342F
:103176000034303435343234303432343034303450
:10318600313430343534333400343034323432343C
:1031960030343234303430343334303431343534FE
:1031A6000034303431343234303432343034303424
:1031B6003234303432343534003430343534323409
:1031C60030343234303430343134303436343534CB
:1031D60000343034343432343034323430343034F1
:1031E60031343034313436340034303432343234DD
:1031F600303432343034303431343034303437349F
:02320600003492
:103A70008312031323082204210420040319412D77
:103A8000422D442D8030A3060800831603138717A8
:103A900007132630980090308312031398001630D5
:103AA000831603139900080068349834D43498348A
:103AB000F834983480349834C8349834983498342E
:103AC000A4349834EC34983474349834B034983442
:103AD0008C349834BC349834E0349834831603170B
:103AE000D101D201FB01FC01520883120313A9008A
:103AF00083160317510883120313A8000A168A11AC
:103B0000A7210A168A150A168A1526260A168A1564
:103B1000080083120313A1006400831603178C1896
:103B2000922D952D831203138C2D831203132108DC
:103B3000831203178D003F3083120313A000200867
:103B4000831603178C050C14831203170C08080046
:103B50007C08831603175206031DB02D7B085106FF
:103B60000319B32DB42DC72D7C08D2007B08D100DA
:103B7000520883120313A9008316031751088312F6
:103B80000313A8000A168A11A7210A168A1508002D
:103B900083120313A801A901241CCF2DD02DD62DEB
:103BA0002608A8070318A90A2708A9070130031047
:103BB000A60DA70DFF3E031DD72D01300310A50C48
:103BC000A40CFF3E031DDE2D24082504031DE92D52
:103BD000EA2DCC2D2908A5002808A400080083128E
:103BE0000313A600831603178C18F72DF82DF22D5A
:103BF000831203132608831203178D008312031305
:103C00002408831203178C003F3083120313A5008E
:103C10002508831603178C058312031303108B1FCB
:103C2000122E132E142E03148B13831603170C1548
:103C300055308D00AA308D008C140C1183120313A3
:103C4000031C232E242E252E8B170800831203130A
:103C5000A201A3018515E93083120313A1006E3080
:103C6000A000A00B312EA10B312E831203130516D9
:103C7000E93083120313A1006E30A000A00B3E2E8A
:103C8000A10B3E2E831203138511E9308312031317
:103C9000A1006E30A000A00B4B2EA10B4B2E831267
:103CA000031305120130A2070318A30A0030A3076B
:103CB000003023020A3003192202031C602E612EF9
:103CC0002A2E080083120313200821040319692EE9
:103CD0006A2E992EA501A50A782E01300310A00D99
:103CE000A10DFF3E031D6E2E0130A4002408A50780
:103CF000A11F7B2E7C2E6D2E21082302031D822EF8
:103D000020082202031C852E862E8C2E2008A2025B
:103D10002108031CA303A30201300310A10CA00C73
:103D2000FF3E031D8D2E0130A502031D982E992EF6
:103D30007C2E2308A1002208A00008008312031390
:103D4000A501A601200821040319A72EA82EDF2E05
:103D5000A701A70AB62E01300310A00DA10DFF3E4A
:103D6000031DAC2E0130A4002408A707A11FB92E03
:103D7000BA2EAB2E01300310A50DA60DFF3E031D7C
:103D8000BB2E21082302031DC72E20082202031C7C
:103D9000CA2ECB2ED22E2008A2022108031CA30378
:103DA000A302251401300310A10CA00CFF3E031D3B
:103DB000D32E0130A702031DDE2EDF2EBA2E2608D9
:103DC000A1002508A0000800803083160313A30675
:103DD000270883120313DE008316031326088312B9
:103DE0000313DD0083160313250883120313DC007D
:103DF00083160313240883120313DB0083160313B3
:103E0000230883120313E20083160313220883128C
:103E10000313E10083160313210883120313E00048
:103E200083160313200883120313DF000A128A117A
:103E30009D230A168A15831203135E088316031343
:103E4000A300831203135D0883160313A2008312D9
:103E500003135C0883160313A100831203135B088A
:103E600083160313A00008000030831203132E05ED
:103E7000B60000302F05B70080303005B8007F3025
:103E80003105B9003908380437043604031D492FB9
:103E90004A2F522F0030B1000030B0000030AF0088
:103EA0000030AE0000303205B60000303305B700F8
:103EB00080303405B8007F303505B9003908380442
:103EC00037043604031D652F662F6E2F0030B500B2
:103ED0000030B4000030B3000030B20035083106C5
:103EE000031D7C2F34083006031D7C2F33082F065A
:103EF000031D7C2F32082E0603197F2F802F822F5F
:103F00000310832F03140800031083120313300DD2
:103F1000310DB2003208B8003808031D902F912FE0
:103F20009A2F0030B1000030B0000030AF000030F8
:103F3000AE00FF2F2E08B2002F08B3003008B400E7
:103F40003108B5001F300310B50CB40CB30CB20C23
:103F5000FF3E031DA32F3208B6003608B700B01786
:103F6000FF30AE05FF30AF05FF30B0050030B105C2
:103F70009630B802B81FBD2FBE2FD82F3808803A10
:103F8000973E0318C42FC52FC62F912F0130031061
:103F9000B10CB00CAF0CAE0CFF3E031DC72F0130AF
:103FA000B2003208B807031DD62FD72FC62FEF2F28
:103FB00020303802031CDD2FDE2FEA2F912F013035
:103FC000B2000310AE0DAF0DB00DB10DB20BE12F6D
:103FD0000130B8023808031DEE2FEF2FDF2F37080E
:103FE0000319F32FF42FFF2FAE09AF09B009B10960
:103FF000AE0A0319AF0A0319B00A0319B10A08007F
:02400E00793FF8
:00000001FF
